{
	"mappingstructure/MappingStructure.sol": {
		"MappingStructureContract": {
			"abi": [
				{
					"inputs": [
						{
							"internalType": "address",
							"name": "",
							"type": "address"
						}
					],
					"name": "balanceReceived",
					"outputs": [
						{
							"internalType": "uint256",
							"name": "",
							"type": "uint256"
						}
					],
					"stateMutability": "view",
					"type": "function"
				},
				{
					"inputs": [
						{
							"internalType": "uint256",
							"name": "",
							"type": "uint256"
						}
					],
					"name": "contractBalance",
					"outputs": [
						{
							"internalType": "uint256",
							"name": "totalBalance",
							"type": "uint256"
						},
						{
							"internalType": "uint256",
							"name": "numberOfPayments",
							"type": "uint256"
						}
					],
					"stateMutability": "view",
					"type": "function"
				},
				{
					"inputs": [],
					"name": "getBalance",
					"outputs": [
						{
							"internalType": "uint256",
							"name": "",
							"type": "uint256"
						}
					],
					"stateMutability": "view",
					"type": "function"
				},
				{
					"inputs": [],
					"name": "sendMoney",
					"outputs": [],
					"stateMutability": "payable",
					"type": "function"
				},
				{
					"inputs": [
						{
							"internalType": "address payable",
							"name": "_to",
							"type": "address"
						}
					],
					"name": "withdrawAllMoney",
					"outputs": [],
					"stateMutability": "nonpayable",
					"type": "function"
				},
				{
					"inputs": [
						{
							"internalType": "address payable",
							"name": "_to",
							"type": "address"
						},
						{
							"internalType": "uint256",
							"name": "_requestedAmount",
							"type": "uint256"
						}
					],
					"name": "withdrawMoney",
					"outputs": [],
					"stateMutability": "nonpayable",
					"type": "function"
				}
			],
			"devdoc": {
				"kind": "dev",
				"methods": {},
				"version": 1
			},
			"evm": {
				"assembly": "    /* \"mappingstructure/MappingStructure.sol\":92:1382  contract MappingStructureContract {\r... */\n  mstore(0x40, 0x80)\n  callvalue\n  dup1\n  iszero\n  tag_1\n  jumpi\n  0x00\n  dup1\n  revert\ntag_1:\n  pop\n  dataSize(sub_0)\n  dup1\n  dataOffset(sub_0)\n  0x00\n  codecopy\n  0x00\n  return\nstop\n\nsub_0: assembly {\n        /* \"mappingstructure/MappingStructure.sol\":92:1382  contract MappingStructureContract {\r... */\n      mstore(0x40, 0x80)\n      jumpi(tag_1, lt(calldatasize, 0x04))\n      shr(0xe0, calldataload(0x00))\n      dup1\n      0x0adec93c\n      eq\n      tag_2\n      jumpi\n      dup1\n      0x12065fe0\n      eq\n      tag_3\n      jumpi\n      dup1\n      0xcbedbf5a\n      eq\n      tag_4\n      jumpi\n      dup1\n      0xd18a42e1\n      eq\n      tag_5\n      jumpi\n      dup1\n      0xf17715ef\n      eq\n      tag_6\n      jumpi\n      dup1\n      0xf274c897\n      eq\n      tag_7\n      jumpi\n    tag_1:\n      0x00\n      dup1\n      revert\n        /* \"mappingstructure/MappingStructure.sol\":730:933  function withdrawAllMoney(address payable _to) public {\r... */\n    tag_2:\n      callvalue\n      dup1\n      iszero\n      tag_8\n      jumpi\n      0x00\n      dup1\n      revert\n    tag_8:\n      pop\n      tag_9\n      0x04\n      dup1\n      calldatasize\n      sub\n      dup2\n      add\n      swap1\n      tag_10\n      swap2\n      swap1\n      tag_11\n      jump\t// in\n    tag_10:\n      tag_12\n      jump\t// in\n    tag_9:\n      stop\n        /* \"mappingstructure/MappingStructure.sol\":524:619  function getBalance() public view returns(uint) {\r... */\n    tag_3:\n      callvalue\n      dup1\n      iszero\n      tag_13\n      jumpi\n      0x00\n      dup1\n      revert\n    tag_13:\n      pop\n      tag_14\n      tag_15\n      jump\t// in\n    tag_14:\n      mload(0x40)\n      tag_16\n      swap2\n      swap1\n      tag_17\n      jump\t// in\n    tag_16:\n      mload(0x40)\n      dup1\n      swap2\n      sub\n      swap1\n      return\n        /* \"mappingstructure/MappingStructure.sol\":627:722  function sendMoney() public payable {\r... */\n    tag_4:\n      tag_18\n      tag_19\n      jump\t// in\n    tag_18:\n      stop\n        /* \"mappingstructure/MappingStructure.sol\":468:515  mapping(address => uint) public balanceReceived */\n    tag_5:\n      callvalue\n      dup1\n      iszero\n      tag_20\n      jumpi\n      0x00\n      dup1\n      revert\n    tag_20:\n      pop\n      tag_21\n      0x04\n      dup1\n      calldatasize\n      sub\n      dup2\n      add\n      swap1\n      tag_22\n      swap2\n      swap1\n      tag_23\n      jump\t// in\n    tag_22:\n      tag_24\n      jump\t// in\n    tag_21:\n      mload(0x40)\n      tag_25\n      swap2\n      swap1\n      tag_17\n      jump\t// in\n    tag_25:\n      mload(0x40)\n      dup1\n      swap2\n      sub\n      swap1\n      return\n        /* \"mappingstructure/MappingStructure.sol\":412:459  mapping(uint => Balance) public contractBalance */\n    tag_6:\n      callvalue\n      dup1\n      iszero\n      tag_26\n      jumpi\n      0x00\n      dup1\n      revert\n    tag_26:\n      pop\n      tag_27\n      0x04\n      dup1\n      calldatasize\n      sub\n      dup2\n      add\n      swap1\n      tag_28\n      swap2\n      swap1\n      tag_29\n      jump\t// in\n    tag_28:\n      tag_30\n      jump\t// in\n    tag_27:\n      mload(0x40)\n      tag_31\n      swap3\n      swap2\n      swap1\n      tag_32\n      jump\t// in\n    tag_31:\n      mload(0x40)\n      dup1\n      swap2\n      sub\n      swap1\n      return\n        /* \"mappingstructure/MappingStructure.sol\":941:1379  function withdrawMoney(address payable _to, uint _requestedAmount) public {\r... */\n    tag_7:\n      callvalue\n      dup1\n      iszero\n      tag_33\n      jumpi\n      0x00\n      dup1\n      revert\n    tag_33:\n      pop\n      tag_34\n      0x04\n      dup1\n      calldatasize\n      sub\n      dup2\n      add\n      swap1\n      tag_35\n      swap2\n      swap1\n      tag_36\n      jump\t// in\n    tag_35:\n      tag_37\n      jump\t// in\n    tag_34:\n      stop\n        /* \"mappingstructure/MappingStructure.sol\":730:933  function withdrawAllMoney(address payable _to) public {\r... */\n    tag_12:\n        /* \"mappingstructure/MappingStructure.sol\":795:813  uint balanceToSend */\n      0x00\n        /* \"mappingstructure/MappingStructure.sol\":816:831  balanceReceived */\n      0x01\n        /* \"mappingstructure/MappingStructure.sol\":816:843  balanceReceived[msg.sender] */\n      0x00\n        /* \"mappingstructure/MappingStructure.sol\":832:842  msg.sender */\n      caller\n        /* \"mappingstructure/MappingStructure.sol\":816:843  balanceReceived[msg.sender] */\n      0xffffffffffffffffffffffffffffffffffffffff\n      and\n      0xffffffffffffffffffffffffffffffffffffffff\n      and\n      dup2\n      mstore\n      0x20\n      add\n      swap1\n      dup2\n      mstore\n      0x20\n      add\n      0x00\n      keccak256\n      sload\n        /* \"mappingstructure/MappingStructure.sol\":795:843  uint balanceToSend = balanceReceived[msg.sender] */\n      swap1\n      pop\n        /* \"mappingstructure/MappingStructure.sol\":884:885  0 */\n      0x00\n        /* \"mappingstructure/MappingStructure.sol\":854:869  balanceReceived */\n      0x01\n        /* \"mappingstructure/MappingStructure.sol\":854:881  balanceReceived[msg.sender] */\n      0x00\n        /* \"mappingstructure/MappingStructure.sol\":870:880  msg.sender */\n      caller\n        /* \"mappingstructure/MappingStructure.sol\":854:881  balanceReceived[msg.sender] */\n      0xffffffffffffffffffffffffffffffffffffffff\n      and\n      0xffffffffffffffffffffffffffffffffffffffff\n      and\n      dup2\n      mstore\n      0x20\n      add\n      swap1\n      dup2\n      mstore\n      0x20\n      add\n      0x00\n      keccak256\n        /* \"mappingstructure/MappingStructure.sol\":854:885  balanceReceived[msg.sender] = 0 */\n      dup2\n      swap1\n      sstore\n      pop\n        /* \"mappingstructure/MappingStructure.sol\":898:901  _to */\n      dup2\n        /* \"mappingstructure/MappingStructure.sol\":898:910  _to.transfer */\n      0xffffffffffffffffffffffffffffffffffffffff\n      and\n        /* \"mappingstructure/MappingStructure.sol\":898:925  _to.transfer(balanceToSend) */\n      0x08fc\n        /* \"mappingstructure/MappingStructure.sol\":911:924  balanceToSend */\n      dup3\n        /* \"mappingstructure/MappingStructure.sol\":898:925  _to.transfer(balanceToSend) */\n      swap1\n      dup2\n      iszero\n      mul\n      swap1\n      mload(0x40)\n      0x00\n      mload(0x40)\n      dup1\n      dup4\n      sub\n      dup2\n      dup6\n      dup9\n      dup9\n      call\n      swap4\n      pop\n      pop\n      pop\n      pop\n      iszero\n      dup1\n      iszero\n      tag_40\n      jumpi\n      returndatasize\n      0x00\n      dup1\n      returndatacopy\n      revert(0x00, returndatasize)\n    tag_40:\n      pop\n        /* \"mappingstructure/MappingStructure.sol\":784:933  {\r... */\n      pop\n        /* \"mappingstructure/MappingStructure.sol\":730:933  function withdrawAllMoney(address payable _to) public {\r... */\n      pop\n      jump\t// out\n        /* \"mappingstructure/MappingStructure.sol\":524:619  function getBalance() public view returns(uint) {\r... */\n    tag_15:\n        /* \"mappingstructure/MappingStructure.sol\":566:570  uint */\n      0x00\n        /* \"mappingstructure/MappingStructure.sol\":590:611  address(this).balance */\n      selfbalance\n        /* \"mappingstructure/MappingStructure.sol\":583:611  return address(this).balance */\n      swap1\n      pop\n        /* \"mappingstructure/MappingStructure.sol\":524:619  function getBalance() public view returns(uint) {\r... */\n      swap1\n      jump\t// out\n        /* \"mappingstructure/MappingStructure.sol\":627:722  function sendMoney() public payable {\r... */\n    tag_19:\n        /* \"mappingstructure/MappingStructure.sol\":705:714  msg.value */\n      callvalue\n        /* \"mappingstructure/MappingStructure.sol\":674:689  balanceReceived */\n      0x01\n        /* \"mappingstructure/MappingStructure.sol\":674:701  balanceReceived[msg.sender] */\n      0x00\n        /* \"mappingstructure/MappingStructure.sol\":690:700  msg.sender */\n      caller\n        /* \"mappingstructure/MappingStructure.sol\":674:701  balanceReceived[msg.sender] */\n      0xffffffffffffffffffffffffffffffffffffffff\n      and\n      0xffffffffffffffffffffffffffffffffffffffff\n      and\n      dup2\n      mstore\n      0x20\n      add\n      swap1\n      dup2\n      mstore\n      0x20\n      add\n      0x00\n      keccak256\n      0x00\n        /* \"mappingstructure/MappingStructure.sol\":674:714  balanceReceived[msg.sender] += msg.value */\n      dup3\n      dup3\n      sload\n      tag_43\n      swap2\n      swap1\n      tag_44\n      jump\t// in\n    tag_43:\n      swap3\n      pop\n      pop\n      dup2\n      swap1\n      sstore\n      pop\n        /* \"mappingstructure/MappingStructure.sol\":627:722  function sendMoney() public payable {\r... */\n      jump\t// out\n        /* \"mappingstructure/MappingStructure.sol\":468:515  mapping(address => uint) public balanceReceived */\n    tag_24:\n      mstore(0x20, 0x01)\n      dup1\n      0x00\n      mstore\n      keccak256(0x00, 0x40)\n      0x00\n      swap2\n      pop\n      swap1\n      pop\n      sload\n      dup2\n      jump\t// out\n        /* \"mappingstructure/MappingStructure.sol\":412:459  mapping(uint => Balance) public contractBalance */\n    tag_30:\n      mstore(0x20, 0x00)\n      dup1\n      0x00\n      mstore\n      keccak256(0x00, 0x40)\n      0x00\n      swap2\n      pop\n      swap1\n      pop\n      dup1\n      0x00\n      add\n      sload\n      swap1\n      dup1\n      0x01\n      add\n      sload\n      swap1\n      pop\n      dup3\n      jump\t// out\n        /* \"mappingstructure/MappingStructure.sol\":941:1379  function withdrawMoney(address payable _to, uint _requestedAmount) public {\r... */\n    tag_37:\n        /* \"mappingstructure/MappingStructure.sol\":1113:1125  uint balance */\n      0x00\n        /* \"mappingstructure/MappingStructure.sol\":1128:1143  balanceReceived */\n      0x01\n        /* \"mappingstructure/MappingStructure.sol\":1128:1155  balanceReceived[msg.sender] */\n      0x00\n        /* \"mappingstructure/MappingStructure.sol\":1144:1154  msg.sender */\n      caller\n        /* \"mappingstructure/MappingStructure.sol\":1128:1155  balanceReceived[msg.sender] */\n      0xffffffffffffffffffffffffffffffffffffffff\n      and\n      0xffffffffffffffffffffffffffffffffffffffff\n      and\n      dup2\n      mstore\n      0x20\n      add\n      swap1\n      dup2\n      mstore\n      0x20\n      add\n      0x00\n      keccak256\n      sload\n        /* \"mappingstructure/MappingStructure.sol\":1113:1155  uint balance = balanceReceived[msg.sender] */\n      swap1\n      pop\n        /* \"mappingstructure/MappingStructure.sol\":1195:1202  balance */\n      dup1\n        /* \"mappingstructure/MappingStructure.sol\":1176:1192  _requestedAmount */\n      dup3\n        /* \"mappingstructure/MappingStructure.sol\":1176:1202  _requestedAmount > balance */\n      gt\n        /* \"mappingstructure/MappingStructure.sol\":1168:1252  require(_requestedAmount > balance, \"requested amount exceeds the amount available\") */\n      tag_46\n      jumpi\n      mload(0x40)\n      0x08c379a000000000000000000000000000000000000000000000000000000000\n      dup2\n      mstore\n      0x04\n      add\n      tag_47\n      swap1\n      tag_48\n      jump\t// in\n    tag_47:\n      mload(0x40)\n      dup1\n      swap2\n      sub\n      swap1\n      revert\n    tag_46:\n        /* \"mappingstructure/MappingStructure.sol\":1321:1328  balance */\n      dup1\n        /* \"mappingstructure/MappingStructure.sol\":1290:1305  balanceReceived */\n      0x01\n        /* \"mappingstructure/MappingStructure.sol\":1290:1317  balanceReceived[msg.sender] */\n      0x00\n        /* \"mappingstructure/MappingStructure.sol\":1306:1316  msg.sender */\n      caller\n        /* \"mappingstructure/MappingStructure.sol\":1290:1317  balanceReceived[msg.sender] */\n      0xffffffffffffffffffffffffffffffffffffffff\n      and\n      0xffffffffffffffffffffffffffffffffffffffff\n      and\n      dup2\n      mstore\n      0x20\n      add\n      swap1\n      dup2\n      mstore\n      0x20\n      add\n      0x00\n      keccak256\n      0x00\n        /* \"mappingstructure/MappingStructure.sol\":1290:1328  balanceReceived[msg.sender] -= balance */\n      dup3\n      dup3\n      sload\n      tag_49\n      swap2\n      swap1\n      tag_50\n      jump\t// in\n    tag_49:\n      swap3\n      pop\n      pop\n      dup2\n      swap1\n      sstore\n      pop\n        /* \"mappingstructure/MappingStructure.sol\":1341:1344  _to */\n      dup3\n        /* \"mappingstructure/MappingStructure.sol\":1341:1353  _to.transfer */\n      0xffffffffffffffffffffffffffffffffffffffff\n      and\n        /* \"mappingstructure/MappingStructure.sol\":1341:1371  _to.transfer(_requestedAmount) */\n      0x08fc\n        /* \"mappingstructure/MappingStructure.sol\":1354:1370  _requestedAmount */\n      dup4\n        /* \"mappingstructure/MappingStructure.sol\":1341:1371  _to.transfer(_requestedAmount) */\n      swap1\n      dup2\n      iszero\n      mul\n      swap1\n      mload(0x40)\n      0x00\n      mload(0x40)\n      dup1\n      dup4\n      sub\n      dup2\n      dup6\n      dup9\n      dup9\n      call\n      swap4\n      pop\n      pop\n      pop\n      pop\n      iszero\n      dup1\n      iszero\n      tag_52\n      jumpi\n      returndatasize\n      0x00\n      dup1\n      returndatacopy\n      revert(0x00, returndatasize)\n    tag_52:\n      pop\n        /* \"mappingstructure/MappingStructure.sol\":1015:1379  {\r... */\n      pop\n        /* \"mappingstructure/MappingStructure.sol\":941:1379  function withdrawMoney(address payable _to, uint _requestedAmount) public {\r... */\n      pop\n      pop\n      jump\t// out\n        /* \"#utility.yul\":7:146   */\n    tag_54:\n        /* \"#utility.yul\":53:58   */\n      0x00\n        /* \"#utility.yul\":91:97   */\n      dup2\n        /* \"#utility.yul\":78:98   */\n      calldataload\n        /* \"#utility.yul\":69:98   */\n      swap1\n      pop\n        /* \"#utility.yul\":107:140   */\n      tag_56\n        /* \"#utility.yul\":134:139   */\n      dup2\n        /* \"#utility.yul\":107:140   */\n      tag_57\n      jump\t// in\n    tag_56:\n        /* \"#utility.yul\":7:146   */\n      swap3\n      swap2\n      pop\n      pop\n      jump\t// out\n        /* \"#utility.yul\":152:307   */\n    tag_58:\n        /* \"#utility.yul\":206:211   */\n      0x00\n        /* \"#utility.yul\":244:250   */\n      dup2\n        /* \"#utility.yul\":231:251   */\n      calldataload\n        /* \"#utility.yul\":222:251   */\n      swap1\n      pop\n        /* \"#utility.yul\":260:301   */\n      tag_60\n        /* \"#utility.yul\":295:300   */\n      dup2\n        /* \"#utility.yul\":260:301   */\n      tag_61\n      jump\t// in\n    tag_60:\n        /* \"#utility.yul\":152:307   */\n      swap3\n      swap2\n      pop\n      pop\n      jump\t// out\n        /* \"#utility.yul\":313:452   */\n    tag_62:\n        /* \"#utility.yul\":359:364   */\n      0x00\n        /* \"#utility.yul\":397:403   */\n      dup2\n        /* \"#utility.yul\":384:404   */\n      calldataload\n        /* \"#utility.yul\":375:404   */\n      swap1\n      pop\n        /* \"#utility.yul\":413:446   */\n      tag_64\n        /* \"#utility.yul\":440:445   */\n      dup2\n        /* \"#utility.yul\":413:446   */\n      tag_65\n      jump\t// in\n    tag_64:\n        /* \"#utility.yul\":313:452   */\n      swap3\n      swap2\n      pop\n      pop\n      jump\t// out\n        /* \"#utility.yul\":458:787   */\n    tag_23:\n        /* \"#utility.yul\":517:523   */\n      0x00\n        /* \"#utility.yul\":566:568   */\n      0x20\n        /* \"#utility.yul\":554:563   */\n      dup3\n        /* \"#utility.yul\":545:552   */\n      dup5\n        /* \"#utility.yul\":541:564   */\n      sub\n        /* \"#utility.yul\":537:569   */\n      slt\n        /* \"#utility.yul\":534:653   */\n      iszero\n      tag_67\n      jumpi\n        /* \"#utility.yul\":572:651   */\n      tag_68\n      tag_69\n      jump\t// in\n    tag_68:\n        /* \"#utility.yul\":534:653   */\n    tag_67:\n        /* \"#utility.yul\":692:693   */\n      0x00\n        /* \"#utility.yul\":717:770   */\n      tag_70\n        /* \"#utility.yul\":762:769   */\n      dup5\n        /* \"#utility.yul\":753:759   */\n      dup3\n        /* \"#utility.yul\":742:751   */\n      dup6\n        /* \"#utility.yul\":738:760   */\n      add\n        /* \"#utility.yul\":717:770   */\n      tag_54\n      jump\t// in\n    tag_70:\n        /* \"#utility.yul\":707:770   */\n      swap2\n      pop\n        /* \"#utility.yul\":663:780   */\n      pop\n        /* \"#utility.yul\":458:787   */\n      swap3\n      swap2\n      pop\n      pop\n      jump\t// out\n        /* \"#utility.yul\":793:1138   */\n    tag_11:\n        /* \"#utility.yul\":860:866   */\n      0x00\n        /* \"#utility.yul\":909:911   */\n      0x20\n        /* \"#utility.yul\":897:906   */\n      dup3\n        /* \"#utility.yul\":888:895   */\n      dup5\n        /* \"#utility.yul\":884:907   */\n      sub\n        /* \"#utility.yul\":880:912   */\n      slt\n        /* \"#utility.yul\":877:996   */\n      iszero\n      tag_72\n      jumpi\n        /* \"#utility.yul\":915:994   */\n      tag_73\n      tag_69\n      jump\t// in\n    tag_73:\n        /* \"#utility.yul\":877:996   */\n    tag_72:\n        /* \"#utility.yul\":1035:1036   */\n      0x00\n        /* \"#utility.yul\":1060:1121   */\n      tag_74\n        /* \"#utility.yul\":1113:1120   */\n      dup5\n        /* \"#utility.yul\":1104:1110   */\n      dup3\n        /* \"#utility.yul\":1093:1102   */\n      dup6\n        /* \"#utility.yul\":1089:1111   */\n      add\n        /* \"#utility.yul\":1060:1121   */\n      tag_58\n      jump\t// in\n    tag_74:\n        /* \"#utility.yul\":1050:1121   */\n      swap2\n      pop\n        /* \"#utility.yul\":1006:1131   */\n      pop\n        /* \"#utility.yul\":793:1138   */\n      swap3\n      swap2\n      pop\n      pop\n      jump\t// out\n        /* \"#utility.yul\":1144:1634   */\n    tag_36:\n        /* \"#utility.yul\":1220:1226   */\n      0x00\n        /* \"#utility.yul\":1228:1234   */\n      dup1\n        /* \"#utility.yul\":1277:1279   */\n      0x40\n        /* \"#utility.yul\":1265:1274   */\n      dup4\n        /* \"#utility.yul\":1256:1263   */\n      dup6\n        /* \"#utility.yul\":1252:1275   */\n      sub\n        /* \"#utility.yul\":1248:1280   */\n      slt\n        /* \"#utility.yul\":1245:1364   */\n      iszero\n      tag_76\n      jumpi\n        /* \"#utility.yul\":1283:1362   */\n      tag_77\n      tag_69\n      jump\t// in\n    tag_77:\n        /* \"#utility.yul\":1245:1364   */\n    tag_76:\n        /* \"#utility.yul\":1403:1404   */\n      0x00\n        /* \"#utility.yul\":1428:1489   */\n      tag_78\n        /* \"#utility.yul\":1481:1488   */\n      dup6\n        /* \"#utility.yul\":1472:1478   */\n      dup3\n        /* \"#utility.yul\":1461:1470   */\n      dup7\n        /* \"#utility.yul\":1457:1479   */\n      add\n        /* \"#utility.yul\":1428:1489   */\n      tag_58\n      jump\t// in\n    tag_78:\n        /* \"#utility.yul\":1418:1489   */\n      swap3\n      pop\n        /* \"#utility.yul\":1374:1499   */\n      pop\n        /* \"#utility.yul\":1538:1540   */\n      0x20\n        /* \"#utility.yul\":1564:1617   */\n      tag_79\n        /* \"#utility.yul\":1609:1616   */\n      dup6\n        /* \"#utility.yul\":1600:1606   */\n      dup3\n        /* \"#utility.yul\":1589:1598   */\n      dup7\n        /* \"#utility.yul\":1585:1607   */\n      add\n        /* \"#utility.yul\":1564:1617   */\n      tag_62\n      jump\t// in\n    tag_79:\n        /* \"#utility.yul\":1554:1617   */\n      swap2\n      pop\n        /* \"#utility.yul\":1509:1627   */\n      pop\n        /* \"#utility.yul\":1144:1634   */\n      swap3\n      pop\n      swap3\n      swap1\n      pop\n      jump\t// out\n        /* \"#utility.yul\":1640:1969   */\n    tag_29:\n        /* \"#utility.yul\":1699:1705   */\n      0x00\n        /* \"#utility.yul\":1748:1750   */\n      0x20\n        /* \"#utility.yul\":1736:1745   */\n      dup3\n        /* \"#utility.yul\":1727:1734   */\n      dup5\n        /* \"#utility.yul\":1723:1746   */\n      sub\n        /* \"#utility.yul\":1719:1751   */\n      slt\n        /* \"#utility.yul\":1716:1835   */\n      iszero\n      tag_81\n      jumpi\n        /* \"#utility.yul\":1754:1833   */\n      tag_82\n      tag_69\n      jump\t// in\n    tag_82:\n        /* \"#utility.yul\":1716:1835   */\n    tag_81:\n        /* \"#utility.yul\":1874:1875   */\n      0x00\n        /* \"#utility.yul\":1899:1952   */\n      tag_83\n        /* \"#utility.yul\":1944:1951   */\n      dup5\n        /* \"#utility.yul\":1935:1941   */\n      dup3\n        /* \"#utility.yul\":1924:1933   */\n      dup6\n        /* \"#utility.yul\":1920:1942   */\n      add\n        /* \"#utility.yul\":1899:1952   */\n      tag_62\n      jump\t// in\n    tag_83:\n        /* \"#utility.yul\":1889:1952   */\n      swap2\n      pop\n        /* \"#utility.yul\":1845:1962   */\n      pop\n        /* \"#utility.yul\":1640:1969   */\n      swap3\n      swap2\n      pop\n      pop\n      jump\t// out\n        /* \"#utility.yul\":1975:2341   */\n    tag_84:\n        /* \"#utility.yul\":2117:2120   */\n      0x00\n        /* \"#utility.yul\":2138:2205   */\n      tag_86\n        /* \"#utility.yul\":2202:2204   */\n      0x2d\n        /* \"#utility.yul\":2197:2200   */\n      dup4\n        /* \"#utility.yul\":2138:2205   */\n      tag_87\n      jump\t// in\n    tag_86:\n        /* \"#utility.yul\":2131:2205   */\n      swap2\n      pop\n        /* \"#utility.yul\":2214:2307   */\n      tag_88\n        /* \"#utility.yul\":2303:2306   */\n      dup3\n        /* \"#utility.yul\":2214:2307   */\n      tag_89\n      jump\t// in\n    tag_88:\n        /* \"#utility.yul\":2332:2334   */\n      0x40\n        /* \"#utility.yul\":2327:2330   */\n      dup3\n        /* \"#utility.yul\":2323:2335   */\n      add\n        /* \"#utility.yul\":2316:2335   */\n      swap1\n      pop\n        /* \"#utility.yul\":1975:2341   */\n      swap2\n      swap1\n      pop\n      jump\t// out\n        /* \"#utility.yul\":2347:2465   */\n    tag_90:\n        /* \"#utility.yul\":2434:2458   */\n      tag_92\n        /* \"#utility.yul\":2452:2457   */\n      dup2\n        /* \"#utility.yul\":2434:2458   */\n      tag_93\n      jump\t// in\n    tag_92:\n        /* \"#utility.yul\":2429:2432   */\n      dup3\n        /* \"#utility.yul\":2422:2459   */\n      mstore\n        /* \"#utility.yul\":2347:2465   */\n      pop\n      pop\n      jump\t// out\n        /* \"#utility.yul\":2471:2890   */\n    tag_48:\n        /* \"#utility.yul\":2637:2641   */\n      0x00\n        /* \"#utility.yul\":2675:2677   */\n      0x20\n        /* \"#utility.yul\":2664:2673   */\n      dup3\n        /* \"#utility.yul\":2660:2678   */\n      add\n        /* \"#utility.yul\":2652:2678   */\n      swap1\n      pop\n        /* \"#utility.yul\":2724:2733   */\n      dup2\n        /* \"#utility.yul\":2718:2722   */\n      dup2\n        /* \"#utility.yul\":2714:2734   */\n      sub\n        /* \"#utility.yul\":2710:2711   */\n      0x00\n        /* \"#utility.yul\":2699:2708   */\n      dup4\n        /* \"#utility.yul\":2695:2712   */\n      add\n        /* \"#utility.yul\":2688:2735   */\n      mstore\n        /* \"#utility.yul\":2752:2883   */\n      tag_95\n        /* \"#utility.yul\":2878:2882   */\n      dup2\n        /* \"#utility.yul\":2752:2883   */\n      tag_84\n      jump\t// in\n    tag_95:\n        /* \"#utility.yul\":2744:2883   */\n      swap1\n      pop\n        /* \"#utility.yul\":2471:2890   */\n      swap2\n      swap1\n      pop\n      jump\t// out\n        /* \"#utility.yul\":2896:3118   */\n    tag_17:\n        /* \"#utility.yul\":2989:2993   */\n      0x00\n        /* \"#utility.yul\":3027:3029   */\n      0x20\n        /* \"#utility.yul\":3016:3025   */\n      dup3\n        /* \"#utility.yul\":3012:3030   */\n      add\n        /* \"#utility.yul\":3004:3030   */\n      swap1\n      pop\n        /* \"#utility.yul\":3040:3111   */\n      tag_97\n        /* \"#utility.yul\":3108:3109   */\n      0x00\n        /* \"#utility.yul\":3097:3106   */\n      dup4\n        /* \"#utility.yul\":3093:3110   */\n      add\n        /* \"#utility.yul\":3084:3090   */\n      dup5\n        /* \"#utility.yul\":3040:3111   */\n      tag_90\n      jump\t// in\n    tag_97:\n        /* \"#utility.yul\":2896:3118   */\n      swap3\n      swap2\n      pop\n      pop\n      jump\t// out\n        /* \"#utility.yul\":3124:3456   */\n    tag_32:\n        /* \"#utility.yul\":3245:3249   */\n      0x00\n        /* \"#utility.yul\":3283:3285   */\n      0x40\n        /* \"#utility.yul\":3272:3281   */\n      dup3\n        /* \"#utility.yul\":3268:3286   */\n      add\n        /* \"#utility.yul\":3260:3286   */\n      swap1\n      pop\n        /* \"#utility.yul\":3296:3367   */\n      tag_99\n        /* \"#utility.yul\":3364:3365   */\n      0x00\n        /* \"#utility.yul\":3353:3362   */\n      dup4\n        /* \"#utility.yul\":3349:3366   */\n      add\n        /* \"#utility.yul\":3340:3346   */\n      dup6\n        /* \"#utility.yul\":3296:3367   */\n      tag_90\n      jump\t// in\n    tag_99:\n        /* \"#utility.yul\":3377:3449   */\n      tag_100\n        /* \"#utility.yul\":3445:3447   */\n      0x20\n        /* \"#utility.yul\":3434:3443   */\n      dup4\n        /* \"#utility.yul\":3430:3448   */\n      add\n        /* \"#utility.yul\":3421:3427   */\n      dup5\n        /* \"#utility.yul\":3377:3449   */\n      tag_90\n      jump\t// in\n    tag_100:\n        /* \"#utility.yul\":3124:3456   */\n      swap4\n      swap3\n      pop\n      pop\n      pop\n      jump\t// out\n        /* \"#utility.yul\":3543:3712   */\n    tag_87:\n        /* \"#utility.yul\":3627:3638   */\n      0x00\n        /* \"#utility.yul\":3661:3667   */\n      dup3\n        /* \"#utility.yul\":3656:3659   */\n      dup3\n        /* \"#utility.yul\":3649:3668   */\n      mstore\n        /* \"#utility.yul\":3701:3705   */\n      0x20\n        /* \"#utility.yul\":3696:3699   */\n      dup3\n        /* \"#utility.yul\":3692:3706   */\n      add\n        /* \"#utility.yul\":3677:3706   */\n      swap1\n      pop\n        /* \"#utility.yul\":3543:3712   */\n      swap3\n      swap2\n      pop\n      pop\n      jump\t// out\n        /* \"#utility.yul\":3718:4023   */\n    tag_44:\n        /* \"#utility.yul\":3758:3761   */\n      0x00\n        /* \"#utility.yul\":3777:3797   */\n      tag_105\n        /* \"#utility.yul\":3795:3796   */\n      dup3\n        /* \"#utility.yul\":3777:3797   */\n      tag_93\n      jump\t// in\n    tag_105:\n        /* \"#utility.yul\":3772:3797   */\n      swap2\n      pop\n        /* \"#utility.yul\":3811:3831   */\n      tag_106\n        /* \"#utility.yul\":3829:3830   */\n      dup4\n        /* \"#utility.yul\":3811:3831   */\n      tag_93\n      jump\t// in\n    tag_106:\n        /* \"#utility.yul\":3806:3831   */\n      swap3\n      pop\n        /* \"#utility.yul\":3965:3966   */\n      dup3\n        /* \"#utility.yul\":3897:3963   */\n      0xffffffffffffffffffffffffffffffffffffffffffffffffffffffffffffffff\n        /* \"#utility.yul\":3893:3967   */\n      sub\n        /* \"#utility.yul\":3890:3891   */\n      dup3\n        /* \"#utility.yul\":3887:3968   */\n      gt\n        /* \"#utility.yul\":3884:3991   */\n      iszero\n      tag_107\n      jumpi\n        /* \"#utility.yul\":3971:3989   */\n      tag_108\n      tag_109\n      jump\t// in\n    tag_108:\n        /* \"#utility.yul\":3884:3991   */\n    tag_107:\n        /* \"#utility.yul\":4015:4016   */\n      dup3\n        /* \"#utility.yul\":4012:4013   */\n      dup3\n        /* \"#utility.yul\":4008:4017   */\n      add\n        /* \"#utility.yul\":4001:4017   */\n      swap1\n      pop\n        /* \"#utility.yul\":3718:4023   */\n      swap3\n      swap2\n      pop\n      pop\n      jump\t// out\n        /* \"#utility.yul\":4029:4220   */\n    tag_50:\n        /* \"#utility.yul\":4069:4073   */\n      0x00\n        /* \"#utility.yul\":4089:4109   */\n      tag_111\n        /* \"#utility.yul\":4107:4108   */\n      dup3\n        /* \"#utility.yul\":4089:4109   */\n      tag_93\n      jump\t// in\n    tag_111:\n        /* \"#utility.yul\":4084:4109   */\n      swap2\n      pop\n        /* \"#utility.yul\":4123:4143   */\n      tag_112\n        /* \"#utility.yul\":4141:4142   */\n      dup4\n        /* \"#utility.yul\":4123:4143   */\n      tag_93\n      jump\t// in\n    tag_112:\n        /* \"#utility.yul\":4118:4143   */\n      swap3\n      pop\n        /* \"#utility.yul\":4162:4163   */\n      dup3\n        /* \"#utility.yul\":4159:4160   */\n      dup3\n        /* \"#utility.yul\":4156:4164   */\n      lt\n        /* \"#utility.yul\":4153:4187   */\n      iszero\n      tag_113\n      jumpi\n        /* \"#utility.yul\":4167:4185   */\n      tag_114\n      tag_109\n      jump\t// in\n    tag_114:\n        /* \"#utility.yul\":4153:4187   */\n    tag_113:\n        /* \"#utility.yul\":4212:4213   */\n      dup3\n        /* \"#utility.yul\":4209:4210   */\n      dup3\n        /* \"#utility.yul\":4205:4214   */\n      sub\n        /* \"#utility.yul\":4197:4214   */\n      swap1\n      pop\n        /* \"#utility.yul\":4029:4220   */\n      swap3\n      swap2\n      pop\n      pop\n      jump\t// out\n        /* \"#utility.yul\":4226:4322   */\n    tag_115:\n        /* \"#utility.yul\":4263:4270   */\n      0x00\n        /* \"#utility.yul\":4292:4316   */\n      tag_117\n        /* \"#utility.yul\":4310:4315   */\n      dup3\n        /* \"#utility.yul\":4292:4316   */\n      tag_118\n      jump\t// in\n    tag_117:\n        /* \"#utility.yul\":4281:4316   */\n      swap1\n      pop\n        /* \"#utility.yul\":4226:4322   */\n      swap2\n      swap1\n      pop\n      jump\t// out\n        /* \"#utility.yul\":4328:4432   */\n    tag_119:\n        /* \"#utility.yul\":4373:4380   */\n      0x00\n        /* \"#utility.yul\":4402:4426   */\n      tag_121\n        /* \"#utility.yul\":4420:4425   */\n      dup3\n        /* \"#utility.yul\":4402:4426   */\n      tag_118\n      jump\t// in\n    tag_121:\n        /* \"#utility.yul\":4391:4426   */\n      swap1\n      pop\n        /* \"#utility.yul\":4328:4432   */\n      swap2\n      swap1\n      pop\n      jump\t// out\n        /* \"#utility.yul\":4438:4564   */\n    tag_118:\n        /* \"#utility.yul\":4475:4482   */\n      0x00\n        /* \"#utility.yul\":4515:4557   */\n      0xffffffffffffffffffffffffffffffffffffffff\n        /* \"#utility.yul\":4508:4513   */\n      dup3\n        /* \"#utility.yul\":4504:4558   */\n      and\n        /* \"#utility.yul\":4493:4558   */\n      swap1\n      pop\n        /* \"#utility.yul\":4438:4564   */\n      swap2\n      swap1\n      pop\n      jump\t// out\n        /* \"#utility.yul\":4570:4647   */\n    tag_93:\n        /* \"#utility.yul\":4607:4614   */\n      0x00\n        /* \"#utility.yul\":4636:4641   */\n      dup2\n        /* \"#utility.yul\":4625:4641   */\n      swap1\n      pop\n        /* \"#utility.yul\":4570:4647   */\n      swap2\n      swap1\n      pop\n      jump\t// out\n        /* \"#utility.yul\":4653:4833   */\n    tag_109:\n        /* \"#utility.yul\":4701:4778   */\n      0x4e487b7100000000000000000000000000000000000000000000000000000000\n        /* \"#utility.yul\":4698:4699   */\n      0x00\n        /* \"#utility.yul\":4691:4779   */\n      mstore\n        /* \"#utility.yul\":4798:4802   */\n      0x11\n        /* \"#utility.yul\":4795:4796   */\n      0x04\n        /* \"#utility.yul\":4788:4803   */\n      mstore\n        /* \"#utility.yul\":4822:4826   */\n      0x24\n        /* \"#utility.yul\":4819:4820   */\n      0x00\n        /* \"#utility.yul\":4812:4827   */\n      revert\n        /* \"#utility.yul\":4962:5079   */\n    tag_69:\n        /* \"#utility.yul\":5071:5072   */\n      0x00\n        /* \"#utility.yul\":5068:5069   */\n      dup1\n        /* \"#utility.yul\":5061:5073   */\n      revert\n        /* \"#utility.yul\":5085:5317   */\n    tag_89:\n        /* \"#utility.yul\":5225:5259   */\n      0x72657175657374656420616d6f756e7420657863656564732074686520616d6f\n        /* \"#utility.yul\":5221:5222   */\n      0x00\n        /* \"#utility.yul\":5213:5219   */\n      dup3\n        /* \"#utility.yul\":5209:5223   */\n      add\n        /* \"#utility.yul\":5202:5260   */\n      mstore\n        /* \"#utility.yul\":5294:5309   */\n      0x756e7420617661696c61626c6500000000000000000000000000000000000000\n        /* \"#utility.yul\":5289:5291   */\n      0x20\n        /* \"#utility.yul\":5281:5287   */\n      dup3\n        /* \"#utility.yul\":5277:5292   */\n      add\n        /* \"#utility.yul\":5270:5310   */\n      mstore\n        /* \"#utility.yul\":5085:5317   */\n      pop\n      jump\t// out\n        /* \"#utility.yul\":5323:5445   */\n    tag_57:\n        /* \"#utility.yul\":5396:5420   */\n      tag_130\n        /* \"#utility.yul\":5414:5419   */\n      dup2\n        /* \"#utility.yul\":5396:5420   */\n      tag_115\n      jump\t// in\n    tag_130:\n        /* \"#utility.yul\":5389:5394   */\n      dup2\n        /* \"#utility.yul\":5386:5421   */\n      eq\n        /* \"#utility.yul\":5376:5439   */\n      tag_131\n      jumpi\n        /* \"#utility.yul\":5435:5436   */\n      0x00\n        /* \"#utility.yul\":5432:5433   */\n      dup1\n        /* \"#utility.yul\":5425:5437   */\n      revert\n        /* \"#utility.yul\":5376:5439   */\n    tag_131:\n        /* \"#utility.yul\":5323:5445   */\n      pop\n      jump\t// out\n        /* \"#utility.yul\":5451:5589   */\n    tag_61:\n        /* \"#utility.yul\":5532:5564   */\n      tag_133\n        /* \"#utility.yul\":5558:5563   */\n      dup2\n        /* \"#utility.yul\":5532:5564   */\n      tag_119\n      jump\t// in\n    tag_133:\n        /* \"#utility.yul\":5525:5530   */\n      dup2\n        /* \"#utility.yul\":5522:5565   */\n      eq\n        /* \"#utility.yul\":5512:5583   */\n      tag_134\n      jumpi\n        /* \"#utility.yul\":5579:5580   */\n      0x00\n        /* \"#utility.yul\":5576:5577   */\n      dup1\n        /* \"#utility.yul\":5569:5581   */\n      revert\n        /* \"#utility.yul\":5512:5583   */\n    tag_134:\n        /* \"#utility.yul\":5451:5589   */\n      pop\n      jump\t// out\n        /* \"#utility.yul\":5595:5717   */\n    tag_65:\n        /* \"#utility.yul\":5668:5692   */\n      tag_136\n        /* \"#utility.yul\":5686:5691   */\n      dup2\n        /* \"#utility.yul\":5668:5692   */\n      tag_93\n      jump\t// in\n    tag_136:\n        /* \"#utility.yul\":5661:5666   */\n      dup2\n        /* \"#utility.yul\":5658:5693   */\n      eq\n        /* \"#utility.yul\":5648:5711   */\n      tag_137\n      jumpi\n        /* \"#utility.yul\":5707:5708   */\n      0x00\n        /* \"#utility.yul\":5704:5705   */\n      dup1\n        /* \"#utility.yul\":5697:5709   */\n      revert\n        /* \"#utility.yul\":5648:5711   */\n    tag_137:\n        /* \"#utility.yul\":5595:5717   */\n      pop\n      jump\t// out\n\n    auxdata: 0xa26469706673582212207f00ebee22b957dcd0f0364752e368252cd62ff34fd00e1a1cf8f4cee208fbd764736f6c63430008070033\n}\n",
				"bytecode": {
					"linkReferences": {},
					"object": "608060405234801561001057600080fd5b50610777806100206000396000f3fe6080604052600436106100555760003560e01c80630adec93c1461005a57806312065fe014610083578063cbedbf5a146100ae578063d18a42e1146100b8578063f17715ef146100f5578063f274c89714610133575b600080fd5b34801561006657600080fd5b50610081600480360381019061007c9190610460565b61015c565b005b34801561008f57600080fd5b50610098610230565b6040516100a5919061054c565b60405180910390f35b6100b6610238565b005b3480156100c457600080fd5b506100df60048036038101906100da9190610433565b610290565b6040516100ec919061054c565b60405180910390f35b34801561010157600080fd5b5061011c600480360381019061011791906104cd565b6102a8565b60405161012a929190610567565b60405180910390f35b34801561013f57600080fd5b5061015a6004803603810190610155919061048d565b6102cc565b005b6000600160003373ffffffffffffffffffffffffffffffffffffffff1673ffffffffffffffffffffffffffffffffffffffff1681526020019081526020016000205490506000600160003373ffffffffffffffffffffffffffffffffffffffff1673ffffffffffffffffffffffffffffffffffffffff168152602001908152602001600020819055508173ffffffffffffffffffffffffffffffffffffffff166108fc829081150290604051600060405180830381858888f1935050505015801561022b573d6000803e3d6000fd5b505050565b600047905090565b34600160003373ffffffffffffffffffffffffffffffffffffffff1673ffffffffffffffffffffffffffffffffffffffff168152602001908152602001600020600082825461028791906105a1565b92505081905550565b60016020528060005260406000206000915090505481565b60006020528060005260406000206000915090508060000154908060010154905082565b6000600160003373ffffffffffffffffffffffffffffffffffffffff1673ffffffffffffffffffffffffffffffffffffffff168152602001908152602001600020549050808211610352576040517f08c379a00000000000000000000000000000000000000000000000000000000081526004016103499061052c565b60405180910390fd5b80600160003373ffffffffffffffffffffffffffffffffffffffff1673ffffffffffffffffffffffffffffffffffffffff16815260200190815260200160002060008282546103a191906105f7565b925050819055508273ffffffffffffffffffffffffffffffffffffffff166108fc839081150290604051600060405180830381858888f193505050501580156103ee573d6000803e3d6000fd5b50505050565b600081359050610403816106fc565b92915050565b60008135905061041881610713565b92915050565b60008135905061042d8161072a565b92915050565b600060208284031215610449576104486106a8565b5b6000610457848285016103f4565b91505092915050565b600060208284031215610476576104756106a8565b5b600061048484828501610409565b91505092915050565b600080604083850312156104a4576104a36106a8565b5b60006104b285828601610409565b92505060206104c38582860161041e565b9150509250929050565b6000602082840312156104e3576104e26106a8565b5b60006104f18482850161041e565b91505092915050565b6000610507602d83610590565b9150610512826106ad565b604082019050919050565b6105268161066f565b82525050565b60006020820190508181036000830152610545816104fa565b9050919050565b6000602082019050610561600083018461051d565b92915050565b600060408201905061057c600083018561051d565b610589602083018461051d565b9392505050565b600082825260208201905092915050565b60006105ac8261066f565b91506105b78361066f565b9250827fffffffffffffffffffffffffffffffffffffffffffffffffffffffffffffffff038211156105ec576105eb610679565b5b828201905092915050565b60006106028261066f565b915061060d8361066f565b9250828210156106205761061f610679565b5b828203905092915050565b60006106368261064f565b9050919050565b60006106488261064f565b9050919050565b600073ffffffffffffffffffffffffffffffffffffffff82169050919050565b6000819050919050565b7f4e487b7100000000000000000000000000000000000000000000000000000000600052601160045260246000fd5b600080fd5b7f72657175657374656420616d6f756e7420657863656564732074686520616d6f60008201527f756e7420617661696c61626c6500000000000000000000000000000000000000602082015250565b6107058161062b565b811461071057600080fd5b50565b61071c8161063d565b811461072757600080fd5b50565b6107338161066f565b811461073e57600080fd5b5056fea26469706673582212207f00ebee22b957dcd0f0364752e368252cd62ff34fd00e1a1cf8f4cee208fbd764736f6c63430008070033",
					"opcodes": "PUSH1 0x80 PUSH1 0x40 MSTORE CALLVALUE DUP1 ISZERO PUSH2 0x10 JUMPI PUSH1 0x0 DUP1 REVERT JUMPDEST POP PUSH2 0x777 DUP1 PUSH2 0x20 PUSH1 0x0 CODECOPY PUSH1 0x0 RETURN INVALID PUSH1 0x80 PUSH1 0x40 MSTORE PUSH1 0x4 CALLDATASIZE LT PUSH2 0x55 JUMPI PUSH1 0x0 CALLDATALOAD PUSH1 0xE0 SHR DUP1 PUSH4 0xADEC93C EQ PUSH2 0x5A JUMPI DUP1 PUSH4 0x12065FE0 EQ PUSH2 0x83 JUMPI DUP1 PUSH4 0xCBEDBF5A EQ PUSH2 0xAE JUMPI DUP1 PUSH4 0xD18A42E1 EQ PUSH2 0xB8 JUMPI DUP1 PUSH4 0xF17715EF EQ PUSH2 0xF5 JUMPI DUP1 PUSH4 0xF274C897 EQ PUSH2 0x133 JUMPI JUMPDEST PUSH1 0x0 DUP1 REVERT JUMPDEST CALLVALUE DUP1 ISZERO PUSH2 0x66 JUMPI PUSH1 0x0 DUP1 REVERT JUMPDEST POP PUSH2 0x81 PUSH1 0x4 DUP1 CALLDATASIZE SUB DUP2 ADD SWAP1 PUSH2 0x7C SWAP2 SWAP1 PUSH2 0x460 JUMP JUMPDEST PUSH2 0x15C JUMP JUMPDEST STOP JUMPDEST CALLVALUE DUP1 ISZERO PUSH2 0x8F JUMPI PUSH1 0x0 DUP1 REVERT JUMPDEST POP PUSH2 0x98 PUSH2 0x230 JUMP JUMPDEST PUSH1 0x40 MLOAD PUSH2 0xA5 SWAP2 SWAP1 PUSH2 0x54C JUMP JUMPDEST PUSH1 0x40 MLOAD DUP1 SWAP2 SUB SWAP1 RETURN JUMPDEST PUSH2 0xB6 PUSH2 0x238 JUMP JUMPDEST STOP JUMPDEST CALLVALUE DUP1 ISZERO PUSH2 0xC4 JUMPI PUSH1 0x0 DUP1 REVERT JUMPDEST POP PUSH2 0xDF PUSH1 0x4 DUP1 CALLDATASIZE SUB DUP2 ADD SWAP1 PUSH2 0xDA SWAP2 SWAP1 PUSH2 0x433 JUMP JUMPDEST PUSH2 0x290 JUMP JUMPDEST PUSH1 0x40 MLOAD PUSH2 0xEC SWAP2 SWAP1 PUSH2 0x54C JUMP JUMPDEST PUSH1 0x40 MLOAD DUP1 SWAP2 SUB SWAP1 RETURN JUMPDEST CALLVALUE DUP1 ISZERO PUSH2 0x101 JUMPI PUSH1 0x0 DUP1 REVERT JUMPDEST POP PUSH2 0x11C PUSH1 0x4 DUP1 CALLDATASIZE SUB DUP2 ADD SWAP1 PUSH2 0x117 SWAP2 SWAP1 PUSH2 0x4CD JUMP JUMPDEST PUSH2 0x2A8 JUMP JUMPDEST PUSH1 0x40 MLOAD PUSH2 0x12A SWAP3 SWAP2 SWAP1 PUSH2 0x567 JUMP JUMPDEST PUSH1 0x40 MLOAD DUP1 SWAP2 SUB SWAP1 RETURN JUMPDEST CALLVALUE DUP1 ISZERO PUSH2 0x13F JUMPI PUSH1 0x0 DUP1 REVERT JUMPDEST POP PUSH2 0x15A PUSH1 0x4 DUP1 CALLDATASIZE SUB DUP2 ADD SWAP1 PUSH2 0x155 SWAP2 SWAP1 PUSH2 0x48D JUMP JUMPDEST PUSH2 0x2CC JUMP JUMPDEST STOP JUMPDEST PUSH1 0x0 PUSH1 0x1 PUSH1 0x0 CALLER PUSH20 0xFFFFFFFFFFFFFFFFFFFFFFFFFFFFFFFFFFFFFFFF AND PUSH20 0xFFFFFFFFFFFFFFFFFFFFFFFFFFFFFFFFFFFFFFFF AND DUP2 MSTORE PUSH1 0x20 ADD SWAP1 DUP2 MSTORE PUSH1 0x20 ADD PUSH1 0x0 KECCAK256 SLOAD SWAP1 POP PUSH1 0x0 PUSH1 0x1 PUSH1 0x0 CALLER PUSH20 0xFFFFFFFFFFFFFFFFFFFFFFFFFFFFFFFFFFFFFFFF AND PUSH20 0xFFFFFFFFFFFFFFFFFFFFFFFFFFFFFFFFFFFFFFFF AND DUP2 MSTORE PUSH1 0x20 ADD SWAP1 DUP2 MSTORE PUSH1 0x20 ADD PUSH1 0x0 KECCAK256 DUP2 SWAP1 SSTORE POP DUP2 PUSH20 0xFFFFFFFFFFFFFFFFFFFFFFFFFFFFFFFFFFFFFFFF AND PUSH2 0x8FC DUP3 SWAP1 DUP2 ISZERO MUL SWAP1 PUSH1 0x40 MLOAD PUSH1 0x0 PUSH1 0x40 MLOAD DUP1 DUP4 SUB DUP2 DUP6 DUP9 DUP9 CALL SWAP4 POP POP POP POP ISZERO DUP1 ISZERO PUSH2 0x22B JUMPI RETURNDATASIZE PUSH1 0x0 DUP1 RETURNDATACOPY RETURNDATASIZE PUSH1 0x0 REVERT JUMPDEST POP POP POP JUMP JUMPDEST PUSH1 0x0 SELFBALANCE SWAP1 POP SWAP1 JUMP JUMPDEST CALLVALUE PUSH1 0x1 PUSH1 0x0 CALLER PUSH20 0xFFFFFFFFFFFFFFFFFFFFFFFFFFFFFFFFFFFFFFFF AND PUSH20 0xFFFFFFFFFFFFFFFFFFFFFFFFFFFFFFFFFFFFFFFF AND DUP2 MSTORE PUSH1 0x20 ADD SWAP1 DUP2 MSTORE PUSH1 0x20 ADD PUSH1 0x0 KECCAK256 PUSH1 0x0 DUP3 DUP3 SLOAD PUSH2 0x287 SWAP2 SWAP1 PUSH2 0x5A1 JUMP JUMPDEST SWAP3 POP POP DUP2 SWAP1 SSTORE POP JUMP JUMPDEST PUSH1 0x1 PUSH1 0x20 MSTORE DUP1 PUSH1 0x0 MSTORE PUSH1 0x40 PUSH1 0x0 KECCAK256 PUSH1 0x0 SWAP2 POP SWAP1 POP SLOAD DUP2 JUMP JUMPDEST PUSH1 0x0 PUSH1 0x20 MSTORE DUP1 PUSH1 0x0 MSTORE PUSH1 0x40 PUSH1 0x0 KECCAK256 PUSH1 0x0 SWAP2 POP SWAP1 POP DUP1 PUSH1 0x0 ADD SLOAD SWAP1 DUP1 PUSH1 0x1 ADD SLOAD SWAP1 POP DUP3 JUMP JUMPDEST PUSH1 0x0 PUSH1 0x1 PUSH1 0x0 CALLER PUSH20 0xFFFFFFFFFFFFFFFFFFFFFFFFFFFFFFFFFFFFFFFF AND PUSH20 0xFFFFFFFFFFFFFFFFFFFFFFFFFFFFFFFFFFFFFFFF AND DUP2 MSTORE PUSH1 0x20 ADD SWAP1 DUP2 MSTORE PUSH1 0x20 ADD PUSH1 0x0 KECCAK256 SLOAD SWAP1 POP DUP1 DUP3 GT PUSH2 0x352 JUMPI PUSH1 0x40 MLOAD PUSH32 0x8C379A000000000000000000000000000000000000000000000000000000000 DUP2 MSTORE PUSH1 0x4 ADD PUSH2 0x349 SWAP1 PUSH2 0x52C JUMP JUMPDEST PUSH1 0x40 MLOAD DUP1 SWAP2 SUB SWAP1 REVERT JUMPDEST DUP1 PUSH1 0x1 PUSH1 0x0 CALLER PUSH20 0xFFFFFFFFFFFFFFFFFFFFFFFFFFFFFFFFFFFFFFFF AND PUSH20 0xFFFFFFFFFFFFFFFFFFFFFFFFFFFFFFFFFFFFFFFF AND DUP2 MSTORE PUSH1 0x20 ADD SWAP1 DUP2 MSTORE PUSH1 0x20 ADD PUSH1 0x0 KECCAK256 PUSH1 0x0 DUP3 DUP3 SLOAD PUSH2 0x3A1 SWAP2 SWAP1 PUSH2 0x5F7 JUMP JUMPDEST SWAP3 POP POP DUP2 SWAP1 SSTORE POP DUP3 PUSH20 0xFFFFFFFFFFFFFFFFFFFFFFFFFFFFFFFFFFFFFFFF AND PUSH2 0x8FC DUP4 SWAP1 DUP2 ISZERO MUL SWAP1 PUSH1 0x40 MLOAD PUSH1 0x0 PUSH1 0x40 MLOAD DUP1 DUP4 SUB DUP2 DUP6 DUP9 DUP9 CALL SWAP4 POP POP POP POP ISZERO DUP1 ISZERO PUSH2 0x3EE JUMPI RETURNDATASIZE PUSH1 0x0 DUP1 RETURNDATACOPY RETURNDATASIZE PUSH1 0x0 REVERT JUMPDEST POP POP POP POP JUMP JUMPDEST PUSH1 0x0 DUP2 CALLDATALOAD SWAP1 POP PUSH2 0x403 DUP2 PUSH2 0x6FC JUMP JUMPDEST SWAP3 SWAP2 POP POP JUMP JUMPDEST PUSH1 0x0 DUP2 CALLDATALOAD SWAP1 POP PUSH2 0x418 DUP2 PUSH2 0x713 JUMP JUMPDEST SWAP3 SWAP2 POP POP JUMP JUMPDEST PUSH1 0x0 DUP2 CALLDATALOAD SWAP1 POP PUSH2 0x42D DUP2 PUSH2 0x72A JUMP JUMPDEST SWAP3 SWAP2 POP POP JUMP JUMPDEST PUSH1 0x0 PUSH1 0x20 DUP3 DUP5 SUB SLT ISZERO PUSH2 0x449 JUMPI PUSH2 0x448 PUSH2 0x6A8 JUMP JUMPDEST JUMPDEST PUSH1 0x0 PUSH2 0x457 DUP5 DUP3 DUP6 ADD PUSH2 0x3F4 JUMP JUMPDEST SWAP2 POP POP SWAP3 SWAP2 POP POP JUMP JUMPDEST PUSH1 0x0 PUSH1 0x20 DUP3 DUP5 SUB SLT ISZERO PUSH2 0x476 JUMPI PUSH2 0x475 PUSH2 0x6A8 JUMP JUMPDEST JUMPDEST PUSH1 0x0 PUSH2 0x484 DUP5 DUP3 DUP6 ADD PUSH2 0x409 JUMP JUMPDEST SWAP2 POP POP SWAP3 SWAP2 POP POP JUMP JUMPDEST PUSH1 0x0 DUP1 PUSH1 0x40 DUP4 DUP6 SUB SLT ISZERO PUSH2 0x4A4 JUMPI PUSH2 0x4A3 PUSH2 0x6A8 JUMP JUMPDEST JUMPDEST PUSH1 0x0 PUSH2 0x4B2 DUP6 DUP3 DUP7 ADD PUSH2 0x409 JUMP JUMPDEST SWAP3 POP POP PUSH1 0x20 PUSH2 0x4C3 DUP6 DUP3 DUP7 ADD PUSH2 0x41E JUMP JUMPDEST SWAP2 POP POP SWAP3 POP SWAP3 SWAP1 POP JUMP JUMPDEST PUSH1 0x0 PUSH1 0x20 DUP3 DUP5 SUB SLT ISZERO PUSH2 0x4E3 JUMPI PUSH2 0x4E2 PUSH2 0x6A8 JUMP JUMPDEST JUMPDEST PUSH1 0x0 PUSH2 0x4F1 DUP5 DUP3 DUP6 ADD PUSH2 0x41E JUMP JUMPDEST SWAP2 POP POP SWAP3 SWAP2 POP POP JUMP JUMPDEST PUSH1 0x0 PUSH2 0x507 PUSH1 0x2D DUP4 PUSH2 0x590 JUMP JUMPDEST SWAP2 POP PUSH2 0x512 DUP3 PUSH2 0x6AD JUMP JUMPDEST PUSH1 0x40 DUP3 ADD SWAP1 POP SWAP2 SWAP1 POP JUMP JUMPDEST PUSH2 0x526 DUP2 PUSH2 0x66F JUMP JUMPDEST DUP3 MSTORE POP POP JUMP JUMPDEST PUSH1 0x0 PUSH1 0x20 DUP3 ADD SWAP1 POP DUP2 DUP2 SUB PUSH1 0x0 DUP4 ADD MSTORE PUSH2 0x545 DUP2 PUSH2 0x4FA JUMP JUMPDEST SWAP1 POP SWAP2 SWAP1 POP JUMP JUMPDEST PUSH1 0x0 PUSH1 0x20 DUP3 ADD SWAP1 POP PUSH2 0x561 PUSH1 0x0 DUP4 ADD DUP5 PUSH2 0x51D JUMP JUMPDEST SWAP3 SWAP2 POP POP JUMP JUMPDEST PUSH1 0x0 PUSH1 0x40 DUP3 ADD SWAP1 POP PUSH2 0x57C PUSH1 0x0 DUP4 ADD DUP6 PUSH2 0x51D JUMP JUMPDEST PUSH2 0x589 PUSH1 0x20 DUP4 ADD DUP5 PUSH2 0x51D JUMP JUMPDEST SWAP4 SWAP3 POP POP POP JUMP JUMPDEST PUSH1 0x0 DUP3 DUP3 MSTORE PUSH1 0x20 DUP3 ADD SWAP1 POP SWAP3 SWAP2 POP POP JUMP JUMPDEST PUSH1 0x0 PUSH2 0x5AC DUP3 PUSH2 0x66F JUMP JUMPDEST SWAP2 POP PUSH2 0x5B7 DUP4 PUSH2 0x66F JUMP JUMPDEST SWAP3 POP DUP3 PUSH32 0xFFFFFFFFFFFFFFFFFFFFFFFFFFFFFFFFFFFFFFFFFFFFFFFFFFFFFFFFFFFFFFFF SUB DUP3 GT ISZERO PUSH2 0x5EC JUMPI PUSH2 0x5EB PUSH2 0x679 JUMP JUMPDEST JUMPDEST DUP3 DUP3 ADD SWAP1 POP SWAP3 SWAP2 POP POP JUMP JUMPDEST PUSH1 0x0 PUSH2 0x602 DUP3 PUSH2 0x66F JUMP JUMPDEST SWAP2 POP PUSH2 0x60D DUP4 PUSH2 0x66F JUMP JUMPDEST SWAP3 POP DUP3 DUP3 LT ISZERO PUSH2 0x620 JUMPI PUSH2 0x61F PUSH2 0x679 JUMP JUMPDEST JUMPDEST DUP3 DUP3 SUB SWAP1 POP SWAP3 SWAP2 POP POP JUMP JUMPDEST PUSH1 0x0 PUSH2 0x636 DUP3 PUSH2 0x64F JUMP JUMPDEST SWAP1 POP SWAP2 SWAP1 POP JUMP JUMPDEST PUSH1 0x0 PUSH2 0x648 DUP3 PUSH2 0x64F JUMP JUMPDEST SWAP1 POP SWAP2 SWAP1 POP JUMP JUMPDEST PUSH1 0x0 PUSH20 0xFFFFFFFFFFFFFFFFFFFFFFFFFFFFFFFFFFFFFFFF DUP3 AND SWAP1 POP SWAP2 SWAP1 POP JUMP JUMPDEST PUSH1 0x0 DUP2 SWAP1 POP SWAP2 SWAP1 POP JUMP JUMPDEST PUSH32 0x4E487B7100000000000000000000000000000000000000000000000000000000 PUSH1 0x0 MSTORE PUSH1 0x11 PUSH1 0x4 MSTORE PUSH1 0x24 PUSH1 0x0 REVERT JUMPDEST PUSH1 0x0 DUP1 REVERT JUMPDEST PUSH32 0x72657175657374656420616D6F756E7420657863656564732074686520616D6F PUSH1 0x0 DUP3 ADD MSTORE PUSH32 0x756E7420617661696C61626C6500000000000000000000000000000000000000 PUSH1 0x20 DUP3 ADD MSTORE POP JUMP JUMPDEST PUSH2 0x705 DUP2 PUSH2 0x62B JUMP JUMPDEST DUP2 EQ PUSH2 0x710 JUMPI PUSH1 0x0 DUP1 REVERT JUMPDEST POP JUMP JUMPDEST PUSH2 0x71C DUP2 PUSH2 0x63D JUMP JUMPDEST DUP2 EQ PUSH2 0x727 JUMPI PUSH1 0x0 DUP1 REVERT JUMPDEST POP JUMP JUMPDEST PUSH2 0x733 DUP2 PUSH2 0x66F JUMP JUMPDEST DUP2 EQ PUSH2 0x73E JUMPI PUSH1 0x0 DUP1 REVERT JUMPDEST POP JUMP INVALID LOG2 PUSH5 0x6970667358 0x22 SLT KECCAK256 PUSH32 0xEBEE22B957DCD0F0364752E368252CD62FF34FD00E1A1CF8F4CEE208FBD764 PUSH20 0x6F6C634300080700330000000000000000000000 "
				},
				"gasEstimates": {
					"creation": {
						"codeDepositCost": "382200",
						"executionCost": "418",
						"totalCost": "382618"
					},
					"external": {
						"balanceReceived(address)": "2858",
						"contractBalance(uint256)": "infinite",
						"getBalance()": "339",
						"sendMoney()": "infinite",
						"withdrawAllMoney(address)": "infinite",
						"withdrawMoney(address,uint256)": "infinite"
					}
				},
				"methodIdentifiers": {
					"balanceReceived(address)": "d18a42e1",
					"contractBalance(uint256)": "f17715ef",
					"getBalance()": "12065fe0",
					"sendMoney()": "cbedbf5a",
					"withdrawAllMoney(address)": "0adec93c",
					"withdrawMoney(address,uint256)": "f274c897"
				}
			},
			"storageLayout": {
				"storage": [
					{
						"astId": 21,
						"contract": "mappingstructure/MappingStructure.sol:MappingStructureContract",
						"label": "contractBalance",
						"offset": 0,
						"slot": "0",
						"type": "t_mapping(t_uint256,t_struct(Balance)16_storage)"
					},
					{
						"astId": 25,
						"contract": "mappingstructure/MappingStructure.sol:MappingStructureContract",
						"label": "balanceReceived",
						"offset": 0,
						"slot": "1",
						"type": "t_mapping(t_address,t_uint256)"
					}
				],
				"types": {
					"t_address": {
						"encoding": "inplace",
						"label": "address",
						"numberOfBytes": "20"
					},
					"t_mapping(t_address,t_uint256)": {
						"encoding": "mapping",
						"key": "t_address",
						"label": "mapping(address => uint256)",
						"numberOfBytes": "32",
						"value": "t_uint256"
					},
					"t_mapping(t_uint256,t_struct(Balance)16_storage)": {
						"encoding": "mapping",
						"key": "t_uint256",
						"label": "mapping(uint256 => struct MappingStructureContract.Balance)",
						"numberOfBytes": "32",
						"value": "t_struct(Balance)16_storage"
					},
					"t_mapping(t_uint256,t_struct(Payment)6_storage)": {
						"encoding": "mapping",
						"key": "t_uint256",
						"label": "mapping(uint256 => struct MappingStructureContract.Payment)",
						"numberOfBytes": "32",
						"value": "t_struct(Payment)6_storage"
					},
					"t_struct(Balance)16_storage": {
						"encoding": "inplace",
						"label": "struct MappingStructureContract.Balance",
						"members": [
							{
								"astId": 8,
								"contract": "mappingstructure/MappingStructure.sol:MappingStructureContract",
								"label": "totalBalance",
								"offset": 0,
								"slot": "0",
								"type": "t_uint256"
							},
							{
								"astId": 10,
								"contract": "mappingstructure/MappingStructure.sol:MappingStructureContract",
								"label": "numberOfPayments",
								"offset": 0,
								"slot": "1",
								"type": "t_uint256"
							},
							{
								"astId": 15,
								"contract": "mappingstructure/MappingStructure.sol:MappingStructureContract",
								"label": "payments",
								"offset": 0,
								"slot": "2",
								"type": "t_mapping(t_uint256,t_struct(Payment)6_storage)"
							}
						],
						"numberOfBytes": "96"
					},
					"t_struct(Payment)6_storage": {
						"encoding": "inplace",
						"label": "struct MappingStructureContract.Payment",
						"members": [
							{
								"astId": 3,
								"contract": "mappingstructure/MappingStructure.sol:MappingStructureContract",
								"label": "amount",
								"offset": 0,
								"slot": "0",
								"type": "t_uint256"
							},
							{
								"astId": 5,
								"contract": "mappingstructure/MappingStructure.sol:MappingStructureContract",
								"label": "timestamp",
								"offset": 0,
								"slot": "1",
								"type": "t_uint256"
							}
						],
						"numberOfBytes": "64"
					},
					"t_uint256": {
						"encoding": "inplace",
						"label": "uint256",
						"numberOfBytes": "32"
					}
				}
			},
			"userdoc": {
				"kind": "user",
				"methods": {},
				"version": 1
			}
		}
	}
}