{
	"mappingstructure/MappingStructure.sol": {
		"MappingStructureContract": {
			"abi": [
				{
					"inputs": [
						{
							"internalType": "address",
							"name": "",
							"type": "address"
						}
					],
					"name": "balanceReceived",
					"outputs": [
						{
							"internalType": "uint256",
							"name": "",
							"type": "uint256"
						}
					],
					"stateMutability": "view",
					"type": "function"
				},
				{
					"inputs": [],
					"name": "getBalance",
					"outputs": [
						{
							"internalType": "uint256",
							"name": "",
							"type": "uint256"
						}
					],
					"stateMutability": "view",
					"type": "function"
				},
				{
					"inputs": [],
					"name": "sendMoney",
					"outputs": [],
					"stateMutability": "payable",
					"type": "function"
				},
				{
					"inputs": [
						{
							"internalType": "address payable",
							"name": "_to",
							"type": "address"
						}
					],
					"name": "withdrawAllMoney",
					"outputs": [],
					"stateMutability": "nonpayable",
					"type": "function"
				}
			],
			"devdoc": {
				"kind": "dev",
				"methods": {},
				"version": 1
			},
			"evm": {
				"assembly": "    /* \"mappingstructure/MappingStructure.sol\":92:575  contract MappingStructureContract {\r... */\n  mstore(0x40, 0x80)\n  callvalue\n  dup1\n  iszero\n  tag_1\n  jumpi\n  0x00\n  dup1\n  revert\ntag_1:\n  pop\n  dataSize(sub_0)\n  dup1\n  dataOffset(sub_0)\n  0x00\n  codecopy\n  0x00\n  return\nstop\n\nsub_0: assembly {\n        /* \"mappingstructure/MappingStructure.sol\":92:575  contract MappingStructureContract {\r... */\n      mstore(0x40, 0x80)\n      jumpi(tag_1, lt(calldatasize, 0x04))\n      shr(0xe0, calldataload(0x00))\n      dup1\n      0x0adec93c\n      eq\n      tag_2\n      jumpi\n      dup1\n      0x12065fe0\n      eq\n      tag_3\n      jumpi\n      dup1\n      0xcbedbf5a\n      eq\n      tag_4\n      jumpi\n      dup1\n      0xd18a42e1\n      eq\n      tag_5\n      jumpi\n    tag_1:\n      0x00\n      dup1\n      revert\n        /* \"mappingstructure/MappingStructure.sol\":397:572  function withdrawAllMoney(address payable _to) public {\r... */\n    tag_2:\n      callvalue\n      dup1\n      iszero\n      tag_6\n      jumpi\n      0x00\n      dup1\n      revert\n    tag_6:\n      pop\n      tag_7\n      0x04\n      dup1\n      calldatasize\n      sub\n      dup2\n      add\n      swap1\n      tag_8\n      swap2\n      swap1\n      tag_9\n      jump\t// in\n    tag_8:\n      tag_10\n      jump\t// in\n    tag_7:\n      stop\n        /* \"mappingstructure/MappingStructure.sol\":191:286  function getBalance() public view returns(uint) {\r... */\n    tag_3:\n      callvalue\n      dup1\n      iszero\n      tag_11\n      jumpi\n      0x00\n      dup1\n      revert\n    tag_11:\n      pop\n      tag_12\n      tag_13\n      jump\t// in\n    tag_12:\n      mload(0x40)\n      tag_14\n      swap2\n      swap1\n      tag_15\n      jump\t// in\n    tag_14:\n      mload(0x40)\n      dup1\n      swap2\n      sub\n      swap1\n      return\n        /* \"mappingstructure/MappingStructure.sol\":294:389  function sendMoney() public payable {\r... */\n    tag_4:\n      tag_16\n      tag_17\n      jump\t// in\n    tag_16:\n      stop\n        /* \"mappingstructure/MappingStructure.sol\":135:182  mapping(address => uint) public balanceReceived */\n    tag_5:\n      callvalue\n      dup1\n      iszero\n      tag_18\n      jumpi\n      0x00\n      dup1\n      revert\n    tag_18:\n      pop\n      tag_19\n      0x04\n      dup1\n      calldatasize\n      sub\n      dup2\n      add\n      swap1\n      tag_20\n      swap2\n      swap1\n      tag_21\n      jump\t// in\n    tag_20:\n      tag_22\n      jump\t// in\n    tag_19:\n      mload(0x40)\n      tag_23\n      swap2\n      swap1\n      tag_15\n      jump\t// in\n    tag_23:\n      mload(0x40)\n      dup1\n      swap2\n      sub\n      swap1\n      return\n        /* \"mappingstructure/MappingStructure.sol\":397:572  function withdrawAllMoney(address payable _to) public {\r... */\n    tag_10:\n        /* \"mappingstructure/MappingStructure.sol\":462:480  uint balanceToSend */\n      0x00\n        /* \"mappingstructure/MappingStructure.sol\":483:498  balanceReceived */\n      dup1\n        /* \"mappingstructure/MappingStructure.sol\":483:510  balanceReceived[msg.sender] */\n      0x00\n        /* \"mappingstructure/MappingStructure.sol\":499:509  msg.sender */\n      caller\n        /* \"mappingstructure/MappingStructure.sol\":483:510  balanceReceived[msg.sender] */\n      0xffffffffffffffffffffffffffffffffffffffff\n      and\n      0xffffffffffffffffffffffffffffffffffffffff\n      and\n      dup2\n      mstore\n      0x20\n      add\n      swap1\n      dup2\n      mstore\n      0x20\n      add\n      0x00\n      keccak256\n      sload\n        /* \"mappingstructure/MappingStructure.sol\":462:510  uint balanceToSend = balanceReceived[msg.sender] */\n      swap1\n      pop\n        /* \"mappingstructure/MappingStructure.sol\":533:536  _to */\n      dup2\n        /* \"mappingstructure/MappingStructure.sol\":533:545  _to.transfer */\n      0xffffffffffffffffffffffffffffffffffffffff\n      and\n        /* \"mappingstructure/MappingStructure.sol\":533:564  _to.transfer(this.getBalance()) */\n      0x08fc\n        /* \"mappingstructure/MappingStructure.sol\":546:550  this */\n      address\n        /* \"mappingstructure/MappingStructure.sol\":546:561  this.getBalance */\n      0xffffffffffffffffffffffffffffffffffffffff\n      and\n      0x12065fe0\n        /* \"mappingstructure/MappingStructure.sol\":546:563  this.getBalance() */\n      mload(0x40)\n      dup2\n      0xffffffff\n      and\n      0xe0\n      shl\n      dup2\n      mstore\n      0x04\n      add\n      0x20\n      mload(0x40)\n      dup1\n      dup4\n      sub\n      dup2\n      dup7\n      dup1\n      extcodesize\n      iszero\n      dup1\n      iszero\n      tag_25\n      jumpi\n      0x00\n      dup1\n      revert\n    tag_25:\n      pop\n      gas\n      staticcall\n      iszero\n      dup1\n      iszero\n      tag_27\n      jumpi\n      returndatasize\n      0x00\n      dup1\n      returndatacopy\n      revert(0x00, returndatasize)\n    tag_27:\n      pop\n      pop\n      pop\n      pop\n      mload(0x40)\n      returndatasize\n      not(0x1f)\n      0x1f\n      dup3\n      add\n      and\n      dup3\n      add\n      dup1\n      0x40\n      mstore\n      pop\n      dup2\n      add\n      swap1\n      tag_28\n      swap2\n      swap1\n      tag_29\n      jump\t// in\n    tag_28:\n        /* \"mappingstructure/MappingStructure.sol\":533:564  _to.transfer(this.getBalance()) */\n      swap1\n      dup2\n      iszero\n      mul\n      swap1\n      mload(0x40)\n      0x00\n      mload(0x40)\n      dup1\n      dup4\n      sub\n      dup2\n      dup6\n      dup9\n      dup9\n      call\n      swap4\n      pop\n      pop\n      pop\n      pop\n      iszero\n      dup1\n      iszero\n      tag_31\n      jumpi\n      returndatasize\n      0x00\n      dup1\n      returndatacopy\n      revert(0x00, returndatasize)\n    tag_31:\n      pop\n        /* \"mappingstructure/MappingStructure.sol\":451:572  {\r... */\n      pop\n        /* \"mappingstructure/MappingStructure.sol\":397:572  function withdrawAllMoney(address payable _to) public {\r... */\n      pop\n      jump\t// out\n        /* \"mappingstructure/MappingStructure.sol\":191:286  function getBalance() public view returns(uint) {\r... */\n    tag_13:\n        /* \"mappingstructure/MappingStructure.sol\":233:237  uint */\n      0x00\n        /* \"mappingstructure/MappingStructure.sol\":257:278  address(this).balance */\n      selfbalance\n        /* \"mappingstructure/MappingStructure.sol\":250:278  return address(this).balance */\n      swap1\n      pop\n        /* \"mappingstructure/MappingStructure.sol\":191:286  function getBalance() public view returns(uint) {\r... */\n      swap1\n      jump\t// out\n        /* \"mappingstructure/MappingStructure.sol\":294:389  function sendMoney() public payable {\r... */\n    tag_17:\n        /* \"mappingstructure/MappingStructure.sol\":372:381  msg.value */\n      callvalue\n        /* \"mappingstructure/MappingStructure.sol\":341:356  balanceReceived */\n      0x00\n        /* \"mappingstructure/MappingStructure.sol\":341:368  balanceReceived[msg.sender] */\n      dup1\n        /* \"mappingstructure/MappingStructure.sol\":357:367  msg.sender */\n      caller\n        /* \"mappingstructure/MappingStructure.sol\":341:368  balanceReceived[msg.sender] */\n      0xffffffffffffffffffffffffffffffffffffffff\n      and\n      0xffffffffffffffffffffffffffffffffffffffff\n      and\n      dup2\n      mstore\n      0x20\n      add\n      swap1\n      dup2\n      mstore\n      0x20\n      add\n      0x00\n      keccak256\n      0x00\n        /* \"mappingstructure/MappingStructure.sol\":341:381  balanceReceived[msg.sender] += msg.value */\n      dup3\n      dup3\n      sload\n      tag_34\n      swap2\n      swap1\n      tag_35\n      jump\t// in\n    tag_34:\n      swap3\n      pop\n      pop\n      dup2\n      swap1\n      sstore\n      pop\n        /* \"mappingstructure/MappingStructure.sol\":294:389  function sendMoney() public payable {\r... */\n      jump\t// out\n        /* \"mappingstructure/MappingStructure.sol\":135:182  mapping(address => uint) public balanceReceived */\n    tag_22:\n      mstore(0x20, 0x00)\n      dup1\n      0x00\n      mstore\n      keccak256(0x00, 0x40)\n      0x00\n      swap2\n      pop\n      swap1\n      pop\n      sload\n      dup2\n      jump\t// out\n        /* \"#utility.yul\":7:146   */\n    tag_37:\n        /* \"#utility.yul\":53:58   */\n      0x00\n        /* \"#utility.yul\":91:97   */\n      dup2\n        /* \"#utility.yul\":78:98   */\n      calldataload\n        /* \"#utility.yul\":69:98   */\n      swap1\n      pop\n        /* \"#utility.yul\":107:140   */\n      tag_39\n        /* \"#utility.yul\":134:139   */\n      dup2\n        /* \"#utility.yul\":107:140   */\n      tag_40\n      jump\t// in\n    tag_39:\n        /* \"#utility.yul\":7:146   */\n      swap3\n      swap2\n      pop\n      pop\n      jump\t// out\n        /* \"#utility.yul\":152:307   */\n    tag_41:\n        /* \"#utility.yul\":206:211   */\n      0x00\n        /* \"#utility.yul\":244:250   */\n      dup2\n        /* \"#utility.yul\":231:251   */\n      calldataload\n        /* \"#utility.yul\":222:251   */\n      swap1\n      pop\n        /* \"#utility.yul\":260:301   */\n      tag_43\n        /* \"#utility.yul\":295:300   */\n      dup2\n        /* \"#utility.yul\":260:301   */\n      tag_44\n      jump\t// in\n    tag_43:\n        /* \"#utility.yul\":152:307   */\n      swap3\n      swap2\n      pop\n      pop\n      jump\t// out\n        /* \"#utility.yul\":313:456   */\n    tag_45:\n        /* \"#utility.yul\":370:375   */\n      0x00\n        /* \"#utility.yul\":401:407   */\n      dup2\n        /* \"#utility.yul\":395:408   */\n      mload\n        /* \"#utility.yul\":386:408   */\n      swap1\n      pop\n        /* \"#utility.yul\":417:450   */\n      tag_47\n        /* \"#utility.yul\":444:449   */\n      dup2\n        /* \"#utility.yul\":417:450   */\n      tag_48\n      jump\t// in\n    tag_47:\n        /* \"#utility.yul\":313:456   */\n      swap3\n      swap2\n      pop\n      pop\n      jump\t// out\n        /* \"#utility.yul\":462:791   */\n    tag_21:\n        /* \"#utility.yul\":521:527   */\n      0x00\n        /* \"#utility.yul\":570:572   */\n      0x20\n        /* \"#utility.yul\":558:567   */\n      dup3\n        /* \"#utility.yul\":549:556   */\n      dup5\n        /* \"#utility.yul\":545:568   */\n      sub\n        /* \"#utility.yul\":541:573   */\n      slt\n        /* \"#utility.yul\":538:657   */\n      iszero\n      tag_50\n      jumpi\n        /* \"#utility.yul\":576:655   */\n      tag_51\n      tag_52\n      jump\t// in\n    tag_51:\n        /* \"#utility.yul\":538:657   */\n    tag_50:\n        /* \"#utility.yul\":696:697   */\n      0x00\n        /* \"#utility.yul\":721:774   */\n      tag_53\n        /* \"#utility.yul\":766:773   */\n      dup5\n        /* \"#utility.yul\":757:763   */\n      dup3\n        /* \"#utility.yul\":746:755   */\n      dup6\n        /* \"#utility.yul\":742:764   */\n      add\n        /* \"#utility.yul\":721:774   */\n      tag_37\n      jump\t// in\n    tag_53:\n        /* \"#utility.yul\":711:774   */\n      swap2\n      pop\n        /* \"#utility.yul\":667:784   */\n      pop\n        /* \"#utility.yul\":462:791   */\n      swap3\n      swap2\n      pop\n      pop\n      jump\t// out\n        /* \"#utility.yul\":797:1142   */\n    tag_9:\n        /* \"#utility.yul\":864:870   */\n      0x00\n        /* \"#utility.yul\":913:915   */\n      0x20\n        /* \"#utility.yul\":901:910   */\n      dup3\n        /* \"#utility.yul\":892:899   */\n      dup5\n        /* \"#utility.yul\":888:911   */\n      sub\n        /* \"#utility.yul\":884:916   */\n      slt\n        /* \"#utility.yul\":881:1000   */\n      iszero\n      tag_55\n      jumpi\n        /* \"#utility.yul\":919:998   */\n      tag_56\n      tag_52\n      jump\t// in\n    tag_56:\n        /* \"#utility.yul\":881:1000   */\n    tag_55:\n        /* \"#utility.yul\":1039:1040   */\n      0x00\n        /* \"#utility.yul\":1064:1125   */\n      tag_57\n        /* \"#utility.yul\":1117:1124   */\n      dup5\n        /* \"#utility.yul\":1108:1114   */\n      dup3\n        /* \"#utility.yul\":1097:1106   */\n      dup6\n        /* \"#utility.yul\":1093:1115   */\n      add\n        /* \"#utility.yul\":1064:1125   */\n      tag_41\n      jump\t// in\n    tag_57:\n        /* \"#utility.yul\":1054:1125   */\n      swap2\n      pop\n        /* \"#utility.yul\":1010:1135   */\n      pop\n        /* \"#utility.yul\":797:1142   */\n      swap3\n      swap2\n      pop\n      pop\n      jump\t// out\n        /* \"#utility.yul\":1148:1499   */\n    tag_29:\n        /* \"#utility.yul\":1218:1224   */\n      0x00\n        /* \"#utility.yul\":1267:1269   */\n      0x20\n        /* \"#utility.yul\":1255:1264   */\n      dup3\n        /* \"#utility.yul\":1246:1253   */\n      dup5\n        /* \"#utility.yul\":1242:1265   */\n      sub\n        /* \"#utility.yul\":1238:1270   */\n      slt\n        /* \"#utility.yul\":1235:1354   */\n      iszero\n      tag_59\n      jumpi\n        /* \"#utility.yul\":1273:1352   */\n      tag_60\n      tag_52\n      jump\t// in\n    tag_60:\n        /* \"#utility.yul\":1235:1354   */\n    tag_59:\n        /* \"#utility.yul\":1393:1394   */\n      0x00\n        /* \"#utility.yul\":1418:1482   */\n      tag_61\n        /* \"#utility.yul\":1474:1481   */\n      dup5\n        /* \"#utility.yul\":1465:1471   */\n      dup3\n        /* \"#utility.yul\":1454:1463   */\n      dup6\n        /* \"#utility.yul\":1450:1472   */\n      add\n        /* \"#utility.yul\":1418:1482   */\n      tag_45\n      jump\t// in\n    tag_61:\n        /* \"#utility.yul\":1408:1482   */\n      swap2\n      pop\n        /* \"#utility.yul\":1364:1492   */\n      pop\n        /* \"#utility.yul\":1148:1499   */\n      swap3\n      swap2\n      pop\n      pop\n      jump\t// out\n        /* \"#utility.yul\":1505:1623   */\n    tag_62:\n        /* \"#utility.yul\":1592:1616   */\n      tag_64\n        /* \"#utility.yul\":1610:1615   */\n      dup2\n        /* \"#utility.yul\":1592:1616   */\n      tag_65\n      jump\t// in\n    tag_64:\n        /* \"#utility.yul\":1587:1590   */\n      dup3\n        /* \"#utility.yul\":1580:1617   */\n      mstore\n        /* \"#utility.yul\":1505:1623   */\n      pop\n      pop\n      jump\t// out\n        /* \"#utility.yul\":1629:1851   */\n    tag_15:\n        /* \"#utility.yul\":1722:1726   */\n      0x00\n        /* \"#utility.yul\":1760:1762   */\n      0x20\n        /* \"#utility.yul\":1749:1758   */\n      dup3\n        /* \"#utility.yul\":1745:1763   */\n      add\n        /* \"#utility.yul\":1737:1763   */\n      swap1\n      pop\n        /* \"#utility.yul\":1773:1844   */\n      tag_67\n        /* \"#utility.yul\":1841:1842   */\n      0x00\n        /* \"#utility.yul\":1830:1839   */\n      dup4\n        /* \"#utility.yul\":1826:1843   */\n      add\n        /* \"#utility.yul\":1817:1823   */\n      dup5\n        /* \"#utility.yul\":1773:1844   */\n      tag_62\n      jump\t// in\n    tag_67:\n        /* \"#utility.yul\":1629:1851   */\n      swap3\n      swap2\n      pop\n      pop\n      jump\t// out\n        /* \"#utility.yul\":1938:2243   */\n    tag_35:\n        /* \"#utility.yul\":1978:1981   */\n      0x00\n        /* \"#utility.yul\":1997:2017   */\n      tag_71\n        /* \"#utility.yul\":2015:2016   */\n      dup3\n        /* \"#utility.yul\":1997:2017   */\n      tag_65\n      jump\t// in\n    tag_71:\n        /* \"#utility.yul\":1992:2017   */\n      swap2\n      pop\n        /* \"#utility.yul\":2031:2051   */\n      tag_72\n        /* \"#utility.yul\":2049:2050   */\n      dup4\n        /* \"#utility.yul\":2031:2051   */\n      tag_65\n      jump\t// in\n    tag_72:\n        /* \"#utility.yul\":2026:2051   */\n      swap3\n      pop\n        /* \"#utility.yul\":2185:2186   */\n      dup3\n        /* \"#utility.yul\":2117:2183   */\n      0xffffffffffffffffffffffffffffffffffffffffffffffffffffffffffffffff\n        /* \"#utility.yul\":2113:2187   */\n      sub\n        /* \"#utility.yul\":2110:2111   */\n      dup3\n        /* \"#utility.yul\":2107:2188   */\n      gt\n        /* \"#utility.yul\":2104:2211   */\n      iszero\n      tag_73\n      jumpi\n        /* \"#utility.yul\":2191:2209   */\n      tag_74\n      tag_75\n      jump\t// in\n    tag_74:\n        /* \"#utility.yul\":2104:2211   */\n    tag_73:\n        /* \"#utility.yul\":2235:2236   */\n      dup3\n        /* \"#utility.yul\":2232:2233   */\n      dup3\n        /* \"#utility.yul\":2228:2237   */\n      add\n        /* \"#utility.yul\":2221:2237   */\n      swap1\n      pop\n        /* \"#utility.yul\":1938:2243   */\n      swap3\n      swap2\n      pop\n      pop\n      jump\t// out\n        /* \"#utility.yul\":2249:2345   */\n    tag_76:\n        /* \"#utility.yul\":2286:2293   */\n      0x00\n        /* \"#utility.yul\":2315:2339   */\n      tag_78\n        /* \"#utility.yul\":2333:2338   */\n      dup3\n        /* \"#utility.yul\":2315:2339   */\n      tag_79\n      jump\t// in\n    tag_78:\n        /* \"#utility.yul\":2304:2339   */\n      swap1\n      pop\n        /* \"#utility.yul\":2249:2345   */\n      swap2\n      swap1\n      pop\n      jump\t// out\n        /* \"#utility.yul\":2351:2455   */\n    tag_80:\n        /* \"#utility.yul\":2396:2403   */\n      0x00\n        /* \"#utility.yul\":2425:2449   */\n      tag_82\n        /* \"#utility.yul\":2443:2448   */\n      dup3\n        /* \"#utility.yul\":2425:2449   */\n      tag_79\n      jump\t// in\n    tag_82:\n        /* \"#utility.yul\":2414:2449   */\n      swap1\n      pop\n        /* \"#utility.yul\":2351:2455   */\n      swap2\n      swap1\n      pop\n      jump\t// out\n        /* \"#utility.yul\":2461:2587   */\n    tag_79:\n        /* \"#utility.yul\":2498:2505   */\n      0x00\n        /* \"#utility.yul\":2538:2580   */\n      0xffffffffffffffffffffffffffffffffffffffff\n        /* \"#utility.yul\":2531:2536   */\n      dup3\n        /* \"#utility.yul\":2527:2581   */\n      and\n        /* \"#utility.yul\":2516:2581   */\n      swap1\n      pop\n        /* \"#utility.yul\":2461:2587   */\n      swap2\n      swap1\n      pop\n      jump\t// out\n        /* \"#utility.yul\":2593:2670   */\n    tag_65:\n        /* \"#utility.yul\":2630:2637   */\n      0x00\n        /* \"#utility.yul\":2659:2664   */\n      dup2\n        /* \"#utility.yul\":2648:2664   */\n      swap1\n      pop\n        /* \"#utility.yul\":2593:2670   */\n      swap2\n      swap1\n      pop\n      jump\t// out\n        /* \"#utility.yul\":2676:2856   */\n    tag_75:\n        /* \"#utility.yul\":2724:2801   */\n      0x4e487b7100000000000000000000000000000000000000000000000000000000\n        /* \"#utility.yul\":2721:2722   */\n      0x00\n        /* \"#utility.yul\":2714:2802   */\n      mstore\n        /* \"#utility.yul\":2821:2825   */\n      0x11\n        /* \"#utility.yul\":2818:2819   */\n      0x04\n        /* \"#utility.yul\":2811:2826   */\n      mstore\n        /* \"#utility.yul\":2845:2849   */\n      0x24\n        /* \"#utility.yul\":2842:2843   */\n      0x00\n        /* \"#utility.yul\":2835:2850   */\n      revert\n        /* \"#utility.yul\":2985:3102   */\n    tag_52:\n        /* \"#utility.yul\":3094:3095   */\n      0x00\n        /* \"#utility.yul\":3091:3092   */\n      dup1\n        /* \"#utility.yul\":3084:3096   */\n      revert\n        /* \"#utility.yul\":3108:3230   */\n    tag_40:\n        /* \"#utility.yul\":3181:3205   */\n      tag_90\n        /* \"#utility.yul\":3199:3204   */\n      dup2\n        /* \"#utility.yul\":3181:3205   */\n      tag_76\n      jump\t// in\n    tag_90:\n        /* \"#utility.yul\":3174:3179   */\n      dup2\n        /* \"#utility.yul\":3171:3206   */\n      eq\n        /* \"#utility.yul\":3161:3224   */\n      tag_91\n      jumpi\n        /* \"#utility.yul\":3220:3221   */\n      0x00\n        /* \"#utility.yul\":3217:3218   */\n      dup1\n        /* \"#utility.yul\":3210:3222   */\n      revert\n        /* \"#utility.yul\":3161:3224   */\n    tag_91:\n        /* \"#utility.yul\":3108:3230   */\n      pop\n      jump\t// out\n        /* \"#utility.yul\":3236:3374   */\n    tag_44:\n        /* \"#utility.yul\":3317:3349   */\n      tag_93\n        /* \"#utility.yul\":3343:3348   */\n      dup2\n        /* \"#utility.yul\":3317:3349   */\n      tag_80\n      jump\t// in\n    tag_93:\n        /* \"#utility.yul\":3310:3315   */\n      dup2\n        /* \"#utility.yul\":3307:3350   */\n      eq\n        /* \"#utility.yul\":3297:3368   */\n      tag_94\n      jumpi\n        /* \"#utility.yul\":3364:3365   */\n      0x00\n        /* \"#utility.yul\":3361:3362   */\n      dup1\n        /* \"#utility.yul\":3354:3366   */\n      revert\n        /* \"#utility.yul\":3297:3368   */\n    tag_94:\n        /* \"#utility.yul\":3236:3374   */\n      pop\n      jump\t// out\n        /* \"#utility.yul\":3380:3502   */\n    tag_48:\n        /* \"#utility.yul\":3453:3477   */\n      tag_96\n        /* \"#utility.yul\":3471:3476   */\n      dup2\n        /* \"#utility.yul\":3453:3477   */\n      tag_65\n      jump\t// in\n    tag_96:\n        /* \"#utility.yul\":3446:3451   */\n      dup2\n        /* \"#utility.yul\":3443:3478   */\n      eq\n        /* \"#utility.yul\":3433:3496   */\n      tag_97\n      jumpi\n        /* \"#utility.yul\":3492:3493   */\n      0x00\n        /* \"#utility.yul\":3489:3490   */\n      dup1\n        /* \"#utility.yul\":3482:3494   */\n      revert\n        /* \"#utility.yul\":3433:3496   */\n    tag_97:\n        /* \"#utility.yul\":3380:3502   */\n      pop\n      jump\t// out\n\n    auxdata: 0xa2646970667358221220be43e73906673ea09355d4fa15531284f7808f07480af5dab5386882f3968e1c64736f6c63430008070033\n}\n",
				"bytecode": {
					"linkReferences": {},
					"object": "608060405234801561001057600080fd5b506104a4806100206000396000f3fe60806040526004361061003f5760003560e01c80630adec93c1461004457806312065fe01461006d578063cbedbf5a14610098578063d18a42e1146100a2575b600080fd5b34801561005057600080fd5b5061006b600480360381019061006691906102cd565b6100df565b005b34801561007957600080fd5b506100826101ea565b60405161008f9190610336565b60405180910390f35b6100a06101f2565b005b3480156100ae57600080fd5b506100c960048036038101906100c491906102a0565b610249565b6040516100d69190610336565b60405180910390f35b60008060003373ffffffffffffffffffffffffffffffffffffffff1673ffffffffffffffffffffffffffffffffffffffff1681526020019081526020016000205490508173ffffffffffffffffffffffffffffffffffffffff166108fc3073ffffffffffffffffffffffffffffffffffffffff166312065fe06040518163ffffffff1660e01b815260040160206040518083038186803b15801561018257600080fd5b505afa158015610196573d6000803e3d6000fd5b505050506040513d601f19601f820116820180604052508101906101ba91906102fa565b9081150290604051600060405180830381858888f193505050501580156101e5573d6000803e3d6000fd5b505050565b600047905090565b346000803373ffffffffffffffffffffffffffffffffffffffff1673ffffffffffffffffffffffffffffffffffffffff16815260200190815260200160002060008282546102409190610351565b92505081905550565b60006020528060005260406000206000915090505481565b60008135905061027081610429565b92915050565b60008135905061028581610440565b92915050565b60008151905061029a81610457565b92915050565b6000602082840312156102b6576102b5610424565b5b60006102c484828501610261565b91505092915050565b6000602082840312156102e3576102e2610424565b5b60006102f184828501610276565b91505092915050565b6000602082840312156103105761030f610424565b5b600061031e8482850161028b565b91505092915050565b610330816103eb565b82525050565b600060208201905061034b6000830184610327565b92915050565b600061035c826103eb565b9150610367836103eb565b9250827fffffffffffffffffffffffffffffffffffffffffffffffffffffffffffffffff0382111561039c5761039b6103f5565b5b828201905092915050565b60006103b2826103cb565b9050919050565b60006103c4826103cb565b9050919050565b600073ffffffffffffffffffffffffffffffffffffffff82169050919050565b6000819050919050565b7f4e487b7100000000000000000000000000000000000000000000000000000000600052601160045260246000fd5b600080fd5b610432816103a7565b811461043d57600080fd5b50565b610449816103b9565b811461045457600080fd5b50565b610460816103eb565b811461046b57600080fd5b5056fea2646970667358221220be43e73906673ea09355d4fa15531284f7808f07480af5dab5386882f3968e1c64736f6c63430008070033",
					"opcodes": "PUSH1 0x80 PUSH1 0x40 MSTORE CALLVALUE DUP1 ISZERO PUSH2 0x10 JUMPI PUSH1 0x0 DUP1 REVERT JUMPDEST POP PUSH2 0x4A4 DUP1 PUSH2 0x20 PUSH1 0x0 CODECOPY PUSH1 0x0 RETURN INVALID PUSH1 0x80 PUSH1 0x40 MSTORE PUSH1 0x4 CALLDATASIZE LT PUSH2 0x3F JUMPI PUSH1 0x0 CALLDATALOAD PUSH1 0xE0 SHR DUP1 PUSH4 0xADEC93C EQ PUSH2 0x44 JUMPI DUP1 PUSH4 0x12065FE0 EQ PUSH2 0x6D JUMPI DUP1 PUSH4 0xCBEDBF5A EQ PUSH2 0x98 JUMPI DUP1 PUSH4 0xD18A42E1 EQ PUSH2 0xA2 JUMPI JUMPDEST PUSH1 0x0 DUP1 REVERT JUMPDEST CALLVALUE DUP1 ISZERO PUSH2 0x50 JUMPI PUSH1 0x0 DUP1 REVERT JUMPDEST POP PUSH2 0x6B PUSH1 0x4 DUP1 CALLDATASIZE SUB DUP2 ADD SWAP1 PUSH2 0x66 SWAP2 SWAP1 PUSH2 0x2CD JUMP JUMPDEST PUSH2 0xDF JUMP JUMPDEST STOP JUMPDEST CALLVALUE DUP1 ISZERO PUSH2 0x79 JUMPI PUSH1 0x0 DUP1 REVERT JUMPDEST POP PUSH2 0x82 PUSH2 0x1EA JUMP JUMPDEST PUSH1 0x40 MLOAD PUSH2 0x8F SWAP2 SWAP1 PUSH2 0x336 JUMP JUMPDEST PUSH1 0x40 MLOAD DUP1 SWAP2 SUB SWAP1 RETURN JUMPDEST PUSH2 0xA0 PUSH2 0x1F2 JUMP JUMPDEST STOP JUMPDEST CALLVALUE DUP1 ISZERO PUSH2 0xAE JUMPI PUSH1 0x0 DUP1 REVERT JUMPDEST POP PUSH2 0xC9 PUSH1 0x4 DUP1 CALLDATASIZE SUB DUP2 ADD SWAP1 PUSH2 0xC4 SWAP2 SWAP1 PUSH2 0x2A0 JUMP JUMPDEST PUSH2 0x249 JUMP JUMPDEST PUSH1 0x40 MLOAD PUSH2 0xD6 SWAP2 SWAP1 PUSH2 0x336 JUMP JUMPDEST PUSH1 0x40 MLOAD DUP1 SWAP2 SUB SWAP1 RETURN JUMPDEST PUSH1 0x0 DUP1 PUSH1 0x0 CALLER PUSH20 0xFFFFFFFFFFFFFFFFFFFFFFFFFFFFFFFFFFFFFFFF AND PUSH20 0xFFFFFFFFFFFFFFFFFFFFFFFFFFFFFFFFFFFFFFFF AND DUP2 MSTORE PUSH1 0x20 ADD SWAP1 DUP2 MSTORE PUSH1 0x20 ADD PUSH1 0x0 KECCAK256 SLOAD SWAP1 POP DUP2 PUSH20 0xFFFFFFFFFFFFFFFFFFFFFFFFFFFFFFFFFFFFFFFF AND PUSH2 0x8FC ADDRESS PUSH20 0xFFFFFFFFFFFFFFFFFFFFFFFFFFFFFFFFFFFFFFFF AND PUSH4 0x12065FE0 PUSH1 0x40 MLOAD DUP2 PUSH4 0xFFFFFFFF AND PUSH1 0xE0 SHL DUP2 MSTORE PUSH1 0x4 ADD PUSH1 0x20 PUSH1 0x40 MLOAD DUP1 DUP4 SUB DUP2 DUP7 DUP1 EXTCODESIZE ISZERO DUP1 ISZERO PUSH2 0x182 JUMPI PUSH1 0x0 DUP1 REVERT JUMPDEST POP GAS STATICCALL ISZERO DUP1 ISZERO PUSH2 0x196 JUMPI RETURNDATASIZE PUSH1 0x0 DUP1 RETURNDATACOPY RETURNDATASIZE PUSH1 0x0 REVERT JUMPDEST POP POP POP POP PUSH1 0x40 MLOAD RETURNDATASIZE PUSH1 0x1F NOT PUSH1 0x1F DUP3 ADD AND DUP3 ADD DUP1 PUSH1 0x40 MSTORE POP DUP2 ADD SWAP1 PUSH2 0x1BA SWAP2 SWAP1 PUSH2 0x2FA JUMP JUMPDEST SWAP1 DUP2 ISZERO MUL SWAP1 PUSH1 0x40 MLOAD PUSH1 0x0 PUSH1 0x40 MLOAD DUP1 DUP4 SUB DUP2 DUP6 DUP9 DUP9 CALL SWAP4 POP POP POP POP ISZERO DUP1 ISZERO PUSH2 0x1E5 JUMPI RETURNDATASIZE PUSH1 0x0 DUP1 RETURNDATACOPY RETURNDATASIZE PUSH1 0x0 REVERT JUMPDEST POP POP POP JUMP JUMPDEST PUSH1 0x0 SELFBALANCE SWAP1 POP SWAP1 JUMP JUMPDEST CALLVALUE PUSH1 0x0 DUP1 CALLER PUSH20 0xFFFFFFFFFFFFFFFFFFFFFFFFFFFFFFFFFFFFFFFF AND PUSH20 0xFFFFFFFFFFFFFFFFFFFFFFFFFFFFFFFFFFFFFFFF AND DUP2 MSTORE PUSH1 0x20 ADD SWAP1 DUP2 MSTORE PUSH1 0x20 ADD PUSH1 0x0 KECCAK256 PUSH1 0x0 DUP3 DUP3 SLOAD PUSH2 0x240 SWAP2 SWAP1 PUSH2 0x351 JUMP JUMPDEST SWAP3 POP POP DUP2 SWAP1 SSTORE POP JUMP JUMPDEST PUSH1 0x0 PUSH1 0x20 MSTORE DUP1 PUSH1 0x0 MSTORE PUSH1 0x40 PUSH1 0x0 KECCAK256 PUSH1 0x0 SWAP2 POP SWAP1 POP SLOAD DUP2 JUMP JUMPDEST PUSH1 0x0 DUP2 CALLDATALOAD SWAP1 POP PUSH2 0x270 DUP2 PUSH2 0x429 JUMP JUMPDEST SWAP3 SWAP2 POP POP JUMP JUMPDEST PUSH1 0x0 DUP2 CALLDATALOAD SWAP1 POP PUSH2 0x285 DUP2 PUSH2 0x440 JUMP JUMPDEST SWAP3 SWAP2 POP POP JUMP JUMPDEST PUSH1 0x0 DUP2 MLOAD SWAP1 POP PUSH2 0x29A DUP2 PUSH2 0x457 JUMP JUMPDEST SWAP3 SWAP2 POP POP JUMP JUMPDEST PUSH1 0x0 PUSH1 0x20 DUP3 DUP5 SUB SLT ISZERO PUSH2 0x2B6 JUMPI PUSH2 0x2B5 PUSH2 0x424 JUMP JUMPDEST JUMPDEST PUSH1 0x0 PUSH2 0x2C4 DUP5 DUP3 DUP6 ADD PUSH2 0x261 JUMP JUMPDEST SWAP2 POP POP SWAP3 SWAP2 POP POP JUMP JUMPDEST PUSH1 0x0 PUSH1 0x20 DUP3 DUP5 SUB SLT ISZERO PUSH2 0x2E3 JUMPI PUSH2 0x2E2 PUSH2 0x424 JUMP JUMPDEST JUMPDEST PUSH1 0x0 PUSH2 0x2F1 DUP5 DUP3 DUP6 ADD PUSH2 0x276 JUMP JUMPDEST SWAP2 POP POP SWAP3 SWAP2 POP POP JUMP JUMPDEST PUSH1 0x0 PUSH1 0x20 DUP3 DUP5 SUB SLT ISZERO PUSH2 0x310 JUMPI PUSH2 0x30F PUSH2 0x424 JUMP JUMPDEST JUMPDEST PUSH1 0x0 PUSH2 0x31E DUP5 DUP3 DUP6 ADD PUSH2 0x28B JUMP JUMPDEST SWAP2 POP POP SWAP3 SWAP2 POP POP JUMP JUMPDEST PUSH2 0x330 DUP2 PUSH2 0x3EB JUMP JUMPDEST DUP3 MSTORE POP POP JUMP JUMPDEST PUSH1 0x0 PUSH1 0x20 DUP3 ADD SWAP1 POP PUSH2 0x34B PUSH1 0x0 DUP4 ADD DUP5 PUSH2 0x327 JUMP JUMPDEST SWAP3 SWAP2 POP POP JUMP JUMPDEST PUSH1 0x0 PUSH2 0x35C DUP3 PUSH2 0x3EB JUMP JUMPDEST SWAP2 POP PUSH2 0x367 DUP4 PUSH2 0x3EB JUMP JUMPDEST SWAP3 POP DUP3 PUSH32 0xFFFFFFFFFFFFFFFFFFFFFFFFFFFFFFFFFFFFFFFFFFFFFFFFFFFFFFFFFFFFFFFF SUB DUP3 GT ISZERO PUSH2 0x39C JUMPI PUSH2 0x39B PUSH2 0x3F5 JUMP JUMPDEST JUMPDEST DUP3 DUP3 ADD SWAP1 POP SWAP3 SWAP2 POP POP JUMP JUMPDEST PUSH1 0x0 PUSH2 0x3B2 DUP3 PUSH2 0x3CB JUMP JUMPDEST SWAP1 POP SWAP2 SWAP1 POP JUMP JUMPDEST PUSH1 0x0 PUSH2 0x3C4 DUP3 PUSH2 0x3CB JUMP JUMPDEST SWAP1 POP SWAP2 SWAP1 POP JUMP JUMPDEST PUSH1 0x0 PUSH20 0xFFFFFFFFFFFFFFFFFFFFFFFFFFFFFFFFFFFFFFFF DUP3 AND SWAP1 POP SWAP2 SWAP1 POP JUMP JUMPDEST PUSH1 0x0 DUP2 SWAP1 POP SWAP2 SWAP1 POP JUMP JUMPDEST PUSH32 0x4E487B7100000000000000000000000000000000000000000000000000000000 PUSH1 0x0 MSTORE PUSH1 0x11 PUSH1 0x4 MSTORE PUSH1 0x24 PUSH1 0x0 REVERT JUMPDEST PUSH1 0x0 DUP1 REVERT JUMPDEST PUSH2 0x432 DUP2 PUSH2 0x3A7 JUMP JUMPDEST DUP2 EQ PUSH2 0x43D JUMPI PUSH1 0x0 DUP1 REVERT JUMPDEST POP JUMP JUMPDEST PUSH2 0x449 DUP2 PUSH2 0x3B9 JUMP JUMPDEST DUP2 EQ PUSH2 0x454 JUMPI PUSH1 0x0 DUP1 REVERT JUMPDEST POP JUMP JUMPDEST PUSH2 0x460 DUP2 PUSH2 0x3EB JUMP JUMPDEST DUP2 EQ PUSH2 0x46B JUMPI PUSH1 0x0 DUP1 REVERT JUMPDEST POP JUMP INVALID LOG2 PUSH5 0x6970667358 0x22 SLT KECCAK256 0xBE NUMBER 0xE7 CODECOPY MOD PUSH8 0x3EA09355D4FA1553 SLT DUP5 0xF7 DUP1 DUP16 SMOD BASEFEE EXP CREATE2 0xDA 0xB5 CODESIZE PUSH9 0x82F3968E1C64736F6C PUSH4 0x43000807 STOP CALLER "
				},
				"gasEstimates": {
					"creation": {
						"codeDepositCost": "237600",
						"executionCost": "281",
						"totalCost": "237881"
					},
					"external": {
						"balanceReceived(address)": "2858",
						"getBalance()": "339",
						"sendMoney()": "infinite",
						"withdrawAllMoney(address)": "infinite"
					}
				},
				"methodIdentifiers": {
					"balanceReceived(address)": "d18a42e1",
					"getBalance()": "12065fe0",
					"sendMoney()": "cbedbf5a",
					"withdrawAllMoney(address)": "0adec93c"
				}
			},
			"storageLayout": {
				"storage": [
					{
						"astId": 5,
						"contract": "mappingstructure/MappingStructure.sol:MappingStructureContract",
						"label": "balanceReceived",
						"offset": 0,
						"slot": "0",
						"type": "t_mapping(t_address,t_uint256)"
					}
				],
				"types": {
					"t_address": {
						"encoding": "inplace",
						"label": "address",
						"numberOfBytes": "20"
					},
					"t_mapping(t_address,t_uint256)": {
						"encoding": "mapping",
						"key": "t_address",
						"label": "mapping(address => uint256)",
						"numberOfBytes": "32",
						"value": "t_uint256"
					},
					"t_uint256": {
						"encoding": "inplace",
						"label": "uint256",
						"numberOfBytes": "32"
					}
				}
			},
			"userdoc": {
				"kind": "user",
				"methods": {},
				"version": 1
			}
		}
	}
}