{
	"mappingstructure/MappingStructure.sol": {
		"MappingStructureContract": {
			"abi": [
				{
					"inputs": [
						{
							"internalType": "address",
							"name": "",
							"type": "address"
						}
					],
					"name": "balanceReceived",
					"outputs": [
						{
							"internalType": "uint256",
							"name": "",
							"type": "uint256"
						}
					],
					"stateMutability": "view",
					"type": "function"
				},
				{
					"inputs": [],
					"name": "getBalance",
					"outputs": [
						{
							"internalType": "uint256",
							"name": "",
							"type": "uint256"
						}
					],
					"stateMutability": "view",
					"type": "function"
				},
				{
					"inputs": [],
					"name": "sendMoney",
					"outputs": [],
					"stateMutability": "payable",
					"type": "function"
				},
				{
					"inputs": [
						{
							"internalType": "address payable",
							"name": "_to",
							"type": "address"
						}
					],
					"name": "withdrawAllMoney",
					"outputs": [],
					"stateMutability": "nonpayable",
					"type": "function"
				},
				{
					"inputs": [
						{
							"internalType": "address payable",
							"name": "_to",
							"type": "address"
						},
						{
							"internalType": "uint256",
							"name": "_requestedAmount",
							"type": "uint256"
						}
					],
					"name": "withdrawMoney",
					"outputs": [],
					"stateMutability": "nonpayable",
					"type": "function"
				}
			],
			"devdoc": {
				"kind": "dev",
				"methods": {},
				"version": 1
			},
			"evm": {
				"assembly": "    /* \"mappingstructure/MappingStructure.sol\":92:1034  contract MappingStructureContract {\r... */\n  mstore(0x40, 0x80)\n  callvalue\n  dup1\n  iszero\n  tag_1\n  jumpi\n  0x00\n  dup1\n  revert\ntag_1:\n  pop\n  dataSize(sub_0)\n  dup1\n  dataOffset(sub_0)\n  0x00\n  codecopy\n  0x00\n  return\nstop\n\nsub_0: assembly {\n        /* \"mappingstructure/MappingStructure.sol\":92:1034  contract MappingStructureContract {\r... */\n      mstore(0x40, 0x80)\n      jumpi(tag_1, lt(calldatasize, 0x04))\n      shr(0xe0, calldataload(0x00))\n      dup1\n      0x0adec93c\n      eq\n      tag_2\n      jumpi\n      dup1\n      0x12065fe0\n      eq\n      tag_3\n      jumpi\n      dup1\n      0xcbedbf5a\n      eq\n      tag_4\n      jumpi\n      dup1\n      0xd18a42e1\n      eq\n      tag_5\n      jumpi\n      dup1\n      0xf274c897\n      eq\n      tag_6\n      jumpi\n    tag_1:\n      0x00\n      dup1\n      revert\n        /* \"mappingstructure/MappingStructure.sol\":397:600  function withdrawAllMoney(address payable _to) public {\r... */\n    tag_2:\n      callvalue\n      dup1\n      iszero\n      tag_7\n      jumpi\n      0x00\n      dup1\n      revert\n    tag_7:\n      pop\n      tag_8\n      0x04\n      dup1\n      calldatasize\n      sub\n      dup2\n      add\n      swap1\n      tag_9\n      swap2\n      swap1\n      tag_10\n      jump\t// in\n    tag_9:\n      tag_11\n      jump\t// in\n    tag_8:\n      stop\n        /* \"mappingstructure/MappingStructure.sol\":191:286  function getBalance() public view returns(uint) {\r... */\n    tag_3:\n      callvalue\n      dup1\n      iszero\n      tag_12\n      jumpi\n      0x00\n      dup1\n      revert\n    tag_12:\n      pop\n      tag_13\n      tag_14\n      jump\t// in\n    tag_13:\n      mload(0x40)\n      tag_15\n      swap2\n      swap1\n      tag_16\n      jump\t// in\n    tag_15:\n      mload(0x40)\n      dup1\n      swap2\n      sub\n      swap1\n      return\n        /* \"mappingstructure/MappingStructure.sol\":294:389  function sendMoney() public payable {\r... */\n    tag_4:\n      tag_17\n      tag_18\n      jump\t// in\n    tag_17:\n      stop\n        /* \"mappingstructure/MappingStructure.sol\":135:182  mapping(address => uint) public balanceReceived */\n    tag_5:\n      callvalue\n      dup1\n      iszero\n      tag_19\n      jumpi\n      0x00\n      dup1\n      revert\n    tag_19:\n      pop\n      tag_20\n      0x04\n      dup1\n      calldatasize\n      sub\n      dup2\n      add\n      swap1\n      tag_21\n      swap2\n      swap1\n      tag_22\n      jump\t// in\n    tag_21:\n      tag_23\n      jump\t// in\n    tag_20:\n      mload(0x40)\n      tag_24\n      swap2\n      swap1\n      tag_16\n      jump\t// in\n    tag_24:\n      mload(0x40)\n      dup1\n      swap2\n      sub\n      swap1\n      return\n        /* \"mappingstructure/MappingStructure.sol\":608:1031  function withdrawMoney(address payable _to, uint _requestedAmount) public {\r... */\n    tag_6:\n      callvalue\n      dup1\n      iszero\n      tag_25\n      jumpi\n      0x00\n      dup1\n      revert\n    tag_25:\n      pop\n      tag_26\n      0x04\n      dup1\n      calldatasize\n      sub\n      dup2\n      add\n      swap1\n      tag_27\n      swap2\n      swap1\n      tag_28\n      jump\t// in\n    tag_27:\n      tag_29\n      jump\t// in\n    tag_26:\n      stop\n        /* \"mappingstructure/MappingStructure.sol\":397:600  function withdrawAllMoney(address payable _to) public {\r... */\n    tag_11:\n        /* \"mappingstructure/MappingStructure.sol\":462:480  uint balanceToSend */\n      0x00\n        /* \"mappingstructure/MappingStructure.sol\":483:498  balanceReceived */\n      dup1\n        /* \"mappingstructure/MappingStructure.sol\":483:510  balanceReceived[msg.sender] */\n      0x00\n        /* \"mappingstructure/MappingStructure.sol\":499:509  msg.sender */\n      caller\n        /* \"mappingstructure/MappingStructure.sol\":483:510  balanceReceived[msg.sender] */\n      0xffffffffffffffffffffffffffffffffffffffff\n      and\n      0xffffffffffffffffffffffffffffffffffffffff\n      and\n      dup2\n      mstore\n      0x20\n      add\n      swap1\n      dup2\n      mstore\n      0x20\n      add\n      0x00\n      keccak256\n      sload\n        /* \"mappingstructure/MappingStructure.sol\":462:510  uint balanceToSend = balanceReceived[msg.sender] */\n      swap1\n      pop\n        /* \"mappingstructure/MappingStructure.sol\":551:552  0 */\n      0x00\n        /* \"mappingstructure/MappingStructure.sol\":521:536  balanceReceived */\n      dup1\n        /* \"mappingstructure/MappingStructure.sol\":521:548  balanceReceived[msg.sender] */\n      0x00\n        /* \"mappingstructure/MappingStructure.sol\":537:547  msg.sender */\n      caller\n        /* \"mappingstructure/MappingStructure.sol\":521:548  balanceReceived[msg.sender] */\n      0xffffffffffffffffffffffffffffffffffffffff\n      and\n      0xffffffffffffffffffffffffffffffffffffffff\n      and\n      dup2\n      mstore\n      0x20\n      add\n      swap1\n      dup2\n      mstore\n      0x20\n      add\n      0x00\n      keccak256\n        /* \"mappingstructure/MappingStructure.sol\":521:552  balanceReceived[msg.sender] = 0 */\n      dup2\n      swap1\n      sstore\n      pop\n        /* \"mappingstructure/MappingStructure.sol\":565:568  _to */\n      dup2\n        /* \"mappingstructure/MappingStructure.sol\":565:577  _to.transfer */\n      0xffffffffffffffffffffffffffffffffffffffff\n      and\n        /* \"mappingstructure/MappingStructure.sol\":565:592  _to.transfer(balanceToSend) */\n      0x08fc\n        /* \"mappingstructure/MappingStructure.sol\":578:591  balanceToSend */\n      dup3\n        /* \"mappingstructure/MappingStructure.sol\":565:592  _to.transfer(balanceToSend) */\n      swap1\n      dup2\n      iszero\n      mul\n      swap1\n      mload(0x40)\n      0x00\n      mload(0x40)\n      dup1\n      dup4\n      sub\n      dup2\n      dup6\n      dup9\n      dup9\n      call\n      swap4\n      pop\n      pop\n      pop\n      pop\n      iszero\n      dup1\n      iszero\n      tag_32\n      jumpi\n      returndatasize\n      0x00\n      dup1\n      returndatacopy\n      revert(0x00, returndatasize)\n    tag_32:\n      pop\n        /* \"mappingstructure/MappingStructure.sol\":451:600  {\r... */\n      pop\n        /* \"mappingstructure/MappingStructure.sol\":397:600  function withdrawAllMoney(address payable _to) public {\r... */\n      pop\n      jump\t// out\n        /* \"mappingstructure/MappingStructure.sol\":191:286  function getBalance() public view returns(uint) {\r... */\n    tag_14:\n        /* \"mappingstructure/MappingStructure.sol\":233:237  uint */\n      0x00\n        /* \"mappingstructure/MappingStructure.sol\":257:278  address(this).balance */\n      selfbalance\n        /* \"mappingstructure/MappingStructure.sol\":250:278  return address(this).balance */\n      swap1\n      pop\n        /* \"mappingstructure/MappingStructure.sol\":191:286  function getBalance() public view returns(uint) {\r... */\n      swap1\n      jump\t// out\n        /* \"mappingstructure/MappingStructure.sol\":294:389  function sendMoney() public payable {\r... */\n    tag_18:\n        /* \"mappingstructure/MappingStructure.sol\":372:381  msg.value */\n      callvalue\n        /* \"mappingstructure/MappingStructure.sol\":341:356  balanceReceived */\n      0x00\n        /* \"mappingstructure/MappingStructure.sol\":341:368  balanceReceived[msg.sender] */\n      dup1\n        /* \"mappingstructure/MappingStructure.sol\":357:367  msg.sender */\n      caller\n        /* \"mappingstructure/MappingStructure.sol\":341:368  balanceReceived[msg.sender] */\n      0xffffffffffffffffffffffffffffffffffffffff\n      and\n      0xffffffffffffffffffffffffffffffffffffffff\n      and\n      dup2\n      mstore\n      0x20\n      add\n      swap1\n      dup2\n      mstore\n      0x20\n      add\n      0x00\n      keccak256\n      0x00\n        /* \"mappingstructure/MappingStructure.sol\":341:381  balanceReceived[msg.sender] += msg.value */\n      dup3\n      dup3\n      sload\n      tag_35\n      swap2\n      swap1\n      tag_36\n      jump\t// in\n    tag_35:\n      swap3\n      pop\n      pop\n      dup2\n      swap1\n      sstore\n      pop\n        /* \"mappingstructure/MappingStructure.sol\":294:389  function sendMoney() public payable {\r... */\n      jump\t// out\n        /* \"mappingstructure/MappingStructure.sol\":135:182  mapping(address => uint) public balanceReceived */\n    tag_23:\n      mstore(0x20, 0x00)\n      dup1\n      0x00\n      mstore\n      keccak256(0x00, 0x40)\n      0x00\n      swap2\n      pop\n      swap1\n      pop\n      sload\n      dup2\n      jump\t// out\n        /* \"mappingstructure/MappingStructure.sol\":608:1031  function withdrawMoney(address payable _to, uint _requestedAmount) public {\r... */\n    tag_29:\n        /* \"mappingstructure/MappingStructure.sol\":780:792  uint balance */\n      0x00\n        /* \"mappingstructure/MappingStructure.sol\":795:810  balanceReceived */\n      dup1\n        /* \"mappingstructure/MappingStructure.sol\":795:822  balanceReceived[msg.sender] */\n      0x00\n        /* \"mappingstructure/MappingStructure.sol\":811:821  msg.sender */\n      caller\n        /* \"mappingstructure/MappingStructure.sol\":795:822  balanceReceived[msg.sender] */\n      0xffffffffffffffffffffffffffffffffffffffff\n      and\n      0xffffffffffffffffffffffffffffffffffffffff\n      and\n      dup2\n      mstore\n      0x20\n      add\n      swap1\n      dup2\n      mstore\n      0x20\n      add\n      0x00\n      keccak256\n      sload\n        /* \"mappingstructure/MappingStructure.sol\":780:822  uint balance = balanceReceived[msg.sender] */\n      swap1\n      pop\n        /* \"mappingstructure/MappingStructure.sol\":862:869  balance */\n      dup1\n        /* \"mappingstructure/MappingStructure.sol\":843:859  _requestedAmount */\n      dup3\n        /* \"mappingstructure/MappingStructure.sol\":843:869  _requestedAmount > balance */\n      gt\n        /* \"mappingstructure/MappingStructure.sol\":835:919  require(_requestedAmount > balance, \"requested amount exceeds the amount available\") */\n      tag_38\n      jumpi\n      mload(0x40)\n      0x08c379a000000000000000000000000000000000000000000000000000000000\n      dup2\n      mstore\n      0x04\n      add\n      tag_39\n      swap1\n      tag_40\n      jump\t// in\n    tag_39:\n      mload(0x40)\n      dup1\n      swap2\n      sub\n      swap1\n      revert\n    tag_38:\n        /* \"mappingstructure/MappingStructure.sol\":973:980  balance */\n      dup1\n        /* \"mappingstructure/MappingStructure.sol\":942:957  balanceReceived */\n      0x00\n        /* \"mappingstructure/MappingStructure.sol\":942:969  balanceReceived[msg.sender] */\n      dup1\n        /* \"mappingstructure/MappingStructure.sol\":958:968  msg.sender */\n      caller\n        /* \"mappingstructure/MappingStructure.sol\":942:969  balanceReceived[msg.sender] */\n      0xffffffffffffffffffffffffffffffffffffffff\n      and\n      0xffffffffffffffffffffffffffffffffffffffff\n      and\n      dup2\n      mstore\n      0x20\n      add\n      swap1\n      dup2\n      mstore\n      0x20\n      add\n      0x00\n      keccak256\n      0x00\n        /* \"mappingstructure/MappingStructure.sol\":942:980  balanceReceived[msg.sender] -= balance */\n      dup3\n      dup3\n      sload\n      tag_41\n      swap2\n      swap1\n      tag_42\n      jump\t// in\n    tag_41:\n      swap3\n      pop\n      pop\n      dup2\n      swap1\n      sstore\n      pop\n        /* \"mappingstructure/MappingStructure.sol\":993:996  _to */\n      dup3\n        /* \"mappingstructure/MappingStructure.sol\":993:1005  _to.transfer */\n      0xffffffffffffffffffffffffffffffffffffffff\n      and\n        /* \"mappingstructure/MappingStructure.sol\":993:1023  _to.transfer(_requestedAmount) */\n      0x08fc\n        /* \"mappingstructure/MappingStructure.sol\":1006:1022  _requestedAmount */\n      dup4\n        /* \"mappingstructure/MappingStructure.sol\":993:1023  _to.transfer(_requestedAmount) */\n      swap1\n      dup2\n      iszero\n      mul\n      swap1\n      mload(0x40)\n      0x00\n      mload(0x40)\n      dup1\n      dup4\n      sub\n      dup2\n      dup6\n      dup9\n      dup9\n      call\n      swap4\n      pop\n      pop\n      pop\n      pop\n      iszero\n      dup1\n      iszero\n      tag_44\n      jumpi\n      returndatasize\n      0x00\n      dup1\n      returndatacopy\n      revert(0x00, returndatasize)\n    tag_44:\n      pop\n        /* \"mappingstructure/MappingStructure.sol\":682:1031  {\r... */\n      pop\n        /* \"mappingstructure/MappingStructure.sol\":608:1031  function withdrawMoney(address payable _to, uint _requestedAmount) public {\r... */\n      pop\n      pop\n      jump\t// out\n        /* \"#utility.yul\":7:146   */\n    tag_46:\n        /* \"#utility.yul\":53:58   */\n      0x00\n        /* \"#utility.yul\":91:97   */\n      dup2\n        /* \"#utility.yul\":78:98   */\n      calldataload\n        /* \"#utility.yul\":69:98   */\n      swap1\n      pop\n        /* \"#utility.yul\":107:140   */\n      tag_48\n        /* \"#utility.yul\":134:139   */\n      dup2\n        /* \"#utility.yul\":107:140   */\n      tag_49\n      jump\t// in\n    tag_48:\n        /* \"#utility.yul\":7:146   */\n      swap3\n      swap2\n      pop\n      pop\n      jump\t// out\n        /* \"#utility.yul\":152:307   */\n    tag_50:\n        /* \"#utility.yul\":206:211   */\n      0x00\n        /* \"#utility.yul\":244:250   */\n      dup2\n        /* \"#utility.yul\":231:251   */\n      calldataload\n        /* \"#utility.yul\":222:251   */\n      swap1\n      pop\n        /* \"#utility.yul\":260:301   */\n      tag_52\n        /* \"#utility.yul\":295:300   */\n      dup2\n        /* \"#utility.yul\":260:301   */\n      tag_53\n      jump\t// in\n    tag_52:\n        /* \"#utility.yul\":152:307   */\n      swap3\n      swap2\n      pop\n      pop\n      jump\t// out\n        /* \"#utility.yul\":313:452   */\n    tag_54:\n        /* \"#utility.yul\":359:364   */\n      0x00\n        /* \"#utility.yul\":397:403   */\n      dup2\n        /* \"#utility.yul\":384:404   */\n      calldataload\n        /* \"#utility.yul\":375:404   */\n      swap1\n      pop\n        /* \"#utility.yul\":413:446   */\n      tag_56\n        /* \"#utility.yul\":440:445   */\n      dup2\n        /* \"#utility.yul\":413:446   */\n      tag_57\n      jump\t// in\n    tag_56:\n        /* \"#utility.yul\":313:452   */\n      swap3\n      swap2\n      pop\n      pop\n      jump\t// out\n        /* \"#utility.yul\":458:787   */\n    tag_22:\n        /* \"#utility.yul\":517:523   */\n      0x00\n        /* \"#utility.yul\":566:568   */\n      0x20\n        /* \"#utility.yul\":554:563   */\n      dup3\n        /* \"#utility.yul\":545:552   */\n      dup5\n        /* \"#utility.yul\":541:564   */\n      sub\n        /* \"#utility.yul\":537:569   */\n      slt\n        /* \"#utility.yul\":534:653   */\n      iszero\n      tag_59\n      jumpi\n        /* \"#utility.yul\":572:651   */\n      tag_60\n      tag_61\n      jump\t// in\n    tag_60:\n        /* \"#utility.yul\":534:653   */\n    tag_59:\n        /* \"#utility.yul\":692:693   */\n      0x00\n        /* \"#utility.yul\":717:770   */\n      tag_62\n        /* \"#utility.yul\":762:769   */\n      dup5\n        /* \"#utility.yul\":753:759   */\n      dup3\n        /* \"#utility.yul\":742:751   */\n      dup6\n        /* \"#utility.yul\":738:760   */\n      add\n        /* \"#utility.yul\":717:770   */\n      tag_46\n      jump\t// in\n    tag_62:\n        /* \"#utility.yul\":707:770   */\n      swap2\n      pop\n        /* \"#utility.yul\":663:780   */\n      pop\n        /* \"#utility.yul\":458:787   */\n      swap3\n      swap2\n      pop\n      pop\n      jump\t// out\n        /* \"#utility.yul\":793:1138   */\n    tag_10:\n        /* \"#utility.yul\":860:866   */\n      0x00\n        /* \"#utility.yul\":909:911   */\n      0x20\n        /* \"#utility.yul\":897:906   */\n      dup3\n        /* \"#utility.yul\":888:895   */\n      dup5\n        /* \"#utility.yul\":884:907   */\n      sub\n        /* \"#utility.yul\":880:912   */\n      slt\n        /* \"#utility.yul\":877:996   */\n      iszero\n      tag_64\n      jumpi\n        /* \"#utility.yul\":915:994   */\n      tag_65\n      tag_61\n      jump\t// in\n    tag_65:\n        /* \"#utility.yul\":877:996   */\n    tag_64:\n        /* \"#utility.yul\":1035:1036   */\n      0x00\n        /* \"#utility.yul\":1060:1121   */\n      tag_66\n        /* \"#utility.yul\":1113:1120   */\n      dup5\n        /* \"#utility.yul\":1104:1110   */\n      dup3\n        /* \"#utility.yul\":1093:1102   */\n      dup6\n        /* \"#utility.yul\":1089:1111   */\n      add\n        /* \"#utility.yul\":1060:1121   */\n      tag_50\n      jump\t// in\n    tag_66:\n        /* \"#utility.yul\":1050:1121   */\n      swap2\n      pop\n        /* \"#utility.yul\":1006:1131   */\n      pop\n        /* \"#utility.yul\":793:1138   */\n      swap3\n      swap2\n      pop\n      pop\n      jump\t// out\n        /* \"#utility.yul\":1144:1634   */\n    tag_28:\n        /* \"#utility.yul\":1220:1226   */\n      0x00\n        /* \"#utility.yul\":1228:1234   */\n      dup1\n        /* \"#utility.yul\":1277:1279   */\n      0x40\n        /* \"#utility.yul\":1265:1274   */\n      dup4\n        /* \"#utility.yul\":1256:1263   */\n      dup6\n        /* \"#utility.yul\":1252:1275   */\n      sub\n        /* \"#utility.yul\":1248:1280   */\n      slt\n        /* \"#utility.yul\":1245:1364   */\n      iszero\n      tag_68\n      jumpi\n        /* \"#utility.yul\":1283:1362   */\n      tag_69\n      tag_61\n      jump\t// in\n    tag_69:\n        /* \"#utility.yul\":1245:1364   */\n    tag_68:\n        /* \"#utility.yul\":1403:1404   */\n      0x00\n        /* \"#utility.yul\":1428:1489   */\n      tag_70\n        /* \"#utility.yul\":1481:1488   */\n      dup6\n        /* \"#utility.yul\":1472:1478   */\n      dup3\n        /* \"#utility.yul\":1461:1470   */\n      dup7\n        /* \"#utility.yul\":1457:1479   */\n      add\n        /* \"#utility.yul\":1428:1489   */\n      tag_50\n      jump\t// in\n    tag_70:\n        /* \"#utility.yul\":1418:1489   */\n      swap3\n      pop\n        /* \"#utility.yul\":1374:1499   */\n      pop\n        /* \"#utility.yul\":1538:1540   */\n      0x20\n        /* \"#utility.yul\":1564:1617   */\n      tag_71\n        /* \"#utility.yul\":1609:1616   */\n      dup6\n        /* \"#utility.yul\":1600:1606   */\n      dup3\n        /* \"#utility.yul\":1589:1598   */\n      dup7\n        /* \"#utility.yul\":1585:1607   */\n      add\n        /* \"#utility.yul\":1564:1617   */\n      tag_54\n      jump\t// in\n    tag_71:\n        /* \"#utility.yul\":1554:1617   */\n      swap2\n      pop\n        /* \"#utility.yul\":1509:1627   */\n      pop\n        /* \"#utility.yul\":1144:1634   */\n      swap3\n      pop\n      swap3\n      swap1\n      pop\n      jump\t// out\n        /* \"#utility.yul\":1640:2006   */\n    tag_72:\n        /* \"#utility.yul\":1782:1785   */\n      0x00\n        /* \"#utility.yul\":1803:1870   */\n      tag_74\n        /* \"#utility.yul\":1867:1869   */\n      0x2d\n        /* \"#utility.yul\":1862:1865   */\n      dup4\n        /* \"#utility.yul\":1803:1870   */\n      tag_75\n      jump\t// in\n    tag_74:\n        /* \"#utility.yul\":1796:1870   */\n      swap2\n      pop\n        /* \"#utility.yul\":1879:1972   */\n      tag_76\n        /* \"#utility.yul\":1968:1971   */\n      dup3\n        /* \"#utility.yul\":1879:1972   */\n      tag_77\n      jump\t// in\n    tag_76:\n        /* \"#utility.yul\":1997:1999   */\n      0x40\n        /* \"#utility.yul\":1992:1995   */\n      dup3\n        /* \"#utility.yul\":1988:2000   */\n      add\n        /* \"#utility.yul\":1981:2000   */\n      swap1\n      pop\n        /* \"#utility.yul\":1640:2006   */\n      swap2\n      swap1\n      pop\n      jump\t// out\n        /* \"#utility.yul\":2012:2130   */\n    tag_78:\n        /* \"#utility.yul\":2099:2123   */\n      tag_80\n        /* \"#utility.yul\":2117:2122   */\n      dup2\n        /* \"#utility.yul\":2099:2123   */\n      tag_81\n      jump\t// in\n    tag_80:\n        /* \"#utility.yul\":2094:2097   */\n      dup3\n        /* \"#utility.yul\":2087:2124   */\n      mstore\n        /* \"#utility.yul\":2012:2130   */\n      pop\n      pop\n      jump\t// out\n        /* \"#utility.yul\":2136:2555   */\n    tag_40:\n        /* \"#utility.yul\":2302:2306   */\n      0x00\n        /* \"#utility.yul\":2340:2342   */\n      0x20\n        /* \"#utility.yul\":2329:2338   */\n      dup3\n        /* \"#utility.yul\":2325:2343   */\n      add\n        /* \"#utility.yul\":2317:2343   */\n      swap1\n      pop\n        /* \"#utility.yul\":2389:2398   */\n      dup2\n        /* \"#utility.yul\":2383:2387   */\n      dup2\n        /* \"#utility.yul\":2379:2399   */\n      sub\n        /* \"#utility.yul\":2375:2376   */\n      0x00\n        /* \"#utility.yul\":2364:2373   */\n      dup4\n        /* \"#utility.yul\":2360:2377   */\n      add\n        /* \"#utility.yul\":2353:2400   */\n      mstore\n        /* \"#utility.yul\":2417:2548   */\n      tag_83\n        /* \"#utility.yul\":2543:2547   */\n      dup2\n        /* \"#utility.yul\":2417:2548   */\n      tag_72\n      jump\t// in\n    tag_83:\n        /* \"#utility.yul\":2409:2548   */\n      swap1\n      pop\n        /* \"#utility.yul\":2136:2555   */\n      swap2\n      swap1\n      pop\n      jump\t// out\n        /* \"#utility.yul\":2561:2783   */\n    tag_16:\n        /* \"#utility.yul\":2654:2658   */\n      0x00\n        /* \"#utility.yul\":2692:2694   */\n      0x20\n        /* \"#utility.yul\":2681:2690   */\n      dup3\n        /* \"#utility.yul\":2677:2695   */\n      add\n        /* \"#utility.yul\":2669:2695   */\n      swap1\n      pop\n        /* \"#utility.yul\":2705:2776   */\n      tag_85\n        /* \"#utility.yul\":2773:2774   */\n      0x00\n        /* \"#utility.yul\":2762:2771   */\n      dup4\n        /* \"#utility.yul\":2758:2775   */\n      add\n        /* \"#utility.yul\":2749:2755   */\n      dup5\n        /* \"#utility.yul\":2705:2776   */\n      tag_78\n      jump\t// in\n    tag_85:\n        /* \"#utility.yul\":2561:2783   */\n      swap3\n      swap2\n      pop\n      pop\n      jump\t// out\n        /* \"#utility.yul\":2870:3039   */\n    tag_75:\n        /* \"#utility.yul\":2954:2965   */\n      0x00\n        /* \"#utility.yul\":2988:2994   */\n      dup3\n        /* \"#utility.yul\":2983:2986   */\n      dup3\n        /* \"#utility.yul\":2976:2995   */\n      mstore\n        /* \"#utility.yul\":3028:3032   */\n      0x20\n        /* \"#utility.yul\":3023:3026   */\n      dup3\n        /* \"#utility.yul\":3019:3033   */\n      add\n        /* \"#utility.yul\":3004:3033   */\n      swap1\n      pop\n        /* \"#utility.yul\":2870:3039   */\n      swap3\n      swap2\n      pop\n      pop\n      jump\t// out\n        /* \"#utility.yul\":3045:3350   */\n    tag_36:\n        /* \"#utility.yul\":3085:3088   */\n      0x00\n        /* \"#utility.yul\":3104:3124   */\n      tag_90\n        /* \"#utility.yul\":3122:3123   */\n      dup3\n        /* \"#utility.yul\":3104:3124   */\n      tag_81\n      jump\t// in\n    tag_90:\n        /* \"#utility.yul\":3099:3124   */\n      swap2\n      pop\n        /* \"#utility.yul\":3138:3158   */\n      tag_91\n        /* \"#utility.yul\":3156:3157   */\n      dup4\n        /* \"#utility.yul\":3138:3158   */\n      tag_81\n      jump\t// in\n    tag_91:\n        /* \"#utility.yul\":3133:3158   */\n      swap3\n      pop\n        /* \"#utility.yul\":3292:3293   */\n      dup3\n        /* \"#utility.yul\":3224:3290   */\n      0xffffffffffffffffffffffffffffffffffffffffffffffffffffffffffffffff\n        /* \"#utility.yul\":3220:3294   */\n      sub\n        /* \"#utility.yul\":3217:3218   */\n      dup3\n        /* \"#utility.yul\":3214:3295   */\n      gt\n        /* \"#utility.yul\":3211:3318   */\n      iszero\n      tag_92\n      jumpi\n        /* \"#utility.yul\":3298:3316   */\n      tag_93\n      tag_94\n      jump\t// in\n    tag_93:\n        /* \"#utility.yul\":3211:3318   */\n    tag_92:\n        /* \"#utility.yul\":3342:3343   */\n      dup3\n        /* \"#utility.yul\":3339:3340   */\n      dup3\n        /* \"#utility.yul\":3335:3344   */\n      add\n        /* \"#utility.yul\":3328:3344   */\n      swap1\n      pop\n        /* \"#utility.yul\":3045:3350   */\n      swap3\n      swap2\n      pop\n      pop\n      jump\t// out\n        /* \"#utility.yul\":3356:3547   */\n    tag_42:\n        /* \"#utility.yul\":3396:3400   */\n      0x00\n        /* \"#utility.yul\":3416:3436   */\n      tag_96\n        /* \"#utility.yul\":3434:3435   */\n      dup3\n        /* \"#utility.yul\":3416:3436   */\n      tag_81\n      jump\t// in\n    tag_96:\n        /* \"#utility.yul\":3411:3436   */\n      swap2\n      pop\n        /* \"#utility.yul\":3450:3470   */\n      tag_97\n        /* \"#utility.yul\":3468:3469   */\n      dup4\n        /* \"#utility.yul\":3450:3470   */\n      tag_81\n      jump\t// in\n    tag_97:\n        /* \"#utility.yul\":3445:3470   */\n      swap3\n      pop\n        /* \"#utility.yul\":3489:3490   */\n      dup3\n        /* \"#utility.yul\":3486:3487   */\n      dup3\n        /* \"#utility.yul\":3483:3491   */\n      lt\n        /* \"#utility.yul\":3480:3514   */\n      iszero\n      tag_98\n      jumpi\n        /* \"#utility.yul\":3494:3512   */\n      tag_99\n      tag_94\n      jump\t// in\n    tag_99:\n        /* \"#utility.yul\":3480:3514   */\n    tag_98:\n        /* \"#utility.yul\":3539:3540   */\n      dup3\n        /* \"#utility.yul\":3536:3537   */\n      dup3\n        /* \"#utility.yul\":3532:3541   */\n      sub\n        /* \"#utility.yul\":3524:3541   */\n      swap1\n      pop\n        /* \"#utility.yul\":3356:3547   */\n      swap3\n      swap2\n      pop\n      pop\n      jump\t// out\n        /* \"#utility.yul\":3553:3649   */\n    tag_100:\n        /* \"#utility.yul\":3590:3597   */\n      0x00\n        /* \"#utility.yul\":3619:3643   */\n      tag_102\n        /* \"#utility.yul\":3637:3642   */\n      dup3\n        /* \"#utility.yul\":3619:3643   */\n      tag_103\n      jump\t// in\n    tag_102:\n        /* \"#utility.yul\":3608:3643   */\n      swap1\n      pop\n        /* \"#utility.yul\":3553:3649   */\n      swap2\n      swap1\n      pop\n      jump\t// out\n        /* \"#utility.yul\":3655:3759   */\n    tag_104:\n        /* \"#utility.yul\":3700:3707   */\n      0x00\n        /* \"#utility.yul\":3729:3753   */\n      tag_106\n        /* \"#utility.yul\":3747:3752   */\n      dup3\n        /* \"#utility.yul\":3729:3753   */\n      tag_103\n      jump\t// in\n    tag_106:\n        /* \"#utility.yul\":3718:3753   */\n      swap1\n      pop\n        /* \"#utility.yul\":3655:3759   */\n      swap2\n      swap1\n      pop\n      jump\t// out\n        /* \"#utility.yul\":3765:3891   */\n    tag_103:\n        /* \"#utility.yul\":3802:3809   */\n      0x00\n        /* \"#utility.yul\":3842:3884   */\n      0xffffffffffffffffffffffffffffffffffffffff\n        /* \"#utility.yul\":3835:3840   */\n      dup3\n        /* \"#utility.yul\":3831:3885   */\n      and\n        /* \"#utility.yul\":3820:3885   */\n      swap1\n      pop\n        /* \"#utility.yul\":3765:3891   */\n      swap2\n      swap1\n      pop\n      jump\t// out\n        /* \"#utility.yul\":3897:3974   */\n    tag_81:\n        /* \"#utility.yul\":3934:3941   */\n      0x00\n        /* \"#utility.yul\":3963:3968   */\n      dup2\n        /* \"#utility.yul\":3952:3968   */\n      swap1\n      pop\n        /* \"#utility.yul\":3897:3974   */\n      swap2\n      swap1\n      pop\n      jump\t// out\n        /* \"#utility.yul\":3980:4160   */\n    tag_94:\n        /* \"#utility.yul\":4028:4105   */\n      0x4e487b7100000000000000000000000000000000000000000000000000000000\n        /* \"#utility.yul\":4025:4026   */\n      0x00\n        /* \"#utility.yul\":4018:4106   */\n      mstore\n        /* \"#utility.yul\":4125:4129   */\n      0x11\n        /* \"#utility.yul\":4122:4123   */\n      0x04\n        /* \"#utility.yul\":4115:4130   */\n      mstore\n        /* \"#utility.yul\":4149:4153   */\n      0x24\n        /* \"#utility.yul\":4146:4147   */\n      0x00\n        /* \"#utility.yul\":4139:4154   */\n      revert\n        /* \"#utility.yul\":4289:4406   */\n    tag_61:\n        /* \"#utility.yul\":4398:4399   */\n      0x00\n        /* \"#utility.yul\":4395:4396   */\n      dup1\n        /* \"#utility.yul\":4388:4400   */\n      revert\n        /* \"#utility.yul\":4412:4644   */\n    tag_77:\n        /* \"#utility.yul\":4552:4586   */\n      0x72657175657374656420616d6f756e7420657863656564732074686520616d6f\n        /* \"#utility.yul\":4548:4549   */\n      0x00\n        /* \"#utility.yul\":4540:4546   */\n      dup3\n        /* \"#utility.yul\":4536:4550   */\n      add\n        /* \"#utility.yul\":4529:4587   */\n      mstore\n        /* \"#utility.yul\":4621:4636   */\n      0x756e7420617661696c61626c6500000000000000000000000000000000000000\n        /* \"#utility.yul\":4616:4618   */\n      0x20\n        /* \"#utility.yul\":4608:4614   */\n      dup3\n        /* \"#utility.yul\":4604:4619   */\n      add\n        /* \"#utility.yul\":4597:4637   */\n      mstore\n        /* \"#utility.yul\":4412:4644   */\n      pop\n      jump\t// out\n        /* \"#utility.yul\":4650:4772   */\n    tag_49:\n        /* \"#utility.yul\":4723:4747   */\n      tag_115\n        /* \"#utility.yul\":4741:4746   */\n      dup2\n        /* \"#utility.yul\":4723:4747   */\n      tag_100\n      jump\t// in\n    tag_115:\n        /* \"#utility.yul\":4716:4721   */\n      dup2\n        /* \"#utility.yul\":4713:4748   */\n      eq\n        /* \"#utility.yul\":4703:4766   */\n      tag_116\n      jumpi\n        /* \"#utility.yul\":4762:4763   */\n      0x00\n        /* \"#utility.yul\":4759:4760   */\n      dup1\n        /* \"#utility.yul\":4752:4764   */\n      revert\n        /* \"#utility.yul\":4703:4766   */\n    tag_116:\n        /* \"#utility.yul\":4650:4772   */\n      pop\n      jump\t// out\n        /* \"#utility.yul\":4778:4916   */\n    tag_53:\n        /* \"#utility.yul\":4859:4891   */\n      tag_118\n        /* \"#utility.yul\":4885:4890   */\n      dup2\n        /* \"#utility.yul\":4859:4891   */\n      tag_104\n      jump\t// in\n    tag_118:\n        /* \"#utility.yul\":4852:4857   */\n      dup2\n        /* \"#utility.yul\":4849:4892   */\n      eq\n        /* \"#utility.yul\":4839:4910   */\n      tag_119\n      jumpi\n        /* \"#utility.yul\":4906:4907   */\n      0x00\n        /* \"#utility.yul\":4903:4904   */\n      dup1\n        /* \"#utility.yul\":4896:4908   */\n      revert\n        /* \"#utility.yul\":4839:4910   */\n    tag_119:\n        /* \"#utility.yul\":4778:4916   */\n      pop\n      jump\t// out\n        /* \"#utility.yul\":4922:5044   */\n    tag_57:\n        /* \"#utility.yul\":4995:5019   */\n      tag_121\n        /* \"#utility.yul\":5013:5018   */\n      dup2\n        /* \"#utility.yul\":4995:5019   */\n      tag_81\n      jump\t// in\n    tag_121:\n        /* \"#utility.yul\":4988:4993   */\n      dup2\n        /* \"#utility.yul\":4985:5020   */\n      eq\n        /* \"#utility.yul\":4975:5038   */\n      tag_122\n      jumpi\n        /* \"#utility.yul\":5034:5035   */\n      0x00\n        /* \"#utility.yul\":5031:5032   */\n      dup1\n        /* \"#utility.yul\":5024:5036   */\n      revert\n        /* \"#utility.yul\":4975:5038   */\n    tag_122:\n        /* \"#utility.yul\":4922:5044   */\n      pop\n      jump\t// out\n\n    auxdata: 0xa2646970667358221220197b862ee45814ef7da556e6f5047f440780262faf94d4c7c4a31c41d42b04f564736f6c63430008070033\n}\n",
				"bytecode": {
					"linkReferences": {},
					"object": "608060405234801561001057600080fd5b506106af806100206000396000f3fe60806040526004361061004a5760003560e01c80630adec93c1461004f57806312065fe014610078578063cbedbf5a146100a3578063d18a42e1146100ad578063f274c897146100ea575b600080fd5b34801561005b57600080fd5b50610076600480360381019061007191906103ee565b610113565b005b34801561008457600080fd5b5061008d6101e5565b60405161009a91906104ad565b60405180910390f35b6100ab6101ed565b005b3480156100b957600080fd5b506100d460048036038101906100cf91906103c1565b610244565b6040516100e191906104ad565b60405180910390f35b3480156100f657600080fd5b50610111600480360381019061010c919061041b565b61025c565b005b60008060003373ffffffffffffffffffffffffffffffffffffffff1673ffffffffffffffffffffffffffffffffffffffff16815260200190815260200160002054905060008060003373ffffffffffffffffffffffffffffffffffffffff1673ffffffffffffffffffffffffffffffffffffffff168152602001908152602001600020819055508173ffffffffffffffffffffffffffffffffffffffff166108fc829081150290604051600060405180830381858888f193505050501580156101e0573d6000803e3d6000fd5b505050565b600047905090565b346000803373ffffffffffffffffffffffffffffffffffffffff1673ffffffffffffffffffffffffffffffffffffffff168152602001908152602001600020600082825461023b91906104d9565b92505081905550565b60006020528060005260406000206000915090505481565b60008060003373ffffffffffffffffffffffffffffffffffffffff1673ffffffffffffffffffffffffffffffffffffffff1681526020019081526020016000205490508082116102e1576040517f08c379a00000000000000000000000000000000000000000000000000000000081526004016102d89061048d565b60405180910390fd5b806000803373ffffffffffffffffffffffffffffffffffffffff1673ffffffffffffffffffffffffffffffffffffffff168152602001908152602001600020600082825461032f919061052f565b925050819055508273ffffffffffffffffffffffffffffffffffffffff166108fc839081150290604051600060405180830381858888f1935050505015801561037c573d6000803e3d6000fd5b50505050565b60008135905061039181610634565b92915050565b6000813590506103a68161064b565b92915050565b6000813590506103bb81610662565b92915050565b6000602082840312156103d7576103d66105e0565b5b60006103e584828501610382565b91505092915050565b600060208284031215610404576104036105e0565b5b600061041284828501610397565b91505092915050565b60008060408385031215610432576104316105e0565b5b600061044085828601610397565b9250506020610451858286016103ac565b9150509250929050565b6000610468602d836104c8565b9150610473826105e5565b604082019050919050565b610487816105a7565b82525050565b600060208201905081810360008301526104a68161045b565b9050919050565b60006020820190506104c2600083018461047e565b92915050565b600082825260208201905092915050565b60006104e4826105a7565b91506104ef836105a7565b9250827fffffffffffffffffffffffffffffffffffffffffffffffffffffffffffffffff03821115610524576105236105b1565b5b828201905092915050565b600061053a826105a7565b9150610545836105a7565b925082821015610558576105576105b1565b5b828203905092915050565b600061056e82610587565b9050919050565b600061058082610587565b9050919050565b600073ffffffffffffffffffffffffffffffffffffffff82169050919050565b6000819050919050565b7f4e487b7100000000000000000000000000000000000000000000000000000000600052601160045260246000fd5b600080fd5b7f72657175657374656420616d6f756e7420657863656564732074686520616d6f60008201527f756e7420617661696c61626c6500000000000000000000000000000000000000602082015250565b61063d81610563565b811461064857600080fd5b50565b61065481610575565b811461065f57600080fd5b50565b61066b816105a7565b811461067657600080fd5b5056fea2646970667358221220197b862ee45814ef7da556e6f5047f440780262faf94d4c7c4a31c41d42b04f564736f6c63430008070033",
					"opcodes": "PUSH1 0x80 PUSH1 0x40 MSTORE CALLVALUE DUP1 ISZERO PUSH2 0x10 JUMPI PUSH1 0x0 DUP1 REVERT JUMPDEST POP PUSH2 0x6AF DUP1 PUSH2 0x20 PUSH1 0x0 CODECOPY PUSH1 0x0 RETURN INVALID PUSH1 0x80 PUSH1 0x40 MSTORE PUSH1 0x4 CALLDATASIZE LT PUSH2 0x4A JUMPI PUSH1 0x0 CALLDATALOAD PUSH1 0xE0 SHR DUP1 PUSH4 0xADEC93C EQ PUSH2 0x4F JUMPI DUP1 PUSH4 0x12065FE0 EQ PUSH2 0x78 JUMPI DUP1 PUSH4 0xCBEDBF5A EQ PUSH2 0xA3 JUMPI DUP1 PUSH4 0xD18A42E1 EQ PUSH2 0xAD JUMPI DUP1 PUSH4 0xF274C897 EQ PUSH2 0xEA JUMPI JUMPDEST PUSH1 0x0 DUP1 REVERT JUMPDEST CALLVALUE DUP1 ISZERO PUSH2 0x5B JUMPI PUSH1 0x0 DUP1 REVERT JUMPDEST POP PUSH2 0x76 PUSH1 0x4 DUP1 CALLDATASIZE SUB DUP2 ADD SWAP1 PUSH2 0x71 SWAP2 SWAP1 PUSH2 0x3EE JUMP JUMPDEST PUSH2 0x113 JUMP JUMPDEST STOP JUMPDEST CALLVALUE DUP1 ISZERO PUSH2 0x84 JUMPI PUSH1 0x0 DUP1 REVERT JUMPDEST POP PUSH2 0x8D PUSH2 0x1E5 JUMP JUMPDEST PUSH1 0x40 MLOAD PUSH2 0x9A SWAP2 SWAP1 PUSH2 0x4AD JUMP JUMPDEST PUSH1 0x40 MLOAD DUP1 SWAP2 SUB SWAP1 RETURN JUMPDEST PUSH2 0xAB PUSH2 0x1ED JUMP JUMPDEST STOP JUMPDEST CALLVALUE DUP1 ISZERO PUSH2 0xB9 JUMPI PUSH1 0x0 DUP1 REVERT JUMPDEST POP PUSH2 0xD4 PUSH1 0x4 DUP1 CALLDATASIZE SUB DUP2 ADD SWAP1 PUSH2 0xCF SWAP2 SWAP1 PUSH2 0x3C1 JUMP JUMPDEST PUSH2 0x244 JUMP JUMPDEST PUSH1 0x40 MLOAD PUSH2 0xE1 SWAP2 SWAP1 PUSH2 0x4AD JUMP JUMPDEST PUSH1 0x40 MLOAD DUP1 SWAP2 SUB SWAP1 RETURN JUMPDEST CALLVALUE DUP1 ISZERO PUSH2 0xF6 JUMPI PUSH1 0x0 DUP1 REVERT JUMPDEST POP PUSH2 0x111 PUSH1 0x4 DUP1 CALLDATASIZE SUB DUP2 ADD SWAP1 PUSH2 0x10C SWAP2 SWAP1 PUSH2 0x41B JUMP JUMPDEST PUSH2 0x25C JUMP JUMPDEST STOP JUMPDEST PUSH1 0x0 DUP1 PUSH1 0x0 CALLER PUSH20 0xFFFFFFFFFFFFFFFFFFFFFFFFFFFFFFFFFFFFFFFF AND PUSH20 0xFFFFFFFFFFFFFFFFFFFFFFFFFFFFFFFFFFFFFFFF AND DUP2 MSTORE PUSH1 0x20 ADD SWAP1 DUP2 MSTORE PUSH1 0x20 ADD PUSH1 0x0 KECCAK256 SLOAD SWAP1 POP PUSH1 0x0 DUP1 PUSH1 0x0 CALLER PUSH20 0xFFFFFFFFFFFFFFFFFFFFFFFFFFFFFFFFFFFFFFFF AND PUSH20 0xFFFFFFFFFFFFFFFFFFFFFFFFFFFFFFFFFFFFFFFF AND DUP2 MSTORE PUSH1 0x20 ADD SWAP1 DUP2 MSTORE PUSH1 0x20 ADD PUSH1 0x0 KECCAK256 DUP2 SWAP1 SSTORE POP DUP2 PUSH20 0xFFFFFFFFFFFFFFFFFFFFFFFFFFFFFFFFFFFFFFFF AND PUSH2 0x8FC DUP3 SWAP1 DUP2 ISZERO MUL SWAP1 PUSH1 0x40 MLOAD PUSH1 0x0 PUSH1 0x40 MLOAD DUP1 DUP4 SUB DUP2 DUP6 DUP9 DUP9 CALL SWAP4 POP POP POP POP ISZERO DUP1 ISZERO PUSH2 0x1E0 JUMPI RETURNDATASIZE PUSH1 0x0 DUP1 RETURNDATACOPY RETURNDATASIZE PUSH1 0x0 REVERT JUMPDEST POP POP POP JUMP JUMPDEST PUSH1 0x0 SELFBALANCE SWAP1 POP SWAP1 JUMP JUMPDEST CALLVALUE PUSH1 0x0 DUP1 CALLER PUSH20 0xFFFFFFFFFFFFFFFFFFFFFFFFFFFFFFFFFFFFFFFF AND PUSH20 0xFFFFFFFFFFFFFFFFFFFFFFFFFFFFFFFFFFFFFFFF AND DUP2 MSTORE PUSH1 0x20 ADD SWAP1 DUP2 MSTORE PUSH1 0x20 ADD PUSH1 0x0 KECCAK256 PUSH1 0x0 DUP3 DUP3 SLOAD PUSH2 0x23B SWAP2 SWAP1 PUSH2 0x4D9 JUMP JUMPDEST SWAP3 POP POP DUP2 SWAP1 SSTORE POP JUMP JUMPDEST PUSH1 0x0 PUSH1 0x20 MSTORE DUP1 PUSH1 0x0 MSTORE PUSH1 0x40 PUSH1 0x0 KECCAK256 PUSH1 0x0 SWAP2 POP SWAP1 POP SLOAD DUP2 JUMP JUMPDEST PUSH1 0x0 DUP1 PUSH1 0x0 CALLER PUSH20 0xFFFFFFFFFFFFFFFFFFFFFFFFFFFFFFFFFFFFFFFF AND PUSH20 0xFFFFFFFFFFFFFFFFFFFFFFFFFFFFFFFFFFFFFFFF AND DUP2 MSTORE PUSH1 0x20 ADD SWAP1 DUP2 MSTORE PUSH1 0x20 ADD PUSH1 0x0 KECCAK256 SLOAD SWAP1 POP DUP1 DUP3 GT PUSH2 0x2E1 JUMPI PUSH1 0x40 MLOAD PUSH32 0x8C379A000000000000000000000000000000000000000000000000000000000 DUP2 MSTORE PUSH1 0x4 ADD PUSH2 0x2D8 SWAP1 PUSH2 0x48D JUMP JUMPDEST PUSH1 0x40 MLOAD DUP1 SWAP2 SUB SWAP1 REVERT JUMPDEST DUP1 PUSH1 0x0 DUP1 CALLER PUSH20 0xFFFFFFFFFFFFFFFFFFFFFFFFFFFFFFFFFFFFFFFF AND PUSH20 0xFFFFFFFFFFFFFFFFFFFFFFFFFFFFFFFFFFFFFFFF AND DUP2 MSTORE PUSH1 0x20 ADD SWAP1 DUP2 MSTORE PUSH1 0x20 ADD PUSH1 0x0 KECCAK256 PUSH1 0x0 DUP3 DUP3 SLOAD PUSH2 0x32F SWAP2 SWAP1 PUSH2 0x52F JUMP JUMPDEST SWAP3 POP POP DUP2 SWAP1 SSTORE POP DUP3 PUSH20 0xFFFFFFFFFFFFFFFFFFFFFFFFFFFFFFFFFFFFFFFF AND PUSH2 0x8FC DUP4 SWAP1 DUP2 ISZERO MUL SWAP1 PUSH1 0x40 MLOAD PUSH1 0x0 PUSH1 0x40 MLOAD DUP1 DUP4 SUB DUP2 DUP6 DUP9 DUP9 CALL SWAP4 POP POP POP POP ISZERO DUP1 ISZERO PUSH2 0x37C JUMPI RETURNDATASIZE PUSH1 0x0 DUP1 RETURNDATACOPY RETURNDATASIZE PUSH1 0x0 REVERT JUMPDEST POP POP POP POP JUMP JUMPDEST PUSH1 0x0 DUP2 CALLDATALOAD SWAP1 POP PUSH2 0x391 DUP2 PUSH2 0x634 JUMP JUMPDEST SWAP3 SWAP2 POP POP JUMP JUMPDEST PUSH1 0x0 DUP2 CALLDATALOAD SWAP1 POP PUSH2 0x3A6 DUP2 PUSH2 0x64B JUMP JUMPDEST SWAP3 SWAP2 POP POP JUMP JUMPDEST PUSH1 0x0 DUP2 CALLDATALOAD SWAP1 POP PUSH2 0x3BB DUP2 PUSH2 0x662 JUMP JUMPDEST SWAP3 SWAP2 POP POP JUMP JUMPDEST PUSH1 0x0 PUSH1 0x20 DUP3 DUP5 SUB SLT ISZERO PUSH2 0x3D7 JUMPI PUSH2 0x3D6 PUSH2 0x5E0 JUMP JUMPDEST JUMPDEST PUSH1 0x0 PUSH2 0x3E5 DUP5 DUP3 DUP6 ADD PUSH2 0x382 JUMP JUMPDEST SWAP2 POP POP SWAP3 SWAP2 POP POP JUMP JUMPDEST PUSH1 0x0 PUSH1 0x20 DUP3 DUP5 SUB SLT ISZERO PUSH2 0x404 JUMPI PUSH2 0x403 PUSH2 0x5E0 JUMP JUMPDEST JUMPDEST PUSH1 0x0 PUSH2 0x412 DUP5 DUP3 DUP6 ADD PUSH2 0x397 JUMP JUMPDEST SWAP2 POP POP SWAP3 SWAP2 POP POP JUMP JUMPDEST PUSH1 0x0 DUP1 PUSH1 0x40 DUP4 DUP6 SUB SLT ISZERO PUSH2 0x432 JUMPI PUSH2 0x431 PUSH2 0x5E0 JUMP JUMPDEST JUMPDEST PUSH1 0x0 PUSH2 0x440 DUP6 DUP3 DUP7 ADD PUSH2 0x397 JUMP JUMPDEST SWAP3 POP POP PUSH1 0x20 PUSH2 0x451 DUP6 DUP3 DUP7 ADD PUSH2 0x3AC JUMP JUMPDEST SWAP2 POP POP SWAP3 POP SWAP3 SWAP1 POP JUMP JUMPDEST PUSH1 0x0 PUSH2 0x468 PUSH1 0x2D DUP4 PUSH2 0x4C8 JUMP JUMPDEST SWAP2 POP PUSH2 0x473 DUP3 PUSH2 0x5E5 JUMP JUMPDEST PUSH1 0x40 DUP3 ADD SWAP1 POP SWAP2 SWAP1 POP JUMP JUMPDEST PUSH2 0x487 DUP2 PUSH2 0x5A7 JUMP JUMPDEST DUP3 MSTORE POP POP JUMP JUMPDEST PUSH1 0x0 PUSH1 0x20 DUP3 ADD SWAP1 POP DUP2 DUP2 SUB PUSH1 0x0 DUP4 ADD MSTORE PUSH2 0x4A6 DUP2 PUSH2 0x45B JUMP JUMPDEST SWAP1 POP SWAP2 SWAP1 POP JUMP JUMPDEST PUSH1 0x0 PUSH1 0x20 DUP3 ADD SWAP1 POP PUSH2 0x4C2 PUSH1 0x0 DUP4 ADD DUP5 PUSH2 0x47E JUMP JUMPDEST SWAP3 SWAP2 POP POP JUMP JUMPDEST PUSH1 0x0 DUP3 DUP3 MSTORE PUSH1 0x20 DUP3 ADD SWAP1 POP SWAP3 SWAP2 POP POP JUMP JUMPDEST PUSH1 0x0 PUSH2 0x4E4 DUP3 PUSH2 0x5A7 JUMP JUMPDEST SWAP2 POP PUSH2 0x4EF DUP4 PUSH2 0x5A7 JUMP JUMPDEST SWAP3 POP DUP3 PUSH32 0xFFFFFFFFFFFFFFFFFFFFFFFFFFFFFFFFFFFFFFFFFFFFFFFFFFFFFFFFFFFFFFFF SUB DUP3 GT ISZERO PUSH2 0x524 JUMPI PUSH2 0x523 PUSH2 0x5B1 JUMP JUMPDEST JUMPDEST DUP3 DUP3 ADD SWAP1 POP SWAP3 SWAP2 POP POP JUMP JUMPDEST PUSH1 0x0 PUSH2 0x53A DUP3 PUSH2 0x5A7 JUMP JUMPDEST SWAP2 POP PUSH2 0x545 DUP4 PUSH2 0x5A7 JUMP JUMPDEST SWAP3 POP DUP3 DUP3 LT ISZERO PUSH2 0x558 JUMPI PUSH2 0x557 PUSH2 0x5B1 JUMP JUMPDEST JUMPDEST DUP3 DUP3 SUB SWAP1 POP SWAP3 SWAP2 POP POP JUMP JUMPDEST PUSH1 0x0 PUSH2 0x56E DUP3 PUSH2 0x587 JUMP JUMPDEST SWAP1 POP SWAP2 SWAP1 POP JUMP JUMPDEST PUSH1 0x0 PUSH2 0x580 DUP3 PUSH2 0x587 JUMP JUMPDEST SWAP1 POP SWAP2 SWAP1 POP JUMP JUMPDEST PUSH1 0x0 PUSH20 0xFFFFFFFFFFFFFFFFFFFFFFFFFFFFFFFFFFFFFFFF DUP3 AND SWAP1 POP SWAP2 SWAP1 POP JUMP JUMPDEST PUSH1 0x0 DUP2 SWAP1 POP SWAP2 SWAP1 POP JUMP JUMPDEST PUSH32 0x4E487B7100000000000000000000000000000000000000000000000000000000 PUSH1 0x0 MSTORE PUSH1 0x11 PUSH1 0x4 MSTORE PUSH1 0x24 PUSH1 0x0 REVERT JUMPDEST PUSH1 0x0 DUP1 REVERT JUMPDEST PUSH32 0x72657175657374656420616D6F756E7420657863656564732074686520616D6F PUSH1 0x0 DUP3 ADD MSTORE PUSH32 0x756E7420617661696C61626C6500000000000000000000000000000000000000 PUSH1 0x20 DUP3 ADD MSTORE POP JUMP JUMPDEST PUSH2 0x63D DUP2 PUSH2 0x563 JUMP JUMPDEST DUP2 EQ PUSH2 0x648 JUMPI PUSH1 0x0 DUP1 REVERT JUMPDEST POP JUMP JUMPDEST PUSH2 0x654 DUP2 PUSH2 0x575 JUMP JUMPDEST DUP2 EQ PUSH2 0x65F JUMPI PUSH1 0x0 DUP1 REVERT JUMPDEST POP JUMP JUMPDEST PUSH2 0x66B DUP2 PUSH2 0x5A7 JUMP JUMPDEST DUP2 EQ PUSH2 0x676 JUMPI PUSH1 0x0 DUP1 REVERT JUMPDEST POP JUMP INVALID LOG2 PUSH5 0x6970667358 0x22 SLT KECCAK256 NOT PUSH28 0x862EE45814EF7DA556E6F5047F440780262FAF94D4C7C4A31C41D42B DIV CREATE2 PUSH5 0x736F6C6343 STOP ADDMOD SMOD STOP CALLER "
				},
				"gasEstimates": {
					"creation": {
						"codeDepositCost": "342200",
						"executionCost": "380",
						"totalCost": "342580"
					},
					"external": {
						"balanceReceived(address)": "2858",
						"getBalance()": "339",
						"sendMoney()": "infinite",
						"withdrawAllMoney(address)": "infinite",
						"withdrawMoney(address,uint256)": "infinite"
					}
				},
				"methodIdentifiers": {
					"balanceReceived(address)": "d18a42e1",
					"getBalance()": "12065fe0",
					"sendMoney()": "cbedbf5a",
					"withdrawAllMoney(address)": "0adec93c",
					"withdrawMoney(address,uint256)": "f274c897"
				}
			},
			"storageLayout": {
				"storage": [
					{
						"astId": 5,
						"contract": "mappingstructure/MappingStructure.sol:MappingStructureContract",
						"label": "balanceReceived",
						"offset": 0,
						"slot": "0",
						"type": "t_mapping(t_address,t_uint256)"
					}
				],
				"types": {
					"t_address": {
						"encoding": "inplace",
						"label": "address",
						"numberOfBytes": "20"
					},
					"t_mapping(t_address,t_uint256)": {
						"encoding": "mapping",
						"key": "t_address",
						"label": "mapping(address => uint256)",
						"numberOfBytes": "32",
						"value": "t_uint256"
					},
					"t_uint256": {
						"encoding": "inplace",
						"label": "uint256",
						"numberOfBytes": "32"
					}
				}
			},
			"userdoc": {
				"kind": "user",
				"methods": {},
				"version": 1
			}
		}
	}
}