{
	"variables/variables.sol": {
		"Variables": {
			"abi": [
				{
					"inputs": [],
					"name": "decrementMytUint8",
					"outputs": [],
					"stateMutability": "nonpayable",
					"type": "function"
				},
				{
					"inputs": [],
					"name": "getBalanceOfAddress",
					"outputs": [
						{
							"internalType": "uint256",
							"name": "",
							"type": "uint256"
						}
					],
					"stateMutability": "view",
					"type": "function"
				},
				{
					"inputs": [],
					"name": "incremenMytUint8",
					"outputs": [],
					"stateMutability": "nonpayable",
					"type": "function"
				},
				{
					"inputs": [],
					"name": "myaddress",
					"outputs": [
						{
							"internalType": "address",
							"name": "",
							"type": "address"
						}
					],
					"stateMutability": "view",
					"type": "function"
				},
				{
					"inputs": [],
					"name": "mybool",
					"outputs": [
						{
							"internalType": "bool",
							"name": "",
							"type": "bool"
						}
					],
					"stateMutability": "view",
					"type": "function"
				},
				{
					"inputs": [],
					"name": "mystring",
					"outputs": [
						{
							"internalType": "string",
							"name": "",
							"type": "string"
						}
					],
					"stateMutability": "view",
					"type": "function"
				},
				{
					"inputs": [],
					"name": "myuint",
					"outputs": [
						{
							"internalType": "uint256",
							"name": "",
							"type": "uint256"
						}
					],
					"stateMutability": "view",
					"type": "function"
				},
				{
					"inputs": [],
					"name": "myuint8",
					"outputs": [
						{
							"internalType": "uint8",
							"name": "",
							"type": "uint8"
						}
					],
					"stateMutability": "view",
					"type": "function"
				},
				{
					"inputs": [
						{
							"internalType": "address",
							"name": "_val",
							"type": "address"
						}
					],
					"name": "setMyAddress",
					"outputs": [],
					"stateMutability": "nonpayable",
					"type": "function"
				},
				{
					"inputs": [
						{
							"internalType": "bool",
							"name": "_val",
							"type": "bool"
						}
					],
					"name": "setMyBool",
					"outputs": [],
					"stateMutability": "nonpayable",
					"type": "function"
				},
				{
					"inputs": [
						{
							"internalType": "uint256",
							"name": "_val",
							"type": "uint256"
						}
					],
					"name": "setMyUint",
					"outputs": [],
					"stateMutability": "nonpayable",
					"type": "function"
				},
				{
					"inputs": [
						{
							"internalType": "uint8",
							"name": "_val",
							"type": "uint8"
						}
					],
					"name": "setMyUint8",
					"outputs": [],
					"stateMutability": "nonpayable",
					"type": "function"
				}
			],
			"devdoc": {
				"kind": "dev",
				"methods": {},
				"version": 1
			},
			"evm": {
				"assembly": "    /* \"variables/variables.sol\":92:1118  contract Variables {\r... */\n  mstore(0x40, 0x80)\n  callvalue\n  dup1\n  iszero\n  tag_1\n  jumpi\n  0x00\n  dup1\n  revert\ntag_1:\n  pop\n  dataSize(sub_0)\n  dup1\n  dataOffset(sub_0)\n  0x00\n  codecopy\n  0x00\n  return\nstop\n\nsub_0: assembly {\n        /* \"variables/variables.sol\":92:1118  contract Variables {\r... */\n      mstore(0x40, 0x80)\n      callvalue\n      dup1\n      iszero\n      tag_1\n      jumpi\n      0x00\n      dup1\n      revert\n    tag_1:\n      pop\n      jumpi(tag_2, lt(calldatasize, 0x04))\n      shr(0xe0, calldataload(0x00))\n      dup1\n      0xcf4fee10\n      gt\n      tag_15\n      jumpi\n      dup1\n      0xcf4fee10\n      eq\n      tag_9\n      jumpi\n      dup1\n      0xd412f490\n      eq\n      tag_10\n      jumpi\n      dup1\n      0xdf1f3275\n      eq\n      tag_11\n      jumpi\n      dup1\n      0xe492fd84\n      eq\n      tag_12\n      jumpi\n      dup1\n      0xeb1b30d9\n      eq\n      tag_13\n      jumpi\n      dup1\n      0xfcf814c3\n      eq\n      tag_14\n      jumpi\n      jump(tag_2)\n    tag_15:\n      dup1\n      0x12c0dfc3\n      eq\n      tag_3\n      jumpi\n      dup1\n      0x15502612\n      eq\n      tag_4\n      jumpi\n      dup1\n      0x4f25eada\n      eq\n      tag_5\n      jumpi\n      dup1\n      0x6a61a59c\n      eq\n      tag_6\n      jumpi\n      dup1\n      0xa8a7b895\n      eq\n      tag_7\n      jumpi\n      dup1\n      0xc261fa36\n      eq\n      tag_8\n      jumpi\n    tag_2:\n      0x00\n      dup1\n      revert\n        /* \"variables/variables.sol\":318:338  uint8 public myuint8 */\n    tag_3:\n      tag_16\n      tag_17\n      jump\t// in\n    tag_16:\n      mload(0x40)\n      tag_18\n      swap2\n      swap1\n      tag_19\n      jump\t// in\n    tag_18:\n      mload(0x40)\n      dup1\n      swap2\n      sub\n      swap1\n      return\n        /* \"variables/variables.sol\":1007:1107  function getBalanceOfAddress() public view returns(uint) {\r... */\n    tag_4:\n      tag_20\n      tag_21\n      jump\t// in\n    tag_20:\n      mload(0x40)\n      tag_22\n      swap2\n      swap1\n      tag_23\n      jump\t// in\n    tag_22:\n      mload(0x40)\n      dup1\n      swap2\n      sub\n      swap1\n      return\n        /* \"variables/variables.sol\":588:660  function setMyUint8(uint8 _val) public {\r... */\n    tag_5:\n      tag_24\n      0x04\n      dup1\n      calldatasize\n      sub\n      dup2\n      add\n      swap1\n      tag_25\n      swap2\n      swap1\n      tag_26\n      jump\t// in\n    tag_25:\n      tag_27\n      jump\t// in\n    tag_24:\n      stop\n        /* \"variables/variables.sol\":668:731  function incremenMytUint8() public {\r... */\n    tag_6:\n      tag_28\n      tag_29\n      jump\t// in\n    tag_28:\n      stop\n        /* \"variables/variables.sol\":811:889  function setMyAddress(address _val) public {\r... */\n    tag_7:\n      tag_30\n      0x04\n      dup1\n      calldatasize\n      sub\n      dup2\n      add\n      swap1\n      tag_31\n      swap2\n      swap1\n      tag_32\n      jump\t// in\n    tag_31:\n      tag_33\n      jump\t// in\n    tag_30:\n      stop\n        /* \"variables/variables.sol\":403:425  string public mystring */\n    tag_8:\n      tag_34\n      tag_35\n      jump\t// in\n    tag_34:\n      mload(0x40)\n      tag_36\n      swap2\n      swap1\n      tag_37\n      jump\t// in\n    tag_36:\n      mload(0x40)\n      dup1\n      swap2\n      sub\n      swap1\n      return\n        /* \"variables/variables.sol\":226:244  bool public mybool */\n    tag_9:\n      tag_38\n      tag_39\n      jump\t// in\n    tag_38:\n      mload(0x40)\n      tag_40\n      swap2\n      swap1\n      tag_41\n      jump\t// in\n    tag_40:\n      mload(0x40)\n      dup1\n      swap2\n      sub\n      swap1\n      return\n        /* \"variables/variables.sol\":196:217  uint256 public myuint */\n    tag_10:\n      tag_42\n      tag_43\n      jump\t// in\n    tag_42:\n      mload(0x40)\n      tag_44\n      swap2\n      swap1\n      tag_23\n      jump\t// in\n    tag_44:\n      mload(0x40)\n      dup1\n      swap2\n      sub\n      swap1\n      return\n        /* \"variables/variables.sol\":739:803  function decrementMytUint8() public {\r... */\n    tag_11:\n      tag_45\n      tag_46\n      jump\t// in\n    tag_45:\n      stop\n        /* \"variables/variables.sol\":434:503  function setMyUint(uint _val) public {\r... */\n    tag_12:\n      tag_47\n      0x04\n      dup1\n      calldatasize\n      sub\n      dup2\n      add\n      swap1\n      tag_48\n      swap2\n      swap1\n      tag_49\n      jump\t// in\n    tag_48:\n      tag_50\n      jump\t// in\n    tag_47:\n      stop\n        /* \"variables/variables.sol\":511:580  function setMyBool(bool _val) public {\r... */\n    tag_13:\n      tag_51\n      0x04\n      dup1\n      calldatasize\n      sub\n      dup2\n      add\n      swap1\n      tag_52\n      swap2\n      swap1\n      tag_53\n      jump\t// in\n    tag_52:\n      tag_54\n      jump\t// in\n    tag_51:\n      stop\n        /* \"variables/variables.sol\":370:394  address public myaddress */\n    tag_14:\n      tag_55\n      tag_56\n      jump\t// in\n    tag_55:\n      mload(0x40)\n      tag_57\n      swap2\n      swap1\n      tag_58\n      jump\t// in\n    tag_57:\n      mload(0x40)\n      dup1\n      swap2\n      sub\n      swap1\n      return\n        /* \"variables/variables.sol\":318:338  uint8 public myuint8 */\n    tag_17:\n      0x01\n      dup1\n      sload\n      swap1\n      0x0100\n      exp\n      swap1\n      div\n      0xff\n      and\n      dup2\n      jump\t// out\n        /* \"variables/variables.sol\":1007:1107  function getBalanceOfAddress() public view returns(uint) {\r... */\n    tag_21:\n        /* \"variables/variables.sol\":1058:1062  uint */\n      0x00\n        /* \"variables/variables.sol\":1082:1091  myaddress */\n      0x01\n      0x02\n      swap1\n      sload\n      swap1\n      0x0100\n      exp\n      swap1\n      div\n      0xffffffffffffffffffffffffffffffffffffffff\n      and\n        /* \"variables/variables.sol\":1082:1099  myaddress.balance */\n      0xffffffffffffffffffffffffffffffffffffffff\n      and\n      balance\n        /* \"variables/variables.sol\":1075:1099  return myaddress.balance */\n      swap1\n      pop\n        /* \"variables/variables.sol\":1007:1107  function getBalanceOfAddress() public view returns(uint) {\r... */\n      swap1\n      jump\t// out\n        /* \"variables/variables.sol\":588:660  function setMyUint8(uint8 _val) public {\r... */\n    tag_27:\n        /* \"variables/variables.sol\":648:652  _val */\n      dup1\n        /* \"variables/variables.sol\":638:645  myuint8 */\n      0x01\n      dup1\n        /* \"variables/variables.sol\":638:652  myuint8 = _val */\n      0x0100\n      exp\n      dup2\n      sload\n      dup2\n      0xff\n      mul\n      not\n      and\n      swap1\n      dup4\n      0xff\n      and\n      mul\n      or\n      swap1\n      sstore\n      pop\n        /* \"variables/variables.sol\":588:660  function setMyUint8(uint8 _val) public {\r... */\n      pop\n      jump\t// out\n        /* \"variables/variables.sol\":668:731  function incremenMytUint8() public {\r... */\n    tag_29:\n        /* \"variables/variables.sol\":714:721  myuint8 */\n      0x01\n      dup1\n        /* \"variables/variables.sol\":714:723  myuint8++ */\n      dup2\n      dup2\n      swap1\n      sload\n      swap1\n      0x0100\n      exp\n      swap1\n      div\n      0xff\n      and\n      dup1\n      swap3\n      swap2\n      swap1\n      tag_62\n      swap1\n      tag_63\n      jump\t// in\n    tag_62:\n      swap2\n      swap1\n      0x0100\n      exp\n      dup2\n      sload\n      dup2\n      0xff\n      mul\n      not\n      and\n      swap1\n      dup4\n      0xff\n      and\n      mul\n      or\n      swap1\n      sstore\n      pop\n      pop\n        /* \"variables/variables.sol\":668:731  function incremenMytUint8() public {\r... */\n      jump\t// out\n        /* \"variables/variables.sol\":811:889  function setMyAddress(address _val) public {\r... */\n    tag_33:\n        /* \"variables/variables.sol\":877:881  _val */\n      dup1\n        /* \"variables/variables.sol\":865:874  myaddress */\n      0x01\n      0x02\n        /* \"variables/variables.sol\":865:881  myaddress = _val */\n      0x0100\n      exp\n      dup2\n      sload\n      dup2\n      0xffffffffffffffffffffffffffffffffffffffff\n      mul\n      not\n      and\n      swap1\n      dup4\n      0xffffffffffffffffffffffffffffffffffffffff\n      and\n      mul\n      or\n      swap1\n      sstore\n      pop\n        /* \"variables/variables.sol\":811:889  function setMyAddress(address _val) public {\r... */\n      pop\n      jump\t// out\n        /* \"variables/variables.sol\":403:425  string public mystring */\n    tag_35:\n      0x02\n      dup1\n      sload\n      tag_65\n      swap1\n      tag_66\n      jump\t// in\n    tag_65:\n      dup1\n      0x1f\n      add\n      0x20\n      dup1\n      swap2\n      div\n      mul\n      0x20\n      add\n      mload(0x40)\n      swap1\n      dup2\n      add\n      0x40\n      mstore\n      dup1\n      swap3\n      swap2\n      swap1\n      dup2\n      dup2\n      mstore\n      0x20\n      add\n      dup3\n      dup1\n      sload\n      tag_67\n      swap1\n      tag_66\n      jump\t// in\n    tag_67:\n      dup1\n      iszero\n      tag_68\n      jumpi\n      dup1\n      0x1f\n      lt\n      tag_69\n      jumpi\n      0x0100\n      dup1\n      dup4\n      sload\n      div\n      mul\n      dup4\n      mstore\n      swap2\n      0x20\n      add\n      swap2\n      jump(tag_68)\n    tag_69:\n      dup3\n      add\n      swap2\n      swap1\n      0x00\n      mstore\n      keccak256(0x00, 0x20)\n      swap1\n    tag_70:\n      dup2\n      sload\n      dup2\n      mstore\n      swap1\n      0x01\n      add\n      swap1\n      0x20\n      add\n      dup1\n      dup4\n      gt\n      tag_70\n      jumpi\n      dup3\n      swap1\n      sub\n      0x1f\n      and\n      dup3\n      add\n      swap2\n    tag_68:\n      pop\n      pop\n      pop\n      pop\n      pop\n      dup2\n      jump\t// out\n        /* \"variables/variables.sol\":226:244  bool public mybool */\n    tag_39:\n      0x01\n      0x00\n      swap1\n      sload\n      swap1\n      0x0100\n      exp\n      swap1\n      div\n      0xff\n      and\n      dup2\n      jump\t// out\n        /* \"variables/variables.sol\":196:217  uint256 public myuint */\n    tag_43:\n      sload(0x00)\n      dup2\n      jump\t// out\n        /* \"variables/variables.sol\":739:803  function decrementMytUint8() public {\r... */\n    tag_46:\n        /* \"variables/variables.sol\":786:793  myuint8 */\n      0x01\n      dup1\n        /* \"variables/variables.sol\":786:795  myuint8-- */\n      dup2\n      dup2\n      swap1\n      sload\n      swap1\n      0x0100\n      exp\n      swap1\n      div\n      0xff\n      and\n      dup1\n      swap3\n      swap2\n      swap1\n      tag_72\n      swap1\n      tag_73\n      jump\t// in\n    tag_72:\n      swap2\n      swap1\n      0x0100\n      exp\n      dup2\n      sload\n      dup2\n      0xff\n      mul\n      not\n      and\n      swap1\n      dup4\n      0xff\n      and\n      mul\n      or\n      swap1\n      sstore\n      pop\n      pop\n        /* \"variables/variables.sol\":739:803  function decrementMytUint8() public {\r... */\n      jump\t// out\n        /* \"variables/variables.sol\":434:503  function setMyUint(uint _val) public {\r... */\n    tag_50:\n        /* \"variables/variables.sol\":491:495  _val */\n      dup1\n        /* \"variables/variables.sol\":482:488  myuint */\n      0x00\n        /* \"variables/variables.sol\":482:495  myuint = _val */\n      dup2\n      swap1\n      sstore\n      pop\n        /* \"variables/variables.sol\":434:503  function setMyUint(uint _val) public {\r... */\n      pop\n      jump\t// out\n        /* \"variables/variables.sol\":511:580  function setMyBool(bool _val) public {\r... */\n    tag_54:\n        /* \"variables/variables.sol\":568:572  _val */\n      dup1\n        /* \"variables/variables.sol\":559:565  mybool */\n      0x01\n      0x00\n        /* \"variables/variables.sol\":559:572  mybool = _val */\n      0x0100\n      exp\n      dup2\n      sload\n      dup2\n      0xff\n      mul\n      not\n      and\n      swap1\n      dup4\n      iszero\n      iszero\n      mul\n      or\n      swap1\n      sstore\n      pop\n        /* \"variables/variables.sol\":511:580  function setMyBool(bool _val) public {\r... */\n      pop\n      jump\t// out\n        /* \"variables/variables.sol\":370:394  address public myaddress */\n    tag_56:\n      0x01\n      0x02\n      swap1\n      sload\n      swap1\n      0x0100\n      exp\n      swap1\n      div\n      0xffffffffffffffffffffffffffffffffffffffff\n      and\n      dup2\n      jump\t// out\n        /* \"#utility.yul\":7:146   */\n    tag_77:\n        /* \"#utility.yul\":53:58   */\n      0x00\n        /* \"#utility.yul\":91:97   */\n      dup2\n        /* \"#utility.yul\":78:98   */\n      calldataload\n        /* \"#utility.yul\":69:98   */\n      swap1\n      pop\n        /* \"#utility.yul\":107:140   */\n      tag_79\n        /* \"#utility.yul\":134:139   */\n      dup2\n        /* \"#utility.yul\":107:140   */\n      tag_80\n      jump\t// in\n    tag_79:\n        /* \"#utility.yul\":7:146   */\n      swap3\n      swap2\n      pop\n      pop\n      jump\t// out\n        /* \"#utility.yul\":152:285   */\n    tag_81:\n        /* \"#utility.yul\":195:200   */\n      0x00\n        /* \"#utility.yul\":233:239   */\n      dup2\n        /* \"#utility.yul\":220:240   */\n      calldataload\n        /* \"#utility.yul\":211:240   */\n      swap1\n      pop\n        /* \"#utility.yul\":249:279   */\n      tag_83\n        /* \"#utility.yul\":273:278   */\n      dup2\n        /* \"#utility.yul\":249:279   */\n      tag_84\n      jump\t// in\n    tag_83:\n        /* \"#utility.yul\":152:285   */\n      swap3\n      swap2\n      pop\n      pop\n      jump\t// out\n        /* \"#utility.yul\":291:430   */\n    tag_85:\n        /* \"#utility.yul\":337:342   */\n      0x00\n        /* \"#utility.yul\":375:381   */\n      dup2\n        /* \"#utility.yul\":362:382   */\n      calldataload\n        /* \"#utility.yul\":353:382   */\n      swap1\n      pop\n        /* \"#utility.yul\":391:424   */\n      tag_87\n        /* \"#utility.yul\":418:423   */\n      dup2\n        /* \"#utility.yul\":391:424   */\n      tag_88\n      jump\t// in\n    tag_87:\n        /* \"#utility.yul\":291:430   */\n      swap3\n      swap2\n      pop\n      pop\n      jump\t// out\n        /* \"#utility.yul\":436:571   */\n    tag_89:\n        /* \"#utility.yul\":480:485   */\n      0x00\n        /* \"#utility.yul\":518:524   */\n      dup2\n        /* \"#utility.yul\":505:525   */\n      calldataload\n        /* \"#utility.yul\":496:525   */\n      swap1\n      pop\n        /* \"#utility.yul\":534:565   */\n      tag_91\n        /* \"#utility.yul\":559:564   */\n      dup2\n        /* \"#utility.yul\":534:565   */\n      tag_92\n      jump\t// in\n    tag_91:\n        /* \"#utility.yul\":436:571   */\n      swap3\n      swap2\n      pop\n      pop\n      jump\t// out\n        /* \"#utility.yul\":577:906   */\n    tag_32:\n        /* \"#utility.yul\":636:642   */\n      0x00\n        /* \"#utility.yul\":685:687   */\n      0x20\n        /* \"#utility.yul\":673:682   */\n      dup3\n        /* \"#utility.yul\":664:671   */\n      dup5\n        /* \"#utility.yul\":660:683   */\n      sub\n        /* \"#utility.yul\":656:688   */\n      slt\n        /* \"#utility.yul\":653:772   */\n      iszero\n      tag_94\n      jumpi\n        /* \"#utility.yul\":691:770   */\n      tag_95\n      tag_96\n      jump\t// in\n    tag_95:\n        /* \"#utility.yul\":653:772   */\n    tag_94:\n        /* \"#utility.yul\":811:812   */\n      0x00\n        /* \"#utility.yul\":836:889   */\n      tag_97\n        /* \"#utility.yul\":881:888   */\n      dup5\n        /* \"#utility.yul\":872:878   */\n      dup3\n        /* \"#utility.yul\":861:870   */\n      dup6\n        /* \"#utility.yul\":857:879   */\n      add\n        /* \"#utility.yul\":836:889   */\n      tag_77\n      jump\t// in\n    tag_97:\n        /* \"#utility.yul\":826:889   */\n      swap2\n      pop\n        /* \"#utility.yul\":782:899   */\n      pop\n        /* \"#utility.yul\":577:906   */\n      swap3\n      swap2\n      pop\n      pop\n      jump\t// out\n        /* \"#utility.yul\":912:1235   */\n    tag_53:\n        /* \"#utility.yul\":968:974   */\n      0x00\n        /* \"#utility.yul\":1017:1019   */\n      0x20\n        /* \"#utility.yul\":1005:1014   */\n      dup3\n        /* \"#utility.yul\":996:1003   */\n      dup5\n        /* \"#utility.yul\":992:1015   */\n      sub\n        /* \"#utility.yul\":988:1020   */\n      slt\n        /* \"#utility.yul\":985:1104   */\n      iszero\n      tag_99\n      jumpi\n        /* \"#utility.yul\":1023:1102   */\n      tag_100\n      tag_96\n      jump\t// in\n    tag_100:\n        /* \"#utility.yul\":985:1104   */\n    tag_99:\n        /* \"#utility.yul\":1143:1144   */\n      0x00\n        /* \"#utility.yul\":1168:1218   */\n      tag_101\n        /* \"#utility.yul\":1210:1217   */\n      dup5\n        /* \"#utility.yul\":1201:1207   */\n      dup3\n        /* \"#utility.yul\":1190:1199   */\n      dup6\n        /* \"#utility.yul\":1186:1208   */\n      add\n        /* \"#utility.yul\":1168:1218   */\n      tag_81\n      jump\t// in\n    tag_101:\n        /* \"#utility.yul\":1158:1218   */\n      swap2\n      pop\n        /* \"#utility.yul\":1114:1228   */\n      pop\n        /* \"#utility.yul\":912:1235   */\n      swap3\n      swap2\n      pop\n      pop\n      jump\t// out\n        /* \"#utility.yul\":1241:1570   */\n    tag_49:\n        /* \"#utility.yul\":1300:1306   */\n      0x00\n        /* \"#utility.yul\":1349:1351   */\n      0x20\n        /* \"#utility.yul\":1337:1346   */\n      dup3\n        /* \"#utility.yul\":1328:1335   */\n      dup5\n        /* \"#utility.yul\":1324:1347   */\n      sub\n        /* \"#utility.yul\":1320:1352   */\n      slt\n        /* \"#utility.yul\":1317:1436   */\n      iszero\n      tag_103\n      jumpi\n        /* \"#utility.yul\":1355:1434   */\n      tag_104\n      tag_96\n      jump\t// in\n    tag_104:\n        /* \"#utility.yul\":1317:1436   */\n    tag_103:\n        /* \"#utility.yul\":1475:1476   */\n      0x00\n        /* \"#utility.yul\":1500:1553   */\n      tag_105\n        /* \"#utility.yul\":1545:1552   */\n      dup5\n        /* \"#utility.yul\":1536:1542   */\n      dup3\n        /* \"#utility.yul\":1525:1534   */\n      dup6\n        /* \"#utility.yul\":1521:1543   */\n      add\n        /* \"#utility.yul\":1500:1553   */\n      tag_85\n      jump\t// in\n    tag_105:\n        /* \"#utility.yul\":1490:1553   */\n      swap2\n      pop\n        /* \"#utility.yul\":1446:1563   */\n      pop\n        /* \"#utility.yul\":1241:1570   */\n      swap3\n      swap2\n      pop\n      pop\n      jump\t// out\n        /* \"#utility.yul\":1576:1901   */\n    tag_26:\n        /* \"#utility.yul\":1633:1639   */\n      0x00\n        /* \"#utility.yul\":1682:1684   */\n      0x20\n        /* \"#utility.yul\":1670:1679   */\n      dup3\n        /* \"#utility.yul\":1661:1668   */\n      dup5\n        /* \"#utility.yul\":1657:1680   */\n      sub\n        /* \"#utility.yul\":1653:1685   */\n      slt\n        /* \"#utility.yul\":1650:1769   */\n      iszero\n      tag_107\n      jumpi\n        /* \"#utility.yul\":1688:1767   */\n      tag_108\n      tag_96\n      jump\t// in\n    tag_108:\n        /* \"#utility.yul\":1650:1769   */\n    tag_107:\n        /* \"#utility.yul\":1808:1809   */\n      0x00\n        /* \"#utility.yul\":1833:1884   */\n      tag_109\n        /* \"#utility.yul\":1876:1883   */\n      dup5\n        /* \"#utility.yul\":1867:1873   */\n      dup3\n        /* \"#utility.yul\":1856:1865   */\n      dup6\n        /* \"#utility.yul\":1852:1874   */\n      add\n        /* \"#utility.yul\":1833:1884   */\n      tag_89\n      jump\t// in\n    tag_109:\n        /* \"#utility.yul\":1823:1884   */\n      swap2\n      pop\n        /* \"#utility.yul\":1779:1894   */\n      pop\n        /* \"#utility.yul\":1576:1901   */\n      swap3\n      swap2\n      pop\n      pop\n      jump\t// out\n        /* \"#utility.yul\":1907:2025   */\n    tag_110:\n        /* \"#utility.yul\":1994:2018   */\n      tag_112\n        /* \"#utility.yul\":2012:2017   */\n      dup2\n        /* \"#utility.yul\":1994:2018   */\n      tag_113\n      jump\t// in\n    tag_112:\n        /* \"#utility.yul\":1989:1992   */\n      dup3\n        /* \"#utility.yul\":1982:2019   */\n      mstore\n        /* \"#utility.yul\":1907:2025   */\n      pop\n      pop\n      jump\t// out\n        /* \"#utility.yul\":2031:2140   */\n    tag_114:\n        /* \"#utility.yul\":2112:2133   */\n      tag_116\n        /* \"#utility.yul\":2127:2132   */\n      dup2\n        /* \"#utility.yul\":2112:2133   */\n      tag_117\n      jump\t// in\n    tag_116:\n        /* \"#utility.yul\":2107:2110   */\n      dup3\n        /* \"#utility.yul\":2100:2134   */\n      mstore\n        /* \"#utility.yul\":2031:2140   */\n      pop\n      pop\n      jump\t// out\n        /* \"#utility.yul\":2146:2510   */\n    tag_118:\n        /* \"#utility.yul\":2234:2237   */\n      0x00\n        /* \"#utility.yul\":2262:2301   */\n      tag_120\n        /* \"#utility.yul\":2295:2300   */\n      dup3\n        /* \"#utility.yul\":2262:2301   */\n      tag_121\n      jump\t// in\n    tag_120:\n        /* \"#utility.yul\":2317:2388   */\n      tag_122\n        /* \"#utility.yul\":2381:2387   */\n      dup2\n        /* \"#utility.yul\":2376:2379   */\n      dup6\n        /* \"#utility.yul\":2317:2388   */\n      tag_123\n      jump\t// in\n    tag_122:\n        /* \"#utility.yul\":2310:2388   */\n      swap4\n      pop\n        /* \"#utility.yul\":2397:2449   */\n      tag_124\n        /* \"#utility.yul\":2442:2448   */\n      dup2\n        /* \"#utility.yul\":2437:2440   */\n      dup6\n        /* \"#utility.yul\":2430:2434   */\n      0x20\n        /* \"#utility.yul\":2423:2428   */\n      dup7\n        /* \"#utility.yul\":2419:2435   */\n      add\n        /* \"#utility.yul\":2397:2449   */\n      tag_125\n      jump\t// in\n    tag_124:\n        /* \"#utility.yul\":2474:2503   */\n      tag_126\n        /* \"#utility.yul\":2496:2502   */\n      dup2\n        /* \"#utility.yul\":2474:2503   */\n      tag_127\n      jump\t// in\n    tag_126:\n        /* \"#utility.yul\":2469:2472   */\n      dup5\n        /* \"#utility.yul\":2465:2504   */\n      add\n        /* \"#utility.yul\":2458:2504   */\n      swap2\n      pop\n        /* \"#utility.yul\":2238:2510   */\n      pop\n        /* \"#utility.yul\":2146:2510   */\n      swap3\n      swap2\n      pop\n      pop\n      jump\t// out\n        /* \"#utility.yul\":2516:2634   */\n    tag_128:\n        /* \"#utility.yul\":2603:2627   */\n      tag_130\n        /* \"#utility.yul\":2621:2626   */\n      dup2\n        /* \"#utility.yul\":2603:2627   */\n      tag_131\n      jump\t// in\n    tag_130:\n        /* \"#utility.yul\":2598:2601   */\n      dup3\n        /* \"#utility.yul\":2591:2628   */\n      mstore\n        /* \"#utility.yul\":2516:2634   */\n      pop\n      pop\n      jump\t// out\n        /* \"#utility.yul\":2640:2752   */\n    tag_132:\n        /* \"#utility.yul\":2723:2745   */\n      tag_134\n        /* \"#utility.yul\":2739:2744   */\n      dup2\n        /* \"#utility.yul\":2723:2745   */\n      tag_135\n      jump\t// in\n    tag_134:\n        /* \"#utility.yul\":2718:2721   */\n      dup3\n        /* \"#utility.yul\":2711:2746   */\n      mstore\n        /* \"#utility.yul\":2640:2752   */\n      pop\n      pop\n      jump\t// out\n        /* \"#utility.yul\":2758:2980   */\n    tag_58:\n        /* \"#utility.yul\":2851:2855   */\n      0x00\n        /* \"#utility.yul\":2889:2891   */\n      0x20\n        /* \"#utility.yul\":2878:2887   */\n      dup3\n        /* \"#utility.yul\":2874:2892   */\n      add\n        /* \"#utility.yul\":2866:2892   */\n      swap1\n      pop\n        /* \"#utility.yul\":2902:2973   */\n      tag_137\n        /* \"#utility.yul\":2970:2971   */\n      0x00\n        /* \"#utility.yul\":2959:2968   */\n      dup4\n        /* \"#utility.yul\":2955:2972   */\n      add\n        /* \"#utility.yul\":2946:2952   */\n      dup5\n        /* \"#utility.yul\":2902:2973   */\n      tag_110\n      jump\t// in\n    tag_137:\n        /* \"#utility.yul\":2758:2980   */\n      swap3\n      swap2\n      pop\n      pop\n      jump\t// out\n        /* \"#utility.yul\":2986:3196   */\n    tag_41:\n        /* \"#utility.yul\":3073:3077   */\n      0x00\n        /* \"#utility.yul\":3111:3113   */\n      0x20\n        /* \"#utility.yul\":3100:3109   */\n      dup3\n        /* \"#utility.yul\":3096:3114   */\n      add\n        /* \"#utility.yul\":3088:3114   */\n      swap1\n      pop\n        /* \"#utility.yul\":3124:3189   */\n      tag_139\n        /* \"#utility.yul\":3186:3187   */\n      0x00\n        /* \"#utility.yul\":3175:3184   */\n      dup4\n        /* \"#utility.yul\":3171:3188   */\n      add\n        /* \"#utility.yul\":3162:3168   */\n      dup5\n        /* \"#utility.yul\":3124:3189   */\n      tag_114\n      jump\t// in\n    tag_139:\n        /* \"#utility.yul\":2986:3196   */\n      swap3\n      swap2\n      pop\n      pop\n      jump\t// out\n        /* \"#utility.yul\":3202:3515   */\n    tag_37:\n        /* \"#utility.yul\":3315:3319   */\n      0x00\n        /* \"#utility.yul\":3353:3355   */\n      0x20\n        /* \"#utility.yul\":3342:3351   */\n      dup3\n        /* \"#utility.yul\":3338:3356   */\n      add\n        /* \"#utility.yul\":3330:3356   */\n      swap1\n      pop\n        /* \"#utility.yul\":3402:3411   */\n      dup2\n        /* \"#utility.yul\":3396:3400   */\n      dup2\n        /* \"#utility.yul\":3392:3412   */\n      sub\n        /* \"#utility.yul\":3388:3389   */\n      0x00\n        /* \"#utility.yul\":3377:3386   */\n      dup4\n        /* \"#utility.yul\":3373:3390   */\n      add\n        /* \"#utility.yul\":3366:3413   */\n      mstore\n        /* \"#utility.yul\":3430:3508   */\n      tag_141\n        /* \"#utility.yul\":3503:3507   */\n      dup2\n        /* \"#utility.yul\":3494:3500   */\n      dup5\n        /* \"#utility.yul\":3430:3508   */\n      tag_118\n      jump\t// in\n    tag_141:\n        /* \"#utility.yul\":3422:3508   */\n      swap1\n      pop\n        /* \"#utility.yul\":3202:3515   */\n      swap3\n      swap2\n      pop\n      pop\n      jump\t// out\n        /* \"#utility.yul\":3521:3743   */\n    tag_23:\n        /* \"#utility.yul\":3614:3618   */\n      0x00\n        /* \"#utility.yul\":3652:3654   */\n      0x20\n        /* \"#utility.yul\":3641:3650   */\n      dup3\n        /* \"#utility.yul\":3637:3655   */\n      add\n        /* \"#utility.yul\":3629:3655   */\n      swap1\n      pop\n        /* \"#utility.yul\":3665:3736   */\n      tag_143\n        /* \"#utility.yul\":3733:3734   */\n      0x00\n        /* \"#utility.yul\":3722:3731   */\n      dup4\n        /* \"#utility.yul\":3718:3735   */\n      add\n        /* \"#utility.yul\":3709:3715   */\n      dup5\n        /* \"#utility.yul\":3665:3736   */\n      tag_128\n      jump\t// in\n    tag_143:\n        /* \"#utility.yul\":3521:3743   */\n      swap3\n      swap2\n      pop\n      pop\n      jump\t// out\n        /* \"#utility.yul\":3749:3963   */\n    tag_19:\n        /* \"#utility.yul\":3838:3842   */\n      0x00\n        /* \"#utility.yul\":3876:3878   */\n      0x20\n        /* \"#utility.yul\":3865:3874   */\n      dup3\n        /* \"#utility.yul\":3861:3879   */\n      add\n        /* \"#utility.yul\":3853:3879   */\n      swap1\n      pop\n        /* \"#utility.yul\":3889:3956   */\n      tag_145\n        /* \"#utility.yul\":3953:3954   */\n      0x00\n        /* \"#utility.yul\":3942:3951   */\n      dup4\n        /* \"#utility.yul\":3938:3955   */\n      add\n        /* \"#utility.yul\":3929:3935   */\n      dup5\n        /* \"#utility.yul\":3889:3956   */\n      tag_132\n      jump\t// in\n    tag_145:\n        /* \"#utility.yul\":3749:3963   */\n      swap3\n      swap2\n      pop\n      pop\n      jump\t// out\n        /* \"#utility.yul\":4050:4149   */\n    tag_121:\n        /* \"#utility.yul\":4102:4108   */\n      0x00\n        /* \"#utility.yul\":4136:4141   */\n      dup2\n        /* \"#utility.yul\":4130:4142   */\n      mload\n        /* \"#utility.yul\":4120:4142   */\n      swap1\n      pop\n        /* \"#utility.yul\":4050:4149   */\n      swap2\n      swap1\n      pop\n      jump\t// out\n        /* \"#utility.yul\":4155:4324   */\n    tag_123:\n        /* \"#utility.yul\":4239:4250   */\n      0x00\n        /* \"#utility.yul\":4273:4279   */\n      dup3\n        /* \"#utility.yul\":4268:4271   */\n      dup3\n        /* \"#utility.yul\":4261:4280   */\n      mstore\n        /* \"#utility.yul\":4313:4317   */\n      0x20\n        /* \"#utility.yul\":4308:4311   */\n      dup3\n        /* \"#utility.yul\":4304:4318   */\n      add\n        /* \"#utility.yul\":4289:4318   */\n      swap1\n      pop\n        /* \"#utility.yul\":4155:4324   */\n      swap3\n      swap2\n      pop\n      pop\n      jump\t// out\n        /* \"#utility.yul\":4330:4426   */\n    tag_113:\n        /* \"#utility.yul\":4367:4374   */\n      0x00\n        /* \"#utility.yul\":4396:4420   */\n      tag_151\n        /* \"#utility.yul\":4414:4419   */\n      dup3\n        /* \"#utility.yul\":4396:4420   */\n      tag_152\n      jump\t// in\n    tag_151:\n        /* \"#utility.yul\":4385:4420   */\n      swap1\n      pop\n        /* \"#utility.yul\":4330:4426   */\n      swap2\n      swap1\n      pop\n      jump\t// out\n        /* \"#utility.yul\":4432:4522   */\n    tag_117:\n        /* \"#utility.yul\":4466:4473   */\n      0x00\n        /* \"#utility.yul\":4509:4514   */\n      dup2\n        /* \"#utility.yul\":4502:4515   */\n      iszero\n        /* \"#utility.yul\":4495:4516   */\n      iszero\n        /* \"#utility.yul\":4484:4516   */\n      swap1\n      pop\n        /* \"#utility.yul\":4432:4522   */\n      swap2\n      swap1\n      pop\n      jump\t// out\n        /* \"#utility.yul\":4528:4654   */\n    tag_152:\n        /* \"#utility.yul\":4565:4572   */\n      0x00\n        /* \"#utility.yul\":4605:4647   */\n      0xffffffffffffffffffffffffffffffffffffffff\n        /* \"#utility.yul\":4598:4603   */\n      dup3\n        /* \"#utility.yul\":4594:4648   */\n      and\n        /* \"#utility.yul\":4583:4648   */\n      swap1\n      pop\n        /* \"#utility.yul\":4528:4654   */\n      swap2\n      swap1\n      pop\n      jump\t// out\n        /* \"#utility.yul\":4660:4737   */\n    tag_131:\n        /* \"#utility.yul\":4697:4704   */\n      0x00\n        /* \"#utility.yul\":4726:4731   */\n      dup2\n        /* \"#utility.yul\":4715:4731   */\n      swap1\n      pop\n        /* \"#utility.yul\":4660:4737   */\n      swap2\n      swap1\n      pop\n      jump\t// out\n        /* \"#utility.yul\":4743:4829   */\n    tag_135:\n        /* \"#utility.yul\":4778:4785   */\n      0x00\n        /* \"#utility.yul\":4818:4822   */\n      0xff\n        /* \"#utility.yul\":4811:4816   */\n      dup3\n        /* \"#utility.yul\":4807:4823   */\n      and\n        /* \"#utility.yul\":4796:4823   */\n      swap1\n      pop\n        /* \"#utility.yul\":4743:4829   */\n      swap2\n      swap1\n      pop\n      jump\t// out\n        /* \"#utility.yul\":4835:5142   */\n    tag_125:\n        /* \"#utility.yul\":4903:4904   */\n      0x00\n        /* \"#utility.yul\":4913:5026   */\n    tag_158:\n        /* \"#utility.yul\":4927:4933   */\n      dup4\n        /* \"#utility.yul\":4924:4925   */\n      dup2\n        /* \"#utility.yul\":4921:4934   */\n      lt\n        /* \"#utility.yul\":4913:5026   */\n      iszero\n      tag_160\n      jumpi\n        /* \"#utility.yul\":5012:5013   */\n      dup1\n        /* \"#utility.yul\":5007:5010   */\n      dup3\n        /* \"#utility.yul\":5003:5014   */\n      add\n        /* \"#utility.yul\":4997:5015   */\n      mload\n        /* \"#utility.yul\":4993:4994   */\n      dup2\n        /* \"#utility.yul\":4988:4991   */\n      dup5\n        /* \"#utility.yul\":4984:4995   */\n      add\n        /* \"#utility.yul\":4977:5016   */\n      mstore\n        /* \"#utility.yul\":4949:4951   */\n      0x20\n        /* \"#utility.yul\":4946:4947   */\n      dup2\n        /* \"#utility.yul\":4942:4952   */\n      add\n        /* \"#utility.yul\":4937:4952   */\n      swap1\n      pop\n        /* \"#utility.yul\":4913:5026   */\n      jump(tag_158)\n    tag_160:\n        /* \"#utility.yul\":5044:5050   */\n      dup4\n        /* \"#utility.yul\":5041:5042   */\n      dup2\n        /* \"#utility.yul\":5038:5051   */\n      gt\n        /* \"#utility.yul\":5035:5136   */\n      iszero\n      tag_161\n      jumpi\n        /* \"#utility.yul\":5124:5125   */\n      0x00\n        /* \"#utility.yul\":5115:5121   */\n      dup5\n        /* \"#utility.yul\":5110:5113   */\n      dup5\n        /* \"#utility.yul\":5106:5122   */\n      add\n        /* \"#utility.yul\":5099:5126   */\n      mstore\n        /* \"#utility.yul\":5035:5136   */\n    tag_161:\n        /* \"#utility.yul\":4884:5142   */\n      pop\n        /* \"#utility.yul\":4835:5142   */\n      pop\n      pop\n      pop\n      jump\t// out\n        /* \"#utility.yul\":5148:5315   */\n    tag_73:\n        /* \"#utility.yul\":5185:5188   */\n      0x00\n        /* \"#utility.yul\":5208:5230   */\n      tag_163\n        /* \"#utility.yul\":5224:5229   */\n      dup3\n        /* \"#utility.yul\":5208:5230   */\n      tag_135\n      jump\t// in\n    tag_163:\n        /* \"#utility.yul\":5199:5230   */\n      swap2\n      pop\n        /* \"#utility.yul\":5252:5256   */\n      0x00\n        /* \"#utility.yul\":5245:5250   */\n      dup3\n        /* \"#utility.yul\":5242:5257   */\n      eq\n        /* \"#utility.yul\":5239:5280   */\n      iszero\n      tag_164\n      jumpi\n        /* \"#utility.yul\":5260:5278   */\n      tag_165\n      tag_166\n      jump\t// in\n    tag_165:\n        /* \"#utility.yul\":5239:5280   */\n    tag_164:\n        /* \"#utility.yul\":5307:5308   */\n      0x01\n        /* \"#utility.yul\":5300:5305   */\n      dup3\n        /* \"#utility.yul\":5296:5309   */\n      sub\n        /* \"#utility.yul\":5289:5309   */\n      swap1\n      pop\n        /* \"#utility.yul\":5148:5315   */\n      swap2\n      swap1\n      pop\n      jump\t// out\n        /* \"#utility.yul\":5321:5641   */\n    tag_66:\n        /* \"#utility.yul\":5365:5371   */\n      0x00\n        /* \"#utility.yul\":5402:5403   */\n      0x02\n        /* \"#utility.yul\":5396:5400   */\n      dup3\n        /* \"#utility.yul\":5392:5404   */\n      div\n        /* \"#utility.yul\":5382:5404   */\n      swap1\n      pop\n        /* \"#utility.yul\":5449:5450   */\n      0x01\n        /* \"#utility.yul\":5443:5447   */\n      dup3\n        /* \"#utility.yul\":5439:5451   */\n      and\n        /* \"#utility.yul\":5470:5488   */\n      dup1\n        /* \"#utility.yul\":5460:5541   */\n      tag_168\n      jumpi\n        /* \"#utility.yul\":5526:5530   */\n      0x7f\n        /* \"#utility.yul\":5518:5524   */\n      dup3\n        /* \"#utility.yul\":5514:5531   */\n      and\n        /* \"#utility.yul\":5504:5531   */\n      swap2\n      pop\n        /* \"#utility.yul\":5460:5541   */\n    tag_168:\n        /* \"#utility.yul\":5588:5590   */\n      0x20\n        /* \"#utility.yul\":5580:5586   */\n      dup3\n        /* \"#utility.yul\":5577:5591   */\n      lt\n        /* \"#utility.yul\":5557:5575   */\n      dup2\n        /* \"#utility.yul\":5554:5592   */\n      eq\n        /* \"#utility.yul\":5551:5635   */\n      iszero\n      tag_169\n      jumpi\n        /* \"#utility.yul\":5607:5625   */\n      tag_170\n      tag_171\n      jump\t// in\n    tag_170:\n        /* \"#utility.yul\":5551:5635   */\n    tag_169:\n        /* \"#utility.yul\":5372:5641   */\n      pop\n        /* \"#utility.yul\":5321:5641   */\n      swap2\n      swap1\n      pop\n      jump\t// out\n        /* \"#utility.yul\":5647:5814   */\n    tag_63:\n        /* \"#utility.yul\":5684:5687   */\n      0x00\n        /* \"#utility.yul\":5707:5729   */\n      tag_173\n        /* \"#utility.yul\":5723:5728   */\n      dup3\n        /* \"#utility.yul\":5707:5729   */\n      tag_135\n      jump\t// in\n    tag_173:\n        /* \"#utility.yul\":5698:5729   */\n      swap2\n      pop\n        /* \"#utility.yul\":5751:5755   */\n      0xff\n        /* \"#utility.yul\":5744:5749   */\n      dup3\n        /* \"#utility.yul\":5741:5756   */\n      eq\n        /* \"#utility.yul\":5738:5779   */\n      iszero\n      tag_174\n      jumpi\n        /* \"#utility.yul\":5759:5777   */\n      tag_175\n      tag_166\n      jump\t// in\n    tag_175:\n        /* \"#utility.yul\":5738:5779   */\n    tag_174:\n        /* \"#utility.yul\":5806:5807   */\n      0x01\n        /* \"#utility.yul\":5799:5804   */\n      dup3\n        /* \"#utility.yul\":5795:5808   */\n      add\n        /* \"#utility.yul\":5788:5808   */\n      swap1\n      pop\n        /* \"#utility.yul\":5647:5814   */\n      swap2\n      swap1\n      pop\n      jump\t// out\n        /* \"#utility.yul\":5820:6000   */\n    tag_166:\n        /* \"#utility.yul\":5868:5945   */\n      0x4e487b7100000000000000000000000000000000000000000000000000000000\n        /* \"#utility.yul\":5865:5866   */\n      0x00\n        /* \"#utility.yul\":5858:5946   */\n      mstore\n        /* \"#utility.yul\":5965:5969   */\n      0x11\n        /* \"#utility.yul\":5962:5963   */\n      0x04\n        /* \"#utility.yul\":5955:5970   */\n      mstore\n        /* \"#utility.yul\":5989:5993   */\n      0x24\n        /* \"#utility.yul\":5986:5987   */\n      0x00\n        /* \"#utility.yul\":5979:5994   */\n      revert\n        /* \"#utility.yul\":6006:6186   */\n    tag_171:\n        /* \"#utility.yul\":6054:6131   */\n      0x4e487b7100000000000000000000000000000000000000000000000000000000\n        /* \"#utility.yul\":6051:6052   */\n      0x00\n        /* \"#utility.yul\":6044:6132   */\n      mstore\n        /* \"#utility.yul\":6151:6155   */\n      0x22\n        /* \"#utility.yul\":6148:6149   */\n      0x04\n        /* \"#utility.yul\":6141:6156   */\n      mstore\n        /* \"#utility.yul\":6175:6179   */\n      0x24\n        /* \"#utility.yul\":6172:6173   */\n      0x00\n        /* \"#utility.yul\":6165:6180   */\n      revert\n        /* \"#utility.yul\":6315:6432   */\n    tag_96:\n        /* \"#utility.yul\":6424:6425   */\n      0x00\n        /* \"#utility.yul\":6421:6422   */\n      dup1\n        /* \"#utility.yul\":6414:6426   */\n      revert\n        /* \"#utility.yul\":6438:6540   */\n    tag_127:\n        /* \"#utility.yul\":6479:6485   */\n      0x00\n        /* \"#utility.yul\":6530:6532   */\n      0x1f\n        /* \"#utility.yul\":6526:6533   */\n      not\n        /* \"#utility.yul\":6521:6523   */\n      0x1f\n        /* \"#utility.yul\":6514:6519   */\n      dup4\n        /* \"#utility.yul\":6510:6524   */\n      add\n        /* \"#utility.yul\":6506:6534   */\n      and\n        /* \"#utility.yul\":6496:6534   */\n      swap1\n      pop\n        /* \"#utility.yul\":6438:6540   */\n      swap2\n      swap1\n      pop\n      jump\t// out\n        /* \"#utility.yul\":6546:6668   */\n    tag_80:\n        /* \"#utility.yul\":6619:6643   */\n      tag_183\n        /* \"#utility.yul\":6637:6642   */\n      dup2\n        /* \"#utility.yul\":6619:6643   */\n      tag_113\n      jump\t// in\n    tag_183:\n        /* \"#utility.yul\":6612:6617   */\n      dup2\n        /* \"#utility.yul\":6609:6644   */\n      eq\n        /* \"#utility.yul\":6599:6662   */\n      tag_184\n      jumpi\n        /* \"#utility.yul\":6658:6659   */\n      0x00\n        /* \"#utility.yul\":6655:6656   */\n      dup1\n        /* \"#utility.yul\":6648:6660   */\n      revert\n        /* \"#utility.yul\":6599:6662   */\n    tag_184:\n        /* \"#utility.yul\":6546:6668   */\n      pop\n      jump\t// out\n        /* \"#utility.yul\":6674:6790   */\n    tag_84:\n        /* \"#utility.yul\":6744:6765   */\n      tag_186\n        /* \"#utility.yul\":6759:6764   */\n      dup2\n        /* \"#utility.yul\":6744:6765   */\n      tag_117\n      jump\t// in\n    tag_186:\n        /* \"#utility.yul\":6737:6742   */\n      dup2\n        /* \"#utility.yul\":6734:6766   */\n      eq\n        /* \"#utility.yul\":6724:6784   */\n      tag_187\n      jumpi\n        /* \"#utility.yul\":6780:6781   */\n      0x00\n        /* \"#utility.yul\":6777:6778   */\n      dup1\n        /* \"#utility.yul\":6770:6782   */\n      revert\n        /* \"#utility.yul\":6724:6784   */\n    tag_187:\n        /* \"#utility.yul\":6674:6790   */\n      pop\n      jump\t// out\n        /* \"#utility.yul\":6796:6918   */\n    tag_88:\n        /* \"#utility.yul\":6869:6893   */\n      tag_189\n        /* \"#utility.yul\":6887:6892   */\n      dup2\n        /* \"#utility.yul\":6869:6893   */\n      tag_131\n      jump\t// in\n    tag_189:\n        /* \"#utility.yul\":6862:6867   */\n      dup2\n        /* \"#utility.yul\":6859:6894   */\n      eq\n        /* \"#utility.yul\":6849:6912   */\n      tag_190\n      jumpi\n        /* \"#utility.yul\":6908:6909   */\n      0x00\n        /* \"#utility.yul\":6905:6906   */\n      dup1\n        /* \"#utility.yul\":6898:6910   */\n      revert\n        /* \"#utility.yul\":6849:6912   */\n    tag_190:\n        /* \"#utility.yul\":6796:6918   */\n      pop\n      jump\t// out\n        /* \"#utility.yul\":6924:7042   */\n    tag_92:\n        /* \"#utility.yul\":6995:7017   */\n      tag_192\n        /* \"#utility.yul\":7011:7016   */\n      dup2\n        /* \"#utility.yul\":6995:7017   */\n      tag_135\n      jump\t// in\n    tag_192:\n        /* \"#utility.yul\":6988:6993   */\n      dup2\n        /* \"#utility.yul\":6985:7018   */\n      eq\n        /* \"#utility.yul\":6975:7036   */\n      tag_193\n      jumpi\n        /* \"#utility.yul\":7032:7033   */\n      0x00\n        /* \"#utility.yul\":7029:7030   */\n      dup1\n        /* \"#utility.yul\":7022:7034   */\n      revert\n        /* \"#utility.yul\":6975:7036   */\n    tag_193:\n        /* \"#utility.yul\":6924:7042   */\n      pop\n      jump\t// out\n\n    auxdata: 0xa2646970667358221220d37b10a059e4299af0b9e6a6ab250e8800525281601e79fae76e268cb5790fac64736f6c63430008070033\n}\n",
				"bytecode": {
					"linkReferences": {},
					"object": "608060405234801561001057600080fd5b50610845806100206000396000f3fe608060405234801561001057600080fd5b50600436106100b45760003560e01c8063cf4fee1011610071578063cf4fee1014610155578063d412f49014610173578063df1f327514610191578063e492fd841461019b578063eb1b30d9146101b7578063fcf814c3146101d3576100b4565b806312c0dfc3146100b957806315502612146100d75780634f25eada146100f55780636a61a59c14610111578063a8a7b8951461011b578063c261fa3614610137575b600080fd5b6100c16101f1565b6040516100ce91906105fa565b60405180910390f35b6100df610202565b6040516100ec91906105df565b60405180910390f35b61010f600480360381019061010a91906104e5565b610243565b005b610119610260565b005b6101356004803603810190610130919061045e565b610299565b005b61013f6102dd565b60405161014c91906105bd565b60405180910390f35b61015d61036b565b60405161016a91906105a2565b60405180910390f35b61017b61037e565b60405161018891906105df565b60405180910390f35b610199610384565b005b6101b560048036038101906101b091906104b8565b6103bd565b005b6101d160048036038101906101cc919061048b565b6103c7565b005b6101db6103e4565b6040516101e89190610587565b60405180910390f35b60018054906101000a900460ff1681565b6000600160029054906101000a900473ffffffffffffffffffffffffffffffffffffffff1673ffffffffffffffffffffffffffffffffffffffff1631905090565b806001806101000a81548160ff021916908360ff16021790555050565b60018081819054906101000a900460ff168092919061027e90610715565b91906101000a81548160ff021916908360ff16021790555050565b80600160026101000a81548173ffffffffffffffffffffffffffffffffffffffff021916908373ffffffffffffffffffffffffffffffffffffffff16021790555050565b600280546102ea906106e3565b80601f0160208091040260200160405190810160405280929190818152602001828054610316906106e3565b80156103635780601f1061033857610100808354040283529160200191610363565b820191906000526020600020905b81548152906001019060200180831161034657829003601f168201915b505050505081565b600160009054906101000a900460ff1681565b60005481565b60018081819054906101000a900460ff16809291906103a2906106b9565b91906101000a81548160ff021916908360ff16021790555050565b8060008190555050565b80600160006101000a81548160ff02191690831515021790555050565b600160029054906101000a900473ffffffffffffffffffffffffffffffffffffffff1681565b600081359050610419816107b3565b92915050565b60008135905061042e816107ca565b92915050565b600081359050610443816107e1565b92915050565b600081359050610458816107f8565b92915050565b6000602082840312156104745761047361079d565b5b60006104828482850161040a565b91505092915050565b6000602082840312156104a1576104a061079d565b5b60006104af8482850161041f565b91505092915050565b6000602082840312156104ce576104cd61079d565b5b60006104dc84828501610434565b91505092915050565b6000602082840312156104fb576104fa61079d565b5b600061050984828501610449565b91505092915050565b61051b81610631565b82525050565b61052a81610643565b82525050565b600061053b82610615565b6105458185610620565b9350610555818560208601610686565b61055e816107a2565b840191505092915050565b6105728161066f565b82525050565b61058181610679565b82525050565b600060208201905061059c6000830184610512565b92915050565b60006020820190506105b76000830184610521565b92915050565b600060208201905081810360008301526105d78184610530565b905092915050565b60006020820190506105f46000830184610569565b92915050565b600060208201905061060f6000830184610578565b92915050565b600081519050919050565b600082825260208201905092915050565b600061063c8261064f565b9050919050565b60008115159050919050565b600073ffffffffffffffffffffffffffffffffffffffff82169050919050565b6000819050919050565b600060ff82169050919050565b60005b838110156106a4578082015181840152602081019050610689565b838111156106b3576000848401525b50505050565b60006106c482610679565b915060008214156106d8576106d761073f565b5b600182039050919050565b600060028204905060018216806106fb57607f821691505b6020821081141561070f5761070e61076e565b5b50919050565b600061072082610679565b915060ff8214156107345761073361073f565b5b600182019050919050565b7f4e487b7100000000000000000000000000000000000000000000000000000000600052601160045260246000fd5b7f4e487b7100000000000000000000000000000000000000000000000000000000600052602260045260246000fd5b600080fd5b6000601f19601f8301169050919050565b6107bc81610631565b81146107c757600080fd5b50565b6107d381610643565b81146107de57600080fd5b50565b6107ea8161066f565b81146107f557600080fd5b50565b61080181610679565b811461080c57600080fd5b5056fea2646970667358221220d37b10a059e4299af0b9e6a6ab250e8800525281601e79fae76e268cb5790fac64736f6c63430008070033",
					"opcodes": "PUSH1 0x80 PUSH1 0x40 MSTORE CALLVALUE DUP1 ISZERO PUSH2 0x10 JUMPI PUSH1 0x0 DUP1 REVERT JUMPDEST POP PUSH2 0x845 DUP1 PUSH2 0x20 PUSH1 0x0 CODECOPY PUSH1 0x0 RETURN INVALID PUSH1 0x80 PUSH1 0x40 MSTORE CALLVALUE DUP1 ISZERO PUSH2 0x10 JUMPI PUSH1 0x0 DUP1 REVERT JUMPDEST POP PUSH1 0x4 CALLDATASIZE LT PUSH2 0xB4 JUMPI PUSH1 0x0 CALLDATALOAD PUSH1 0xE0 SHR DUP1 PUSH4 0xCF4FEE10 GT PUSH2 0x71 JUMPI DUP1 PUSH4 0xCF4FEE10 EQ PUSH2 0x155 JUMPI DUP1 PUSH4 0xD412F490 EQ PUSH2 0x173 JUMPI DUP1 PUSH4 0xDF1F3275 EQ PUSH2 0x191 JUMPI DUP1 PUSH4 0xE492FD84 EQ PUSH2 0x19B JUMPI DUP1 PUSH4 0xEB1B30D9 EQ PUSH2 0x1B7 JUMPI DUP1 PUSH4 0xFCF814C3 EQ PUSH2 0x1D3 JUMPI PUSH2 0xB4 JUMP JUMPDEST DUP1 PUSH4 0x12C0DFC3 EQ PUSH2 0xB9 JUMPI DUP1 PUSH4 0x15502612 EQ PUSH2 0xD7 JUMPI DUP1 PUSH4 0x4F25EADA EQ PUSH2 0xF5 JUMPI DUP1 PUSH4 0x6A61A59C EQ PUSH2 0x111 JUMPI DUP1 PUSH4 0xA8A7B895 EQ PUSH2 0x11B JUMPI DUP1 PUSH4 0xC261FA36 EQ PUSH2 0x137 JUMPI JUMPDEST PUSH1 0x0 DUP1 REVERT JUMPDEST PUSH2 0xC1 PUSH2 0x1F1 JUMP JUMPDEST PUSH1 0x40 MLOAD PUSH2 0xCE SWAP2 SWAP1 PUSH2 0x5FA JUMP JUMPDEST PUSH1 0x40 MLOAD DUP1 SWAP2 SUB SWAP1 RETURN JUMPDEST PUSH2 0xDF PUSH2 0x202 JUMP JUMPDEST PUSH1 0x40 MLOAD PUSH2 0xEC SWAP2 SWAP1 PUSH2 0x5DF JUMP JUMPDEST PUSH1 0x40 MLOAD DUP1 SWAP2 SUB SWAP1 RETURN JUMPDEST PUSH2 0x10F PUSH1 0x4 DUP1 CALLDATASIZE SUB DUP2 ADD SWAP1 PUSH2 0x10A SWAP2 SWAP1 PUSH2 0x4E5 JUMP JUMPDEST PUSH2 0x243 JUMP JUMPDEST STOP JUMPDEST PUSH2 0x119 PUSH2 0x260 JUMP JUMPDEST STOP JUMPDEST PUSH2 0x135 PUSH1 0x4 DUP1 CALLDATASIZE SUB DUP2 ADD SWAP1 PUSH2 0x130 SWAP2 SWAP1 PUSH2 0x45E JUMP JUMPDEST PUSH2 0x299 JUMP JUMPDEST STOP JUMPDEST PUSH2 0x13F PUSH2 0x2DD JUMP JUMPDEST PUSH1 0x40 MLOAD PUSH2 0x14C SWAP2 SWAP1 PUSH2 0x5BD JUMP JUMPDEST PUSH1 0x40 MLOAD DUP1 SWAP2 SUB SWAP1 RETURN JUMPDEST PUSH2 0x15D PUSH2 0x36B JUMP JUMPDEST PUSH1 0x40 MLOAD PUSH2 0x16A SWAP2 SWAP1 PUSH2 0x5A2 JUMP JUMPDEST PUSH1 0x40 MLOAD DUP1 SWAP2 SUB SWAP1 RETURN JUMPDEST PUSH2 0x17B PUSH2 0x37E JUMP JUMPDEST PUSH1 0x40 MLOAD PUSH2 0x188 SWAP2 SWAP1 PUSH2 0x5DF JUMP JUMPDEST PUSH1 0x40 MLOAD DUP1 SWAP2 SUB SWAP1 RETURN JUMPDEST PUSH2 0x199 PUSH2 0x384 JUMP JUMPDEST STOP JUMPDEST PUSH2 0x1B5 PUSH1 0x4 DUP1 CALLDATASIZE SUB DUP2 ADD SWAP1 PUSH2 0x1B0 SWAP2 SWAP1 PUSH2 0x4B8 JUMP JUMPDEST PUSH2 0x3BD JUMP JUMPDEST STOP JUMPDEST PUSH2 0x1D1 PUSH1 0x4 DUP1 CALLDATASIZE SUB DUP2 ADD SWAP1 PUSH2 0x1CC SWAP2 SWAP1 PUSH2 0x48B JUMP JUMPDEST PUSH2 0x3C7 JUMP JUMPDEST STOP JUMPDEST PUSH2 0x1DB PUSH2 0x3E4 JUMP JUMPDEST PUSH1 0x40 MLOAD PUSH2 0x1E8 SWAP2 SWAP1 PUSH2 0x587 JUMP JUMPDEST PUSH1 0x40 MLOAD DUP1 SWAP2 SUB SWAP1 RETURN JUMPDEST PUSH1 0x1 DUP1 SLOAD SWAP1 PUSH2 0x100 EXP SWAP1 DIV PUSH1 0xFF AND DUP2 JUMP JUMPDEST PUSH1 0x0 PUSH1 0x1 PUSH1 0x2 SWAP1 SLOAD SWAP1 PUSH2 0x100 EXP SWAP1 DIV PUSH20 0xFFFFFFFFFFFFFFFFFFFFFFFFFFFFFFFFFFFFFFFF AND PUSH20 0xFFFFFFFFFFFFFFFFFFFFFFFFFFFFFFFFFFFFFFFF AND BALANCE SWAP1 POP SWAP1 JUMP JUMPDEST DUP1 PUSH1 0x1 DUP1 PUSH2 0x100 EXP DUP2 SLOAD DUP2 PUSH1 0xFF MUL NOT AND SWAP1 DUP4 PUSH1 0xFF AND MUL OR SWAP1 SSTORE POP POP JUMP JUMPDEST PUSH1 0x1 DUP1 DUP2 DUP2 SWAP1 SLOAD SWAP1 PUSH2 0x100 EXP SWAP1 DIV PUSH1 0xFF AND DUP1 SWAP3 SWAP2 SWAP1 PUSH2 0x27E SWAP1 PUSH2 0x715 JUMP JUMPDEST SWAP2 SWAP1 PUSH2 0x100 EXP DUP2 SLOAD DUP2 PUSH1 0xFF MUL NOT AND SWAP1 DUP4 PUSH1 0xFF AND MUL OR SWAP1 SSTORE POP POP JUMP JUMPDEST DUP1 PUSH1 0x1 PUSH1 0x2 PUSH2 0x100 EXP DUP2 SLOAD DUP2 PUSH20 0xFFFFFFFFFFFFFFFFFFFFFFFFFFFFFFFFFFFFFFFF MUL NOT AND SWAP1 DUP4 PUSH20 0xFFFFFFFFFFFFFFFFFFFFFFFFFFFFFFFFFFFFFFFF AND MUL OR SWAP1 SSTORE POP POP JUMP JUMPDEST PUSH1 0x2 DUP1 SLOAD PUSH2 0x2EA SWAP1 PUSH2 0x6E3 JUMP JUMPDEST DUP1 PUSH1 0x1F ADD PUSH1 0x20 DUP1 SWAP2 DIV MUL PUSH1 0x20 ADD PUSH1 0x40 MLOAD SWAP1 DUP2 ADD PUSH1 0x40 MSTORE DUP1 SWAP3 SWAP2 SWAP1 DUP2 DUP2 MSTORE PUSH1 0x20 ADD DUP3 DUP1 SLOAD PUSH2 0x316 SWAP1 PUSH2 0x6E3 JUMP JUMPDEST DUP1 ISZERO PUSH2 0x363 JUMPI DUP1 PUSH1 0x1F LT PUSH2 0x338 JUMPI PUSH2 0x100 DUP1 DUP4 SLOAD DIV MUL DUP4 MSTORE SWAP2 PUSH1 0x20 ADD SWAP2 PUSH2 0x363 JUMP JUMPDEST DUP3 ADD SWAP2 SWAP1 PUSH1 0x0 MSTORE PUSH1 0x20 PUSH1 0x0 KECCAK256 SWAP1 JUMPDEST DUP2 SLOAD DUP2 MSTORE SWAP1 PUSH1 0x1 ADD SWAP1 PUSH1 0x20 ADD DUP1 DUP4 GT PUSH2 0x346 JUMPI DUP3 SWAP1 SUB PUSH1 0x1F AND DUP3 ADD SWAP2 JUMPDEST POP POP POP POP POP DUP2 JUMP JUMPDEST PUSH1 0x1 PUSH1 0x0 SWAP1 SLOAD SWAP1 PUSH2 0x100 EXP SWAP1 DIV PUSH1 0xFF AND DUP2 JUMP JUMPDEST PUSH1 0x0 SLOAD DUP2 JUMP JUMPDEST PUSH1 0x1 DUP1 DUP2 DUP2 SWAP1 SLOAD SWAP1 PUSH2 0x100 EXP SWAP1 DIV PUSH1 0xFF AND DUP1 SWAP3 SWAP2 SWAP1 PUSH2 0x3A2 SWAP1 PUSH2 0x6B9 JUMP JUMPDEST SWAP2 SWAP1 PUSH2 0x100 EXP DUP2 SLOAD DUP2 PUSH1 0xFF MUL NOT AND SWAP1 DUP4 PUSH1 0xFF AND MUL OR SWAP1 SSTORE POP POP JUMP JUMPDEST DUP1 PUSH1 0x0 DUP2 SWAP1 SSTORE POP POP JUMP JUMPDEST DUP1 PUSH1 0x1 PUSH1 0x0 PUSH2 0x100 EXP DUP2 SLOAD DUP2 PUSH1 0xFF MUL NOT AND SWAP1 DUP4 ISZERO ISZERO MUL OR SWAP1 SSTORE POP POP JUMP JUMPDEST PUSH1 0x1 PUSH1 0x2 SWAP1 SLOAD SWAP1 PUSH2 0x100 EXP SWAP1 DIV PUSH20 0xFFFFFFFFFFFFFFFFFFFFFFFFFFFFFFFFFFFFFFFF AND DUP2 JUMP JUMPDEST PUSH1 0x0 DUP2 CALLDATALOAD SWAP1 POP PUSH2 0x419 DUP2 PUSH2 0x7B3 JUMP JUMPDEST SWAP3 SWAP2 POP POP JUMP JUMPDEST PUSH1 0x0 DUP2 CALLDATALOAD SWAP1 POP PUSH2 0x42E DUP2 PUSH2 0x7CA JUMP JUMPDEST SWAP3 SWAP2 POP POP JUMP JUMPDEST PUSH1 0x0 DUP2 CALLDATALOAD SWAP1 POP PUSH2 0x443 DUP2 PUSH2 0x7E1 JUMP JUMPDEST SWAP3 SWAP2 POP POP JUMP JUMPDEST PUSH1 0x0 DUP2 CALLDATALOAD SWAP1 POP PUSH2 0x458 DUP2 PUSH2 0x7F8 JUMP JUMPDEST SWAP3 SWAP2 POP POP JUMP JUMPDEST PUSH1 0x0 PUSH1 0x20 DUP3 DUP5 SUB SLT ISZERO PUSH2 0x474 JUMPI PUSH2 0x473 PUSH2 0x79D JUMP JUMPDEST JUMPDEST PUSH1 0x0 PUSH2 0x482 DUP5 DUP3 DUP6 ADD PUSH2 0x40A JUMP JUMPDEST SWAP2 POP POP SWAP3 SWAP2 POP POP JUMP JUMPDEST PUSH1 0x0 PUSH1 0x20 DUP3 DUP5 SUB SLT ISZERO PUSH2 0x4A1 JUMPI PUSH2 0x4A0 PUSH2 0x79D JUMP JUMPDEST JUMPDEST PUSH1 0x0 PUSH2 0x4AF DUP5 DUP3 DUP6 ADD PUSH2 0x41F JUMP JUMPDEST SWAP2 POP POP SWAP3 SWAP2 POP POP JUMP JUMPDEST PUSH1 0x0 PUSH1 0x20 DUP3 DUP5 SUB SLT ISZERO PUSH2 0x4CE JUMPI PUSH2 0x4CD PUSH2 0x79D JUMP JUMPDEST JUMPDEST PUSH1 0x0 PUSH2 0x4DC DUP5 DUP3 DUP6 ADD PUSH2 0x434 JUMP JUMPDEST SWAP2 POP POP SWAP3 SWAP2 POP POP JUMP JUMPDEST PUSH1 0x0 PUSH1 0x20 DUP3 DUP5 SUB SLT ISZERO PUSH2 0x4FB JUMPI PUSH2 0x4FA PUSH2 0x79D JUMP JUMPDEST JUMPDEST PUSH1 0x0 PUSH2 0x509 DUP5 DUP3 DUP6 ADD PUSH2 0x449 JUMP JUMPDEST SWAP2 POP POP SWAP3 SWAP2 POP POP JUMP JUMPDEST PUSH2 0x51B DUP2 PUSH2 0x631 JUMP JUMPDEST DUP3 MSTORE POP POP JUMP JUMPDEST PUSH2 0x52A DUP2 PUSH2 0x643 JUMP JUMPDEST DUP3 MSTORE POP POP JUMP JUMPDEST PUSH1 0x0 PUSH2 0x53B DUP3 PUSH2 0x615 JUMP JUMPDEST PUSH2 0x545 DUP2 DUP6 PUSH2 0x620 JUMP JUMPDEST SWAP4 POP PUSH2 0x555 DUP2 DUP6 PUSH1 0x20 DUP7 ADD PUSH2 0x686 JUMP JUMPDEST PUSH2 0x55E DUP2 PUSH2 0x7A2 JUMP JUMPDEST DUP5 ADD SWAP2 POP POP SWAP3 SWAP2 POP POP JUMP JUMPDEST PUSH2 0x572 DUP2 PUSH2 0x66F JUMP JUMPDEST DUP3 MSTORE POP POP JUMP JUMPDEST PUSH2 0x581 DUP2 PUSH2 0x679 JUMP JUMPDEST DUP3 MSTORE POP POP JUMP JUMPDEST PUSH1 0x0 PUSH1 0x20 DUP3 ADD SWAP1 POP PUSH2 0x59C PUSH1 0x0 DUP4 ADD DUP5 PUSH2 0x512 JUMP JUMPDEST SWAP3 SWAP2 POP POP JUMP JUMPDEST PUSH1 0x0 PUSH1 0x20 DUP3 ADD SWAP1 POP PUSH2 0x5B7 PUSH1 0x0 DUP4 ADD DUP5 PUSH2 0x521 JUMP JUMPDEST SWAP3 SWAP2 POP POP JUMP JUMPDEST PUSH1 0x0 PUSH1 0x20 DUP3 ADD SWAP1 POP DUP2 DUP2 SUB PUSH1 0x0 DUP4 ADD MSTORE PUSH2 0x5D7 DUP2 DUP5 PUSH2 0x530 JUMP JUMPDEST SWAP1 POP SWAP3 SWAP2 POP POP JUMP JUMPDEST PUSH1 0x0 PUSH1 0x20 DUP3 ADD SWAP1 POP PUSH2 0x5F4 PUSH1 0x0 DUP4 ADD DUP5 PUSH2 0x569 JUMP JUMPDEST SWAP3 SWAP2 POP POP JUMP JUMPDEST PUSH1 0x0 PUSH1 0x20 DUP3 ADD SWAP1 POP PUSH2 0x60F PUSH1 0x0 DUP4 ADD DUP5 PUSH2 0x578 JUMP JUMPDEST SWAP3 SWAP2 POP POP JUMP JUMPDEST PUSH1 0x0 DUP2 MLOAD SWAP1 POP SWAP2 SWAP1 POP JUMP JUMPDEST PUSH1 0x0 DUP3 DUP3 MSTORE PUSH1 0x20 DUP3 ADD SWAP1 POP SWAP3 SWAP2 POP POP JUMP JUMPDEST PUSH1 0x0 PUSH2 0x63C DUP3 PUSH2 0x64F JUMP JUMPDEST SWAP1 POP SWAP2 SWAP1 POP JUMP JUMPDEST PUSH1 0x0 DUP2 ISZERO ISZERO SWAP1 POP SWAP2 SWAP1 POP JUMP JUMPDEST PUSH1 0x0 PUSH20 0xFFFFFFFFFFFFFFFFFFFFFFFFFFFFFFFFFFFFFFFF DUP3 AND SWAP1 POP SWAP2 SWAP1 POP JUMP JUMPDEST PUSH1 0x0 DUP2 SWAP1 POP SWAP2 SWAP1 POP JUMP JUMPDEST PUSH1 0x0 PUSH1 0xFF DUP3 AND SWAP1 POP SWAP2 SWAP1 POP JUMP JUMPDEST PUSH1 0x0 JUMPDEST DUP4 DUP2 LT ISZERO PUSH2 0x6A4 JUMPI DUP1 DUP3 ADD MLOAD DUP2 DUP5 ADD MSTORE PUSH1 0x20 DUP2 ADD SWAP1 POP PUSH2 0x689 JUMP JUMPDEST DUP4 DUP2 GT ISZERO PUSH2 0x6B3 JUMPI PUSH1 0x0 DUP5 DUP5 ADD MSTORE JUMPDEST POP POP POP POP JUMP JUMPDEST PUSH1 0x0 PUSH2 0x6C4 DUP3 PUSH2 0x679 JUMP JUMPDEST SWAP2 POP PUSH1 0x0 DUP3 EQ ISZERO PUSH2 0x6D8 JUMPI PUSH2 0x6D7 PUSH2 0x73F JUMP JUMPDEST JUMPDEST PUSH1 0x1 DUP3 SUB SWAP1 POP SWAP2 SWAP1 POP JUMP JUMPDEST PUSH1 0x0 PUSH1 0x2 DUP3 DIV SWAP1 POP PUSH1 0x1 DUP3 AND DUP1 PUSH2 0x6FB JUMPI PUSH1 0x7F DUP3 AND SWAP2 POP JUMPDEST PUSH1 0x20 DUP3 LT DUP2 EQ ISZERO PUSH2 0x70F JUMPI PUSH2 0x70E PUSH2 0x76E JUMP JUMPDEST JUMPDEST POP SWAP2 SWAP1 POP JUMP JUMPDEST PUSH1 0x0 PUSH2 0x720 DUP3 PUSH2 0x679 JUMP JUMPDEST SWAP2 POP PUSH1 0xFF DUP3 EQ ISZERO PUSH2 0x734 JUMPI PUSH2 0x733 PUSH2 0x73F JUMP JUMPDEST JUMPDEST PUSH1 0x1 DUP3 ADD SWAP1 POP SWAP2 SWAP1 POP JUMP JUMPDEST PUSH32 0x4E487B7100000000000000000000000000000000000000000000000000000000 PUSH1 0x0 MSTORE PUSH1 0x11 PUSH1 0x4 MSTORE PUSH1 0x24 PUSH1 0x0 REVERT JUMPDEST PUSH32 0x4E487B7100000000000000000000000000000000000000000000000000000000 PUSH1 0x0 MSTORE PUSH1 0x22 PUSH1 0x4 MSTORE PUSH1 0x24 PUSH1 0x0 REVERT JUMPDEST PUSH1 0x0 DUP1 REVERT JUMPDEST PUSH1 0x0 PUSH1 0x1F NOT PUSH1 0x1F DUP4 ADD AND SWAP1 POP SWAP2 SWAP1 POP JUMP JUMPDEST PUSH2 0x7BC DUP2 PUSH2 0x631 JUMP JUMPDEST DUP2 EQ PUSH2 0x7C7 JUMPI PUSH1 0x0 DUP1 REVERT JUMPDEST POP JUMP JUMPDEST PUSH2 0x7D3 DUP2 PUSH2 0x643 JUMP JUMPDEST DUP2 EQ PUSH2 0x7DE JUMPI PUSH1 0x0 DUP1 REVERT JUMPDEST POP JUMP JUMPDEST PUSH2 0x7EA DUP2 PUSH2 0x66F JUMP JUMPDEST DUP2 EQ PUSH2 0x7F5 JUMPI PUSH1 0x0 DUP1 REVERT JUMPDEST POP JUMP JUMPDEST PUSH2 0x801 DUP2 PUSH2 0x679 JUMP JUMPDEST DUP2 EQ PUSH2 0x80C JUMPI PUSH1 0x0 DUP1 REVERT JUMPDEST POP JUMP INVALID LOG2 PUSH5 0x6970667358 0x22 SLT KECCAK256 0xD3 PUSH28 0x10A059E4299AF0B9E6A6AB250E8800525281601E79FAE76E268CB579 0xF 0xAC PUSH5 0x736F6C6343 STOP ADDMOD SMOD STOP CALLER "
				},
				"gasEstimates": {
					"creation": {
						"codeDepositCost": "423400",
						"executionCost": "461",
						"totalCost": "423861"
					},
					"external": {
						"decrementMytUint8()": "26846",
						"getBalanceOfAddress()": "5152",
						"incremenMytUint8()": "26869",
						"myaddress()": "2674",
						"mybool()": "2471",
						"mystring()": "infinite",
						"myuint()": "2451",
						"myuint8()": "2519",
						"setMyAddress(address)": "24861",
						"setMyBool(bool)": "24767",
						"setMyUint(uint256)": "22586",
						"setMyUint8(uint8)": "24774"
					}
				},
				"methodIdentifiers": {
					"decrementMytUint8()": "df1f3275",
					"getBalanceOfAddress()": "15502612",
					"incremenMytUint8()": "6a61a59c",
					"myaddress()": "fcf814c3",
					"mybool()": "cf4fee10",
					"mystring()": "c261fa36",
					"myuint()": "d412f490",
					"myuint8()": "12c0dfc3",
					"setMyAddress(address)": "a8a7b895",
					"setMyBool(bool)": "eb1b30d9",
					"setMyUint(uint256)": "e492fd84",
					"setMyUint8(uint8)": "4f25eada"
				}
			},
			"storageLayout": {
				"storage": [
					{
						"astId": 3,
						"contract": "variables/variables.sol:Variables",
						"label": "myuint",
						"offset": 0,
						"slot": "0",
						"type": "t_uint256"
					},
					{
						"astId": 5,
						"contract": "variables/variables.sol:Variables",
						"label": "mybool",
						"offset": 0,
						"slot": "1",
						"type": "t_bool"
					},
					{
						"astId": 7,
						"contract": "variables/variables.sol:Variables",
						"label": "myuint8",
						"offset": 1,
						"slot": "1",
						"type": "t_uint8"
					},
					{
						"astId": 9,
						"contract": "variables/variables.sol:Variables",
						"label": "myaddress",
						"offset": 2,
						"slot": "1",
						"type": "t_address"
					},
					{
						"astId": 11,
						"contract": "variables/variables.sol:Variables",
						"label": "mystring",
						"offset": 0,
						"slot": "2",
						"type": "t_string_storage"
					}
				],
				"types": {
					"t_address": {
						"encoding": "inplace",
						"label": "address",
						"numberOfBytes": "20"
					},
					"t_bool": {
						"encoding": "inplace",
						"label": "bool",
						"numberOfBytes": "1"
					},
					"t_string_storage": {
						"encoding": "bytes",
						"label": "string",
						"numberOfBytes": "32"
					},
					"t_uint256": {
						"encoding": "inplace",
						"label": "uint256",
						"numberOfBytes": "32"
					},
					"t_uint8": {
						"encoding": "inplace",
						"label": "uint8",
						"numberOfBytes": "1"
					}
				}
			},
			"userdoc": {
				"kind": "user",
				"methods": {},
				"version": 1
			}
		}
	}
}