{
	"variables/variables.sol": {
		"Variables": {
			"abi": [
				{
					"inputs": [],
					"name": "mybool",
					"outputs": [
						{
							"internalType": "bool",
							"name": "",
							"type": "bool"
						}
					],
					"stateMutability": "view",
					"type": "function"
				},
				{
					"inputs": [],
					"name": "myuint",
					"outputs": [
						{
							"internalType": "uint256",
							"name": "",
							"type": "uint256"
						}
					],
					"stateMutability": "view",
					"type": "function"
				},
				{
					"inputs": [
						{
							"internalType": "bool",
							"name": "_val",
							"type": "bool"
						}
					],
					"name": "setMyBool",
					"outputs": [],
					"stateMutability": "nonpayable",
					"type": "function"
				},
				{
					"inputs": [
						{
							"internalType": "uint256",
							"name": "_val",
							"type": "uint256"
						}
					],
					"name": "setMyUint",
					"outputs": [],
					"stateMutability": "nonpayable",
					"type": "function"
				}
			],
			"devdoc": {
				"kind": "dev",
				"methods": {},
				"version": 1
			},
			"evm": {
				"assembly": "    /* \"variables/variables.sol\":92:406  contract Variables {\r... */\n  mstore(0x40, 0x80)\n  callvalue\n  dup1\n  iszero\n  tag_1\n  jumpi\n  0x00\n  dup1\n  revert\ntag_1:\n  pop\n  dataSize(sub_0)\n  dup1\n  dataOffset(sub_0)\n  0x00\n  codecopy\n  0x00\n  return\nstop\n\nsub_0: assembly {\n        /* \"variables/variables.sol\":92:406  contract Variables {\r... */\n      mstore(0x40, 0x80)\n      callvalue\n      dup1\n      iszero\n      tag_1\n      jumpi\n      0x00\n      dup1\n      revert\n    tag_1:\n      pop\n      jumpi(tag_2, lt(calldatasize, 0x04))\n      shr(0xe0, calldataload(0x00))\n      dup1\n      0xcf4fee10\n      eq\n      tag_3\n      jumpi\n      dup1\n      0xd412f490\n      eq\n      tag_4\n      jumpi\n      dup1\n      0xe492fd84\n      eq\n      tag_5\n      jumpi\n      dup1\n      0xeb1b30d9\n      eq\n      tag_6\n      jumpi\n    tag_2:\n      0x00\n      dup1\n      revert\n        /* \"variables/variables.sol\":226:244  bool public mybool */\n    tag_3:\n      tag_7\n      tag_8\n      jump\t// in\n    tag_7:\n      mload(0x40)\n      tag_9\n      swap2\n      swap1\n      tag_10\n      jump\t// in\n    tag_9:\n      mload(0x40)\n      dup1\n      swap2\n      sub\n      swap1\n      return\n        /* \"variables/variables.sol\":196:217  uint256 public myuint */\n    tag_4:\n      tag_11\n      tag_12\n      jump\t// in\n    tag_11:\n      mload(0x40)\n      tag_13\n      swap2\n      swap1\n      tag_14\n      jump\t// in\n    tag_13:\n      mload(0x40)\n      dup1\n      swap2\n      sub\n      swap1\n      return\n        /* \"variables/variables.sol\":257:326  function setMyUint(uint _val) public {\r... */\n    tag_5:\n      tag_15\n      0x04\n      dup1\n      calldatasize\n      sub\n      dup2\n      add\n      swap1\n      tag_16\n      swap2\n      swap1\n      tag_17\n      jump\t// in\n    tag_16:\n      tag_18\n      jump\t// in\n    tag_15:\n      stop\n        /* \"variables/variables.sol\":334:403  function setMyBool(bool _val) public {\r... */\n    tag_6:\n      tag_19\n      0x04\n      dup1\n      calldatasize\n      sub\n      dup2\n      add\n      swap1\n      tag_20\n      swap2\n      swap1\n      tag_21\n      jump\t// in\n    tag_20:\n      tag_22\n      jump\t// in\n    tag_19:\n      stop\n        /* \"variables/variables.sol\":226:244  bool public mybool */\n    tag_8:\n      0x01\n      0x00\n      swap1\n      sload\n      swap1\n      0x0100\n      exp\n      swap1\n      div\n      0xff\n      and\n      dup2\n      jump\t// out\n        /* \"variables/variables.sol\":196:217  uint256 public myuint */\n    tag_12:\n      sload(0x00)\n      dup2\n      jump\t// out\n        /* \"variables/variables.sol\":257:326  function setMyUint(uint _val) public {\r... */\n    tag_18:\n        /* \"variables/variables.sol\":314:318  _val */\n      dup1\n        /* \"variables/variables.sol\":305:311  myuint */\n      0x00\n        /* \"variables/variables.sol\":305:318  myuint = _val */\n      dup2\n      swap1\n      sstore\n      pop\n        /* \"variables/variables.sol\":257:326  function setMyUint(uint _val) public {\r... */\n      pop\n      jump\t// out\n        /* \"variables/variables.sol\":334:403  function setMyBool(bool _val) public {\r... */\n    tag_22:\n        /* \"variables/variables.sol\":391:395  _val */\n      dup1\n        /* \"variables/variables.sol\":382:388  mybool */\n      0x01\n      0x00\n        /* \"variables/variables.sol\":382:395  mybool = _val */\n      0x0100\n      exp\n      dup2\n      sload\n      dup2\n      0xff\n      mul\n      not\n      and\n      swap1\n      dup4\n      iszero\n      iszero\n      mul\n      or\n      swap1\n      sstore\n      pop\n        /* \"variables/variables.sol\":334:403  function setMyBool(bool _val) public {\r... */\n      pop\n      jump\t// out\n        /* \"#utility.yul\":7:140   */\n    tag_26:\n        /* \"#utility.yul\":50:55   */\n      0x00\n        /* \"#utility.yul\":88:94   */\n      dup2\n        /* \"#utility.yul\":75:95   */\n      calldataload\n        /* \"#utility.yul\":66:95   */\n      swap1\n      pop\n        /* \"#utility.yul\":104:134   */\n      tag_28\n        /* \"#utility.yul\":128:133   */\n      dup2\n        /* \"#utility.yul\":104:134   */\n      tag_29\n      jump\t// in\n    tag_28:\n        /* \"#utility.yul\":7:140   */\n      swap3\n      swap2\n      pop\n      pop\n      jump\t// out\n        /* \"#utility.yul\":146:285   */\n    tag_30:\n        /* \"#utility.yul\":192:197   */\n      0x00\n        /* \"#utility.yul\":230:236   */\n      dup2\n        /* \"#utility.yul\":217:237   */\n      calldataload\n        /* \"#utility.yul\":208:237   */\n      swap1\n      pop\n        /* \"#utility.yul\":246:279   */\n      tag_32\n        /* \"#utility.yul\":273:278   */\n      dup2\n        /* \"#utility.yul\":246:279   */\n      tag_33\n      jump\t// in\n    tag_32:\n        /* \"#utility.yul\":146:285   */\n      swap3\n      swap2\n      pop\n      pop\n      jump\t// out\n        /* \"#utility.yul\":291:614   */\n    tag_21:\n        /* \"#utility.yul\":347:353   */\n      0x00\n        /* \"#utility.yul\":396:398   */\n      0x20\n        /* \"#utility.yul\":384:393   */\n      dup3\n        /* \"#utility.yul\":375:382   */\n      dup5\n        /* \"#utility.yul\":371:394   */\n      sub\n        /* \"#utility.yul\":367:399   */\n      slt\n        /* \"#utility.yul\":364:483   */\n      iszero\n      tag_35\n      jumpi\n        /* \"#utility.yul\":402:481   */\n      tag_36\n      tag_37\n      jump\t// in\n    tag_36:\n        /* \"#utility.yul\":364:483   */\n    tag_35:\n        /* \"#utility.yul\":522:523   */\n      0x00\n        /* \"#utility.yul\":547:597   */\n      tag_38\n        /* \"#utility.yul\":589:596   */\n      dup5\n        /* \"#utility.yul\":580:586   */\n      dup3\n        /* \"#utility.yul\":569:578   */\n      dup6\n        /* \"#utility.yul\":565:587   */\n      add\n        /* \"#utility.yul\":547:597   */\n      tag_26\n      jump\t// in\n    tag_38:\n        /* \"#utility.yul\":537:597   */\n      swap2\n      pop\n        /* \"#utility.yul\":493:607   */\n      pop\n        /* \"#utility.yul\":291:614   */\n      swap3\n      swap2\n      pop\n      pop\n      jump\t// out\n        /* \"#utility.yul\":620:949   */\n    tag_17:\n        /* \"#utility.yul\":679:685   */\n      0x00\n        /* \"#utility.yul\":728:730   */\n      0x20\n        /* \"#utility.yul\":716:725   */\n      dup3\n        /* \"#utility.yul\":707:714   */\n      dup5\n        /* \"#utility.yul\":703:726   */\n      sub\n        /* \"#utility.yul\":699:731   */\n      slt\n        /* \"#utility.yul\":696:815   */\n      iszero\n      tag_40\n      jumpi\n        /* \"#utility.yul\":734:813   */\n      tag_41\n      tag_37\n      jump\t// in\n    tag_41:\n        /* \"#utility.yul\":696:815   */\n    tag_40:\n        /* \"#utility.yul\":854:855   */\n      0x00\n        /* \"#utility.yul\":879:932   */\n      tag_42\n        /* \"#utility.yul\":924:931   */\n      dup5\n        /* \"#utility.yul\":915:921   */\n      dup3\n        /* \"#utility.yul\":904:913   */\n      dup6\n        /* \"#utility.yul\":900:922   */\n      add\n        /* \"#utility.yul\":879:932   */\n      tag_30\n      jump\t// in\n    tag_42:\n        /* \"#utility.yul\":869:932   */\n      swap2\n      pop\n        /* \"#utility.yul\":825:942   */\n      pop\n        /* \"#utility.yul\":620:949   */\n      swap3\n      swap2\n      pop\n      pop\n      jump\t// out\n        /* \"#utility.yul\":955:1064   */\n    tag_43:\n        /* \"#utility.yul\":1036:1057   */\n      tag_45\n        /* \"#utility.yul\":1051:1056   */\n      dup2\n        /* \"#utility.yul\":1036:1057   */\n      tag_46\n      jump\t// in\n    tag_45:\n        /* \"#utility.yul\":1031:1034   */\n      dup3\n        /* \"#utility.yul\":1024:1058   */\n      mstore\n        /* \"#utility.yul\":955:1064   */\n      pop\n      pop\n      jump\t// out\n        /* \"#utility.yul\":1070:1188   */\n    tag_47:\n        /* \"#utility.yul\":1157:1181   */\n      tag_49\n        /* \"#utility.yul\":1175:1180   */\n      dup2\n        /* \"#utility.yul\":1157:1181   */\n      tag_50\n      jump\t// in\n    tag_49:\n        /* \"#utility.yul\":1152:1155   */\n      dup3\n        /* \"#utility.yul\":1145:1182   */\n      mstore\n        /* \"#utility.yul\":1070:1188   */\n      pop\n      pop\n      jump\t// out\n        /* \"#utility.yul\":1194:1404   */\n    tag_10:\n        /* \"#utility.yul\":1281:1285   */\n      0x00\n        /* \"#utility.yul\":1319:1321   */\n      0x20\n        /* \"#utility.yul\":1308:1317   */\n      dup3\n        /* \"#utility.yul\":1304:1322   */\n      add\n        /* \"#utility.yul\":1296:1322   */\n      swap1\n      pop\n        /* \"#utility.yul\":1332:1397   */\n      tag_52\n        /* \"#utility.yul\":1394:1395   */\n      0x00\n        /* \"#utility.yul\":1383:1392   */\n      dup4\n        /* \"#utility.yul\":1379:1396   */\n      add\n        /* \"#utility.yul\":1370:1376   */\n      dup5\n        /* \"#utility.yul\":1332:1397   */\n      tag_43\n      jump\t// in\n    tag_52:\n        /* \"#utility.yul\":1194:1404   */\n      swap3\n      swap2\n      pop\n      pop\n      jump\t// out\n        /* \"#utility.yul\":1410:1632   */\n    tag_14:\n        /* \"#utility.yul\":1503:1507   */\n      0x00\n        /* \"#utility.yul\":1541:1543   */\n      0x20\n        /* \"#utility.yul\":1530:1539   */\n      dup3\n        /* \"#utility.yul\":1526:1544   */\n      add\n        /* \"#utility.yul\":1518:1544   */\n      swap1\n      pop\n        /* \"#utility.yul\":1554:1625   */\n      tag_54\n        /* \"#utility.yul\":1622:1623   */\n      0x00\n        /* \"#utility.yul\":1611:1620   */\n      dup4\n        /* \"#utility.yul\":1607:1624   */\n      add\n        /* \"#utility.yul\":1598:1604   */\n      dup5\n        /* \"#utility.yul\":1554:1625   */\n      tag_47\n      jump\t// in\n    tag_54:\n        /* \"#utility.yul\":1410:1632   */\n      swap3\n      swap2\n      pop\n      pop\n      jump\t// out\n        /* \"#utility.yul\":1719:1809   */\n    tag_46:\n        /* \"#utility.yul\":1753:1760   */\n      0x00\n        /* \"#utility.yul\":1796:1801   */\n      dup2\n        /* \"#utility.yul\":1789:1802   */\n      iszero\n        /* \"#utility.yul\":1782:1803   */\n      iszero\n        /* \"#utility.yul\":1771:1803   */\n      swap1\n      pop\n        /* \"#utility.yul\":1719:1809   */\n      swap2\n      swap1\n      pop\n      jump\t// out\n        /* \"#utility.yul\":1815:1892   */\n    tag_50:\n        /* \"#utility.yul\":1852:1859   */\n      0x00\n        /* \"#utility.yul\":1881:1886   */\n      dup2\n        /* \"#utility.yul\":1870:1886   */\n      swap1\n      pop\n        /* \"#utility.yul\":1815:1892   */\n      swap2\n      swap1\n      pop\n      jump\t// out\n        /* \"#utility.yul\":2021:2138   */\n    tag_37:\n        /* \"#utility.yul\":2130:2131   */\n      0x00\n        /* \"#utility.yul\":2127:2128   */\n      dup1\n        /* \"#utility.yul\":2120:2132   */\n      revert\n        /* \"#utility.yul\":2144:2260   */\n    tag_29:\n        /* \"#utility.yul\":2214:2235   */\n      tag_63\n        /* \"#utility.yul\":2229:2234   */\n      dup2\n        /* \"#utility.yul\":2214:2235   */\n      tag_46\n      jump\t// in\n    tag_63:\n        /* \"#utility.yul\":2207:2212   */\n      dup2\n        /* \"#utility.yul\":2204:2236   */\n      eq\n        /* \"#utility.yul\":2194:2254   */\n      tag_64\n      jumpi\n        /* \"#utility.yul\":2250:2251   */\n      0x00\n        /* \"#utility.yul\":2247:2248   */\n      dup1\n        /* \"#utility.yul\":2240:2252   */\n      revert\n        /* \"#utility.yul\":2194:2254   */\n    tag_64:\n        /* \"#utility.yul\":2144:2260   */\n      pop\n      jump\t// out\n        /* \"#utility.yul\":2266:2388   */\n    tag_33:\n        /* \"#utility.yul\":2339:2363   */\n      tag_66\n        /* \"#utility.yul\":2357:2362   */\n      dup2\n        /* \"#utility.yul\":2339:2363   */\n      tag_50\n      jump\t// in\n    tag_66:\n        /* \"#utility.yul\":2332:2337   */\n      dup2\n        /* \"#utility.yul\":2329:2364   */\n      eq\n        /* \"#utility.yul\":2319:2382   */\n      tag_67\n      jumpi\n        /* \"#utility.yul\":2378:2379   */\n      0x00\n        /* \"#utility.yul\":2375:2376   */\n      dup1\n        /* \"#utility.yul\":2368:2380   */\n      revert\n        /* \"#utility.yul\":2319:2382   */\n    tag_67:\n        /* \"#utility.yul\":2266:2388   */\n      pop\n      jump\t// out\n\n    auxdata: 0xa2646970667358221220acc1f9a5b95cb5f93633efeaadfcccd272a358e88a6958c5415c178668e7d10164736f6c63430008070033\n}\n",
				"bytecode": {
					"linkReferences": {},
					"object": "608060405234801561001057600080fd5b5061025c806100206000396000f3fe608060405234801561001057600080fd5b506004361061004c5760003560e01c8063cf4fee1014610051578063d412f4901461006f578063e492fd841461008d578063eb1b30d9146100a9575b600080fd5b6100596100c5565b60405161006691906101a7565b60405180910390f35b6100776100d8565b60405161008491906101c2565b60405180910390f35b6100a760048036038101906100a2919061015c565b6100de565b005b6100c360048036038101906100be919061012f565b6100e8565b005b600160009054906101000a900460ff1681565b60005481565b8060008190555050565b80600160006101000a81548160ff02191690831515021790555050565b600081359050610114816101f8565b92915050565b6000813590506101298161020f565b92915050565b600060208284031215610145576101446101f3565b5b600061015384828501610105565b91505092915050565b600060208284031215610172576101716101f3565b5b60006101808482850161011a565b91505092915050565b610192816101dd565b82525050565b6101a1816101e9565b82525050565b60006020820190506101bc6000830184610189565b92915050565b60006020820190506101d76000830184610198565b92915050565b60008115159050919050565b6000819050919050565b600080fd5b610201816101dd565b811461020c57600080fd5b50565b610218816101e9565b811461022357600080fd5b5056fea2646970667358221220acc1f9a5b95cb5f93633efeaadfcccd272a358e88a6958c5415c178668e7d10164736f6c63430008070033",
					"opcodes": "PUSH1 0x80 PUSH1 0x40 MSTORE CALLVALUE DUP1 ISZERO PUSH2 0x10 JUMPI PUSH1 0x0 DUP1 REVERT JUMPDEST POP PUSH2 0x25C DUP1 PUSH2 0x20 PUSH1 0x0 CODECOPY PUSH1 0x0 RETURN INVALID PUSH1 0x80 PUSH1 0x40 MSTORE CALLVALUE DUP1 ISZERO PUSH2 0x10 JUMPI PUSH1 0x0 DUP1 REVERT JUMPDEST POP PUSH1 0x4 CALLDATASIZE LT PUSH2 0x4C JUMPI PUSH1 0x0 CALLDATALOAD PUSH1 0xE0 SHR DUP1 PUSH4 0xCF4FEE10 EQ PUSH2 0x51 JUMPI DUP1 PUSH4 0xD412F490 EQ PUSH2 0x6F JUMPI DUP1 PUSH4 0xE492FD84 EQ PUSH2 0x8D JUMPI DUP1 PUSH4 0xEB1B30D9 EQ PUSH2 0xA9 JUMPI JUMPDEST PUSH1 0x0 DUP1 REVERT JUMPDEST PUSH2 0x59 PUSH2 0xC5 JUMP JUMPDEST PUSH1 0x40 MLOAD PUSH2 0x66 SWAP2 SWAP1 PUSH2 0x1A7 JUMP JUMPDEST PUSH1 0x40 MLOAD DUP1 SWAP2 SUB SWAP1 RETURN JUMPDEST PUSH2 0x77 PUSH2 0xD8 JUMP JUMPDEST PUSH1 0x40 MLOAD PUSH2 0x84 SWAP2 SWAP1 PUSH2 0x1C2 JUMP JUMPDEST PUSH1 0x40 MLOAD DUP1 SWAP2 SUB SWAP1 RETURN JUMPDEST PUSH2 0xA7 PUSH1 0x4 DUP1 CALLDATASIZE SUB DUP2 ADD SWAP1 PUSH2 0xA2 SWAP2 SWAP1 PUSH2 0x15C JUMP JUMPDEST PUSH2 0xDE JUMP JUMPDEST STOP JUMPDEST PUSH2 0xC3 PUSH1 0x4 DUP1 CALLDATASIZE SUB DUP2 ADD SWAP1 PUSH2 0xBE SWAP2 SWAP1 PUSH2 0x12F JUMP JUMPDEST PUSH2 0xE8 JUMP JUMPDEST STOP JUMPDEST PUSH1 0x1 PUSH1 0x0 SWAP1 SLOAD SWAP1 PUSH2 0x100 EXP SWAP1 DIV PUSH1 0xFF AND DUP2 JUMP JUMPDEST PUSH1 0x0 SLOAD DUP2 JUMP JUMPDEST DUP1 PUSH1 0x0 DUP2 SWAP1 SSTORE POP POP JUMP JUMPDEST DUP1 PUSH1 0x1 PUSH1 0x0 PUSH2 0x100 EXP DUP2 SLOAD DUP2 PUSH1 0xFF MUL NOT AND SWAP1 DUP4 ISZERO ISZERO MUL OR SWAP1 SSTORE POP POP JUMP JUMPDEST PUSH1 0x0 DUP2 CALLDATALOAD SWAP1 POP PUSH2 0x114 DUP2 PUSH2 0x1F8 JUMP JUMPDEST SWAP3 SWAP2 POP POP JUMP JUMPDEST PUSH1 0x0 DUP2 CALLDATALOAD SWAP1 POP PUSH2 0x129 DUP2 PUSH2 0x20F JUMP JUMPDEST SWAP3 SWAP2 POP POP JUMP JUMPDEST PUSH1 0x0 PUSH1 0x20 DUP3 DUP5 SUB SLT ISZERO PUSH2 0x145 JUMPI PUSH2 0x144 PUSH2 0x1F3 JUMP JUMPDEST JUMPDEST PUSH1 0x0 PUSH2 0x153 DUP5 DUP3 DUP6 ADD PUSH2 0x105 JUMP JUMPDEST SWAP2 POP POP SWAP3 SWAP2 POP POP JUMP JUMPDEST PUSH1 0x0 PUSH1 0x20 DUP3 DUP5 SUB SLT ISZERO PUSH2 0x172 JUMPI PUSH2 0x171 PUSH2 0x1F3 JUMP JUMPDEST JUMPDEST PUSH1 0x0 PUSH2 0x180 DUP5 DUP3 DUP6 ADD PUSH2 0x11A JUMP JUMPDEST SWAP2 POP POP SWAP3 SWAP2 POP POP JUMP JUMPDEST PUSH2 0x192 DUP2 PUSH2 0x1DD JUMP JUMPDEST DUP3 MSTORE POP POP JUMP JUMPDEST PUSH2 0x1A1 DUP2 PUSH2 0x1E9 JUMP JUMPDEST DUP3 MSTORE POP POP JUMP JUMPDEST PUSH1 0x0 PUSH1 0x20 DUP3 ADD SWAP1 POP PUSH2 0x1BC PUSH1 0x0 DUP4 ADD DUP5 PUSH2 0x189 JUMP JUMPDEST SWAP3 SWAP2 POP POP JUMP JUMPDEST PUSH1 0x0 PUSH1 0x20 DUP3 ADD SWAP1 POP PUSH2 0x1D7 PUSH1 0x0 DUP4 ADD DUP5 PUSH2 0x198 JUMP JUMPDEST SWAP3 SWAP2 POP POP JUMP JUMPDEST PUSH1 0x0 DUP2 ISZERO ISZERO SWAP1 POP SWAP2 SWAP1 POP JUMP JUMPDEST PUSH1 0x0 DUP2 SWAP1 POP SWAP2 SWAP1 POP JUMP JUMPDEST PUSH1 0x0 DUP1 REVERT JUMPDEST PUSH2 0x201 DUP2 PUSH2 0x1DD JUMP JUMPDEST DUP2 EQ PUSH2 0x20C JUMPI PUSH1 0x0 DUP1 REVERT JUMPDEST POP JUMP JUMPDEST PUSH2 0x218 DUP2 PUSH2 0x1E9 JUMP JUMPDEST DUP2 EQ PUSH2 0x223 JUMPI PUSH1 0x0 DUP1 REVERT JUMPDEST POP JUMP INVALID LOG2 PUSH5 0x6970667358 0x22 SLT KECCAK256 0xAC 0xC1 0xF9 0xA5 0xB9 0x5C 0xB5 0xF9 CALLDATASIZE CALLER 0xEF 0xEA 0xAD 0xFC 0xCC 0xD2 PUSH19 0xA358E88A6958C5415C178668E7D10164736F6C PUSH4 0x43000807 STOP CALLER "
				},
				"gasEstimates": {
					"creation": {
						"codeDepositCost": "120800",
						"executionCost": "165",
						"totalCost": "120965"
					},
					"external": {
						"mybool()": "2449",
						"myuint()": "2429",
						"setMyBool(bool)": "24723",
						"setMyUint(uint256)": "22542"
					}
				},
				"methodIdentifiers": {
					"mybool()": "cf4fee10",
					"myuint()": "d412f490",
					"setMyBool(bool)": "eb1b30d9",
					"setMyUint(uint256)": "e492fd84"
				}
			},
			"storageLayout": {
				"storage": [
					{
						"astId": 3,
						"contract": "variables/variables.sol:Variables",
						"label": "myuint",
						"offset": 0,
						"slot": "0",
						"type": "t_uint256"
					},
					{
						"astId": 5,
						"contract": "variables/variables.sol:Variables",
						"label": "mybool",
						"offset": 0,
						"slot": "1",
						"type": "t_bool"
					}
				],
				"types": {
					"t_bool": {
						"encoding": "inplace",
						"label": "bool",
						"numberOfBytes": "1"
					},
					"t_uint256": {
						"encoding": "inplace",
						"label": "uint256",
						"numberOfBytes": "32"
					}
				}
			},
			"userdoc": {
				"kind": "user",
				"methods": {},
				"version": 1
			}
		}
	}
}