{
	"variables/variables.sol": {
		"Variables": {
			"abi": [
				{
					"inputs": [],
					"name": "decrementMytUint8",
					"outputs": [],
					"stateMutability": "nonpayable",
					"type": "function"
				},
				{
					"inputs": [],
					"name": "incremenMytUint8",
					"outputs": [],
					"stateMutability": "nonpayable",
					"type": "function"
				},
				{
					"inputs": [],
					"name": "mybool",
					"outputs": [
						{
							"internalType": "bool",
							"name": "",
							"type": "bool"
						}
					],
					"stateMutability": "view",
					"type": "function"
				},
				{
					"inputs": [],
					"name": "myuint",
					"outputs": [
						{
							"internalType": "uint256",
							"name": "",
							"type": "uint256"
						}
					],
					"stateMutability": "view",
					"type": "function"
				},
				{
					"inputs": [],
					"name": "myuint8",
					"outputs": [
						{
							"internalType": "uint8",
							"name": "",
							"type": "uint8"
						}
					],
					"stateMutability": "view",
					"type": "function"
				},
				{
					"inputs": [
						{
							"internalType": "bool",
							"name": "_val",
							"type": "bool"
						}
					],
					"name": "setMyBool",
					"outputs": [],
					"stateMutability": "nonpayable",
					"type": "function"
				},
				{
					"inputs": [
						{
							"internalType": "uint256",
							"name": "_val",
							"type": "uint256"
						}
					],
					"name": "setMyUint",
					"outputs": [],
					"stateMutability": "nonpayable",
					"type": "function"
				},
				{
					"inputs": [
						{
							"internalType": "uint8",
							"name": "_val",
							"type": "uint8"
						}
					],
					"name": "setMyUint8",
					"outputs": [],
					"stateMutability": "nonpayable",
					"type": "function"
				}
			],
			"devdoc": {
				"kind": "dev",
				"methods": {},
				"version": 1
			},
			"evm": {
				"assembly": "    /* \"variables/variables.sol\":92:725  contract Variables {\r... */\n  mstore(0x40, 0x80)\n  callvalue\n  dup1\n  iszero\n  tag_1\n  jumpi\n  0x00\n  dup1\n  revert\ntag_1:\n  pop\n  dataSize(sub_0)\n  dup1\n  dataOffset(sub_0)\n  0x00\n  codecopy\n  0x00\n  return\nstop\n\nsub_0: assembly {\n        /* \"variables/variables.sol\":92:725  contract Variables {\r... */\n      mstore(0x40, 0x80)\n      callvalue\n      dup1\n      iszero\n      tag_1\n      jumpi\n      0x00\n      dup1\n      revert\n    tag_1:\n      pop\n      jumpi(tag_2, lt(calldatasize, 0x04))\n      shr(0xe0, calldataload(0x00))\n      dup1\n      0xd412f490\n      gt\n      tag_11\n      jumpi\n      dup1\n      0xd412f490\n      eq\n      tag_7\n      jumpi\n      dup1\n      0xdf1f3275\n      eq\n      tag_8\n      jumpi\n      dup1\n      0xe492fd84\n      eq\n      tag_9\n      jumpi\n      dup1\n      0xeb1b30d9\n      eq\n      tag_10\n      jumpi\n      jump(tag_2)\n    tag_11:\n      dup1\n      0x12c0dfc3\n      eq\n      tag_3\n      jumpi\n      dup1\n      0x4f25eada\n      eq\n      tag_4\n      jumpi\n      dup1\n      0x6a61a59c\n      eq\n      tag_5\n      jumpi\n      dup1\n      0xcf4fee10\n      eq\n      tag_6\n      jumpi\n    tag_2:\n      0x00\n      dup1\n      revert\n        /* \"variables/variables.sol\":318:338  uint8 public myuint8 */\n    tag_3:\n      tag_12\n      tag_13\n      jump\t// in\n    tag_12:\n      mload(0x40)\n      tag_14\n      swap2\n      swap1\n      tag_15\n      jump\t// in\n    tag_14:\n      mload(0x40)\n      dup1\n      swap2\n      sub\n      swap1\n      return\n        /* \"variables/variables.sol\":507:579  function setMyUint8(uint8 _val) public {\r... */\n    tag_4:\n      tag_16\n      0x04\n      dup1\n      calldatasize\n      sub\n      dup2\n      add\n      swap1\n      tag_17\n      swap2\n      swap1\n      tag_18\n      jump\t// in\n    tag_17:\n      tag_19\n      jump\t// in\n    tag_16:\n      stop\n        /* \"variables/variables.sol\":587:650  function incremenMytUint8() public {\r... */\n    tag_5:\n      tag_20\n      tag_21\n      jump\t// in\n    tag_20:\n      stop\n        /* \"variables/variables.sol\":226:244  bool public mybool */\n    tag_6:\n      tag_22\n      tag_23\n      jump\t// in\n    tag_22:\n      mload(0x40)\n      tag_24\n      swap2\n      swap1\n      tag_25\n      jump\t// in\n    tag_24:\n      mload(0x40)\n      dup1\n      swap2\n      sub\n      swap1\n      return\n        /* \"variables/variables.sol\":196:217  uint256 public myuint */\n    tag_7:\n      tag_26\n      tag_27\n      jump\t// in\n    tag_26:\n      mload(0x40)\n      tag_28\n      swap2\n      swap1\n      tag_29\n      jump\t// in\n    tag_28:\n      mload(0x40)\n      dup1\n      swap2\n      sub\n      swap1\n      return\n        /* \"variables/variables.sol\":658:722  function decrementMytUint8() public {\r... */\n    tag_8:\n      tag_30\n      tag_31\n      jump\t// in\n    tag_30:\n      stop\n        /* \"variables/variables.sol\":353:422  function setMyUint(uint _val) public {\r... */\n    tag_9:\n      tag_32\n      0x04\n      dup1\n      calldatasize\n      sub\n      dup2\n      add\n      swap1\n      tag_33\n      swap2\n      swap1\n      tag_34\n      jump\t// in\n    tag_33:\n      tag_35\n      jump\t// in\n    tag_32:\n      stop\n        /* \"variables/variables.sol\":430:499  function setMyBool(bool _val) public {\r... */\n    tag_10:\n      tag_36\n      0x04\n      dup1\n      calldatasize\n      sub\n      dup2\n      add\n      swap1\n      tag_37\n      swap2\n      swap1\n      tag_38\n      jump\t// in\n    tag_37:\n      tag_39\n      jump\t// in\n    tag_36:\n      stop\n        /* \"variables/variables.sol\":318:338  uint8 public myuint8 */\n    tag_13:\n      0x01\n      dup1\n      sload\n      swap1\n      0x0100\n      exp\n      swap1\n      div\n      0xff\n      and\n      dup2\n      jump\t// out\n        /* \"variables/variables.sol\":507:579  function setMyUint8(uint8 _val) public {\r... */\n    tag_19:\n        /* \"variables/variables.sol\":567:571  _val */\n      dup1\n        /* \"variables/variables.sol\":557:564  myuint8 */\n      0x01\n      dup1\n        /* \"variables/variables.sol\":557:571  myuint8 = _val */\n      0x0100\n      exp\n      dup2\n      sload\n      dup2\n      0xff\n      mul\n      not\n      and\n      swap1\n      dup4\n      0xff\n      and\n      mul\n      or\n      swap1\n      sstore\n      pop\n        /* \"variables/variables.sol\":507:579  function setMyUint8(uint8 _val) public {\r... */\n      pop\n      jump\t// out\n        /* \"variables/variables.sol\":587:650  function incremenMytUint8() public {\r... */\n    tag_21:\n        /* \"variables/variables.sol\":633:640  myuint8 */\n      0x01\n      dup1\n        /* \"variables/variables.sol\":633:642  myuint8++ */\n      dup2\n      dup2\n      swap1\n      sload\n      swap1\n      0x0100\n      exp\n      swap1\n      div\n      0xff\n      and\n      dup1\n      swap3\n      swap2\n      swap1\n      tag_42\n      swap1\n      tag_43\n      jump\t// in\n    tag_42:\n      swap2\n      swap1\n      0x0100\n      exp\n      dup2\n      sload\n      dup2\n      0xff\n      mul\n      not\n      and\n      swap1\n      dup4\n      0xff\n      and\n      mul\n      or\n      swap1\n      sstore\n      pop\n      pop\n        /* \"variables/variables.sol\":587:650  function incremenMytUint8() public {\r... */\n      jump\t// out\n        /* \"variables/variables.sol\":226:244  bool public mybool */\n    tag_23:\n      0x01\n      0x00\n      swap1\n      sload\n      swap1\n      0x0100\n      exp\n      swap1\n      div\n      0xff\n      and\n      dup2\n      jump\t// out\n        /* \"variables/variables.sol\":196:217  uint256 public myuint */\n    tag_27:\n      sload(0x00)\n      dup2\n      jump\t// out\n        /* \"variables/variables.sol\":658:722  function decrementMytUint8() public {\r... */\n    tag_31:\n        /* \"variables/variables.sol\":705:712  myuint8 */\n      0x01\n      dup1\n        /* \"variables/variables.sol\":705:714  myuint8-- */\n      dup2\n      dup2\n      swap1\n      sload\n      swap1\n      0x0100\n      exp\n      swap1\n      div\n      0xff\n      and\n      dup1\n      swap3\n      swap2\n      swap1\n      tag_45\n      swap1\n      tag_46\n      jump\t// in\n    tag_45:\n      swap2\n      swap1\n      0x0100\n      exp\n      dup2\n      sload\n      dup2\n      0xff\n      mul\n      not\n      and\n      swap1\n      dup4\n      0xff\n      and\n      mul\n      or\n      swap1\n      sstore\n      pop\n      pop\n        /* \"variables/variables.sol\":658:722  function decrementMytUint8() public {\r... */\n      jump\t// out\n        /* \"variables/variables.sol\":353:422  function setMyUint(uint _val) public {\r... */\n    tag_35:\n        /* \"variables/variables.sol\":410:414  _val */\n      dup1\n        /* \"variables/variables.sol\":401:407  myuint */\n      0x00\n        /* \"variables/variables.sol\":401:414  myuint = _val */\n      dup2\n      swap1\n      sstore\n      pop\n        /* \"variables/variables.sol\":353:422  function setMyUint(uint _val) public {\r... */\n      pop\n      jump\t// out\n        /* \"variables/variables.sol\":430:499  function setMyBool(bool _val) public {\r... */\n    tag_39:\n        /* \"variables/variables.sol\":487:491  _val */\n      dup1\n        /* \"variables/variables.sol\":478:484  mybool */\n      0x01\n      0x00\n        /* \"variables/variables.sol\":478:491  mybool = _val */\n      0x0100\n      exp\n      dup2\n      sload\n      dup2\n      0xff\n      mul\n      not\n      and\n      swap1\n      dup4\n      iszero\n      iszero\n      mul\n      or\n      swap1\n      sstore\n      pop\n        /* \"variables/variables.sol\":430:499  function setMyBool(bool _val) public {\r... */\n      pop\n      jump\t// out\n        /* \"#utility.yul\":7:140   */\n    tag_50:\n        /* \"#utility.yul\":50:55   */\n      0x00\n        /* \"#utility.yul\":88:94   */\n      dup2\n        /* \"#utility.yul\":75:95   */\n      calldataload\n        /* \"#utility.yul\":66:95   */\n      swap1\n      pop\n        /* \"#utility.yul\":104:134   */\n      tag_52\n        /* \"#utility.yul\":128:133   */\n      dup2\n        /* \"#utility.yul\":104:134   */\n      tag_53\n      jump\t// in\n    tag_52:\n        /* \"#utility.yul\":7:140   */\n      swap3\n      swap2\n      pop\n      pop\n      jump\t// out\n        /* \"#utility.yul\":146:285   */\n    tag_54:\n        /* \"#utility.yul\":192:197   */\n      0x00\n        /* \"#utility.yul\":230:236   */\n      dup2\n        /* \"#utility.yul\":217:237   */\n      calldataload\n        /* \"#utility.yul\":208:237   */\n      swap1\n      pop\n        /* \"#utility.yul\":246:279   */\n      tag_56\n        /* \"#utility.yul\":273:278   */\n      dup2\n        /* \"#utility.yul\":246:279   */\n      tag_57\n      jump\t// in\n    tag_56:\n        /* \"#utility.yul\":146:285   */\n      swap3\n      swap2\n      pop\n      pop\n      jump\t// out\n        /* \"#utility.yul\":291:426   */\n    tag_58:\n        /* \"#utility.yul\":335:340   */\n      0x00\n        /* \"#utility.yul\":373:379   */\n      dup2\n        /* \"#utility.yul\":360:380   */\n      calldataload\n        /* \"#utility.yul\":351:380   */\n      swap1\n      pop\n        /* \"#utility.yul\":389:420   */\n      tag_60\n        /* \"#utility.yul\":414:419   */\n      dup2\n        /* \"#utility.yul\":389:420   */\n      tag_61\n      jump\t// in\n    tag_60:\n        /* \"#utility.yul\":291:426   */\n      swap3\n      swap2\n      pop\n      pop\n      jump\t// out\n        /* \"#utility.yul\":432:755   */\n    tag_38:\n        /* \"#utility.yul\":488:494   */\n      0x00\n        /* \"#utility.yul\":537:539   */\n      0x20\n        /* \"#utility.yul\":525:534   */\n      dup3\n        /* \"#utility.yul\":516:523   */\n      dup5\n        /* \"#utility.yul\":512:535   */\n      sub\n        /* \"#utility.yul\":508:540   */\n      slt\n        /* \"#utility.yul\":505:624   */\n      iszero\n      tag_63\n      jumpi\n        /* \"#utility.yul\":543:622   */\n      tag_64\n      tag_65\n      jump\t// in\n    tag_64:\n        /* \"#utility.yul\":505:624   */\n    tag_63:\n        /* \"#utility.yul\":663:664   */\n      0x00\n        /* \"#utility.yul\":688:738   */\n      tag_66\n        /* \"#utility.yul\":730:737   */\n      dup5\n        /* \"#utility.yul\":721:727   */\n      dup3\n        /* \"#utility.yul\":710:719   */\n      dup6\n        /* \"#utility.yul\":706:728   */\n      add\n        /* \"#utility.yul\":688:738   */\n      tag_50\n      jump\t// in\n    tag_66:\n        /* \"#utility.yul\":678:738   */\n      swap2\n      pop\n        /* \"#utility.yul\":634:748   */\n      pop\n        /* \"#utility.yul\":432:755   */\n      swap3\n      swap2\n      pop\n      pop\n      jump\t// out\n        /* \"#utility.yul\":761:1090   */\n    tag_34:\n        /* \"#utility.yul\":820:826   */\n      0x00\n        /* \"#utility.yul\":869:871   */\n      0x20\n        /* \"#utility.yul\":857:866   */\n      dup3\n        /* \"#utility.yul\":848:855   */\n      dup5\n        /* \"#utility.yul\":844:867   */\n      sub\n        /* \"#utility.yul\":840:872   */\n      slt\n        /* \"#utility.yul\":837:956   */\n      iszero\n      tag_68\n      jumpi\n        /* \"#utility.yul\":875:954   */\n      tag_69\n      tag_65\n      jump\t// in\n    tag_69:\n        /* \"#utility.yul\":837:956   */\n    tag_68:\n        /* \"#utility.yul\":995:996   */\n      0x00\n        /* \"#utility.yul\":1020:1073   */\n      tag_70\n        /* \"#utility.yul\":1065:1072   */\n      dup5\n        /* \"#utility.yul\":1056:1062   */\n      dup3\n        /* \"#utility.yul\":1045:1054   */\n      dup6\n        /* \"#utility.yul\":1041:1063   */\n      add\n        /* \"#utility.yul\":1020:1073   */\n      tag_54\n      jump\t// in\n    tag_70:\n        /* \"#utility.yul\":1010:1073   */\n      swap2\n      pop\n        /* \"#utility.yul\":966:1083   */\n      pop\n        /* \"#utility.yul\":761:1090   */\n      swap3\n      swap2\n      pop\n      pop\n      jump\t// out\n        /* \"#utility.yul\":1096:1421   */\n    tag_18:\n        /* \"#utility.yul\":1153:1159   */\n      0x00\n        /* \"#utility.yul\":1202:1204   */\n      0x20\n        /* \"#utility.yul\":1190:1199   */\n      dup3\n        /* \"#utility.yul\":1181:1188   */\n      dup5\n        /* \"#utility.yul\":1177:1200   */\n      sub\n        /* \"#utility.yul\":1173:1205   */\n      slt\n        /* \"#utility.yul\":1170:1289   */\n      iszero\n      tag_72\n      jumpi\n        /* \"#utility.yul\":1208:1287   */\n      tag_73\n      tag_65\n      jump\t// in\n    tag_73:\n        /* \"#utility.yul\":1170:1289   */\n    tag_72:\n        /* \"#utility.yul\":1328:1329   */\n      0x00\n        /* \"#utility.yul\":1353:1404   */\n      tag_74\n        /* \"#utility.yul\":1396:1403   */\n      dup5\n        /* \"#utility.yul\":1387:1393   */\n      dup3\n        /* \"#utility.yul\":1376:1385   */\n      dup6\n        /* \"#utility.yul\":1372:1394   */\n      add\n        /* \"#utility.yul\":1353:1404   */\n      tag_58\n      jump\t// in\n    tag_74:\n        /* \"#utility.yul\":1343:1404   */\n      swap2\n      pop\n        /* \"#utility.yul\":1299:1414   */\n      pop\n        /* \"#utility.yul\":1096:1421   */\n      swap3\n      swap2\n      pop\n      pop\n      jump\t// out\n        /* \"#utility.yul\":1427:1536   */\n    tag_75:\n        /* \"#utility.yul\":1508:1529   */\n      tag_77\n        /* \"#utility.yul\":1523:1528   */\n      dup2\n        /* \"#utility.yul\":1508:1529   */\n      tag_78\n      jump\t// in\n    tag_77:\n        /* \"#utility.yul\":1503:1506   */\n      dup3\n        /* \"#utility.yul\":1496:1530   */\n      mstore\n        /* \"#utility.yul\":1427:1536   */\n      pop\n      pop\n      jump\t// out\n        /* \"#utility.yul\":1542:1660   */\n    tag_79:\n        /* \"#utility.yul\":1629:1653   */\n      tag_81\n        /* \"#utility.yul\":1647:1652   */\n      dup2\n        /* \"#utility.yul\":1629:1653   */\n      tag_82\n      jump\t// in\n    tag_81:\n        /* \"#utility.yul\":1624:1627   */\n      dup3\n        /* \"#utility.yul\":1617:1654   */\n      mstore\n        /* \"#utility.yul\":1542:1660   */\n      pop\n      pop\n      jump\t// out\n        /* \"#utility.yul\":1666:1778   */\n    tag_83:\n        /* \"#utility.yul\":1749:1771   */\n      tag_85\n        /* \"#utility.yul\":1765:1770   */\n      dup2\n        /* \"#utility.yul\":1749:1771   */\n      tag_86\n      jump\t// in\n    tag_85:\n        /* \"#utility.yul\":1744:1747   */\n      dup3\n        /* \"#utility.yul\":1737:1772   */\n      mstore\n        /* \"#utility.yul\":1666:1778   */\n      pop\n      pop\n      jump\t// out\n        /* \"#utility.yul\":1784:1994   */\n    tag_25:\n        /* \"#utility.yul\":1871:1875   */\n      0x00\n        /* \"#utility.yul\":1909:1911   */\n      0x20\n        /* \"#utility.yul\":1898:1907   */\n      dup3\n        /* \"#utility.yul\":1894:1912   */\n      add\n        /* \"#utility.yul\":1886:1912   */\n      swap1\n      pop\n        /* \"#utility.yul\":1922:1987   */\n      tag_88\n        /* \"#utility.yul\":1984:1985   */\n      0x00\n        /* \"#utility.yul\":1973:1982   */\n      dup4\n        /* \"#utility.yul\":1969:1986   */\n      add\n        /* \"#utility.yul\":1960:1966   */\n      dup5\n        /* \"#utility.yul\":1922:1987   */\n      tag_75\n      jump\t// in\n    tag_88:\n        /* \"#utility.yul\":1784:1994   */\n      swap3\n      swap2\n      pop\n      pop\n      jump\t// out\n        /* \"#utility.yul\":2000:2222   */\n    tag_29:\n        /* \"#utility.yul\":2093:2097   */\n      0x00\n        /* \"#utility.yul\":2131:2133   */\n      0x20\n        /* \"#utility.yul\":2120:2129   */\n      dup3\n        /* \"#utility.yul\":2116:2134   */\n      add\n        /* \"#utility.yul\":2108:2134   */\n      swap1\n      pop\n        /* \"#utility.yul\":2144:2215   */\n      tag_90\n        /* \"#utility.yul\":2212:2213   */\n      0x00\n        /* \"#utility.yul\":2201:2210   */\n      dup4\n        /* \"#utility.yul\":2197:2214   */\n      add\n        /* \"#utility.yul\":2188:2194   */\n      dup5\n        /* \"#utility.yul\":2144:2215   */\n      tag_79\n      jump\t// in\n    tag_90:\n        /* \"#utility.yul\":2000:2222   */\n      swap3\n      swap2\n      pop\n      pop\n      jump\t// out\n        /* \"#utility.yul\":2228:2442   */\n    tag_15:\n        /* \"#utility.yul\":2317:2321   */\n      0x00\n        /* \"#utility.yul\":2355:2357   */\n      0x20\n        /* \"#utility.yul\":2344:2353   */\n      dup3\n        /* \"#utility.yul\":2340:2358   */\n      add\n        /* \"#utility.yul\":2332:2358   */\n      swap1\n      pop\n        /* \"#utility.yul\":2368:2435   */\n      tag_92\n        /* \"#utility.yul\":2432:2433   */\n      0x00\n        /* \"#utility.yul\":2421:2430   */\n      dup4\n        /* \"#utility.yul\":2417:2434   */\n      add\n        /* \"#utility.yul\":2408:2414   */\n      dup5\n        /* \"#utility.yul\":2368:2435   */\n      tag_83\n      jump\t// in\n    tag_92:\n        /* \"#utility.yul\":2228:2442   */\n      swap3\n      swap2\n      pop\n      pop\n      jump\t// out\n        /* \"#utility.yul\":2529:2619   */\n    tag_78:\n        /* \"#utility.yul\":2563:2570   */\n      0x00\n        /* \"#utility.yul\":2606:2611   */\n      dup2\n        /* \"#utility.yul\":2599:2612   */\n      iszero\n        /* \"#utility.yul\":2592:2613   */\n      iszero\n        /* \"#utility.yul\":2581:2613   */\n      swap1\n      pop\n        /* \"#utility.yul\":2529:2619   */\n      swap2\n      swap1\n      pop\n      jump\t// out\n        /* \"#utility.yul\":2625:2702   */\n    tag_82:\n        /* \"#utility.yul\":2662:2669   */\n      0x00\n        /* \"#utility.yul\":2691:2696   */\n      dup2\n        /* \"#utility.yul\":2680:2696   */\n      swap1\n      pop\n        /* \"#utility.yul\":2625:2702   */\n      swap2\n      swap1\n      pop\n      jump\t// out\n        /* \"#utility.yul\":2708:2794   */\n    tag_86:\n        /* \"#utility.yul\":2743:2750   */\n      0x00\n        /* \"#utility.yul\":2783:2787   */\n      0xff\n        /* \"#utility.yul\":2776:2781   */\n      dup3\n        /* \"#utility.yul\":2772:2788   */\n      and\n        /* \"#utility.yul\":2761:2788   */\n      swap1\n      pop\n        /* \"#utility.yul\":2708:2794   */\n      swap2\n      swap1\n      pop\n      jump\t// out\n        /* \"#utility.yul\":2800:2967   */\n    tag_46:\n        /* \"#utility.yul\":2837:2840   */\n      0x00\n        /* \"#utility.yul\":2860:2882   */\n      tag_99\n        /* \"#utility.yul\":2876:2881   */\n      dup3\n        /* \"#utility.yul\":2860:2882   */\n      tag_86\n      jump\t// in\n    tag_99:\n        /* \"#utility.yul\":2851:2882   */\n      swap2\n      pop\n        /* \"#utility.yul\":2904:2908   */\n      0x00\n        /* \"#utility.yul\":2897:2902   */\n      dup3\n        /* \"#utility.yul\":2894:2909   */\n      eq\n        /* \"#utility.yul\":2891:2932   */\n      iszero\n      tag_100\n      jumpi\n        /* \"#utility.yul\":2912:2930   */\n      tag_101\n      tag_102\n      jump\t// in\n    tag_101:\n        /* \"#utility.yul\":2891:2932   */\n    tag_100:\n        /* \"#utility.yul\":2959:2960   */\n      0x01\n        /* \"#utility.yul\":2952:2957   */\n      dup3\n        /* \"#utility.yul\":2948:2961   */\n      sub\n        /* \"#utility.yul\":2941:2961   */\n      swap1\n      pop\n        /* \"#utility.yul\":2800:2967   */\n      swap2\n      swap1\n      pop\n      jump\t// out\n        /* \"#utility.yul\":2973:3140   */\n    tag_43:\n        /* \"#utility.yul\":3010:3013   */\n      0x00\n        /* \"#utility.yul\":3033:3055   */\n      tag_104\n        /* \"#utility.yul\":3049:3054   */\n      dup3\n        /* \"#utility.yul\":3033:3055   */\n      tag_86\n      jump\t// in\n    tag_104:\n        /* \"#utility.yul\":3024:3055   */\n      swap2\n      pop\n        /* \"#utility.yul\":3077:3081   */\n      0xff\n        /* \"#utility.yul\":3070:3075   */\n      dup3\n        /* \"#utility.yul\":3067:3082   */\n      eq\n        /* \"#utility.yul\":3064:3105   */\n      iszero\n      tag_105\n      jumpi\n        /* \"#utility.yul\":3085:3103   */\n      tag_106\n      tag_102\n      jump\t// in\n    tag_106:\n        /* \"#utility.yul\":3064:3105   */\n    tag_105:\n        /* \"#utility.yul\":3132:3133   */\n      0x01\n        /* \"#utility.yul\":3125:3130   */\n      dup3\n        /* \"#utility.yul\":3121:3134   */\n      add\n        /* \"#utility.yul\":3114:3134   */\n      swap1\n      pop\n        /* \"#utility.yul\":2973:3140   */\n      swap2\n      swap1\n      pop\n      jump\t// out\n        /* \"#utility.yul\":3146:3326   */\n    tag_102:\n        /* \"#utility.yul\":3194:3271   */\n      0x4e487b7100000000000000000000000000000000000000000000000000000000\n        /* \"#utility.yul\":3191:3192   */\n      0x00\n        /* \"#utility.yul\":3184:3272   */\n      mstore\n        /* \"#utility.yul\":3291:3295   */\n      0x11\n        /* \"#utility.yul\":3288:3289   */\n      0x04\n        /* \"#utility.yul\":3281:3296   */\n      mstore\n        /* \"#utility.yul\":3315:3319   */\n      0x24\n        /* \"#utility.yul\":3312:3313   */\n      0x00\n        /* \"#utility.yul\":3305:3320   */\n      revert\n        /* \"#utility.yul\":3455:3572   */\n    tag_65:\n        /* \"#utility.yul\":3564:3565   */\n      0x00\n        /* \"#utility.yul\":3561:3562   */\n      dup1\n        /* \"#utility.yul\":3554:3566   */\n      revert\n        /* \"#utility.yul\":3578:3694   */\n    tag_53:\n        /* \"#utility.yul\":3648:3669   */\n      tag_112\n        /* \"#utility.yul\":3663:3668   */\n      dup2\n        /* \"#utility.yul\":3648:3669   */\n      tag_78\n      jump\t// in\n    tag_112:\n        /* \"#utility.yul\":3641:3646   */\n      dup2\n        /* \"#utility.yul\":3638:3670   */\n      eq\n        /* \"#utility.yul\":3628:3688   */\n      tag_113\n      jumpi\n        /* \"#utility.yul\":3684:3685   */\n      0x00\n        /* \"#utility.yul\":3681:3682   */\n      dup1\n        /* \"#utility.yul\":3674:3686   */\n      revert\n        /* \"#utility.yul\":3628:3688   */\n    tag_113:\n        /* \"#utility.yul\":3578:3694   */\n      pop\n      jump\t// out\n        /* \"#utility.yul\":3700:3822   */\n    tag_57:\n        /* \"#utility.yul\":3773:3797   */\n      tag_115\n        /* \"#utility.yul\":3791:3796   */\n      dup2\n        /* \"#utility.yul\":3773:3797   */\n      tag_82\n      jump\t// in\n    tag_115:\n        /* \"#utility.yul\":3766:3771   */\n      dup2\n        /* \"#utility.yul\":3763:3798   */\n      eq\n        /* \"#utility.yul\":3753:3816   */\n      tag_116\n      jumpi\n        /* \"#utility.yul\":3812:3813   */\n      0x00\n        /* \"#utility.yul\":3809:3810   */\n      dup1\n        /* \"#utility.yul\":3802:3814   */\n      revert\n        /* \"#utility.yul\":3753:3816   */\n    tag_116:\n        /* \"#utility.yul\":3700:3822   */\n      pop\n      jump\t// out\n        /* \"#utility.yul\":3828:3946   */\n    tag_61:\n        /* \"#utility.yul\":3899:3921   */\n      tag_118\n        /* \"#utility.yul\":3915:3920   */\n      dup2\n        /* \"#utility.yul\":3899:3921   */\n      tag_86\n      jump\t// in\n    tag_118:\n        /* \"#utility.yul\":3892:3897   */\n      dup2\n        /* \"#utility.yul\":3889:3922   */\n      eq\n        /* \"#utility.yul\":3879:3940   */\n      tag_119\n      jumpi\n        /* \"#utility.yul\":3936:3937   */\n      0x00\n        /* \"#utility.yul\":3933:3934   */\n      dup1\n        /* \"#utility.yul\":3926:3938   */\n      revert\n        /* \"#utility.yul\":3879:3940   */\n    tag_119:\n        /* \"#utility.yul\":3828:3946   */\n      pop\n      jump\t// out\n\n    auxdata: 0xa26469706673582212205271530a688a9e1c17bd121ba6ed8f67bd9f213bc19b8d4417c631fd1de1389464736f6c63430008070033\n}\n",
				"bytecode": {
					"linkReferences": {},
					"object": "608060405234801561001057600080fd5b50610499806100206000396000f3fe608060405234801561001057600080fd5b50600436106100885760003560e01c8063d412f4901161005b578063d412f490146100ef578063df1f32751461010d578063e492fd8414610117578063eb1b30d91461013357610088565b806312c0dfc31461008d5780634f25eada146100ab5780636a61a59c146100c7578063cf4fee10146100d1575b600080fd5b61009561014f565b6040516100a29190610358565b60405180910390f35b6100c560048036038101906100c091906102c8565b610160565b005b6100cf61017d565b005b6100d96101b6565b6040516100e69190610322565b60405180910390f35b6100f76101c9565b604051610104919061033d565b60405180910390f35b6101156101cf565b005b610131600480360381019061012c919061029b565b610208565b005b61014d6004803603810190610148919061026e565b610212565b005b60018054906101000a900460ff1681565b806001806101000a81548160ff021916908360ff16021790555050565b60018081819054906101000a900460ff168092919061019b906103c0565b91906101000a81548160ff021916908360ff16021790555050565b600160009054906101000a900460ff1681565b60005481565b60018081819054906101000a900460ff16809291906101ed90610396565b91906101000a81548160ff021916908360ff16021790555050565b8060008190555050565b80600160006101000a81548160ff02191690831515021790555050565b60008135905061023e8161041e565b92915050565b60008135905061025381610435565b92915050565b6000813590506102688161044c565b92915050565b60006020828403121561028457610283610419565b5b60006102928482850161022f565b91505092915050565b6000602082840312156102b1576102b0610419565b5b60006102bf84828501610244565b91505092915050565b6000602082840312156102de576102dd610419565b5b60006102ec84828501610259565b91505092915050565b6102fe81610373565b82525050565b61030d8161037f565b82525050565b61031c81610389565b82525050565b600060208201905061033760008301846102f5565b92915050565b60006020820190506103526000830184610304565b92915050565b600060208201905061036d6000830184610313565b92915050565b60008115159050919050565b6000819050919050565b600060ff82169050919050565b60006103a182610389565b915060008214156103b5576103b46103ea565b5b600182039050919050565b60006103cb82610389565b915060ff8214156103df576103de6103ea565b5b600182019050919050565b7f4e487b7100000000000000000000000000000000000000000000000000000000600052601160045260246000fd5b600080fd5b61042781610373565b811461043257600080fd5b50565b61043e8161037f565b811461044957600080fd5b50565b61045581610389565b811461046057600080fd5b5056fea26469706673582212205271530a688a9e1c17bd121ba6ed8f67bd9f213bc19b8d4417c631fd1de1389464736f6c63430008070033",
					"opcodes": "PUSH1 0x80 PUSH1 0x40 MSTORE CALLVALUE DUP1 ISZERO PUSH2 0x10 JUMPI PUSH1 0x0 DUP1 REVERT JUMPDEST POP PUSH2 0x499 DUP1 PUSH2 0x20 PUSH1 0x0 CODECOPY PUSH1 0x0 RETURN INVALID PUSH1 0x80 PUSH1 0x40 MSTORE CALLVALUE DUP1 ISZERO PUSH2 0x10 JUMPI PUSH1 0x0 DUP1 REVERT JUMPDEST POP PUSH1 0x4 CALLDATASIZE LT PUSH2 0x88 JUMPI PUSH1 0x0 CALLDATALOAD PUSH1 0xE0 SHR DUP1 PUSH4 0xD412F490 GT PUSH2 0x5B JUMPI DUP1 PUSH4 0xD412F490 EQ PUSH2 0xEF JUMPI DUP1 PUSH4 0xDF1F3275 EQ PUSH2 0x10D JUMPI DUP1 PUSH4 0xE492FD84 EQ PUSH2 0x117 JUMPI DUP1 PUSH4 0xEB1B30D9 EQ PUSH2 0x133 JUMPI PUSH2 0x88 JUMP JUMPDEST DUP1 PUSH4 0x12C0DFC3 EQ PUSH2 0x8D JUMPI DUP1 PUSH4 0x4F25EADA EQ PUSH2 0xAB JUMPI DUP1 PUSH4 0x6A61A59C EQ PUSH2 0xC7 JUMPI DUP1 PUSH4 0xCF4FEE10 EQ PUSH2 0xD1 JUMPI JUMPDEST PUSH1 0x0 DUP1 REVERT JUMPDEST PUSH2 0x95 PUSH2 0x14F JUMP JUMPDEST PUSH1 0x40 MLOAD PUSH2 0xA2 SWAP2 SWAP1 PUSH2 0x358 JUMP JUMPDEST PUSH1 0x40 MLOAD DUP1 SWAP2 SUB SWAP1 RETURN JUMPDEST PUSH2 0xC5 PUSH1 0x4 DUP1 CALLDATASIZE SUB DUP2 ADD SWAP1 PUSH2 0xC0 SWAP2 SWAP1 PUSH2 0x2C8 JUMP JUMPDEST PUSH2 0x160 JUMP JUMPDEST STOP JUMPDEST PUSH2 0xCF PUSH2 0x17D JUMP JUMPDEST STOP JUMPDEST PUSH2 0xD9 PUSH2 0x1B6 JUMP JUMPDEST PUSH1 0x40 MLOAD PUSH2 0xE6 SWAP2 SWAP1 PUSH2 0x322 JUMP JUMPDEST PUSH1 0x40 MLOAD DUP1 SWAP2 SUB SWAP1 RETURN JUMPDEST PUSH2 0xF7 PUSH2 0x1C9 JUMP JUMPDEST PUSH1 0x40 MLOAD PUSH2 0x104 SWAP2 SWAP1 PUSH2 0x33D JUMP JUMPDEST PUSH1 0x40 MLOAD DUP1 SWAP2 SUB SWAP1 RETURN JUMPDEST PUSH2 0x115 PUSH2 0x1CF JUMP JUMPDEST STOP JUMPDEST PUSH2 0x131 PUSH1 0x4 DUP1 CALLDATASIZE SUB DUP2 ADD SWAP1 PUSH2 0x12C SWAP2 SWAP1 PUSH2 0x29B JUMP JUMPDEST PUSH2 0x208 JUMP JUMPDEST STOP JUMPDEST PUSH2 0x14D PUSH1 0x4 DUP1 CALLDATASIZE SUB DUP2 ADD SWAP1 PUSH2 0x148 SWAP2 SWAP1 PUSH2 0x26E JUMP JUMPDEST PUSH2 0x212 JUMP JUMPDEST STOP JUMPDEST PUSH1 0x1 DUP1 SLOAD SWAP1 PUSH2 0x100 EXP SWAP1 DIV PUSH1 0xFF AND DUP2 JUMP JUMPDEST DUP1 PUSH1 0x1 DUP1 PUSH2 0x100 EXP DUP2 SLOAD DUP2 PUSH1 0xFF MUL NOT AND SWAP1 DUP4 PUSH1 0xFF AND MUL OR SWAP1 SSTORE POP POP JUMP JUMPDEST PUSH1 0x1 DUP1 DUP2 DUP2 SWAP1 SLOAD SWAP1 PUSH2 0x100 EXP SWAP1 DIV PUSH1 0xFF AND DUP1 SWAP3 SWAP2 SWAP1 PUSH2 0x19B SWAP1 PUSH2 0x3C0 JUMP JUMPDEST SWAP2 SWAP1 PUSH2 0x100 EXP DUP2 SLOAD DUP2 PUSH1 0xFF MUL NOT AND SWAP1 DUP4 PUSH1 0xFF AND MUL OR SWAP1 SSTORE POP POP JUMP JUMPDEST PUSH1 0x1 PUSH1 0x0 SWAP1 SLOAD SWAP1 PUSH2 0x100 EXP SWAP1 DIV PUSH1 0xFF AND DUP2 JUMP JUMPDEST PUSH1 0x0 SLOAD DUP2 JUMP JUMPDEST PUSH1 0x1 DUP1 DUP2 DUP2 SWAP1 SLOAD SWAP1 PUSH2 0x100 EXP SWAP1 DIV PUSH1 0xFF AND DUP1 SWAP3 SWAP2 SWAP1 PUSH2 0x1ED SWAP1 PUSH2 0x396 JUMP JUMPDEST SWAP2 SWAP1 PUSH2 0x100 EXP DUP2 SLOAD DUP2 PUSH1 0xFF MUL NOT AND SWAP1 DUP4 PUSH1 0xFF AND MUL OR SWAP1 SSTORE POP POP JUMP JUMPDEST DUP1 PUSH1 0x0 DUP2 SWAP1 SSTORE POP POP JUMP JUMPDEST DUP1 PUSH1 0x1 PUSH1 0x0 PUSH2 0x100 EXP DUP2 SLOAD DUP2 PUSH1 0xFF MUL NOT AND SWAP1 DUP4 ISZERO ISZERO MUL OR SWAP1 SSTORE POP POP JUMP JUMPDEST PUSH1 0x0 DUP2 CALLDATALOAD SWAP1 POP PUSH2 0x23E DUP2 PUSH2 0x41E JUMP JUMPDEST SWAP3 SWAP2 POP POP JUMP JUMPDEST PUSH1 0x0 DUP2 CALLDATALOAD SWAP1 POP PUSH2 0x253 DUP2 PUSH2 0x435 JUMP JUMPDEST SWAP3 SWAP2 POP POP JUMP JUMPDEST PUSH1 0x0 DUP2 CALLDATALOAD SWAP1 POP PUSH2 0x268 DUP2 PUSH2 0x44C JUMP JUMPDEST SWAP3 SWAP2 POP POP JUMP JUMPDEST PUSH1 0x0 PUSH1 0x20 DUP3 DUP5 SUB SLT ISZERO PUSH2 0x284 JUMPI PUSH2 0x283 PUSH2 0x419 JUMP JUMPDEST JUMPDEST PUSH1 0x0 PUSH2 0x292 DUP5 DUP3 DUP6 ADD PUSH2 0x22F JUMP JUMPDEST SWAP2 POP POP SWAP3 SWAP2 POP POP JUMP JUMPDEST PUSH1 0x0 PUSH1 0x20 DUP3 DUP5 SUB SLT ISZERO PUSH2 0x2B1 JUMPI PUSH2 0x2B0 PUSH2 0x419 JUMP JUMPDEST JUMPDEST PUSH1 0x0 PUSH2 0x2BF DUP5 DUP3 DUP6 ADD PUSH2 0x244 JUMP JUMPDEST SWAP2 POP POP SWAP3 SWAP2 POP POP JUMP JUMPDEST PUSH1 0x0 PUSH1 0x20 DUP3 DUP5 SUB SLT ISZERO PUSH2 0x2DE JUMPI PUSH2 0x2DD PUSH2 0x419 JUMP JUMPDEST JUMPDEST PUSH1 0x0 PUSH2 0x2EC DUP5 DUP3 DUP6 ADD PUSH2 0x259 JUMP JUMPDEST SWAP2 POP POP SWAP3 SWAP2 POP POP JUMP JUMPDEST PUSH2 0x2FE DUP2 PUSH2 0x373 JUMP JUMPDEST DUP3 MSTORE POP POP JUMP JUMPDEST PUSH2 0x30D DUP2 PUSH2 0x37F JUMP JUMPDEST DUP3 MSTORE POP POP JUMP JUMPDEST PUSH2 0x31C DUP2 PUSH2 0x389 JUMP JUMPDEST DUP3 MSTORE POP POP JUMP JUMPDEST PUSH1 0x0 PUSH1 0x20 DUP3 ADD SWAP1 POP PUSH2 0x337 PUSH1 0x0 DUP4 ADD DUP5 PUSH2 0x2F5 JUMP JUMPDEST SWAP3 SWAP2 POP POP JUMP JUMPDEST PUSH1 0x0 PUSH1 0x20 DUP3 ADD SWAP1 POP PUSH2 0x352 PUSH1 0x0 DUP4 ADD DUP5 PUSH2 0x304 JUMP JUMPDEST SWAP3 SWAP2 POP POP JUMP JUMPDEST PUSH1 0x0 PUSH1 0x20 DUP3 ADD SWAP1 POP PUSH2 0x36D PUSH1 0x0 DUP4 ADD DUP5 PUSH2 0x313 JUMP JUMPDEST SWAP3 SWAP2 POP POP JUMP JUMPDEST PUSH1 0x0 DUP2 ISZERO ISZERO SWAP1 POP SWAP2 SWAP1 POP JUMP JUMPDEST PUSH1 0x0 DUP2 SWAP1 POP SWAP2 SWAP1 POP JUMP JUMPDEST PUSH1 0x0 PUSH1 0xFF DUP3 AND SWAP1 POP SWAP2 SWAP1 POP JUMP JUMPDEST PUSH1 0x0 PUSH2 0x3A1 DUP3 PUSH2 0x389 JUMP JUMPDEST SWAP2 POP PUSH1 0x0 DUP3 EQ ISZERO PUSH2 0x3B5 JUMPI PUSH2 0x3B4 PUSH2 0x3EA JUMP JUMPDEST JUMPDEST PUSH1 0x1 DUP3 SUB SWAP1 POP SWAP2 SWAP1 POP JUMP JUMPDEST PUSH1 0x0 PUSH2 0x3CB DUP3 PUSH2 0x389 JUMP JUMPDEST SWAP2 POP PUSH1 0xFF DUP3 EQ ISZERO PUSH2 0x3DF JUMPI PUSH2 0x3DE PUSH2 0x3EA JUMP JUMPDEST JUMPDEST PUSH1 0x1 DUP3 ADD SWAP1 POP SWAP2 SWAP1 POP JUMP JUMPDEST PUSH32 0x4E487B7100000000000000000000000000000000000000000000000000000000 PUSH1 0x0 MSTORE PUSH1 0x11 PUSH1 0x4 MSTORE PUSH1 0x24 PUSH1 0x0 REVERT JUMPDEST PUSH1 0x0 DUP1 REVERT JUMPDEST PUSH2 0x427 DUP2 PUSH2 0x373 JUMP JUMPDEST DUP2 EQ PUSH2 0x432 JUMPI PUSH1 0x0 DUP1 REVERT JUMPDEST POP JUMP JUMPDEST PUSH2 0x43E DUP2 PUSH2 0x37F JUMP JUMPDEST DUP2 EQ PUSH2 0x449 JUMPI PUSH1 0x0 DUP1 REVERT JUMPDEST POP JUMP JUMPDEST PUSH2 0x455 DUP2 PUSH2 0x389 JUMP JUMPDEST DUP2 EQ PUSH2 0x460 JUMPI PUSH1 0x0 DUP1 REVERT JUMPDEST POP JUMP INVALID LOG2 PUSH5 0x6970667358 0x22 SLT KECCAK256 MSTORE PUSH18 0x530A688A9E1C17BD121BA6ED8F67BD9F213B 0xC1 SWAP12 DUP14 DIFFICULTY OR 0xC6 BALANCE REVERT SAR 0xE1 CODESIZE SWAP5 PUSH5 0x736F6C6343 STOP ADDMOD SMOD STOP CALLER "
				},
				"gasEstimates": {
					"creation": {
						"codeDepositCost": "235400",
						"executionCost": "275",
						"totalCost": "235675"
					},
					"external": {
						"decrementMytUint8()": "26824",
						"incremenMytUint8()": "26847",
						"mybool()": "2538",
						"myuint()": "2429",
						"myuint8()": "2519",
						"setMyBool(bool)": "24745",
						"setMyUint(uint256)": "22564",
						"setMyUint8(uint8)": "24752"
					}
				},
				"methodIdentifiers": {
					"decrementMytUint8()": "df1f3275",
					"incremenMytUint8()": "6a61a59c",
					"mybool()": "cf4fee10",
					"myuint()": "d412f490",
					"myuint8()": "12c0dfc3",
					"setMyBool(bool)": "eb1b30d9",
					"setMyUint(uint256)": "e492fd84",
					"setMyUint8(uint8)": "4f25eada"
				}
			},
			"storageLayout": {
				"storage": [
					{
						"astId": 3,
						"contract": "variables/variables.sol:Variables",
						"label": "myuint",
						"offset": 0,
						"slot": "0",
						"type": "t_uint256"
					},
					{
						"astId": 5,
						"contract": "variables/variables.sol:Variables",
						"label": "mybool",
						"offset": 0,
						"slot": "1",
						"type": "t_bool"
					},
					{
						"astId": 7,
						"contract": "variables/variables.sol:Variables",
						"label": "myuint8",
						"offset": 1,
						"slot": "1",
						"type": "t_uint8"
					}
				],
				"types": {
					"t_bool": {
						"encoding": "inplace",
						"label": "bool",
						"numberOfBytes": "1"
					},
					"t_uint256": {
						"encoding": "inplace",
						"label": "uint256",
						"numberOfBytes": "32"
					},
					"t_uint8": {
						"encoding": "inplace",
						"label": "uint8",
						"numberOfBytes": "1"
					}
				}
			},
			"userdoc": {
				"kind": "user",
				"methods": {},
				"version": 1
			}
		}
	}
}