{
	"variables/variables.sol": {
		"Variables": {
			"abi": [
				{
					"inputs": [],
					"name": "decrementMytUint8",
					"outputs": [],
					"stateMutability": "nonpayable",
					"type": "function"
				},
				{
					"inputs": [],
					"name": "getBalanceOfAddress",
					"outputs": [
						{
							"internalType": "uint256",
							"name": "",
							"type": "uint256"
						}
					],
					"stateMutability": "view",
					"type": "function"
				},
				{
					"inputs": [],
					"name": "incremenMytUint8",
					"outputs": [],
					"stateMutability": "nonpayable",
					"type": "function"
				},
				{
					"inputs": [],
					"name": "myaddress",
					"outputs": [
						{
							"internalType": "address",
							"name": "",
							"type": "address"
						}
					],
					"stateMutability": "view",
					"type": "function"
				},
				{
					"inputs": [],
					"name": "mybool",
					"outputs": [
						{
							"internalType": "bool",
							"name": "",
							"type": "bool"
						}
					],
					"stateMutability": "view",
					"type": "function"
				},
				{
					"inputs": [],
					"name": "myuint",
					"outputs": [
						{
							"internalType": "uint256",
							"name": "",
							"type": "uint256"
						}
					],
					"stateMutability": "view",
					"type": "function"
				},
				{
					"inputs": [],
					"name": "myuint8",
					"outputs": [
						{
							"internalType": "uint8",
							"name": "",
							"type": "uint8"
						}
					],
					"stateMutability": "view",
					"type": "function"
				},
				{
					"inputs": [
						{
							"internalType": "address",
							"name": "_val",
							"type": "address"
						}
					],
					"name": "setMyAddress",
					"outputs": [],
					"stateMutability": "nonpayable",
					"type": "function"
				},
				{
					"inputs": [
						{
							"internalType": "bool",
							"name": "_val",
							"type": "bool"
						}
					],
					"name": "setMyBool",
					"outputs": [],
					"stateMutability": "nonpayable",
					"type": "function"
				},
				{
					"inputs": [
						{
							"internalType": "uint256",
							"name": "_val",
							"type": "uint256"
						}
					],
					"name": "setMyUint",
					"outputs": [],
					"stateMutability": "nonpayable",
					"type": "function"
				},
				{
					"inputs": [
						{
							"internalType": "uint8",
							"name": "_val",
							"type": "uint8"
						}
					],
					"name": "setMyUint8",
					"outputs": [],
					"stateMutability": "nonpayable",
					"type": "function"
				}
			],
			"devdoc": {
				"kind": "dev",
				"methods": {},
				"version": 1
			},
			"evm": {
				"assembly": "    /* \"variables/variables.sol\":92:972  contract Variables {\r... */\n  mstore(0x40, 0x80)\n  callvalue\n  dup1\n  iszero\n  tag_1\n  jumpi\n  0x00\n  dup1\n  revert\ntag_1:\n  pop\n  dataSize(sub_0)\n  dup1\n  dataOffset(sub_0)\n  0x00\n  codecopy\n  0x00\n  return\nstop\n\nsub_0: assembly {\n        /* \"variables/variables.sol\":92:972  contract Variables {\r... */\n      mstore(0x40, 0x80)\n      callvalue\n      dup1\n      iszero\n      tag_1\n      jumpi\n      0x00\n      dup1\n      revert\n    tag_1:\n      pop\n      jumpi(tag_2, lt(calldatasize, 0x04))\n      shr(0xe0, calldataload(0x00))\n      dup1\n      0xcf4fee10\n      gt\n      tag_14\n      jumpi\n      dup1\n      0xcf4fee10\n      eq\n      tag_8\n      jumpi\n      dup1\n      0xd412f490\n      eq\n      tag_9\n      jumpi\n      dup1\n      0xdf1f3275\n      eq\n      tag_10\n      jumpi\n      dup1\n      0xe492fd84\n      eq\n      tag_11\n      jumpi\n      dup1\n      0xeb1b30d9\n      eq\n      tag_12\n      jumpi\n      dup1\n      0xfcf814c3\n      eq\n      tag_13\n      jumpi\n      jump(tag_2)\n    tag_14:\n      dup1\n      0x12c0dfc3\n      eq\n      tag_3\n      jumpi\n      dup1\n      0x15502612\n      eq\n      tag_4\n      jumpi\n      dup1\n      0x4f25eada\n      eq\n      tag_5\n      jumpi\n      dup1\n      0x6a61a59c\n      eq\n      tag_6\n      jumpi\n      dup1\n      0xa8a7b895\n      eq\n      tag_7\n      jumpi\n    tag_2:\n      0x00\n      dup1\n      revert\n        /* \"variables/variables.sol\":318:338  uint8 public myuint8 */\n    tag_3:\n      tag_15\n      tag_16\n      jump\t// in\n    tag_15:\n      mload(0x40)\n      tag_17\n      swap2\n      swap1\n      tag_18\n      jump\t// in\n    tag_17:\n      mload(0x40)\n      dup1\n      swap2\n      sub\n      swap1\n      return\n        /* \"variables/variables.sol\":902:969  function getBalanceOfAddress() public view returns(uint) {\r... */\n    tag_4:\n      tag_19\n      tag_20\n      jump\t// in\n    tag_19:\n      mload(0x40)\n      tag_21\n      swap2\n      swap1\n      tag_22\n      jump\t// in\n    tag_21:\n      mload(0x40)\n      dup1\n      swap2\n      sub\n      swap1\n      return\n        /* \"variables/variables.sol\":557:629  function setMyUint8(uint8 _val) public {\r... */\n    tag_5:\n      tag_23\n      0x04\n      dup1\n      calldatasize\n      sub\n      dup2\n      add\n      swap1\n      tag_24\n      swap2\n      swap1\n      tag_25\n      jump\t// in\n    tag_24:\n      tag_26\n      jump\t// in\n    tag_23:\n      stop\n        /* \"variables/variables.sol\":637:700  function incremenMytUint8() public {\r... */\n    tag_6:\n      tag_27\n      tag_28\n      jump\t// in\n    tag_27:\n      stop\n        /* \"variables/variables.sol\":780:858  function setMyAddress(address _val) public {\r... */\n    tag_7:\n      tag_29\n      0x04\n      dup1\n      calldatasize\n      sub\n      dup2\n      add\n      swap1\n      tag_30\n      swap2\n      swap1\n      tag_31\n      jump\t// in\n    tag_30:\n      tag_32\n      jump\t// in\n    tag_29:\n      stop\n        /* \"variables/variables.sol\":226:244  bool public mybool */\n    tag_8:\n      tag_33\n      tag_34\n      jump\t// in\n    tag_33:\n      mload(0x40)\n      tag_35\n      swap2\n      swap1\n      tag_36\n      jump\t// in\n    tag_35:\n      mload(0x40)\n      dup1\n      swap2\n      sub\n      swap1\n      return\n        /* \"variables/variables.sol\":196:217  uint256 public myuint */\n    tag_9:\n      tag_37\n      tag_38\n      jump\t// in\n    tag_37:\n      mload(0x40)\n      tag_39\n      swap2\n      swap1\n      tag_22\n      jump\t// in\n    tag_39:\n      mload(0x40)\n      dup1\n      swap2\n      sub\n      swap1\n      return\n        /* \"variables/variables.sol\":708:772  function decrementMytUint8() public {\r... */\n    tag_10:\n      tag_40\n      tag_41\n      jump\t// in\n    tag_40:\n      stop\n        /* \"variables/variables.sol\":403:472  function setMyUint(uint _val) public {\r... */\n    tag_11:\n      tag_42\n      0x04\n      dup1\n      calldatasize\n      sub\n      dup2\n      add\n      swap1\n      tag_43\n      swap2\n      swap1\n      tag_44\n      jump\t// in\n    tag_43:\n      tag_45\n      jump\t// in\n    tag_42:\n      stop\n        /* \"variables/variables.sol\":480:549  function setMyBool(bool _val) public {\r... */\n    tag_12:\n      tag_46\n      0x04\n      dup1\n      calldatasize\n      sub\n      dup2\n      add\n      swap1\n      tag_47\n      swap2\n      swap1\n      tag_48\n      jump\t// in\n    tag_47:\n      tag_49\n      jump\t// in\n    tag_46:\n      stop\n        /* \"variables/variables.sol\":370:394  address public myaddress */\n    tag_13:\n      tag_50\n      tag_51\n      jump\t// in\n    tag_50:\n      mload(0x40)\n      tag_52\n      swap2\n      swap1\n      tag_53\n      jump\t// in\n    tag_52:\n      mload(0x40)\n      dup1\n      swap2\n      sub\n      swap1\n      return\n        /* \"variables/variables.sol\":318:338  uint8 public myuint8 */\n    tag_16:\n      0x01\n      dup1\n      sload\n      swap1\n      0x0100\n      exp\n      swap1\n      div\n      0xff\n      and\n      dup2\n      jump\t// out\n        /* \"variables/variables.sol\":902:969  function getBalanceOfAddress() public view returns(uint) {\r... */\n    tag_20:\n        /* \"variables/variables.sol\":953:957  uint */\n      0x00\n        /* \"variables/variables.sol\":902:969  function getBalanceOfAddress() public view returns(uint) {\r... */\n      swap1\n      jump\t// out\n        /* \"variables/variables.sol\":557:629  function setMyUint8(uint8 _val) public {\r... */\n    tag_26:\n        /* \"variables/variables.sol\":617:621  _val */\n      dup1\n        /* \"variables/variables.sol\":607:614  myuint8 */\n      0x01\n      dup1\n        /* \"variables/variables.sol\":607:621  myuint8 = _val */\n      0x0100\n      exp\n      dup2\n      sload\n      dup2\n      0xff\n      mul\n      not\n      and\n      swap1\n      dup4\n      0xff\n      and\n      mul\n      or\n      swap1\n      sstore\n      pop\n        /* \"variables/variables.sol\":557:629  function setMyUint8(uint8 _val) public {\r... */\n      pop\n      jump\t// out\n        /* \"variables/variables.sol\":637:700  function incremenMytUint8() public {\r... */\n    tag_28:\n        /* \"variables/variables.sol\":683:690  myuint8 */\n      0x01\n      dup1\n        /* \"variables/variables.sol\":683:692  myuint8++ */\n      dup2\n      dup2\n      swap1\n      sload\n      swap1\n      0x0100\n      exp\n      swap1\n      div\n      0xff\n      and\n      dup1\n      swap3\n      swap2\n      swap1\n      tag_57\n      swap1\n      tag_58\n      jump\t// in\n    tag_57:\n      swap2\n      swap1\n      0x0100\n      exp\n      dup2\n      sload\n      dup2\n      0xff\n      mul\n      not\n      and\n      swap1\n      dup4\n      0xff\n      and\n      mul\n      or\n      swap1\n      sstore\n      pop\n      pop\n        /* \"variables/variables.sol\":637:700  function incremenMytUint8() public {\r... */\n      jump\t// out\n        /* \"variables/variables.sol\":780:858  function setMyAddress(address _val) public {\r... */\n    tag_32:\n        /* \"variables/variables.sol\":846:850  _val */\n      dup1\n        /* \"variables/variables.sol\":834:843  myaddress */\n      0x01\n      0x02\n        /* \"variables/variables.sol\":834:850  myaddress = _val */\n      0x0100\n      exp\n      dup2\n      sload\n      dup2\n      0xffffffffffffffffffffffffffffffffffffffff\n      mul\n      not\n      and\n      swap1\n      dup4\n      0xffffffffffffffffffffffffffffffffffffffff\n      and\n      mul\n      or\n      swap1\n      sstore\n      pop\n        /* \"variables/variables.sol\":780:858  function setMyAddress(address _val) public {\r... */\n      pop\n      jump\t// out\n        /* \"variables/variables.sol\":226:244  bool public mybool */\n    tag_34:\n      0x01\n      0x00\n      swap1\n      sload\n      swap1\n      0x0100\n      exp\n      swap1\n      div\n      0xff\n      and\n      dup2\n      jump\t// out\n        /* \"variables/variables.sol\":196:217  uint256 public myuint */\n    tag_38:\n      sload(0x00)\n      dup2\n      jump\t// out\n        /* \"variables/variables.sol\":708:772  function decrementMytUint8() public {\r... */\n    tag_41:\n        /* \"variables/variables.sol\":755:762  myuint8 */\n      0x01\n      dup1\n        /* \"variables/variables.sol\":755:764  myuint8-- */\n      dup2\n      dup2\n      swap1\n      sload\n      swap1\n      0x0100\n      exp\n      swap1\n      div\n      0xff\n      and\n      dup1\n      swap3\n      swap2\n      swap1\n      tag_61\n      swap1\n      tag_62\n      jump\t// in\n    tag_61:\n      swap2\n      swap1\n      0x0100\n      exp\n      dup2\n      sload\n      dup2\n      0xff\n      mul\n      not\n      and\n      swap1\n      dup4\n      0xff\n      and\n      mul\n      or\n      swap1\n      sstore\n      pop\n      pop\n        /* \"variables/variables.sol\":708:772  function decrementMytUint8() public {\r... */\n      jump\t// out\n        /* \"variables/variables.sol\":403:472  function setMyUint(uint _val) public {\r... */\n    tag_45:\n        /* \"variables/variables.sol\":460:464  _val */\n      dup1\n        /* \"variables/variables.sol\":451:457  myuint */\n      0x00\n        /* \"variables/variables.sol\":451:464  myuint = _val */\n      dup2\n      swap1\n      sstore\n      pop\n        /* \"variables/variables.sol\":403:472  function setMyUint(uint _val) public {\r... */\n      pop\n      jump\t// out\n        /* \"variables/variables.sol\":480:549  function setMyBool(bool _val) public {\r... */\n    tag_49:\n        /* \"variables/variables.sol\":537:541  _val */\n      dup1\n        /* \"variables/variables.sol\":528:534  mybool */\n      0x01\n      0x00\n        /* \"variables/variables.sol\":528:541  mybool = _val */\n      0x0100\n      exp\n      dup2\n      sload\n      dup2\n      0xff\n      mul\n      not\n      and\n      swap1\n      dup4\n      iszero\n      iszero\n      mul\n      or\n      swap1\n      sstore\n      pop\n        /* \"variables/variables.sol\":480:549  function setMyBool(bool _val) public {\r... */\n      pop\n      jump\t// out\n        /* \"variables/variables.sol\":370:394  address public myaddress */\n    tag_51:\n      0x01\n      0x02\n      swap1\n      sload\n      swap1\n      0x0100\n      exp\n      swap1\n      div\n      0xffffffffffffffffffffffffffffffffffffffff\n      and\n      dup2\n      jump\t// out\n        /* \"#utility.yul\":7:146   */\n    tag_66:\n        /* \"#utility.yul\":53:58   */\n      0x00\n        /* \"#utility.yul\":91:97   */\n      dup2\n        /* \"#utility.yul\":78:98   */\n      calldataload\n        /* \"#utility.yul\":69:98   */\n      swap1\n      pop\n        /* \"#utility.yul\":107:140   */\n      tag_68\n        /* \"#utility.yul\":134:139   */\n      dup2\n        /* \"#utility.yul\":107:140   */\n      tag_69\n      jump\t// in\n    tag_68:\n        /* \"#utility.yul\":7:146   */\n      swap3\n      swap2\n      pop\n      pop\n      jump\t// out\n        /* \"#utility.yul\":152:285   */\n    tag_70:\n        /* \"#utility.yul\":195:200   */\n      0x00\n        /* \"#utility.yul\":233:239   */\n      dup2\n        /* \"#utility.yul\":220:240   */\n      calldataload\n        /* \"#utility.yul\":211:240   */\n      swap1\n      pop\n        /* \"#utility.yul\":249:279   */\n      tag_72\n        /* \"#utility.yul\":273:278   */\n      dup2\n        /* \"#utility.yul\":249:279   */\n      tag_73\n      jump\t// in\n    tag_72:\n        /* \"#utility.yul\":152:285   */\n      swap3\n      swap2\n      pop\n      pop\n      jump\t// out\n        /* \"#utility.yul\":291:430   */\n    tag_74:\n        /* \"#utility.yul\":337:342   */\n      0x00\n        /* \"#utility.yul\":375:381   */\n      dup2\n        /* \"#utility.yul\":362:382   */\n      calldataload\n        /* \"#utility.yul\":353:382   */\n      swap1\n      pop\n        /* \"#utility.yul\":391:424   */\n      tag_76\n        /* \"#utility.yul\":418:423   */\n      dup2\n        /* \"#utility.yul\":391:424   */\n      tag_77\n      jump\t// in\n    tag_76:\n        /* \"#utility.yul\":291:430   */\n      swap3\n      swap2\n      pop\n      pop\n      jump\t// out\n        /* \"#utility.yul\":436:571   */\n    tag_78:\n        /* \"#utility.yul\":480:485   */\n      0x00\n        /* \"#utility.yul\":518:524   */\n      dup2\n        /* \"#utility.yul\":505:525   */\n      calldataload\n        /* \"#utility.yul\":496:525   */\n      swap1\n      pop\n        /* \"#utility.yul\":534:565   */\n      tag_80\n        /* \"#utility.yul\":559:564   */\n      dup2\n        /* \"#utility.yul\":534:565   */\n      tag_81\n      jump\t// in\n    tag_80:\n        /* \"#utility.yul\":436:571   */\n      swap3\n      swap2\n      pop\n      pop\n      jump\t// out\n        /* \"#utility.yul\":577:906   */\n    tag_31:\n        /* \"#utility.yul\":636:642   */\n      0x00\n        /* \"#utility.yul\":685:687   */\n      0x20\n        /* \"#utility.yul\":673:682   */\n      dup3\n        /* \"#utility.yul\":664:671   */\n      dup5\n        /* \"#utility.yul\":660:683   */\n      sub\n        /* \"#utility.yul\":656:688   */\n      slt\n        /* \"#utility.yul\":653:772   */\n      iszero\n      tag_83\n      jumpi\n        /* \"#utility.yul\":691:770   */\n      tag_84\n      tag_85\n      jump\t// in\n    tag_84:\n        /* \"#utility.yul\":653:772   */\n    tag_83:\n        /* \"#utility.yul\":811:812   */\n      0x00\n        /* \"#utility.yul\":836:889   */\n      tag_86\n        /* \"#utility.yul\":881:888   */\n      dup5\n        /* \"#utility.yul\":872:878   */\n      dup3\n        /* \"#utility.yul\":861:870   */\n      dup6\n        /* \"#utility.yul\":857:879   */\n      add\n        /* \"#utility.yul\":836:889   */\n      tag_66\n      jump\t// in\n    tag_86:\n        /* \"#utility.yul\":826:889   */\n      swap2\n      pop\n        /* \"#utility.yul\":782:899   */\n      pop\n        /* \"#utility.yul\":577:906   */\n      swap3\n      swap2\n      pop\n      pop\n      jump\t// out\n        /* \"#utility.yul\":912:1235   */\n    tag_48:\n        /* \"#utility.yul\":968:974   */\n      0x00\n        /* \"#utility.yul\":1017:1019   */\n      0x20\n        /* \"#utility.yul\":1005:1014   */\n      dup3\n        /* \"#utility.yul\":996:1003   */\n      dup5\n        /* \"#utility.yul\":992:1015   */\n      sub\n        /* \"#utility.yul\":988:1020   */\n      slt\n        /* \"#utility.yul\":985:1104   */\n      iszero\n      tag_88\n      jumpi\n        /* \"#utility.yul\":1023:1102   */\n      tag_89\n      tag_85\n      jump\t// in\n    tag_89:\n        /* \"#utility.yul\":985:1104   */\n    tag_88:\n        /* \"#utility.yul\":1143:1144   */\n      0x00\n        /* \"#utility.yul\":1168:1218   */\n      tag_90\n        /* \"#utility.yul\":1210:1217   */\n      dup5\n        /* \"#utility.yul\":1201:1207   */\n      dup3\n        /* \"#utility.yul\":1190:1199   */\n      dup6\n        /* \"#utility.yul\":1186:1208   */\n      add\n        /* \"#utility.yul\":1168:1218   */\n      tag_70\n      jump\t// in\n    tag_90:\n        /* \"#utility.yul\":1158:1218   */\n      swap2\n      pop\n        /* \"#utility.yul\":1114:1228   */\n      pop\n        /* \"#utility.yul\":912:1235   */\n      swap3\n      swap2\n      pop\n      pop\n      jump\t// out\n        /* \"#utility.yul\":1241:1570   */\n    tag_44:\n        /* \"#utility.yul\":1300:1306   */\n      0x00\n        /* \"#utility.yul\":1349:1351   */\n      0x20\n        /* \"#utility.yul\":1337:1346   */\n      dup3\n        /* \"#utility.yul\":1328:1335   */\n      dup5\n        /* \"#utility.yul\":1324:1347   */\n      sub\n        /* \"#utility.yul\":1320:1352   */\n      slt\n        /* \"#utility.yul\":1317:1436   */\n      iszero\n      tag_92\n      jumpi\n        /* \"#utility.yul\":1355:1434   */\n      tag_93\n      tag_85\n      jump\t// in\n    tag_93:\n        /* \"#utility.yul\":1317:1436   */\n    tag_92:\n        /* \"#utility.yul\":1475:1476   */\n      0x00\n        /* \"#utility.yul\":1500:1553   */\n      tag_94\n        /* \"#utility.yul\":1545:1552   */\n      dup5\n        /* \"#utility.yul\":1536:1542   */\n      dup3\n        /* \"#utility.yul\":1525:1534   */\n      dup6\n        /* \"#utility.yul\":1521:1543   */\n      add\n        /* \"#utility.yul\":1500:1553   */\n      tag_74\n      jump\t// in\n    tag_94:\n        /* \"#utility.yul\":1490:1553   */\n      swap2\n      pop\n        /* \"#utility.yul\":1446:1563   */\n      pop\n        /* \"#utility.yul\":1241:1570   */\n      swap3\n      swap2\n      pop\n      pop\n      jump\t// out\n        /* \"#utility.yul\":1576:1901   */\n    tag_25:\n        /* \"#utility.yul\":1633:1639   */\n      0x00\n        /* \"#utility.yul\":1682:1684   */\n      0x20\n        /* \"#utility.yul\":1670:1679   */\n      dup3\n        /* \"#utility.yul\":1661:1668   */\n      dup5\n        /* \"#utility.yul\":1657:1680   */\n      sub\n        /* \"#utility.yul\":1653:1685   */\n      slt\n        /* \"#utility.yul\":1650:1769   */\n      iszero\n      tag_96\n      jumpi\n        /* \"#utility.yul\":1688:1767   */\n      tag_97\n      tag_85\n      jump\t// in\n    tag_97:\n        /* \"#utility.yul\":1650:1769   */\n    tag_96:\n        /* \"#utility.yul\":1808:1809   */\n      0x00\n        /* \"#utility.yul\":1833:1884   */\n      tag_98\n        /* \"#utility.yul\":1876:1883   */\n      dup5\n        /* \"#utility.yul\":1867:1873   */\n      dup3\n        /* \"#utility.yul\":1856:1865   */\n      dup6\n        /* \"#utility.yul\":1852:1874   */\n      add\n        /* \"#utility.yul\":1833:1884   */\n      tag_78\n      jump\t// in\n    tag_98:\n        /* \"#utility.yul\":1823:1884   */\n      swap2\n      pop\n        /* \"#utility.yul\":1779:1894   */\n      pop\n        /* \"#utility.yul\":1576:1901   */\n      swap3\n      swap2\n      pop\n      pop\n      jump\t// out\n        /* \"#utility.yul\":1907:2025   */\n    tag_99:\n        /* \"#utility.yul\":1994:2018   */\n      tag_101\n        /* \"#utility.yul\":2012:2017   */\n      dup2\n        /* \"#utility.yul\":1994:2018   */\n      tag_102\n      jump\t// in\n    tag_101:\n        /* \"#utility.yul\":1989:1992   */\n      dup3\n        /* \"#utility.yul\":1982:2019   */\n      mstore\n        /* \"#utility.yul\":1907:2025   */\n      pop\n      pop\n      jump\t// out\n        /* \"#utility.yul\":2031:2140   */\n    tag_103:\n        /* \"#utility.yul\":2112:2133   */\n      tag_105\n        /* \"#utility.yul\":2127:2132   */\n      dup2\n        /* \"#utility.yul\":2112:2133   */\n      tag_106\n      jump\t// in\n    tag_105:\n        /* \"#utility.yul\":2107:2110   */\n      dup3\n        /* \"#utility.yul\":2100:2134   */\n      mstore\n        /* \"#utility.yul\":2031:2140   */\n      pop\n      pop\n      jump\t// out\n        /* \"#utility.yul\":2146:2264   */\n    tag_107:\n        /* \"#utility.yul\":2233:2257   */\n      tag_109\n        /* \"#utility.yul\":2251:2256   */\n      dup2\n        /* \"#utility.yul\":2233:2257   */\n      tag_110\n      jump\t// in\n    tag_109:\n        /* \"#utility.yul\":2228:2231   */\n      dup3\n        /* \"#utility.yul\":2221:2258   */\n      mstore\n        /* \"#utility.yul\":2146:2264   */\n      pop\n      pop\n      jump\t// out\n        /* \"#utility.yul\":2270:2382   */\n    tag_111:\n        /* \"#utility.yul\":2353:2375   */\n      tag_113\n        /* \"#utility.yul\":2369:2374   */\n      dup2\n        /* \"#utility.yul\":2353:2375   */\n      tag_114\n      jump\t// in\n    tag_113:\n        /* \"#utility.yul\":2348:2351   */\n      dup3\n        /* \"#utility.yul\":2341:2376   */\n      mstore\n        /* \"#utility.yul\":2270:2382   */\n      pop\n      pop\n      jump\t// out\n        /* \"#utility.yul\":2388:2610   */\n    tag_53:\n        /* \"#utility.yul\":2481:2485   */\n      0x00\n        /* \"#utility.yul\":2519:2521   */\n      0x20\n        /* \"#utility.yul\":2508:2517   */\n      dup3\n        /* \"#utility.yul\":2504:2522   */\n      add\n        /* \"#utility.yul\":2496:2522   */\n      swap1\n      pop\n        /* \"#utility.yul\":2532:2603   */\n      tag_116\n        /* \"#utility.yul\":2600:2601   */\n      0x00\n        /* \"#utility.yul\":2589:2598   */\n      dup4\n        /* \"#utility.yul\":2585:2602   */\n      add\n        /* \"#utility.yul\":2576:2582   */\n      dup5\n        /* \"#utility.yul\":2532:2603   */\n      tag_99\n      jump\t// in\n    tag_116:\n        /* \"#utility.yul\":2388:2610   */\n      swap3\n      swap2\n      pop\n      pop\n      jump\t// out\n        /* \"#utility.yul\":2616:2826   */\n    tag_36:\n        /* \"#utility.yul\":2703:2707   */\n      0x00\n        /* \"#utility.yul\":2741:2743   */\n      0x20\n        /* \"#utility.yul\":2730:2739   */\n      dup3\n        /* \"#utility.yul\":2726:2744   */\n      add\n        /* \"#utility.yul\":2718:2744   */\n      swap1\n      pop\n        /* \"#utility.yul\":2754:2819   */\n      tag_118\n        /* \"#utility.yul\":2816:2817   */\n      0x00\n        /* \"#utility.yul\":2805:2814   */\n      dup4\n        /* \"#utility.yul\":2801:2818   */\n      add\n        /* \"#utility.yul\":2792:2798   */\n      dup5\n        /* \"#utility.yul\":2754:2819   */\n      tag_103\n      jump\t// in\n    tag_118:\n        /* \"#utility.yul\":2616:2826   */\n      swap3\n      swap2\n      pop\n      pop\n      jump\t// out\n        /* \"#utility.yul\":2832:3054   */\n    tag_22:\n        /* \"#utility.yul\":2925:2929   */\n      0x00\n        /* \"#utility.yul\":2963:2965   */\n      0x20\n        /* \"#utility.yul\":2952:2961   */\n      dup3\n        /* \"#utility.yul\":2948:2966   */\n      add\n        /* \"#utility.yul\":2940:2966   */\n      swap1\n      pop\n        /* \"#utility.yul\":2976:3047   */\n      tag_120\n        /* \"#utility.yul\":3044:3045   */\n      0x00\n        /* \"#utility.yul\":3033:3042   */\n      dup4\n        /* \"#utility.yul\":3029:3046   */\n      add\n        /* \"#utility.yul\":3020:3026   */\n      dup5\n        /* \"#utility.yul\":2976:3047   */\n      tag_107\n      jump\t// in\n    tag_120:\n        /* \"#utility.yul\":2832:3054   */\n      swap3\n      swap2\n      pop\n      pop\n      jump\t// out\n        /* \"#utility.yul\":3060:3274   */\n    tag_18:\n        /* \"#utility.yul\":3149:3153   */\n      0x00\n        /* \"#utility.yul\":3187:3189   */\n      0x20\n        /* \"#utility.yul\":3176:3185   */\n      dup3\n        /* \"#utility.yul\":3172:3190   */\n      add\n        /* \"#utility.yul\":3164:3190   */\n      swap1\n      pop\n        /* \"#utility.yul\":3200:3267   */\n      tag_122\n        /* \"#utility.yul\":3264:3265   */\n      0x00\n        /* \"#utility.yul\":3253:3262   */\n      dup4\n        /* \"#utility.yul\":3249:3266   */\n      add\n        /* \"#utility.yul\":3240:3246   */\n      dup5\n        /* \"#utility.yul\":3200:3267   */\n      tag_111\n      jump\t// in\n    tag_122:\n        /* \"#utility.yul\":3060:3274   */\n      swap3\n      swap2\n      pop\n      pop\n      jump\t// out\n        /* \"#utility.yul\":3361:3457   */\n    tag_102:\n        /* \"#utility.yul\":3398:3405   */\n      0x00\n        /* \"#utility.yul\":3427:3451   */\n      tag_126\n        /* \"#utility.yul\":3445:3450   */\n      dup3\n        /* \"#utility.yul\":3427:3451   */\n      tag_127\n      jump\t// in\n    tag_126:\n        /* \"#utility.yul\":3416:3451   */\n      swap1\n      pop\n        /* \"#utility.yul\":3361:3457   */\n      swap2\n      swap1\n      pop\n      jump\t// out\n        /* \"#utility.yul\":3463:3553   */\n    tag_106:\n        /* \"#utility.yul\":3497:3504   */\n      0x00\n        /* \"#utility.yul\":3540:3545   */\n      dup2\n        /* \"#utility.yul\":3533:3546   */\n      iszero\n        /* \"#utility.yul\":3526:3547   */\n      iszero\n        /* \"#utility.yul\":3515:3547   */\n      swap1\n      pop\n        /* \"#utility.yul\":3463:3553   */\n      swap2\n      swap1\n      pop\n      jump\t// out\n        /* \"#utility.yul\":3559:3685   */\n    tag_127:\n        /* \"#utility.yul\":3596:3603   */\n      0x00\n        /* \"#utility.yul\":3636:3678   */\n      0xffffffffffffffffffffffffffffffffffffffff\n        /* \"#utility.yul\":3629:3634   */\n      dup3\n        /* \"#utility.yul\":3625:3679   */\n      and\n        /* \"#utility.yul\":3614:3679   */\n      swap1\n      pop\n        /* \"#utility.yul\":3559:3685   */\n      swap2\n      swap1\n      pop\n      jump\t// out\n        /* \"#utility.yul\":3691:3768   */\n    tag_110:\n        /* \"#utility.yul\":3728:3735   */\n      0x00\n        /* \"#utility.yul\":3757:3762   */\n      dup2\n        /* \"#utility.yul\":3746:3762   */\n      swap1\n      pop\n        /* \"#utility.yul\":3691:3768   */\n      swap2\n      swap1\n      pop\n      jump\t// out\n        /* \"#utility.yul\":3774:3860   */\n    tag_114:\n        /* \"#utility.yul\":3809:3816   */\n      0x00\n        /* \"#utility.yul\":3849:3853   */\n      0xff\n        /* \"#utility.yul\":3842:3847   */\n      dup3\n        /* \"#utility.yul\":3838:3854   */\n      and\n        /* \"#utility.yul\":3827:3854   */\n      swap1\n      pop\n        /* \"#utility.yul\":3774:3860   */\n      swap2\n      swap1\n      pop\n      jump\t// out\n        /* \"#utility.yul\":3866:4033   */\n    tag_62:\n        /* \"#utility.yul\":3903:3906   */\n      0x00\n        /* \"#utility.yul\":3926:3948   */\n      tag_133\n        /* \"#utility.yul\":3942:3947   */\n      dup3\n        /* \"#utility.yul\":3926:3948   */\n      tag_114\n      jump\t// in\n    tag_133:\n        /* \"#utility.yul\":3917:3948   */\n      swap2\n      pop\n        /* \"#utility.yul\":3970:3974   */\n      0x00\n        /* \"#utility.yul\":3963:3968   */\n      dup3\n        /* \"#utility.yul\":3960:3975   */\n      eq\n        /* \"#utility.yul\":3957:3998   */\n      iszero\n      tag_134\n      jumpi\n        /* \"#utility.yul\":3978:3996   */\n      tag_135\n      tag_136\n      jump\t// in\n    tag_135:\n        /* \"#utility.yul\":3957:3998   */\n    tag_134:\n        /* \"#utility.yul\":4025:4026   */\n      0x01\n        /* \"#utility.yul\":4018:4023   */\n      dup3\n        /* \"#utility.yul\":4014:4027   */\n      sub\n        /* \"#utility.yul\":4007:4027   */\n      swap1\n      pop\n        /* \"#utility.yul\":3866:4033   */\n      swap2\n      swap1\n      pop\n      jump\t// out\n        /* \"#utility.yul\":4039:4206   */\n    tag_58:\n        /* \"#utility.yul\":4076:4079   */\n      0x00\n        /* \"#utility.yul\":4099:4121   */\n      tag_138\n        /* \"#utility.yul\":4115:4120   */\n      dup3\n        /* \"#utility.yul\":4099:4121   */\n      tag_114\n      jump\t// in\n    tag_138:\n        /* \"#utility.yul\":4090:4121   */\n      swap2\n      pop\n        /* \"#utility.yul\":4143:4147   */\n      0xff\n        /* \"#utility.yul\":4136:4141   */\n      dup3\n        /* \"#utility.yul\":4133:4148   */\n      eq\n        /* \"#utility.yul\":4130:4171   */\n      iszero\n      tag_139\n      jumpi\n        /* \"#utility.yul\":4151:4169   */\n      tag_140\n      tag_136\n      jump\t// in\n    tag_140:\n        /* \"#utility.yul\":4130:4171   */\n    tag_139:\n        /* \"#utility.yul\":4198:4199   */\n      0x01\n        /* \"#utility.yul\":4191:4196   */\n      dup3\n        /* \"#utility.yul\":4187:4200   */\n      add\n        /* \"#utility.yul\":4180:4200   */\n      swap1\n      pop\n        /* \"#utility.yul\":4039:4206   */\n      swap2\n      swap1\n      pop\n      jump\t// out\n        /* \"#utility.yul\":4212:4392   */\n    tag_136:\n        /* \"#utility.yul\":4260:4337   */\n      0x4e487b7100000000000000000000000000000000000000000000000000000000\n        /* \"#utility.yul\":4257:4258   */\n      0x00\n        /* \"#utility.yul\":4250:4338   */\n      mstore\n        /* \"#utility.yul\":4357:4361   */\n      0x11\n        /* \"#utility.yul\":4354:4355   */\n      0x04\n        /* \"#utility.yul\":4347:4362   */\n      mstore\n        /* \"#utility.yul\":4381:4385   */\n      0x24\n        /* \"#utility.yul\":4378:4379   */\n      0x00\n        /* \"#utility.yul\":4371:4386   */\n      revert\n        /* \"#utility.yul\":4521:4638   */\n    tag_85:\n        /* \"#utility.yul\":4630:4631   */\n      0x00\n        /* \"#utility.yul\":4627:4628   */\n      dup1\n        /* \"#utility.yul\":4620:4632   */\n      revert\n        /* \"#utility.yul\":4644:4766   */\n    tag_69:\n        /* \"#utility.yul\":4717:4741   */\n      tag_146\n        /* \"#utility.yul\":4735:4740   */\n      dup2\n        /* \"#utility.yul\":4717:4741   */\n      tag_102\n      jump\t// in\n    tag_146:\n        /* \"#utility.yul\":4710:4715   */\n      dup2\n        /* \"#utility.yul\":4707:4742   */\n      eq\n        /* \"#utility.yul\":4697:4760   */\n      tag_147\n      jumpi\n        /* \"#utility.yul\":4756:4757   */\n      0x00\n        /* \"#utility.yul\":4753:4754   */\n      dup1\n        /* \"#utility.yul\":4746:4758   */\n      revert\n        /* \"#utility.yul\":4697:4760   */\n    tag_147:\n        /* \"#utility.yul\":4644:4766   */\n      pop\n      jump\t// out\n        /* \"#utility.yul\":4772:4888   */\n    tag_73:\n        /* \"#utility.yul\":4842:4863   */\n      tag_149\n        /* \"#utility.yul\":4857:4862   */\n      dup2\n        /* \"#utility.yul\":4842:4863   */\n      tag_106\n      jump\t// in\n    tag_149:\n        /* \"#utility.yul\":4835:4840   */\n      dup2\n        /* \"#utility.yul\":4832:4864   */\n      eq\n        /* \"#utility.yul\":4822:4882   */\n      tag_150\n      jumpi\n        /* \"#utility.yul\":4878:4879   */\n      0x00\n        /* \"#utility.yul\":4875:4876   */\n      dup1\n        /* \"#utility.yul\":4868:4880   */\n      revert\n        /* \"#utility.yul\":4822:4882   */\n    tag_150:\n        /* \"#utility.yul\":4772:4888   */\n      pop\n      jump\t// out\n        /* \"#utility.yul\":4894:5016   */\n    tag_77:\n        /* \"#utility.yul\":4967:4991   */\n      tag_152\n        /* \"#utility.yul\":4985:4990   */\n      dup2\n        /* \"#utility.yul\":4967:4991   */\n      tag_110\n      jump\t// in\n    tag_152:\n        /* \"#utility.yul\":4960:4965   */\n      dup2\n        /* \"#utility.yul\":4957:4992   */\n      eq\n        /* \"#utility.yul\":4947:5010   */\n      tag_153\n      jumpi\n        /* \"#utility.yul\":5006:5007   */\n      0x00\n        /* \"#utility.yul\":5003:5004   */\n      dup1\n        /* \"#utility.yul\":4996:5008   */\n      revert\n        /* \"#utility.yul\":4947:5010   */\n    tag_153:\n        /* \"#utility.yul\":4894:5016   */\n      pop\n      jump\t// out\n        /* \"#utility.yul\":5022:5140   */\n    tag_81:\n        /* \"#utility.yul\":5093:5115   */\n      tag_155\n        /* \"#utility.yul\":5109:5114   */\n      dup2\n        /* \"#utility.yul\":5093:5115   */\n      tag_114\n      jump\t// in\n    tag_155:\n        /* \"#utility.yul\":5086:5091   */\n      dup2\n        /* \"#utility.yul\":5083:5116   */\n      eq\n        /* \"#utility.yul\":5073:5134   */\n      tag_156\n      jumpi\n        /* \"#utility.yul\":5130:5131   */\n      0x00\n        /* \"#utility.yul\":5127:5128   */\n      dup1\n        /* \"#utility.yul\":5120:5132   */\n      revert\n        /* \"#utility.yul\":5073:5134   */\n    tag_156:\n        /* \"#utility.yul\":5022:5140   */\n      pop\n      jump\t// out\n\n    auxdata: 0xa2646970667358221220f82416496c12e1114f414c32b5ac5da5e18f85b376c898230adda1261538213664736f6c63430008070033\n}\n",
				"bytecode": {
					"linkReferences": {},
					"object": "608060405234801561001057600080fd5b50610636806100206000396000f3fe608060405234801561001057600080fd5b50600436106100a95760003560e01c8063cf4fee1011610071578063cf4fee101461012c578063d412f4901461014a578063df1f327514610168578063e492fd8414610172578063eb1b30d91461018e578063fcf814c3146101aa576100a9565b806312c0dfc3146100ae57806315502612146100cc5780634f25eada146100ea5780636a61a59c14610106578063a8a7b89514610110575b600080fd5b6100b66101c8565b6040516100c391906104ac565b60405180910390f35b6100d46101d9565b6040516100e19190610491565b60405180910390f35b61010460048036038101906100ff91906103f2565b6101de565b005b61010e6101fb565b005b61012a6004803603810190610125919061036b565b610234565b005b610134610278565b6040516101419190610476565b60405180910390f35b61015261028b565b60405161015f9190610491565b60405180910390f35b610170610291565b005b61018c600480360381019061018791906103c5565b6102ca565b005b6101a860048036038101906101a39190610398565b6102d4565b005b6101b26102f1565b6040516101bf919061045b565b60405180910390f35b60018054906101000a900460ff1681565b600090565b806001806101000a81548160ff021916908360ff16021790555050565b60018081819054906101000a900460ff168092919061021990610546565b91906101000a81548160ff021916908360ff16021790555050565b80600160026101000a81548173ffffffffffffffffffffffffffffffffffffffff021916908373ffffffffffffffffffffffffffffffffffffffff16021790555050565b600160009054906101000a900460ff1681565b60005481565b60018081819054906101000a900460ff16809291906102af9061051c565b91906101000a81548160ff021916908360ff16021790555050565b8060008190555050565b80600160006101000a81548160ff02191690831515021790555050565b600160029054906101000a900473ffffffffffffffffffffffffffffffffffffffff1681565b600081359050610326816105a4565b92915050565b60008135905061033b816105bb565b92915050565b600081359050610350816105d2565b92915050565b600081359050610365816105e9565b92915050565b6000602082840312156103815761038061059f565b5b600061038f84828501610317565b91505092915050565b6000602082840312156103ae576103ad61059f565b5b60006103bc8482850161032c565b91505092915050565b6000602082840312156103db576103da61059f565b5b60006103e984828501610341565b91505092915050565b6000602082840312156104085761040761059f565b5b600061041684828501610356565b91505092915050565b610428816104c7565b82525050565b610437816104d9565b82525050565b61044681610505565b82525050565b6104558161050f565b82525050565b6000602082019050610470600083018461041f565b92915050565b600060208201905061048b600083018461042e565b92915050565b60006020820190506104a6600083018461043d565b92915050565b60006020820190506104c1600083018461044c565b92915050565b60006104d2826104e5565b9050919050565b60008115159050919050565b600073ffffffffffffffffffffffffffffffffffffffff82169050919050565b6000819050919050565b600060ff82169050919050565b60006105278261050f565b9150600082141561053b5761053a610570565b5b600182039050919050565b60006105518261050f565b915060ff82141561056557610564610570565b5b600182019050919050565b7f4e487b7100000000000000000000000000000000000000000000000000000000600052601160045260246000fd5b600080fd5b6105ad816104c7565b81146105b857600080fd5b50565b6105c4816104d9565b81146105cf57600080fd5b50565b6105db81610505565b81146105e657600080fd5b50565b6105f28161050f565b81146105fd57600080fd5b5056fea2646970667358221220f82416496c12e1114f414c32b5ac5da5e18f85b376c898230adda1261538213664736f6c63430008070033",
					"opcodes": "PUSH1 0x80 PUSH1 0x40 MSTORE CALLVALUE DUP1 ISZERO PUSH2 0x10 JUMPI PUSH1 0x0 DUP1 REVERT JUMPDEST POP PUSH2 0x636 DUP1 PUSH2 0x20 PUSH1 0x0 CODECOPY PUSH1 0x0 RETURN INVALID PUSH1 0x80 PUSH1 0x40 MSTORE CALLVALUE DUP1 ISZERO PUSH2 0x10 JUMPI PUSH1 0x0 DUP1 REVERT JUMPDEST POP PUSH1 0x4 CALLDATASIZE LT PUSH2 0xA9 JUMPI PUSH1 0x0 CALLDATALOAD PUSH1 0xE0 SHR DUP1 PUSH4 0xCF4FEE10 GT PUSH2 0x71 JUMPI DUP1 PUSH4 0xCF4FEE10 EQ PUSH2 0x12C JUMPI DUP1 PUSH4 0xD412F490 EQ PUSH2 0x14A JUMPI DUP1 PUSH4 0xDF1F3275 EQ PUSH2 0x168 JUMPI DUP1 PUSH4 0xE492FD84 EQ PUSH2 0x172 JUMPI DUP1 PUSH4 0xEB1B30D9 EQ PUSH2 0x18E JUMPI DUP1 PUSH4 0xFCF814C3 EQ PUSH2 0x1AA JUMPI PUSH2 0xA9 JUMP JUMPDEST DUP1 PUSH4 0x12C0DFC3 EQ PUSH2 0xAE JUMPI DUP1 PUSH4 0x15502612 EQ PUSH2 0xCC JUMPI DUP1 PUSH4 0x4F25EADA EQ PUSH2 0xEA JUMPI DUP1 PUSH4 0x6A61A59C EQ PUSH2 0x106 JUMPI DUP1 PUSH4 0xA8A7B895 EQ PUSH2 0x110 JUMPI JUMPDEST PUSH1 0x0 DUP1 REVERT JUMPDEST PUSH2 0xB6 PUSH2 0x1C8 JUMP JUMPDEST PUSH1 0x40 MLOAD PUSH2 0xC3 SWAP2 SWAP1 PUSH2 0x4AC JUMP JUMPDEST PUSH1 0x40 MLOAD DUP1 SWAP2 SUB SWAP1 RETURN JUMPDEST PUSH2 0xD4 PUSH2 0x1D9 JUMP JUMPDEST PUSH1 0x40 MLOAD PUSH2 0xE1 SWAP2 SWAP1 PUSH2 0x491 JUMP JUMPDEST PUSH1 0x40 MLOAD DUP1 SWAP2 SUB SWAP1 RETURN JUMPDEST PUSH2 0x104 PUSH1 0x4 DUP1 CALLDATASIZE SUB DUP2 ADD SWAP1 PUSH2 0xFF SWAP2 SWAP1 PUSH2 0x3F2 JUMP JUMPDEST PUSH2 0x1DE JUMP JUMPDEST STOP JUMPDEST PUSH2 0x10E PUSH2 0x1FB JUMP JUMPDEST STOP JUMPDEST PUSH2 0x12A PUSH1 0x4 DUP1 CALLDATASIZE SUB DUP2 ADD SWAP1 PUSH2 0x125 SWAP2 SWAP1 PUSH2 0x36B JUMP JUMPDEST PUSH2 0x234 JUMP JUMPDEST STOP JUMPDEST PUSH2 0x134 PUSH2 0x278 JUMP JUMPDEST PUSH1 0x40 MLOAD PUSH2 0x141 SWAP2 SWAP1 PUSH2 0x476 JUMP JUMPDEST PUSH1 0x40 MLOAD DUP1 SWAP2 SUB SWAP1 RETURN JUMPDEST PUSH2 0x152 PUSH2 0x28B JUMP JUMPDEST PUSH1 0x40 MLOAD PUSH2 0x15F SWAP2 SWAP1 PUSH2 0x491 JUMP JUMPDEST PUSH1 0x40 MLOAD DUP1 SWAP2 SUB SWAP1 RETURN JUMPDEST PUSH2 0x170 PUSH2 0x291 JUMP JUMPDEST STOP JUMPDEST PUSH2 0x18C PUSH1 0x4 DUP1 CALLDATASIZE SUB DUP2 ADD SWAP1 PUSH2 0x187 SWAP2 SWAP1 PUSH2 0x3C5 JUMP JUMPDEST PUSH2 0x2CA JUMP JUMPDEST STOP JUMPDEST PUSH2 0x1A8 PUSH1 0x4 DUP1 CALLDATASIZE SUB DUP2 ADD SWAP1 PUSH2 0x1A3 SWAP2 SWAP1 PUSH2 0x398 JUMP JUMPDEST PUSH2 0x2D4 JUMP JUMPDEST STOP JUMPDEST PUSH2 0x1B2 PUSH2 0x2F1 JUMP JUMPDEST PUSH1 0x40 MLOAD PUSH2 0x1BF SWAP2 SWAP1 PUSH2 0x45B JUMP JUMPDEST PUSH1 0x40 MLOAD DUP1 SWAP2 SUB SWAP1 RETURN JUMPDEST PUSH1 0x1 DUP1 SLOAD SWAP1 PUSH2 0x100 EXP SWAP1 DIV PUSH1 0xFF AND DUP2 JUMP JUMPDEST PUSH1 0x0 SWAP1 JUMP JUMPDEST DUP1 PUSH1 0x1 DUP1 PUSH2 0x100 EXP DUP2 SLOAD DUP2 PUSH1 0xFF MUL NOT AND SWAP1 DUP4 PUSH1 0xFF AND MUL OR SWAP1 SSTORE POP POP JUMP JUMPDEST PUSH1 0x1 DUP1 DUP2 DUP2 SWAP1 SLOAD SWAP1 PUSH2 0x100 EXP SWAP1 DIV PUSH1 0xFF AND DUP1 SWAP3 SWAP2 SWAP1 PUSH2 0x219 SWAP1 PUSH2 0x546 JUMP JUMPDEST SWAP2 SWAP1 PUSH2 0x100 EXP DUP2 SLOAD DUP2 PUSH1 0xFF MUL NOT AND SWAP1 DUP4 PUSH1 0xFF AND MUL OR SWAP1 SSTORE POP POP JUMP JUMPDEST DUP1 PUSH1 0x1 PUSH1 0x2 PUSH2 0x100 EXP DUP2 SLOAD DUP2 PUSH20 0xFFFFFFFFFFFFFFFFFFFFFFFFFFFFFFFFFFFFFFFF MUL NOT AND SWAP1 DUP4 PUSH20 0xFFFFFFFFFFFFFFFFFFFFFFFFFFFFFFFFFFFFFFFF AND MUL OR SWAP1 SSTORE POP POP JUMP JUMPDEST PUSH1 0x1 PUSH1 0x0 SWAP1 SLOAD SWAP1 PUSH2 0x100 EXP SWAP1 DIV PUSH1 0xFF AND DUP2 JUMP JUMPDEST PUSH1 0x0 SLOAD DUP2 JUMP JUMPDEST PUSH1 0x1 DUP1 DUP2 DUP2 SWAP1 SLOAD SWAP1 PUSH2 0x100 EXP SWAP1 DIV PUSH1 0xFF AND DUP1 SWAP3 SWAP2 SWAP1 PUSH2 0x2AF SWAP1 PUSH2 0x51C JUMP JUMPDEST SWAP2 SWAP1 PUSH2 0x100 EXP DUP2 SLOAD DUP2 PUSH1 0xFF MUL NOT AND SWAP1 DUP4 PUSH1 0xFF AND MUL OR SWAP1 SSTORE POP POP JUMP JUMPDEST DUP1 PUSH1 0x0 DUP2 SWAP1 SSTORE POP POP JUMP JUMPDEST DUP1 PUSH1 0x1 PUSH1 0x0 PUSH2 0x100 EXP DUP2 SLOAD DUP2 PUSH1 0xFF MUL NOT AND SWAP1 DUP4 ISZERO ISZERO MUL OR SWAP1 SSTORE POP POP JUMP JUMPDEST PUSH1 0x1 PUSH1 0x2 SWAP1 SLOAD SWAP1 PUSH2 0x100 EXP SWAP1 DIV PUSH20 0xFFFFFFFFFFFFFFFFFFFFFFFFFFFFFFFFFFFFFFFF AND DUP2 JUMP JUMPDEST PUSH1 0x0 DUP2 CALLDATALOAD SWAP1 POP PUSH2 0x326 DUP2 PUSH2 0x5A4 JUMP JUMPDEST SWAP3 SWAP2 POP POP JUMP JUMPDEST PUSH1 0x0 DUP2 CALLDATALOAD SWAP1 POP PUSH2 0x33B DUP2 PUSH2 0x5BB JUMP JUMPDEST SWAP3 SWAP2 POP POP JUMP JUMPDEST PUSH1 0x0 DUP2 CALLDATALOAD SWAP1 POP PUSH2 0x350 DUP2 PUSH2 0x5D2 JUMP JUMPDEST SWAP3 SWAP2 POP POP JUMP JUMPDEST PUSH1 0x0 DUP2 CALLDATALOAD SWAP1 POP PUSH2 0x365 DUP2 PUSH2 0x5E9 JUMP JUMPDEST SWAP3 SWAP2 POP POP JUMP JUMPDEST PUSH1 0x0 PUSH1 0x20 DUP3 DUP5 SUB SLT ISZERO PUSH2 0x381 JUMPI PUSH2 0x380 PUSH2 0x59F JUMP JUMPDEST JUMPDEST PUSH1 0x0 PUSH2 0x38F DUP5 DUP3 DUP6 ADD PUSH2 0x317 JUMP JUMPDEST SWAP2 POP POP SWAP3 SWAP2 POP POP JUMP JUMPDEST PUSH1 0x0 PUSH1 0x20 DUP3 DUP5 SUB SLT ISZERO PUSH2 0x3AE JUMPI PUSH2 0x3AD PUSH2 0x59F JUMP JUMPDEST JUMPDEST PUSH1 0x0 PUSH2 0x3BC DUP5 DUP3 DUP6 ADD PUSH2 0x32C JUMP JUMPDEST SWAP2 POP POP SWAP3 SWAP2 POP POP JUMP JUMPDEST PUSH1 0x0 PUSH1 0x20 DUP3 DUP5 SUB SLT ISZERO PUSH2 0x3DB JUMPI PUSH2 0x3DA PUSH2 0x59F JUMP JUMPDEST JUMPDEST PUSH1 0x0 PUSH2 0x3E9 DUP5 DUP3 DUP6 ADD PUSH2 0x341 JUMP JUMPDEST SWAP2 POP POP SWAP3 SWAP2 POP POP JUMP JUMPDEST PUSH1 0x0 PUSH1 0x20 DUP3 DUP5 SUB SLT ISZERO PUSH2 0x408 JUMPI PUSH2 0x407 PUSH2 0x59F JUMP JUMPDEST JUMPDEST PUSH1 0x0 PUSH2 0x416 DUP5 DUP3 DUP6 ADD PUSH2 0x356 JUMP JUMPDEST SWAP2 POP POP SWAP3 SWAP2 POP POP JUMP JUMPDEST PUSH2 0x428 DUP2 PUSH2 0x4C7 JUMP JUMPDEST DUP3 MSTORE POP POP JUMP JUMPDEST PUSH2 0x437 DUP2 PUSH2 0x4D9 JUMP JUMPDEST DUP3 MSTORE POP POP JUMP JUMPDEST PUSH2 0x446 DUP2 PUSH2 0x505 JUMP JUMPDEST DUP3 MSTORE POP POP JUMP JUMPDEST PUSH2 0x455 DUP2 PUSH2 0x50F JUMP JUMPDEST DUP3 MSTORE POP POP JUMP JUMPDEST PUSH1 0x0 PUSH1 0x20 DUP3 ADD SWAP1 POP PUSH2 0x470 PUSH1 0x0 DUP4 ADD DUP5 PUSH2 0x41F JUMP JUMPDEST SWAP3 SWAP2 POP POP JUMP JUMPDEST PUSH1 0x0 PUSH1 0x20 DUP3 ADD SWAP1 POP PUSH2 0x48B PUSH1 0x0 DUP4 ADD DUP5 PUSH2 0x42E JUMP JUMPDEST SWAP3 SWAP2 POP POP JUMP JUMPDEST PUSH1 0x0 PUSH1 0x20 DUP3 ADD SWAP1 POP PUSH2 0x4A6 PUSH1 0x0 DUP4 ADD DUP5 PUSH2 0x43D JUMP JUMPDEST SWAP3 SWAP2 POP POP JUMP JUMPDEST PUSH1 0x0 PUSH1 0x20 DUP3 ADD SWAP1 POP PUSH2 0x4C1 PUSH1 0x0 DUP4 ADD DUP5 PUSH2 0x44C JUMP JUMPDEST SWAP3 SWAP2 POP POP JUMP JUMPDEST PUSH1 0x0 PUSH2 0x4D2 DUP3 PUSH2 0x4E5 JUMP JUMPDEST SWAP1 POP SWAP2 SWAP1 POP JUMP JUMPDEST PUSH1 0x0 DUP2 ISZERO ISZERO SWAP1 POP SWAP2 SWAP1 POP JUMP JUMPDEST PUSH1 0x0 PUSH20 0xFFFFFFFFFFFFFFFFFFFFFFFFFFFFFFFFFFFFFFFF DUP3 AND SWAP1 POP SWAP2 SWAP1 POP JUMP JUMPDEST PUSH1 0x0 DUP2 SWAP1 POP SWAP2 SWAP1 POP JUMP JUMPDEST PUSH1 0x0 PUSH1 0xFF DUP3 AND SWAP1 POP SWAP2 SWAP1 POP JUMP JUMPDEST PUSH1 0x0 PUSH2 0x527 DUP3 PUSH2 0x50F JUMP JUMPDEST SWAP2 POP PUSH1 0x0 DUP3 EQ ISZERO PUSH2 0x53B JUMPI PUSH2 0x53A PUSH2 0x570 JUMP JUMPDEST JUMPDEST PUSH1 0x1 DUP3 SUB SWAP1 POP SWAP2 SWAP1 POP JUMP JUMPDEST PUSH1 0x0 PUSH2 0x551 DUP3 PUSH2 0x50F JUMP JUMPDEST SWAP2 POP PUSH1 0xFF DUP3 EQ ISZERO PUSH2 0x565 JUMPI PUSH2 0x564 PUSH2 0x570 JUMP JUMPDEST JUMPDEST PUSH1 0x1 DUP3 ADD SWAP1 POP SWAP2 SWAP1 POP JUMP JUMPDEST PUSH32 0x4E487B7100000000000000000000000000000000000000000000000000000000 PUSH1 0x0 MSTORE PUSH1 0x11 PUSH1 0x4 MSTORE PUSH1 0x24 PUSH1 0x0 REVERT JUMPDEST PUSH1 0x0 DUP1 REVERT JUMPDEST PUSH2 0x5AD DUP2 PUSH2 0x4C7 JUMP JUMPDEST DUP2 EQ PUSH2 0x5B8 JUMPI PUSH1 0x0 DUP1 REVERT JUMPDEST POP JUMP JUMPDEST PUSH2 0x5C4 DUP2 PUSH2 0x4D9 JUMP JUMPDEST DUP2 EQ PUSH2 0x5CF JUMPI PUSH1 0x0 DUP1 REVERT JUMPDEST POP JUMP JUMPDEST PUSH2 0x5DB DUP2 PUSH2 0x505 JUMP JUMPDEST DUP2 EQ PUSH2 0x5E6 JUMPI PUSH1 0x0 DUP1 REVERT JUMPDEST POP JUMP JUMPDEST PUSH2 0x5F2 DUP2 PUSH2 0x50F JUMP JUMPDEST DUP2 EQ PUSH2 0x5FD JUMPI PUSH1 0x0 DUP1 REVERT JUMPDEST POP JUMP INVALID LOG2 PUSH5 0x6970667358 0x22 SLT KECCAK256 0xF8 0x24 AND 0x49 PUSH13 0x12E1114F414C32B5AC5DA5E18F DUP6 0xB3 PUSH23 0xC898230ADDA1261538213664736F6C6343000807003300 "
				},
				"gasEstimates": {
					"creation": {
						"codeDepositCost": "318000",
						"executionCost": "355",
						"totalCost": "318355"
					},
					"external": {
						"decrementMytUint8()": "26846",
						"getBalanceOfAddress()": "352",
						"incremenMytUint8()": "26869",
						"myaddress()": "2674",
						"mybool()": "2471",
						"myuint()": "2451",
						"myuint8()": "2519",
						"setMyAddress(address)": "24861",
						"setMyBool(bool)": "24767",
						"setMyUint(uint256)": "22586",
						"setMyUint8(uint8)": "24774"
					}
				},
				"methodIdentifiers": {
					"decrementMytUint8()": "df1f3275",
					"getBalanceOfAddress()": "15502612",
					"incremenMytUint8()": "6a61a59c",
					"myaddress()": "fcf814c3",
					"mybool()": "cf4fee10",
					"myuint()": "d412f490",
					"myuint8()": "12c0dfc3",
					"setMyAddress(address)": "a8a7b895",
					"setMyBool(bool)": "eb1b30d9",
					"setMyUint(uint256)": "e492fd84",
					"setMyUint8(uint8)": "4f25eada"
				}
			},
			"storageLayout": {
				"storage": [
					{
						"astId": 3,
						"contract": "variables/variables.sol:Variables",
						"label": "myuint",
						"offset": 0,
						"slot": "0",
						"type": "t_uint256"
					},
					{
						"astId": 5,
						"contract": "variables/variables.sol:Variables",
						"label": "mybool",
						"offset": 0,
						"slot": "1",
						"type": "t_bool"
					},
					{
						"astId": 7,
						"contract": "variables/variables.sol:Variables",
						"label": "myuint8",
						"offset": 1,
						"slot": "1",
						"type": "t_uint8"
					},
					{
						"astId": 9,
						"contract": "variables/variables.sol:Variables",
						"label": "myaddress",
						"offset": 2,
						"slot": "1",
						"type": "t_address"
					}
				],
				"types": {
					"t_address": {
						"encoding": "inplace",
						"label": "address",
						"numberOfBytes": "20"
					},
					"t_bool": {
						"encoding": "inplace",
						"label": "bool",
						"numberOfBytes": "1"
					},
					"t_uint256": {
						"encoding": "inplace",
						"label": "uint256",
						"numberOfBytes": "32"
					},
					"t_uint8": {
						"encoding": "inplace",
						"label": "uint8",
						"numberOfBytes": "1"
					}
				}
			},
			"userdoc": {
				"kind": "user",
				"methods": {},
				"version": 1
			}
		}
	}
}