{
	"variables/variables.sol": {
		"Variables": {
			"abi": [
				{
					"inputs": [],
					"name": "decrementMytUint8",
					"outputs": [],
					"stateMutability": "nonpayable",
					"type": "function"
				},
				{
					"inputs": [],
					"name": "getBalanceOfAddress",
					"outputs": [
						{
							"internalType": "uint256",
							"name": "",
							"type": "uint256"
						}
					],
					"stateMutability": "view",
					"type": "function"
				},
				{
					"inputs": [],
					"name": "incremenMytUint8",
					"outputs": [],
					"stateMutability": "nonpayable",
					"type": "function"
				},
				{
					"inputs": [],
					"name": "myaddress",
					"outputs": [
						{
							"internalType": "address",
							"name": "",
							"type": "address"
						}
					],
					"stateMutability": "view",
					"type": "function"
				},
				{
					"inputs": [],
					"name": "mybool",
					"outputs": [
						{
							"internalType": "bool",
							"name": "",
							"type": "bool"
						}
					],
					"stateMutability": "view",
					"type": "function"
				},
				{
					"inputs": [],
					"name": "mystring",
					"outputs": [
						{
							"internalType": "string",
							"name": "",
							"type": "string"
						}
					],
					"stateMutability": "view",
					"type": "function"
				},
				{
					"inputs": [],
					"name": "myuint",
					"outputs": [
						{
							"internalType": "uint256",
							"name": "",
							"type": "uint256"
						}
					],
					"stateMutability": "view",
					"type": "function"
				},
				{
					"inputs": [],
					"name": "myuint8",
					"outputs": [
						{
							"internalType": "uint8",
							"name": "",
							"type": "uint8"
						}
					],
					"stateMutability": "view",
					"type": "function"
				},
				{
					"inputs": [
						{
							"internalType": "address",
							"name": "_val",
							"type": "address"
						}
					],
					"name": "setMyAddress",
					"outputs": [],
					"stateMutability": "nonpayable",
					"type": "function"
				},
				{
					"inputs": [
						{
							"internalType": "bool",
							"name": "_val",
							"type": "bool"
						}
					],
					"name": "setMyBool",
					"outputs": [],
					"stateMutability": "nonpayable",
					"type": "function"
				},
				{
					"inputs": [
						{
							"internalType": "string",
							"name": "_val",
							"type": "string"
						}
					],
					"name": "setMyString",
					"outputs": [],
					"stateMutability": "nonpayable",
					"type": "function"
				},
				{
					"inputs": [
						{
							"internalType": "uint256",
							"name": "_val",
							"type": "uint256"
						}
					],
					"name": "setMyUint",
					"outputs": [],
					"stateMutability": "nonpayable",
					"type": "function"
				},
				{
					"inputs": [
						{
							"internalType": "uint8",
							"name": "_val",
							"type": "uint8"
						}
					],
					"name": "setMyUint8",
					"outputs": [],
					"stateMutability": "nonpayable",
					"type": "function"
				}
			],
			"devdoc": {
				"kind": "dev",
				"methods": {},
				"version": 1
			},
			"evm": {
				"assembly": "    /* \"variables/variables.sol\":92:1351  contract Variables {\r... */\n  mstore(0x40, 0x80)\n  callvalue\n  dup1\n  iszero\n  tag_1\n  jumpi\n  0x00\n  dup1\n  revert\ntag_1:\n  pop\n  dataSize(sub_0)\n  dup1\n  dataOffset(sub_0)\n  0x00\n  codecopy\n  0x00\n  return\nstop\n\nsub_0: assembly {\n        /* \"variables/variables.sol\":92:1351  contract Variables {\r... */\n      mstore(0x40, 0x80)\n      callvalue\n      dup1\n      iszero\n      tag_1\n      jumpi\n      0x00\n      dup1\n      revert\n    tag_1:\n      pop\n      jumpi(tag_2, lt(calldatasize, 0x04))\n      shr(0xe0, calldataload(0x00))\n      dup1\n      0xc261fa36\n      gt\n      tag_16\n      jumpi\n      dup1\n      0xdf1f3275\n      gt\n      tag_17\n      jumpi\n      dup1\n      0xdf1f3275\n      eq\n      tag_12\n      jumpi\n      dup1\n      0xe492fd84\n      eq\n      tag_13\n      jumpi\n      dup1\n      0xeb1b30d9\n      eq\n      tag_14\n      jumpi\n      dup1\n      0xfcf814c3\n      eq\n      tag_15\n      jumpi\n      jump(tag_2)\n    tag_17:\n      dup1\n      0xc261fa36\n      eq\n      tag_9\n      jumpi\n      dup1\n      0xcf4fee10\n      eq\n      tag_10\n      jumpi\n      dup1\n      0xd412f490\n      eq\n      tag_11\n      jumpi\n      jump(tag_2)\n    tag_16:\n      dup1\n      0x12c0dfc3\n      eq\n      tag_3\n      jumpi\n      dup1\n      0x15502612\n      eq\n      tag_4\n      jumpi\n      dup1\n      0x4f25eada\n      eq\n      tag_5\n      jumpi\n      dup1\n      0x6a61a59c\n      eq\n      tag_6\n      jumpi\n      dup1\n      0x82180568\n      eq\n      tag_7\n      jumpi\n      dup1\n      0xa8a7b895\n      eq\n      tag_8\n      jumpi\n    tag_2:\n      0x00\n      dup1\n      revert\n        /* \"variables/variables.sol\":318:338  uint8 public myuint8 */\n    tag_3:\n      tag_18\n      tag_19\n      jump\t// in\n    tag_18:\n      mload(0x40)\n      tag_20\n      swap2\n      swap1\n      tag_21\n      jump\t// in\n    tag_20:\n      mload(0x40)\n      dup1\n      swap2\n      sub\n      swap1\n      return\n        /* \"variables/variables.sol\":1007:1107  function getBalanceOfAddress() public view returns(uint) {\r... */\n    tag_4:\n      tag_22\n      tag_23\n      jump\t// in\n    tag_22:\n      mload(0x40)\n      tag_24\n      swap2\n      swap1\n      tag_25\n      jump\t// in\n    tag_24:\n      mload(0x40)\n      dup1\n      swap2\n      sub\n      swap1\n      return\n        /* \"variables/variables.sol\":588:660  function setMyUint8(uint8 _val) public {\r... */\n    tag_5:\n      tag_26\n      0x04\n      dup1\n      calldatasize\n      sub\n      dup2\n      add\n      swap1\n      tag_27\n      swap2\n      swap1\n      tag_28\n      jump\t// in\n    tag_27:\n      tag_29\n      jump\t// in\n    tag_26:\n      stop\n        /* \"variables/variables.sol\":668:731  function incremenMytUint8() public {\r... */\n    tag_6:\n      tag_30\n      tag_31\n      jump\t// in\n    tag_30:\n      stop\n        /* \"variables/variables.sol\":1266:1348  function setMyString(string memory _val) public {\r... */\n    tag_7:\n      tag_32\n      0x04\n      dup1\n      calldatasize\n      sub\n      dup2\n      add\n      swap1\n      tag_33\n      swap2\n      swap1\n      tag_34\n      jump\t// in\n    tag_33:\n      tag_35\n      jump\t// in\n    tag_32:\n      stop\n        /* \"variables/variables.sol\":811:889  function setMyAddress(address _val) public {\r... */\n    tag_8:\n      tag_36\n      0x04\n      dup1\n      calldatasize\n      sub\n      dup2\n      add\n      swap1\n      tag_37\n      swap2\n      swap1\n      tag_38\n      jump\t// in\n    tag_37:\n      tag_39\n      jump\t// in\n    tag_36:\n      stop\n        /* \"variables/variables.sol\":403:425  string public mystring */\n    tag_9:\n      tag_40\n      tag_41\n      jump\t// in\n    tag_40:\n      mload(0x40)\n      tag_42\n      swap2\n      swap1\n      tag_43\n      jump\t// in\n    tag_42:\n      mload(0x40)\n      dup1\n      swap2\n      sub\n      swap1\n      return\n        /* \"variables/variables.sol\":226:244  bool public mybool */\n    tag_10:\n      tag_44\n      tag_45\n      jump\t// in\n    tag_44:\n      mload(0x40)\n      tag_46\n      swap2\n      swap1\n      tag_47\n      jump\t// in\n    tag_46:\n      mload(0x40)\n      dup1\n      swap2\n      sub\n      swap1\n      return\n        /* \"variables/variables.sol\":196:217  uint256 public myuint */\n    tag_11:\n      tag_48\n      tag_49\n      jump\t// in\n    tag_48:\n      mload(0x40)\n      tag_50\n      swap2\n      swap1\n      tag_25\n      jump\t// in\n    tag_50:\n      mload(0x40)\n      dup1\n      swap2\n      sub\n      swap1\n      return\n        /* \"variables/variables.sol\":739:803  function decrementMytUint8() public {\r... */\n    tag_12:\n      tag_51\n      tag_52\n      jump\t// in\n    tag_51:\n      stop\n        /* \"variables/variables.sol\":434:503  function setMyUint(uint _val) public {\r... */\n    tag_13:\n      tag_53\n      0x04\n      dup1\n      calldatasize\n      sub\n      dup2\n      add\n      swap1\n      tag_54\n      swap2\n      swap1\n      tag_55\n      jump\t// in\n    tag_54:\n      tag_56\n      jump\t// in\n    tag_53:\n      stop\n        /* \"variables/variables.sol\":511:580  function setMyBool(bool _val) public {\r... */\n    tag_14:\n      tag_57\n      0x04\n      dup1\n      calldatasize\n      sub\n      dup2\n      add\n      swap1\n      tag_58\n      swap2\n      swap1\n      tag_59\n      jump\t// in\n    tag_58:\n      tag_60\n      jump\t// in\n    tag_57:\n      stop\n        /* \"variables/variables.sol\":370:394  address public myaddress */\n    tag_15:\n      tag_61\n      tag_62\n      jump\t// in\n    tag_61:\n      mload(0x40)\n      tag_63\n      swap2\n      swap1\n      tag_64\n      jump\t// in\n    tag_63:\n      mload(0x40)\n      dup1\n      swap2\n      sub\n      swap1\n      return\n        /* \"variables/variables.sol\":318:338  uint8 public myuint8 */\n    tag_19:\n      0x01\n      dup1\n      sload\n      swap1\n      0x0100\n      exp\n      swap1\n      div\n      0xff\n      and\n      dup2\n      jump\t// out\n        /* \"variables/variables.sol\":1007:1107  function getBalanceOfAddress() public view returns(uint) {\r... */\n    tag_23:\n        /* \"variables/variables.sol\":1058:1062  uint */\n      0x00\n        /* \"variables/variables.sol\":1082:1091  myaddress */\n      0x01\n      0x02\n      swap1\n      sload\n      swap1\n      0x0100\n      exp\n      swap1\n      div\n      0xffffffffffffffffffffffffffffffffffffffff\n      and\n        /* \"variables/variables.sol\":1082:1099  myaddress.balance */\n      0xffffffffffffffffffffffffffffffffffffffff\n      and\n      balance\n        /* \"variables/variables.sol\":1075:1099  return myaddress.balance */\n      swap1\n      pop\n        /* \"variables/variables.sol\":1007:1107  function getBalanceOfAddress() public view returns(uint) {\r... */\n      swap1\n      jump\t// out\n        /* \"variables/variables.sol\":588:660  function setMyUint8(uint8 _val) public {\r... */\n    tag_29:\n        /* \"variables/variables.sol\":648:652  _val */\n      dup1\n        /* \"variables/variables.sol\":638:645  myuint8 */\n      0x01\n      dup1\n        /* \"variables/variables.sol\":638:652  myuint8 = _val */\n      0x0100\n      exp\n      dup2\n      sload\n      dup2\n      0xff\n      mul\n      not\n      and\n      swap1\n      dup4\n      0xff\n      and\n      mul\n      or\n      swap1\n      sstore\n      pop\n        /* \"variables/variables.sol\":588:660  function setMyUint8(uint8 _val) public {\r... */\n      pop\n      jump\t// out\n        /* \"variables/variables.sol\":668:731  function incremenMytUint8() public {\r... */\n    tag_31:\n        /* \"variables/variables.sol\":714:721  myuint8 */\n      0x01\n      dup1\n        /* \"variables/variables.sol\":714:723  myuint8++ */\n      dup2\n      dup2\n      swap1\n      sload\n      swap1\n      0x0100\n      exp\n      swap1\n      div\n      0xff\n      and\n      dup1\n      swap3\n      swap2\n      swap1\n      tag_68\n      swap1\n      tag_69\n      jump\t// in\n    tag_68:\n      swap2\n      swap1\n      0x0100\n      exp\n      dup2\n      sload\n      dup2\n      0xff\n      mul\n      not\n      and\n      swap1\n      dup4\n      0xff\n      and\n      mul\n      or\n      swap1\n      sstore\n      pop\n      pop\n        /* \"variables/variables.sol\":668:731  function incremenMytUint8() public {\r... */\n      jump\t// out\n        /* \"variables/variables.sol\":1266:1348  function setMyString(string memory _val) public {\r... */\n    tag_35:\n        /* \"variables/variables.sol\":1336:1340  _val */\n      dup1\n        /* \"variables/variables.sol\":1325:1333  mystring */\n      0x02\n        /* \"variables/variables.sol\":1325:1340  mystring = _val */\n      swap1\n      dup1\n      mload\n      swap1\n      0x20\n      add\n      swap1\n      tag_71\n      swap3\n      swap2\n      swap1\n      tag_72\n      jump\t// in\n    tag_71:\n      pop\n        /* \"variables/variables.sol\":1266:1348  function setMyString(string memory _val) public {\r... */\n      pop\n      jump\t// out\n        /* \"variables/variables.sol\":811:889  function setMyAddress(address _val) public {\r... */\n    tag_39:\n        /* \"variables/variables.sol\":877:881  _val */\n      dup1\n        /* \"variables/variables.sol\":865:874  myaddress */\n      0x01\n      0x02\n        /* \"variables/variables.sol\":865:881  myaddress = _val */\n      0x0100\n      exp\n      dup2\n      sload\n      dup2\n      0xffffffffffffffffffffffffffffffffffffffff\n      mul\n      not\n      and\n      swap1\n      dup4\n      0xffffffffffffffffffffffffffffffffffffffff\n      and\n      mul\n      or\n      swap1\n      sstore\n      pop\n        /* \"variables/variables.sol\":811:889  function setMyAddress(address _val) public {\r... */\n      pop\n      jump\t// out\n        /* \"variables/variables.sol\":403:425  string public mystring */\n    tag_41:\n      0x02\n      dup1\n      sload\n      tag_74\n      swap1\n      tag_75\n      jump\t// in\n    tag_74:\n      dup1\n      0x1f\n      add\n      0x20\n      dup1\n      swap2\n      div\n      mul\n      0x20\n      add\n      mload(0x40)\n      swap1\n      dup2\n      add\n      0x40\n      mstore\n      dup1\n      swap3\n      swap2\n      swap1\n      dup2\n      dup2\n      mstore\n      0x20\n      add\n      dup3\n      dup1\n      sload\n      tag_76\n      swap1\n      tag_75\n      jump\t// in\n    tag_76:\n      dup1\n      iszero\n      tag_77\n      jumpi\n      dup1\n      0x1f\n      lt\n      tag_78\n      jumpi\n      0x0100\n      dup1\n      dup4\n      sload\n      div\n      mul\n      dup4\n      mstore\n      swap2\n      0x20\n      add\n      swap2\n      jump(tag_77)\n    tag_78:\n      dup3\n      add\n      swap2\n      swap1\n      0x00\n      mstore\n      keccak256(0x00, 0x20)\n      swap1\n    tag_79:\n      dup2\n      sload\n      dup2\n      mstore\n      swap1\n      0x01\n      add\n      swap1\n      0x20\n      add\n      dup1\n      dup4\n      gt\n      tag_79\n      jumpi\n      dup3\n      swap1\n      sub\n      0x1f\n      and\n      dup3\n      add\n      swap2\n    tag_77:\n      pop\n      pop\n      pop\n      pop\n      pop\n      dup2\n      jump\t// out\n        /* \"variables/variables.sol\":226:244  bool public mybool */\n    tag_45:\n      0x01\n      0x00\n      swap1\n      sload\n      swap1\n      0x0100\n      exp\n      swap1\n      div\n      0xff\n      and\n      dup2\n      jump\t// out\n        /* \"variables/variables.sol\":196:217  uint256 public myuint */\n    tag_49:\n      sload(0x00)\n      dup2\n      jump\t// out\n        /* \"variables/variables.sol\":739:803  function decrementMytUint8() public {\r... */\n    tag_52:\n        /* \"variables/variables.sol\":786:793  myuint8 */\n      0x01\n      dup1\n        /* \"variables/variables.sol\":786:795  myuint8-- */\n      dup2\n      dup2\n      swap1\n      sload\n      swap1\n      0x0100\n      exp\n      swap1\n      div\n      0xff\n      and\n      dup1\n      swap3\n      swap2\n      swap1\n      tag_81\n      swap1\n      tag_82\n      jump\t// in\n    tag_81:\n      swap2\n      swap1\n      0x0100\n      exp\n      dup2\n      sload\n      dup2\n      0xff\n      mul\n      not\n      and\n      swap1\n      dup4\n      0xff\n      and\n      mul\n      or\n      swap1\n      sstore\n      pop\n      pop\n        /* \"variables/variables.sol\":739:803  function decrementMytUint8() public {\r... */\n      jump\t// out\n        /* \"variables/variables.sol\":434:503  function setMyUint(uint _val) public {\r... */\n    tag_56:\n        /* \"variables/variables.sol\":491:495  _val */\n      dup1\n        /* \"variables/variables.sol\":482:488  myuint */\n      0x00\n        /* \"variables/variables.sol\":482:495  myuint = _val */\n      dup2\n      swap1\n      sstore\n      pop\n        /* \"variables/variables.sol\":434:503  function setMyUint(uint _val) public {\r... */\n      pop\n      jump\t// out\n        /* \"variables/variables.sol\":511:580  function setMyBool(bool _val) public {\r... */\n    tag_60:\n        /* \"variables/variables.sol\":568:572  _val */\n      dup1\n        /* \"variables/variables.sol\":559:565  mybool */\n      0x01\n      0x00\n        /* \"variables/variables.sol\":559:572  mybool = _val */\n      0x0100\n      exp\n      dup2\n      sload\n      dup2\n      0xff\n      mul\n      not\n      and\n      swap1\n      dup4\n      iszero\n      iszero\n      mul\n      or\n      swap1\n      sstore\n      pop\n        /* \"variables/variables.sol\":511:580  function setMyBool(bool _val) public {\r... */\n      pop\n      jump\t// out\n        /* \"variables/variables.sol\":370:394  address public myaddress */\n    tag_62:\n      0x01\n      0x02\n      swap1\n      sload\n      swap1\n      0x0100\n      exp\n      swap1\n      div\n      0xffffffffffffffffffffffffffffffffffffffff\n      and\n      dup2\n      jump\t// out\n    tag_72:\n      dup3\n      dup1\n      sload\n      tag_85\n      swap1\n      tag_75\n      jump\t// in\n    tag_85:\n      swap1\n      0x00\n      mstore\n      keccak256(0x00, 0x20)\n      swap1\n      0x1f\n      add\n      0x20\n      swap1\n      div\n      dup2\n      add\n      swap3\n      dup3\n      tag_87\n      jumpi\n      0x00\n      dup6\n      sstore\n      jump(tag_86)\n    tag_87:\n      dup3\n      0x1f\n      lt\n      tag_88\n      jumpi\n      dup1\n      mload\n      not(0xff)\n      and\n      dup4\n      dup1\n      add\n      or\n      dup6\n      sstore\n      jump(tag_86)\n    tag_88:\n      dup3\n      dup1\n      add\n      0x01\n      add\n      dup6\n      sstore\n      dup3\n      iszero\n      tag_86\n      jumpi\n      swap2\n      dup3\n      add\n    tag_89:\n      dup3\n      dup2\n      gt\n      iszero\n      tag_90\n      jumpi\n      dup3\n      mload\n      dup3\n      sstore\n      swap2\n      0x20\n      add\n      swap2\n      swap1\n      0x01\n      add\n      swap1\n      jump(tag_89)\n    tag_90:\n    tag_86:\n      pop\n      swap1\n      pop\n      tag_91\n      swap2\n      swap1\n      tag_92\n      jump\t// in\n    tag_91:\n      pop\n      swap1\n      jump\t// out\n    tag_92:\n    tag_93:\n      dup1\n      dup3\n      gt\n      iszero\n      tag_94\n      jumpi\n      0x00\n      dup2\n      0x00\n      swap1\n      sstore\n      pop\n      0x01\n      add\n      jump(tag_93)\n    tag_94:\n      pop\n      swap1\n      jump\t// out\n        /* \"#utility.yul\":7:419   */\n    tag_96:\n        /* \"#utility.yul\":85:90   */\n      0x00\n        /* \"#utility.yul\":110:176   */\n      tag_98\n        /* \"#utility.yul\":126:175   */\n      tag_99\n        /* \"#utility.yul\":168:174   */\n      dup5\n        /* \"#utility.yul\":126:175   */\n      tag_100\n      jump\t// in\n    tag_99:\n        /* \"#utility.yul\":110:176   */\n      tag_101\n      jump\t// in\n    tag_98:\n        /* \"#utility.yul\":101:176   */\n      swap1\n      pop\n        /* \"#utility.yul\":199:205   */\n      dup3\n        /* \"#utility.yul\":192:197   */\n      dup2\n        /* \"#utility.yul\":185:206   */\n      mstore\n        /* \"#utility.yul\":237:241   */\n      0x20\n        /* \"#utility.yul\":230:235   */\n      dup2\n        /* \"#utility.yul\":226:242   */\n      add\n        /* \"#utility.yul\":275:278   */\n      dup5\n        /* \"#utility.yul\":266:272   */\n      dup5\n        /* \"#utility.yul\":261:264   */\n      dup5\n        /* \"#utility.yul\":257:273   */\n      add\n        /* \"#utility.yul\":254:279   */\n      gt\n        /* \"#utility.yul\":251:363   */\n      iszero\n      tag_102\n      jumpi\n        /* \"#utility.yul\":282:361   */\n      tag_103\n      tag_104\n      jump\t// in\n    tag_103:\n        /* \"#utility.yul\":251:363   */\n    tag_102:\n        /* \"#utility.yul\":372:413   */\n      tag_105\n        /* \"#utility.yul\":406:412   */\n      dup5\n        /* \"#utility.yul\":401:404   */\n      dup3\n        /* \"#utility.yul\":396:399   */\n      dup6\n        /* \"#utility.yul\":372:413   */\n      tag_106\n      jump\t// in\n    tag_105:\n        /* \"#utility.yul\":91:419   */\n      pop\n        /* \"#utility.yul\":7:419   */\n      swap4\n      swap3\n      pop\n      pop\n      pop\n      jump\t// out\n        /* \"#utility.yul\":425:564   */\n    tag_107:\n        /* \"#utility.yul\":471:476   */\n      0x00\n        /* \"#utility.yul\":509:515   */\n      dup2\n        /* \"#utility.yul\":496:516   */\n      calldataload\n        /* \"#utility.yul\":487:516   */\n      swap1\n      pop\n        /* \"#utility.yul\":525:558   */\n      tag_109\n        /* \"#utility.yul\":552:557   */\n      dup2\n        /* \"#utility.yul\":525:558   */\n      tag_110\n      jump\t// in\n    tag_109:\n        /* \"#utility.yul\":425:564   */\n      swap3\n      swap2\n      pop\n      pop\n      jump\t// out\n        /* \"#utility.yul\":570:703   */\n    tag_111:\n        /* \"#utility.yul\":613:618   */\n      0x00\n        /* \"#utility.yul\":651:657   */\n      dup2\n        /* \"#utility.yul\":638:658   */\n      calldataload\n        /* \"#utility.yul\":629:658   */\n      swap1\n      pop\n        /* \"#utility.yul\":667:697   */\n      tag_113\n        /* \"#utility.yul\":691:696   */\n      dup2\n        /* \"#utility.yul\":667:697   */\n      tag_114\n      jump\t// in\n    tag_113:\n        /* \"#utility.yul\":570:703   */\n      swap3\n      swap2\n      pop\n      pop\n      jump\t// out\n        /* \"#utility.yul\":723:1063   */\n    tag_115:\n        /* \"#utility.yul\":779:784   */\n      0x00\n        /* \"#utility.yul\":828:831   */\n      dup3\n        /* \"#utility.yul\":821:825   */\n      0x1f\n        /* \"#utility.yul\":813:819   */\n      dup4\n        /* \"#utility.yul\":809:826   */\n      add\n        /* \"#utility.yul\":805:832   */\n      slt\n        /* \"#utility.yul\":795:917   */\n      tag_117\n      jumpi\n        /* \"#utility.yul\":836:915   */\n      tag_118\n      tag_119\n      jump\t// in\n    tag_118:\n        /* \"#utility.yul\":795:917   */\n    tag_117:\n        /* \"#utility.yul\":953:959   */\n      dup2\n        /* \"#utility.yul\":940:960   */\n      calldataload\n        /* \"#utility.yul\":978:1057   */\n      tag_120\n        /* \"#utility.yul\":1053:1056   */\n      dup5\n        /* \"#utility.yul\":1045:1051   */\n      dup3\n        /* \"#utility.yul\":1038:1042   */\n      0x20\n        /* \"#utility.yul\":1030:1036   */\n      dup7\n        /* \"#utility.yul\":1026:1043   */\n      add\n        /* \"#utility.yul\":978:1057   */\n      tag_96\n      jump\t// in\n    tag_120:\n        /* \"#utility.yul\":969:1057   */\n      swap2\n      pop\n        /* \"#utility.yul\":785:1063   */\n      pop\n        /* \"#utility.yul\":723:1063   */\n      swap3\n      swap2\n      pop\n      pop\n      jump\t// out\n        /* \"#utility.yul\":1069:1208   */\n    tag_121:\n        /* \"#utility.yul\":1115:1120   */\n      0x00\n        /* \"#utility.yul\":1153:1159   */\n      dup2\n        /* \"#utility.yul\":1140:1160   */\n      calldataload\n        /* \"#utility.yul\":1131:1160   */\n      swap1\n      pop\n        /* \"#utility.yul\":1169:1202   */\n      tag_123\n        /* \"#utility.yul\":1196:1201   */\n      dup2\n        /* \"#utility.yul\":1169:1202   */\n      tag_124\n      jump\t// in\n    tag_123:\n        /* \"#utility.yul\":1069:1208   */\n      swap3\n      swap2\n      pop\n      pop\n      jump\t// out\n        /* \"#utility.yul\":1214:1349   */\n    tag_125:\n        /* \"#utility.yul\":1258:1263   */\n      0x00\n        /* \"#utility.yul\":1296:1302   */\n      dup2\n        /* \"#utility.yul\":1283:1303   */\n      calldataload\n        /* \"#utility.yul\":1274:1303   */\n      swap1\n      pop\n        /* \"#utility.yul\":1312:1343   */\n      tag_127\n        /* \"#utility.yul\":1337:1342   */\n      dup2\n        /* \"#utility.yul\":1312:1343   */\n      tag_128\n      jump\t// in\n    tag_127:\n        /* \"#utility.yul\":1214:1349   */\n      swap3\n      swap2\n      pop\n      pop\n      jump\t// out\n        /* \"#utility.yul\":1355:1684   */\n    tag_38:\n        /* \"#utility.yul\":1414:1420   */\n      0x00\n        /* \"#utility.yul\":1463:1465   */\n      0x20\n        /* \"#utility.yul\":1451:1460   */\n      dup3\n        /* \"#utility.yul\":1442:1449   */\n      dup5\n        /* \"#utility.yul\":1438:1461   */\n      sub\n        /* \"#utility.yul\":1434:1466   */\n      slt\n        /* \"#utility.yul\":1431:1550   */\n      iszero\n      tag_130\n      jumpi\n        /* \"#utility.yul\":1469:1548   */\n      tag_131\n      tag_132\n      jump\t// in\n    tag_131:\n        /* \"#utility.yul\":1431:1550   */\n    tag_130:\n        /* \"#utility.yul\":1589:1590   */\n      0x00\n        /* \"#utility.yul\":1614:1667   */\n      tag_133\n        /* \"#utility.yul\":1659:1666   */\n      dup5\n        /* \"#utility.yul\":1650:1656   */\n      dup3\n        /* \"#utility.yul\":1639:1648   */\n      dup6\n        /* \"#utility.yul\":1635:1657   */\n      add\n        /* \"#utility.yul\":1614:1667   */\n      tag_107\n      jump\t// in\n    tag_133:\n        /* \"#utility.yul\":1604:1667   */\n      swap2\n      pop\n        /* \"#utility.yul\":1560:1677   */\n      pop\n        /* \"#utility.yul\":1355:1684   */\n      swap3\n      swap2\n      pop\n      pop\n      jump\t// out\n        /* \"#utility.yul\":1690:2013   */\n    tag_59:\n        /* \"#utility.yul\":1746:1752   */\n      0x00\n        /* \"#utility.yul\":1795:1797   */\n      0x20\n        /* \"#utility.yul\":1783:1792   */\n      dup3\n        /* \"#utility.yul\":1774:1781   */\n      dup5\n        /* \"#utility.yul\":1770:1793   */\n      sub\n        /* \"#utility.yul\":1766:1798   */\n      slt\n        /* \"#utility.yul\":1763:1882   */\n      iszero\n      tag_135\n      jumpi\n        /* \"#utility.yul\":1801:1880   */\n      tag_136\n      tag_132\n      jump\t// in\n    tag_136:\n        /* \"#utility.yul\":1763:1882   */\n    tag_135:\n        /* \"#utility.yul\":1921:1922   */\n      0x00\n        /* \"#utility.yul\":1946:1996   */\n      tag_137\n        /* \"#utility.yul\":1988:1995   */\n      dup5\n        /* \"#utility.yul\":1979:1985   */\n      dup3\n        /* \"#utility.yul\":1968:1977   */\n      dup6\n        /* \"#utility.yul\":1964:1986   */\n      add\n        /* \"#utility.yul\":1946:1996   */\n      tag_111\n      jump\t// in\n    tag_137:\n        /* \"#utility.yul\":1936:1996   */\n      swap2\n      pop\n        /* \"#utility.yul\":1892:2006   */\n      pop\n        /* \"#utility.yul\":1690:2013   */\n      swap3\n      swap2\n      pop\n      pop\n      jump\t// out\n        /* \"#utility.yul\":2019:2528   */\n    tag_34:\n        /* \"#utility.yul\":2088:2094   */\n      0x00\n        /* \"#utility.yul\":2137:2139   */\n      0x20\n        /* \"#utility.yul\":2125:2134   */\n      dup3\n        /* \"#utility.yul\":2116:2123   */\n      dup5\n        /* \"#utility.yul\":2112:2135   */\n      sub\n        /* \"#utility.yul\":2108:2140   */\n      slt\n        /* \"#utility.yul\":2105:2224   */\n      iszero\n      tag_139\n      jumpi\n        /* \"#utility.yul\":2143:2222   */\n      tag_140\n      tag_132\n      jump\t// in\n    tag_140:\n        /* \"#utility.yul\":2105:2224   */\n    tag_139:\n        /* \"#utility.yul\":2291:2292   */\n      0x00\n        /* \"#utility.yul\":2280:2289   */\n      dup3\n        /* \"#utility.yul\":2276:2293   */\n      add\n        /* \"#utility.yul\":2263:2294   */\n      calldataload\n        /* \"#utility.yul\":2321:2339   */\n      0xffffffffffffffff\n        /* \"#utility.yul\":2313:2319   */\n      dup2\n        /* \"#utility.yul\":2310:2340   */\n      gt\n        /* \"#utility.yul\":2307:2424   */\n      iszero\n      tag_141\n      jumpi\n        /* \"#utility.yul\":2343:2422   */\n      tag_142\n      tag_143\n      jump\t// in\n    tag_142:\n        /* \"#utility.yul\":2307:2424   */\n    tag_141:\n        /* \"#utility.yul\":2448:2511   */\n      tag_144\n        /* \"#utility.yul\":2503:2510   */\n      dup5\n        /* \"#utility.yul\":2494:2500   */\n      dup3\n        /* \"#utility.yul\":2483:2492   */\n      dup6\n        /* \"#utility.yul\":2479:2501   */\n      add\n        /* \"#utility.yul\":2448:2511   */\n      tag_115\n      jump\t// in\n    tag_144:\n        /* \"#utility.yul\":2438:2511   */\n      swap2\n      pop\n        /* \"#utility.yul\":2234:2521   */\n      pop\n        /* \"#utility.yul\":2019:2528   */\n      swap3\n      swap2\n      pop\n      pop\n      jump\t// out\n        /* \"#utility.yul\":2534:2863   */\n    tag_55:\n        /* \"#utility.yul\":2593:2599   */\n      0x00\n        /* \"#utility.yul\":2642:2644   */\n      0x20\n        /* \"#utility.yul\":2630:2639   */\n      dup3\n        /* \"#utility.yul\":2621:2628   */\n      dup5\n        /* \"#utility.yul\":2617:2640   */\n      sub\n        /* \"#utility.yul\":2613:2645   */\n      slt\n        /* \"#utility.yul\":2610:2729   */\n      iszero\n      tag_146\n      jumpi\n        /* \"#utility.yul\":2648:2727   */\n      tag_147\n      tag_132\n      jump\t// in\n    tag_147:\n        /* \"#utility.yul\":2610:2729   */\n    tag_146:\n        /* \"#utility.yul\":2768:2769   */\n      0x00\n        /* \"#utility.yul\":2793:2846   */\n      tag_148\n        /* \"#utility.yul\":2838:2845   */\n      dup5\n        /* \"#utility.yul\":2829:2835   */\n      dup3\n        /* \"#utility.yul\":2818:2827   */\n      dup6\n        /* \"#utility.yul\":2814:2836   */\n      add\n        /* \"#utility.yul\":2793:2846   */\n      tag_121\n      jump\t// in\n    tag_148:\n        /* \"#utility.yul\":2783:2846   */\n      swap2\n      pop\n        /* \"#utility.yul\":2739:2856   */\n      pop\n        /* \"#utility.yul\":2534:2863   */\n      swap3\n      swap2\n      pop\n      pop\n      jump\t// out\n        /* \"#utility.yul\":2869:3194   */\n    tag_28:\n        /* \"#utility.yul\":2926:2932   */\n      0x00\n        /* \"#utility.yul\":2975:2977   */\n      0x20\n        /* \"#utility.yul\":2963:2972   */\n      dup3\n        /* \"#utility.yul\":2954:2961   */\n      dup5\n        /* \"#utility.yul\":2950:2973   */\n      sub\n        /* \"#utility.yul\":2946:2978   */\n      slt\n        /* \"#utility.yul\":2943:3062   */\n      iszero\n      tag_150\n      jumpi\n        /* \"#utility.yul\":2981:3060   */\n      tag_151\n      tag_132\n      jump\t// in\n    tag_151:\n        /* \"#utility.yul\":2943:3062   */\n    tag_150:\n        /* \"#utility.yul\":3101:3102   */\n      0x00\n        /* \"#utility.yul\":3126:3177   */\n      tag_152\n        /* \"#utility.yul\":3169:3176   */\n      dup5\n        /* \"#utility.yul\":3160:3166   */\n      dup3\n        /* \"#utility.yul\":3149:3158   */\n      dup6\n        /* \"#utility.yul\":3145:3167   */\n      add\n        /* \"#utility.yul\":3126:3177   */\n      tag_125\n      jump\t// in\n    tag_152:\n        /* \"#utility.yul\":3116:3177   */\n      swap2\n      pop\n        /* \"#utility.yul\":3072:3187   */\n      pop\n        /* \"#utility.yul\":2869:3194   */\n      swap3\n      swap2\n      pop\n      pop\n      jump\t// out\n        /* \"#utility.yul\":3200:3318   */\n    tag_153:\n        /* \"#utility.yul\":3287:3311   */\n      tag_155\n        /* \"#utility.yul\":3305:3310   */\n      dup2\n        /* \"#utility.yul\":3287:3311   */\n      tag_156\n      jump\t// in\n    tag_155:\n        /* \"#utility.yul\":3282:3285   */\n      dup3\n        /* \"#utility.yul\":3275:3312   */\n      mstore\n        /* \"#utility.yul\":3200:3318   */\n      pop\n      pop\n      jump\t// out\n        /* \"#utility.yul\":3324:3433   */\n    tag_157:\n        /* \"#utility.yul\":3405:3426   */\n      tag_159\n        /* \"#utility.yul\":3420:3425   */\n      dup2\n        /* \"#utility.yul\":3405:3426   */\n      tag_160\n      jump\t// in\n    tag_159:\n        /* \"#utility.yul\":3400:3403   */\n      dup3\n        /* \"#utility.yul\":3393:3427   */\n      mstore\n        /* \"#utility.yul\":3324:3433   */\n      pop\n      pop\n      jump\t// out\n        /* \"#utility.yul\":3439:3803   */\n    tag_161:\n        /* \"#utility.yul\":3527:3530   */\n      0x00\n        /* \"#utility.yul\":3555:3594   */\n      tag_163\n        /* \"#utility.yul\":3588:3593   */\n      dup3\n        /* \"#utility.yul\":3555:3594   */\n      tag_164\n      jump\t// in\n    tag_163:\n        /* \"#utility.yul\":3610:3681   */\n      tag_165\n        /* \"#utility.yul\":3674:3680   */\n      dup2\n        /* \"#utility.yul\":3669:3672   */\n      dup6\n        /* \"#utility.yul\":3610:3681   */\n      tag_166\n      jump\t// in\n    tag_165:\n        /* \"#utility.yul\":3603:3681   */\n      swap4\n      pop\n        /* \"#utility.yul\":3690:3742   */\n      tag_167\n        /* \"#utility.yul\":3735:3741   */\n      dup2\n        /* \"#utility.yul\":3730:3733   */\n      dup6\n        /* \"#utility.yul\":3723:3727   */\n      0x20\n        /* \"#utility.yul\":3716:3721   */\n      dup7\n        /* \"#utility.yul\":3712:3728   */\n      add\n        /* \"#utility.yul\":3690:3742   */\n      tag_168\n      jump\t// in\n    tag_167:\n        /* \"#utility.yul\":3767:3796   */\n      tag_169\n        /* \"#utility.yul\":3789:3795   */\n      dup2\n        /* \"#utility.yul\":3767:3796   */\n      tag_170\n      jump\t// in\n    tag_169:\n        /* \"#utility.yul\":3762:3765   */\n      dup5\n        /* \"#utility.yul\":3758:3797   */\n      add\n        /* \"#utility.yul\":3751:3797   */\n      swap2\n      pop\n        /* \"#utility.yul\":3531:3803   */\n      pop\n        /* \"#utility.yul\":3439:3803   */\n      swap3\n      swap2\n      pop\n      pop\n      jump\t// out\n        /* \"#utility.yul\":3809:3927   */\n    tag_171:\n        /* \"#utility.yul\":3896:3920   */\n      tag_173\n        /* \"#utility.yul\":3914:3919   */\n      dup2\n        /* \"#utility.yul\":3896:3920   */\n      tag_174\n      jump\t// in\n    tag_173:\n        /* \"#utility.yul\":3891:3894   */\n      dup3\n        /* \"#utility.yul\":3884:3921   */\n      mstore\n        /* \"#utility.yul\":3809:3927   */\n      pop\n      pop\n      jump\t// out\n        /* \"#utility.yul\":3933:4045   */\n    tag_175:\n        /* \"#utility.yul\":4016:4038   */\n      tag_177\n        /* \"#utility.yul\":4032:4037   */\n      dup2\n        /* \"#utility.yul\":4016:4038   */\n      tag_178\n      jump\t// in\n    tag_177:\n        /* \"#utility.yul\":4011:4014   */\n      dup3\n        /* \"#utility.yul\":4004:4039   */\n      mstore\n        /* \"#utility.yul\":3933:4045   */\n      pop\n      pop\n      jump\t// out\n        /* \"#utility.yul\":4051:4273   */\n    tag_64:\n        /* \"#utility.yul\":4144:4148   */\n      0x00\n        /* \"#utility.yul\":4182:4184   */\n      0x20\n        /* \"#utility.yul\":4171:4180   */\n      dup3\n        /* \"#utility.yul\":4167:4185   */\n      add\n        /* \"#utility.yul\":4159:4185   */\n      swap1\n      pop\n        /* \"#utility.yul\":4195:4266   */\n      tag_180\n        /* \"#utility.yul\":4263:4264   */\n      0x00\n        /* \"#utility.yul\":4252:4261   */\n      dup4\n        /* \"#utility.yul\":4248:4265   */\n      add\n        /* \"#utility.yul\":4239:4245   */\n      dup5\n        /* \"#utility.yul\":4195:4266   */\n      tag_153\n      jump\t// in\n    tag_180:\n        /* \"#utility.yul\":4051:4273   */\n      swap3\n      swap2\n      pop\n      pop\n      jump\t// out\n        /* \"#utility.yul\":4279:4489   */\n    tag_47:\n        /* \"#utility.yul\":4366:4370   */\n      0x00\n        /* \"#utility.yul\":4404:4406   */\n      0x20\n        /* \"#utility.yul\":4393:4402   */\n      dup3\n        /* \"#utility.yul\":4389:4407   */\n      add\n        /* \"#utility.yul\":4381:4407   */\n      swap1\n      pop\n        /* \"#utility.yul\":4417:4482   */\n      tag_182\n        /* \"#utility.yul\":4479:4480   */\n      0x00\n        /* \"#utility.yul\":4468:4477   */\n      dup4\n        /* \"#utility.yul\":4464:4481   */\n      add\n        /* \"#utility.yul\":4455:4461   */\n      dup5\n        /* \"#utility.yul\":4417:4482   */\n      tag_157\n      jump\t// in\n    tag_182:\n        /* \"#utility.yul\":4279:4489   */\n      swap3\n      swap2\n      pop\n      pop\n      jump\t// out\n        /* \"#utility.yul\":4495:4808   */\n    tag_43:\n        /* \"#utility.yul\":4608:4612   */\n      0x00\n        /* \"#utility.yul\":4646:4648   */\n      0x20\n        /* \"#utility.yul\":4635:4644   */\n      dup3\n        /* \"#utility.yul\":4631:4649   */\n      add\n        /* \"#utility.yul\":4623:4649   */\n      swap1\n      pop\n        /* \"#utility.yul\":4695:4704   */\n      dup2\n        /* \"#utility.yul\":4689:4693   */\n      dup2\n        /* \"#utility.yul\":4685:4705   */\n      sub\n        /* \"#utility.yul\":4681:4682   */\n      0x00\n        /* \"#utility.yul\":4670:4679   */\n      dup4\n        /* \"#utility.yul\":4666:4683   */\n      add\n        /* \"#utility.yul\":4659:4706   */\n      mstore\n        /* \"#utility.yul\":4723:4801   */\n      tag_184\n        /* \"#utility.yul\":4796:4800   */\n      dup2\n        /* \"#utility.yul\":4787:4793   */\n      dup5\n        /* \"#utility.yul\":4723:4801   */\n      tag_161\n      jump\t// in\n    tag_184:\n        /* \"#utility.yul\":4715:4801   */\n      swap1\n      pop\n        /* \"#utility.yul\":4495:4808   */\n      swap3\n      swap2\n      pop\n      pop\n      jump\t// out\n        /* \"#utility.yul\":4814:5036   */\n    tag_25:\n        /* \"#utility.yul\":4907:4911   */\n      0x00\n        /* \"#utility.yul\":4945:4947   */\n      0x20\n        /* \"#utility.yul\":4934:4943   */\n      dup3\n        /* \"#utility.yul\":4930:4948   */\n      add\n        /* \"#utility.yul\":4922:4948   */\n      swap1\n      pop\n        /* \"#utility.yul\":4958:5029   */\n      tag_186\n        /* \"#utility.yul\":5026:5027   */\n      0x00\n        /* \"#utility.yul\":5015:5024   */\n      dup4\n        /* \"#utility.yul\":5011:5028   */\n      add\n        /* \"#utility.yul\":5002:5008   */\n      dup5\n        /* \"#utility.yul\":4958:5029   */\n      tag_171\n      jump\t// in\n    tag_186:\n        /* \"#utility.yul\":4814:5036   */\n      swap3\n      swap2\n      pop\n      pop\n      jump\t// out\n        /* \"#utility.yul\":5042:5256   */\n    tag_21:\n        /* \"#utility.yul\":5131:5135   */\n      0x00\n        /* \"#utility.yul\":5169:5171   */\n      0x20\n        /* \"#utility.yul\":5158:5167   */\n      dup3\n        /* \"#utility.yul\":5154:5172   */\n      add\n        /* \"#utility.yul\":5146:5172   */\n      swap1\n      pop\n        /* \"#utility.yul\":5182:5249   */\n      tag_188\n        /* \"#utility.yul\":5246:5247   */\n      0x00\n        /* \"#utility.yul\":5235:5244   */\n      dup4\n        /* \"#utility.yul\":5231:5248   */\n      add\n        /* \"#utility.yul\":5222:5228   */\n      dup5\n        /* \"#utility.yul\":5182:5249   */\n      tag_175\n      jump\t// in\n    tag_188:\n        /* \"#utility.yul\":5042:5256   */\n      swap3\n      swap2\n      pop\n      pop\n      jump\t// out\n        /* \"#utility.yul\":5262:5391   */\n    tag_101:\n        /* \"#utility.yul\":5296:5302   */\n      0x00\n        /* \"#utility.yul\":5323:5343   */\n      tag_190\n      tag_191\n      jump\t// in\n    tag_190:\n        /* \"#utility.yul\":5313:5343   */\n      swap1\n      pop\n        /* \"#utility.yul\":5352:5385   */\n      tag_192\n        /* \"#utility.yul\":5380:5384   */\n      dup3\n        /* \"#utility.yul\":5372:5378   */\n      dup3\n        /* \"#utility.yul\":5352:5385   */\n      tag_193\n      jump\t// in\n    tag_192:\n        /* \"#utility.yul\":5262:5391   */\n      swap2\n      swap1\n      pop\n      jump\t// out\n        /* \"#utility.yul\":5397:5472   */\n    tag_191:\n        /* \"#utility.yul\":5430:5436   */\n      0x00\n        /* \"#utility.yul\":5463:5465   */\n      0x40\n        /* \"#utility.yul\":5457:5466   */\n      mload\n        /* \"#utility.yul\":5447:5466   */\n      swap1\n      pop\n        /* \"#utility.yul\":5397:5472   */\n      swap1\n      jump\t// out\n        /* \"#utility.yul\":5478:5786   */\n    tag_100:\n        /* \"#utility.yul\":5540:5544   */\n      0x00\n        /* \"#utility.yul\":5630:5648   */\n      0xffffffffffffffff\n        /* \"#utility.yul\":5622:5628   */\n      dup3\n        /* \"#utility.yul\":5619:5649   */\n      gt\n        /* \"#utility.yul\":5616:5672   */\n      iszero\n      tag_196\n      jumpi\n        /* \"#utility.yul\":5652:5670   */\n      tag_197\n      tag_198\n      jump\t// in\n    tag_197:\n        /* \"#utility.yul\":5616:5672   */\n    tag_196:\n        /* \"#utility.yul\":5690:5719   */\n      tag_199\n        /* \"#utility.yul\":5712:5718   */\n      dup3\n        /* \"#utility.yul\":5690:5719   */\n      tag_170\n      jump\t// in\n    tag_199:\n        /* \"#utility.yul\":5682:5719   */\n      swap1\n      pop\n        /* \"#utility.yul\":5774:5778   */\n      0x20\n        /* \"#utility.yul\":5768:5772   */\n      dup2\n        /* \"#utility.yul\":5764:5779   */\n      add\n        /* \"#utility.yul\":5756:5779   */\n      swap1\n      pop\n        /* \"#utility.yul\":5478:5786   */\n      swap2\n      swap1\n      pop\n      jump\t// out\n        /* \"#utility.yul\":5792:5891   */\n    tag_164:\n        /* \"#utility.yul\":5844:5850   */\n      0x00\n        /* \"#utility.yul\":5878:5883   */\n      dup2\n        /* \"#utility.yul\":5872:5884   */\n      mload\n        /* \"#utility.yul\":5862:5884   */\n      swap1\n      pop\n        /* \"#utility.yul\":5792:5891   */\n      swap2\n      swap1\n      pop\n      jump\t// out\n        /* \"#utility.yul\":5897:6066   */\n    tag_166:\n        /* \"#utility.yul\":5981:5992   */\n      0x00\n        /* \"#utility.yul\":6015:6021   */\n      dup3\n        /* \"#utility.yul\":6010:6013   */\n      dup3\n        /* \"#utility.yul\":6003:6022   */\n      mstore\n        /* \"#utility.yul\":6055:6059   */\n      0x20\n        /* \"#utility.yul\":6050:6053   */\n      dup3\n        /* \"#utility.yul\":6046:6060   */\n      add\n        /* \"#utility.yul\":6031:6060   */\n      swap1\n      pop\n        /* \"#utility.yul\":5897:6066   */\n      swap3\n      swap2\n      pop\n      pop\n      jump\t// out\n        /* \"#utility.yul\":6072:6168   */\n    tag_156:\n        /* \"#utility.yul\":6109:6116   */\n      0x00\n        /* \"#utility.yul\":6138:6162   */\n      tag_203\n        /* \"#utility.yul\":6156:6161   */\n      dup3\n        /* \"#utility.yul\":6138:6162   */\n      tag_204\n      jump\t// in\n    tag_203:\n        /* \"#utility.yul\":6127:6162   */\n      swap1\n      pop\n        /* \"#utility.yul\":6072:6168   */\n      swap2\n      swap1\n      pop\n      jump\t// out\n        /* \"#utility.yul\":6174:6264   */\n    tag_160:\n        /* \"#utility.yul\":6208:6215   */\n      0x00\n        /* \"#utility.yul\":6251:6256   */\n      dup2\n        /* \"#utility.yul\":6244:6257   */\n      iszero\n        /* \"#utility.yul\":6237:6258   */\n      iszero\n        /* \"#utility.yul\":6226:6258   */\n      swap1\n      pop\n        /* \"#utility.yul\":6174:6264   */\n      swap2\n      swap1\n      pop\n      jump\t// out\n        /* \"#utility.yul\":6270:6396   */\n    tag_204:\n        /* \"#utility.yul\":6307:6314   */\n      0x00\n        /* \"#utility.yul\":6347:6389   */\n      0xffffffffffffffffffffffffffffffffffffffff\n        /* \"#utility.yul\":6340:6345   */\n      dup3\n        /* \"#utility.yul\":6336:6390   */\n      and\n        /* \"#utility.yul\":6325:6390   */\n      swap1\n      pop\n        /* \"#utility.yul\":6270:6396   */\n      swap2\n      swap1\n      pop\n      jump\t// out\n        /* \"#utility.yul\":6402:6479   */\n    tag_174:\n        /* \"#utility.yul\":6439:6446   */\n      0x00\n        /* \"#utility.yul\":6468:6473   */\n      dup2\n        /* \"#utility.yul\":6457:6473   */\n      swap1\n      pop\n        /* \"#utility.yul\":6402:6479   */\n      swap2\n      swap1\n      pop\n      jump\t// out\n        /* \"#utility.yul\":6485:6571   */\n    tag_178:\n        /* \"#utility.yul\":6520:6527   */\n      0x00\n        /* \"#utility.yul\":6560:6564   */\n      0xff\n        /* \"#utility.yul\":6553:6558   */\n      dup3\n        /* \"#utility.yul\":6549:6565   */\n      and\n        /* \"#utility.yul\":6538:6565   */\n      swap1\n      pop\n        /* \"#utility.yul\":6485:6571   */\n      swap2\n      swap1\n      pop\n      jump\t// out\n        /* \"#utility.yul\":6577:6731   */\n    tag_106:\n        /* \"#utility.yul\":6661:6667   */\n      dup3\n        /* \"#utility.yul\":6656:6659   */\n      dup2\n        /* \"#utility.yul\":6651:6654   */\n      dup4\n        /* \"#utility.yul\":6638:6668   */\n      calldatacopy\n        /* \"#utility.yul\":6723:6724   */\n      0x00\n        /* \"#utility.yul\":6714:6720   */\n      dup4\n        /* \"#utility.yul\":6709:6712   */\n      dup4\n        /* \"#utility.yul\":6705:6721   */\n      add\n        /* \"#utility.yul\":6698:6725   */\n      mstore\n        /* \"#utility.yul\":6577:6731   */\n      pop\n      pop\n      pop\n      jump\t// out\n        /* \"#utility.yul\":6737:7044   */\n    tag_168:\n        /* \"#utility.yul\":6805:6806   */\n      0x00\n        /* \"#utility.yul\":6815:6928   */\n    tag_211:\n        /* \"#utility.yul\":6829:6835   */\n      dup4\n        /* \"#utility.yul\":6826:6827   */\n      dup2\n        /* \"#utility.yul\":6823:6836   */\n      lt\n        /* \"#utility.yul\":6815:6928   */\n      iszero\n      tag_213\n      jumpi\n        /* \"#utility.yul\":6914:6915   */\n      dup1\n        /* \"#utility.yul\":6909:6912   */\n      dup3\n        /* \"#utility.yul\":6905:6916   */\n      add\n        /* \"#utility.yul\":6899:6917   */\n      mload\n        /* \"#utility.yul\":6895:6896   */\n      dup2\n        /* \"#utility.yul\":6890:6893   */\n      dup5\n        /* \"#utility.yul\":6886:6897   */\n      add\n        /* \"#utility.yul\":6879:6918   */\n      mstore\n        /* \"#utility.yul\":6851:6853   */\n      0x20\n        /* \"#utility.yul\":6848:6849   */\n      dup2\n        /* \"#utility.yul\":6844:6854   */\n      add\n        /* \"#utility.yul\":6839:6854   */\n      swap1\n      pop\n        /* \"#utility.yul\":6815:6928   */\n      jump(tag_211)\n    tag_213:\n        /* \"#utility.yul\":6946:6952   */\n      dup4\n        /* \"#utility.yul\":6943:6944   */\n      dup2\n        /* \"#utility.yul\":6940:6953   */\n      gt\n        /* \"#utility.yul\":6937:7038   */\n      iszero\n      tag_214\n      jumpi\n        /* \"#utility.yul\":7026:7027   */\n      0x00\n        /* \"#utility.yul\":7017:7023   */\n      dup5\n        /* \"#utility.yul\":7012:7015   */\n      dup5\n        /* \"#utility.yul\":7008:7024   */\n      add\n        /* \"#utility.yul\":7001:7028   */\n      mstore\n        /* \"#utility.yul\":6937:7038   */\n    tag_214:\n        /* \"#utility.yul\":6786:7044   */\n      pop\n        /* \"#utility.yul\":6737:7044   */\n      pop\n      pop\n      pop\n      jump\t// out\n        /* \"#utility.yul\":7050:7217   */\n    tag_82:\n        /* \"#utility.yul\":7087:7090   */\n      0x00\n        /* \"#utility.yul\":7110:7132   */\n      tag_216\n        /* \"#utility.yul\":7126:7131   */\n      dup3\n        /* \"#utility.yul\":7110:7132   */\n      tag_178\n      jump\t// in\n    tag_216:\n        /* \"#utility.yul\":7101:7132   */\n      swap2\n      pop\n        /* \"#utility.yul\":7154:7158   */\n      0x00\n        /* \"#utility.yul\":7147:7152   */\n      dup3\n        /* \"#utility.yul\":7144:7159   */\n      eq\n        /* \"#utility.yul\":7141:7182   */\n      iszero\n      tag_217\n      jumpi\n        /* \"#utility.yul\":7162:7180   */\n      tag_218\n      tag_219\n      jump\t// in\n    tag_218:\n        /* \"#utility.yul\":7141:7182   */\n    tag_217:\n        /* \"#utility.yul\":7209:7210   */\n      0x01\n        /* \"#utility.yul\":7202:7207   */\n      dup3\n        /* \"#utility.yul\":7198:7211   */\n      sub\n        /* \"#utility.yul\":7191:7211   */\n      swap1\n      pop\n        /* \"#utility.yul\":7050:7217   */\n      swap2\n      swap1\n      pop\n      jump\t// out\n        /* \"#utility.yul\":7223:7543   */\n    tag_75:\n        /* \"#utility.yul\":7267:7273   */\n      0x00\n        /* \"#utility.yul\":7304:7305   */\n      0x02\n        /* \"#utility.yul\":7298:7302   */\n      dup3\n        /* \"#utility.yul\":7294:7306   */\n      div\n        /* \"#utility.yul\":7284:7306   */\n      swap1\n      pop\n        /* \"#utility.yul\":7351:7352   */\n      0x01\n        /* \"#utility.yul\":7345:7349   */\n      dup3\n        /* \"#utility.yul\":7341:7353   */\n      and\n        /* \"#utility.yul\":7372:7390   */\n      dup1\n        /* \"#utility.yul\":7362:7443   */\n      tag_221\n      jumpi\n        /* \"#utility.yul\":7428:7432   */\n      0x7f\n        /* \"#utility.yul\":7420:7426   */\n      dup3\n        /* \"#utility.yul\":7416:7433   */\n      and\n        /* \"#utility.yul\":7406:7433   */\n      swap2\n      pop\n        /* \"#utility.yul\":7362:7443   */\n    tag_221:\n        /* \"#utility.yul\":7490:7492   */\n      0x20\n        /* \"#utility.yul\":7482:7488   */\n      dup3\n        /* \"#utility.yul\":7479:7493   */\n      lt\n        /* \"#utility.yul\":7459:7477   */\n      dup2\n        /* \"#utility.yul\":7456:7494   */\n      eq\n        /* \"#utility.yul\":7453:7537   */\n      iszero\n      tag_222\n      jumpi\n        /* \"#utility.yul\":7509:7527   */\n      tag_223\n      tag_224\n      jump\t// in\n    tag_223:\n        /* \"#utility.yul\":7453:7537   */\n    tag_222:\n        /* \"#utility.yul\":7274:7543   */\n      pop\n        /* \"#utility.yul\":7223:7543   */\n      swap2\n      swap1\n      pop\n      jump\t// out\n        /* \"#utility.yul\":7549:7830   */\n    tag_193:\n        /* \"#utility.yul\":7632:7659   */\n      tag_226\n        /* \"#utility.yul\":7654:7658   */\n      dup3\n        /* \"#utility.yul\":7632:7659   */\n      tag_170\n      jump\t// in\n    tag_226:\n        /* \"#utility.yul\":7624:7630   */\n      dup2\n        /* \"#utility.yul\":7620:7660   */\n      add\n        /* \"#utility.yul\":7762:7768   */\n      dup2\n        /* \"#utility.yul\":7750:7760   */\n      dup2\n        /* \"#utility.yul\":7747:7769   */\n      lt\n        /* \"#utility.yul\":7726:7744   */\n      0xffffffffffffffff\n        /* \"#utility.yul\":7714:7724   */\n      dup3\n        /* \"#utility.yul\":7711:7745   */\n      gt\n        /* \"#utility.yul\":7708:7770   */\n      or\n        /* \"#utility.yul\":7705:7793   */\n      iszero\n      tag_227\n      jumpi\n        /* \"#utility.yul\":7773:7791   */\n      tag_228\n      tag_198\n      jump\t// in\n    tag_228:\n        /* \"#utility.yul\":7705:7793   */\n    tag_227:\n        /* \"#utility.yul\":7813:7823   */\n      dup1\n        /* \"#utility.yul\":7809:7811   */\n      0x40\n        /* \"#utility.yul\":7802:7824   */\n      mstore\n        /* \"#utility.yul\":7592:7830   */\n      pop\n        /* \"#utility.yul\":7549:7830   */\n      pop\n      pop\n      jump\t// out\n        /* \"#utility.yul\":7836:8003   */\n    tag_69:\n        /* \"#utility.yul\":7873:7876   */\n      0x00\n        /* \"#utility.yul\":7896:7918   */\n      tag_230\n        /* \"#utility.yul\":7912:7917   */\n      dup3\n        /* \"#utility.yul\":7896:7918   */\n      tag_178\n      jump\t// in\n    tag_230:\n        /* \"#utility.yul\":7887:7918   */\n      swap2\n      pop\n        /* \"#utility.yul\":7940:7944   */\n      0xff\n        /* \"#utility.yul\":7933:7938   */\n      dup3\n        /* \"#utility.yul\":7930:7945   */\n      eq\n        /* \"#utility.yul\":7927:7968   */\n      iszero\n      tag_231\n      jumpi\n        /* \"#utility.yul\":7948:7966   */\n      tag_232\n      tag_219\n      jump\t// in\n    tag_232:\n        /* \"#utility.yul\":7927:7968   */\n    tag_231:\n        /* \"#utility.yul\":7995:7996   */\n      0x01\n        /* \"#utility.yul\":7988:7993   */\n      dup3\n        /* \"#utility.yul\":7984:7997   */\n      add\n        /* \"#utility.yul\":7977:7997   */\n      swap1\n      pop\n        /* \"#utility.yul\":7836:8003   */\n      swap2\n      swap1\n      pop\n      jump\t// out\n        /* \"#utility.yul\":8009:8189   */\n    tag_219:\n        /* \"#utility.yul\":8057:8134   */\n      0x4e487b7100000000000000000000000000000000000000000000000000000000\n        /* \"#utility.yul\":8054:8055   */\n      0x00\n        /* \"#utility.yul\":8047:8135   */\n      mstore\n        /* \"#utility.yul\":8154:8158   */\n      0x11\n        /* \"#utility.yul\":8151:8152   */\n      0x04\n        /* \"#utility.yul\":8144:8159   */\n      mstore\n        /* \"#utility.yul\":8178:8182   */\n      0x24\n        /* \"#utility.yul\":8175:8176   */\n      0x00\n        /* \"#utility.yul\":8168:8183   */\n      revert\n        /* \"#utility.yul\":8195:8375   */\n    tag_224:\n        /* \"#utility.yul\":8243:8320   */\n      0x4e487b7100000000000000000000000000000000000000000000000000000000\n        /* \"#utility.yul\":8240:8241   */\n      0x00\n        /* \"#utility.yul\":8233:8321   */\n      mstore\n        /* \"#utility.yul\":8340:8344   */\n      0x22\n        /* \"#utility.yul\":8337:8338   */\n      0x04\n        /* \"#utility.yul\":8330:8345   */\n      mstore\n        /* \"#utility.yul\":8364:8368   */\n      0x24\n        /* \"#utility.yul\":8361:8362   */\n      0x00\n        /* \"#utility.yul\":8354:8369   */\n      revert\n        /* \"#utility.yul\":8381:8561   */\n    tag_198:\n        /* \"#utility.yul\":8429:8506   */\n      0x4e487b7100000000000000000000000000000000000000000000000000000000\n        /* \"#utility.yul\":8426:8427   */\n      0x00\n        /* \"#utility.yul\":8419:8507   */\n      mstore\n        /* \"#utility.yul\":8526:8530   */\n      0x41\n        /* \"#utility.yul\":8523:8524   */\n      0x04\n        /* \"#utility.yul\":8516:8531   */\n      mstore\n        /* \"#utility.yul\":8550:8554   */\n      0x24\n        /* \"#utility.yul\":8547:8548   */\n      0x00\n        /* \"#utility.yul\":8540:8555   */\n      revert\n        /* \"#utility.yul\":8567:8684   */\n    tag_119:\n        /* \"#utility.yul\":8676:8677   */\n      0x00\n        /* \"#utility.yul\":8673:8674   */\n      dup1\n        /* \"#utility.yul\":8666:8678   */\n      revert\n        /* \"#utility.yul\":8690:8807   */\n    tag_104:\n        /* \"#utility.yul\":8799:8800   */\n      0x00\n        /* \"#utility.yul\":8796:8797   */\n      dup1\n        /* \"#utility.yul\":8789:8801   */\n      revert\n        /* \"#utility.yul\":8813:8930   */\n    tag_143:\n        /* \"#utility.yul\":8922:8923   */\n      0x00\n        /* \"#utility.yul\":8919:8920   */\n      dup1\n        /* \"#utility.yul\":8912:8924   */\n      revert\n        /* \"#utility.yul\":8936:9053   */\n    tag_132:\n        /* \"#utility.yul\":9045:9046   */\n      0x00\n        /* \"#utility.yul\":9042:9043   */\n      dup1\n        /* \"#utility.yul\":9035:9047   */\n      revert\n        /* \"#utility.yul\":9059:9161   */\n    tag_170:\n        /* \"#utility.yul\":9100:9106   */\n      0x00\n        /* \"#utility.yul\":9151:9153   */\n      0x1f\n        /* \"#utility.yul\":9147:9154   */\n      not\n        /* \"#utility.yul\":9142:9144   */\n      0x1f\n        /* \"#utility.yul\":9135:9140   */\n      dup4\n        /* \"#utility.yul\":9131:9145   */\n      add\n        /* \"#utility.yul\":9127:9155   */\n      and\n        /* \"#utility.yul\":9117:9155   */\n      swap1\n      pop\n        /* \"#utility.yul\":9059:9161   */\n      swap2\n      swap1\n      pop\n      jump\t// out\n        /* \"#utility.yul\":9167:9289   */\n    tag_110:\n        /* \"#utility.yul\":9240:9264   */\n      tag_242\n        /* \"#utility.yul\":9258:9263   */\n      dup2\n        /* \"#utility.yul\":9240:9264   */\n      tag_156\n      jump\t// in\n    tag_242:\n        /* \"#utility.yul\":9233:9238   */\n      dup2\n        /* \"#utility.yul\":9230:9265   */\n      eq\n        /* \"#utility.yul\":9220:9283   */\n      tag_243\n      jumpi\n        /* \"#utility.yul\":9279:9280   */\n      0x00\n        /* \"#utility.yul\":9276:9277   */\n      dup1\n        /* \"#utility.yul\":9269:9281   */\n      revert\n        /* \"#utility.yul\":9220:9283   */\n    tag_243:\n        /* \"#utility.yul\":9167:9289   */\n      pop\n      jump\t// out\n        /* \"#utility.yul\":9295:9411   */\n    tag_114:\n        /* \"#utility.yul\":9365:9386   */\n      tag_245\n        /* \"#utility.yul\":9380:9385   */\n      dup2\n        /* \"#utility.yul\":9365:9386   */\n      tag_160\n      jump\t// in\n    tag_245:\n        /* \"#utility.yul\":9358:9363   */\n      dup2\n        /* \"#utility.yul\":9355:9387   */\n      eq\n        /* \"#utility.yul\":9345:9405   */\n      tag_246\n      jumpi\n        /* \"#utility.yul\":9401:9402   */\n      0x00\n        /* \"#utility.yul\":9398:9399   */\n      dup1\n        /* \"#utility.yul\":9391:9403   */\n      revert\n        /* \"#utility.yul\":9345:9405   */\n    tag_246:\n        /* \"#utility.yul\":9295:9411   */\n      pop\n      jump\t// out\n        /* \"#utility.yul\":9417:9539   */\n    tag_124:\n        /* \"#utility.yul\":9490:9514   */\n      tag_248\n        /* \"#utility.yul\":9508:9513   */\n      dup2\n        /* \"#utility.yul\":9490:9514   */\n      tag_174\n      jump\t// in\n    tag_248:\n        /* \"#utility.yul\":9483:9488   */\n      dup2\n        /* \"#utility.yul\":9480:9515   */\n      eq\n        /* \"#utility.yul\":9470:9533   */\n      tag_249\n      jumpi\n        /* \"#utility.yul\":9529:9530   */\n      0x00\n        /* \"#utility.yul\":9526:9527   */\n      dup1\n        /* \"#utility.yul\":9519:9531   */\n      revert\n        /* \"#utility.yul\":9470:9533   */\n    tag_249:\n        /* \"#utility.yul\":9417:9539   */\n      pop\n      jump\t// out\n        /* \"#utility.yul\":9545:9663   */\n    tag_128:\n        /* \"#utility.yul\":9616:9638   */\n      tag_251\n        /* \"#utility.yul\":9632:9637   */\n      dup2\n        /* \"#utility.yul\":9616:9638   */\n      tag_178\n      jump\t// in\n    tag_251:\n        /* \"#utility.yul\":9609:9614   */\n      dup2\n        /* \"#utility.yul\":9606:9639   */\n      eq\n        /* \"#utility.yul\":9596:9657   */\n      tag_252\n      jumpi\n        /* \"#utility.yul\":9653:9654   */\n      0x00\n        /* \"#utility.yul\":9650:9651   */\n      dup1\n        /* \"#utility.yul\":9643:9655   */\n      revert\n        /* \"#utility.yul\":9596:9657   */\n    tag_252:\n        /* \"#utility.yul\":9545:9663   */\n      pop\n      jump\t// out\n\n    auxdata: 0xa2646970667358221220343b397b334f7f70deddfdebef746a7285be9d43412590856a1e4c08cbe6030664736f6c63430008070033\n}\n",
				"bytecode": {
					"linkReferences": {},
					"object": "608060405234801561001057600080fd5b50610ac6806100206000396000f3fe608060405234801561001057600080fd5b50600436106100cf5760003560e01c8063c261fa361161008c578063df1f327511610066578063df1f3275146101c8578063e492fd84146101d2578063eb1b30d9146101ee578063fcf814c31461020a576100cf565b8063c261fa361461016e578063cf4fee101461018c578063d412f490146101aa576100cf565b806312c0dfc3146100d457806315502612146100f25780634f25eada146101105780636a61a59c1461012c5780638218056814610136578063a8a7b89514610152575b600080fd5b6100dc610228565b6040516100e991906107a7565b60405180910390f35b6100fa610239565b604051610107919061078c565b60405180910390f35b61012a60048036038101906101259190610692565b61027a565b005b610134610297565b005b610150600480360381019061014b919061061c565b6102d0565b005b61016c600480360381019061016791906105c2565b6102ea565b005b61017661032e565b604051610183919061076a565b60405180910390f35b6101946103bc565b6040516101a1919061074f565b60405180910390f35b6101b26103cf565b6040516101bf919061078c565b60405180910390f35b6101d06103d5565b005b6101ec60048036038101906101e79190610665565b61040e565b005b610208600480360381019061020391906105ef565b610418565b005b610212610435565b60405161021f9190610734565b60405180910390f35b60018054906101000a900460ff1681565b6000600160029054906101000a900473ffffffffffffffffffffffffffffffffffffffff1673ffffffffffffffffffffffffffffffffffffffff1631905090565b806001806101000a81548160ff021916908360ff16021790555050565b60018081819054906101000a900460ff16809291906102b590610958565b91906101000a81548160ff021916908360ff16021790555050565b80600290805190602001906102e692919061045b565b5050565b80600160026101000a81548173ffffffffffffffffffffffffffffffffffffffff021916908373ffffffffffffffffffffffffffffffffffffffff16021790555050565b6002805461033b906108f5565b80601f0160208091040260200160405190810160405280929190818152602001828054610367906108f5565b80156103b45780601f10610389576101008083540402835291602001916103b4565b820191906000526020600020905b81548152906001019060200180831161039757829003601f168201915b505050505081565b600160009054906101000a900460ff1681565b60005481565b60018081819054906101000a900460ff16809291906103f3906108cb565b91906101000a81548160ff021916908360ff16021790555050565b8060008190555050565b80600160006101000a81548160ff02191690831515021790555050565b600160029054906101000a900473ffffffffffffffffffffffffffffffffffffffff1681565b828054610467906108f5565b90600052602060002090601f01602090048101928261048957600085556104d0565b82601f106104a257805160ff19168380011785556104d0565b828001600101855582156104d0579182015b828111156104cf5782518255916020019190600101906104b4565b5b5090506104dd91906104e1565b5090565b5b808211156104fa5760008160009055506001016104e2565b5090565b600061051161050c846107e7565b6107c2565b90508281526020810184848401111561052d5761052c610a14565b5b610538848285610889565b509392505050565b60008135905061054f81610a34565b92915050565b60008135905061056481610a4b565b92915050565b600082601f83011261057f5761057e610a0f565b5b813561058f8482602086016104fe565b91505092915050565b6000813590506105a781610a62565b92915050565b6000813590506105bc81610a79565b92915050565b6000602082840312156105d8576105d7610a1e565b5b60006105e684828501610540565b91505092915050565b60006020828403121561060557610604610a1e565b5b600061061384828501610555565b91505092915050565b60006020828403121561063257610631610a1e565b5b600082013567ffffffffffffffff8111156106505761064f610a19565b5b61065c8482850161056a565b91505092915050565b60006020828403121561067b5761067a610a1e565b5b600061068984828501610598565b91505092915050565b6000602082840312156106a8576106a7610a1e565b5b60006106b6848285016105ad565b91505092915050565b6106c881610834565b82525050565b6106d781610846565b82525050565b60006106e882610818565b6106f28185610823565b9350610702818560208601610898565b61070b81610a23565b840191505092915050565b61071f81610872565b82525050565b61072e8161087c565b82525050565b600060208201905061074960008301846106bf565b92915050565b600060208201905061076460008301846106ce565b92915050565b6000602082019050818103600083015261078481846106dd565b905092915050565b60006020820190506107a16000830184610716565b92915050565b60006020820190506107bc6000830184610725565b92915050565b60006107cc6107dd565b90506107d88282610927565b919050565b6000604051905090565b600067ffffffffffffffff821115610802576108016109e0565b5b61080b82610a23565b9050602081019050919050565b600081519050919050565b600082825260208201905092915050565b600061083f82610852565b9050919050565b60008115159050919050565b600073ffffffffffffffffffffffffffffffffffffffff82169050919050565b6000819050919050565b600060ff82169050919050565b82818337600083830152505050565b60005b838110156108b657808201518184015260208101905061089b565b838111156108c5576000848401525b50505050565b60006108d68261087c565b915060008214156108ea576108e9610982565b5b600182039050919050565b6000600282049050600182168061090d57607f821691505b60208210811415610921576109206109b1565b5b50919050565b61093082610a23565b810181811067ffffffffffffffff8211171561094f5761094e6109e0565b5b80604052505050565b60006109638261087c565b915060ff82141561097757610976610982565b5b600182019050919050565b7f4e487b7100000000000000000000000000000000000000000000000000000000600052601160045260246000fd5b7f4e487b7100000000000000000000000000000000000000000000000000000000600052602260045260246000fd5b7f4e487b7100000000000000000000000000000000000000000000000000000000600052604160045260246000fd5b600080fd5b600080fd5b600080fd5b600080fd5b6000601f19601f8301169050919050565b610a3d81610834565b8114610a4857600080fd5b50565b610a5481610846565b8114610a5f57600080fd5b50565b610a6b81610872565b8114610a7657600080fd5b50565b610a828161087c565b8114610a8d57600080fd5b5056fea2646970667358221220343b397b334f7f70deddfdebef746a7285be9d43412590856a1e4c08cbe6030664736f6c63430008070033",
					"opcodes": "PUSH1 0x80 PUSH1 0x40 MSTORE CALLVALUE DUP1 ISZERO PUSH2 0x10 JUMPI PUSH1 0x0 DUP1 REVERT JUMPDEST POP PUSH2 0xAC6 DUP1 PUSH2 0x20 PUSH1 0x0 CODECOPY PUSH1 0x0 RETURN INVALID PUSH1 0x80 PUSH1 0x40 MSTORE CALLVALUE DUP1 ISZERO PUSH2 0x10 JUMPI PUSH1 0x0 DUP1 REVERT JUMPDEST POP PUSH1 0x4 CALLDATASIZE LT PUSH2 0xCF JUMPI PUSH1 0x0 CALLDATALOAD PUSH1 0xE0 SHR DUP1 PUSH4 0xC261FA36 GT PUSH2 0x8C JUMPI DUP1 PUSH4 0xDF1F3275 GT PUSH2 0x66 JUMPI DUP1 PUSH4 0xDF1F3275 EQ PUSH2 0x1C8 JUMPI DUP1 PUSH4 0xE492FD84 EQ PUSH2 0x1D2 JUMPI DUP1 PUSH4 0xEB1B30D9 EQ PUSH2 0x1EE JUMPI DUP1 PUSH4 0xFCF814C3 EQ PUSH2 0x20A JUMPI PUSH2 0xCF JUMP JUMPDEST DUP1 PUSH4 0xC261FA36 EQ PUSH2 0x16E JUMPI DUP1 PUSH4 0xCF4FEE10 EQ PUSH2 0x18C JUMPI DUP1 PUSH4 0xD412F490 EQ PUSH2 0x1AA JUMPI PUSH2 0xCF JUMP JUMPDEST DUP1 PUSH4 0x12C0DFC3 EQ PUSH2 0xD4 JUMPI DUP1 PUSH4 0x15502612 EQ PUSH2 0xF2 JUMPI DUP1 PUSH4 0x4F25EADA EQ PUSH2 0x110 JUMPI DUP1 PUSH4 0x6A61A59C EQ PUSH2 0x12C JUMPI DUP1 PUSH4 0x82180568 EQ PUSH2 0x136 JUMPI DUP1 PUSH4 0xA8A7B895 EQ PUSH2 0x152 JUMPI JUMPDEST PUSH1 0x0 DUP1 REVERT JUMPDEST PUSH2 0xDC PUSH2 0x228 JUMP JUMPDEST PUSH1 0x40 MLOAD PUSH2 0xE9 SWAP2 SWAP1 PUSH2 0x7A7 JUMP JUMPDEST PUSH1 0x40 MLOAD DUP1 SWAP2 SUB SWAP1 RETURN JUMPDEST PUSH2 0xFA PUSH2 0x239 JUMP JUMPDEST PUSH1 0x40 MLOAD PUSH2 0x107 SWAP2 SWAP1 PUSH2 0x78C JUMP JUMPDEST PUSH1 0x40 MLOAD DUP1 SWAP2 SUB SWAP1 RETURN JUMPDEST PUSH2 0x12A PUSH1 0x4 DUP1 CALLDATASIZE SUB DUP2 ADD SWAP1 PUSH2 0x125 SWAP2 SWAP1 PUSH2 0x692 JUMP JUMPDEST PUSH2 0x27A JUMP JUMPDEST STOP JUMPDEST PUSH2 0x134 PUSH2 0x297 JUMP JUMPDEST STOP JUMPDEST PUSH2 0x150 PUSH1 0x4 DUP1 CALLDATASIZE SUB DUP2 ADD SWAP1 PUSH2 0x14B SWAP2 SWAP1 PUSH2 0x61C JUMP JUMPDEST PUSH2 0x2D0 JUMP JUMPDEST STOP JUMPDEST PUSH2 0x16C PUSH1 0x4 DUP1 CALLDATASIZE SUB DUP2 ADD SWAP1 PUSH2 0x167 SWAP2 SWAP1 PUSH2 0x5C2 JUMP JUMPDEST PUSH2 0x2EA JUMP JUMPDEST STOP JUMPDEST PUSH2 0x176 PUSH2 0x32E JUMP JUMPDEST PUSH1 0x40 MLOAD PUSH2 0x183 SWAP2 SWAP1 PUSH2 0x76A JUMP JUMPDEST PUSH1 0x40 MLOAD DUP1 SWAP2 SUB SWAP1 RETURN JUMPDEST PUSH2 0x194 PUSH2 0x3BC JUMP JUMPDEST PUSH1 0x40 MLOAD PUSH2 0x1A1 SWAP2 SWAP1 PUSH2 0x74F JUMP JUMPDEST PUSH1 0x40 MLOAD DUP1 SWAP2 SUB SWAP1 RETURN JUMPDEST PUSH2 0x1B2 PUSH2 0x3CF JUMP JUMPDEST PUSH1 0x40 MLOAD PUSH2 0x1BF SWAP2 SWAP1 PUSH2 0x78C JUMP JUMPDEST PUSH1 0x40 MLOAD DUP1 SWAP2 SUB SWAP1 RETURN JUMPDEST PUSH2 0x1D0 PUSH2 0x3D5 JUMP JUMPDEST STOP JUMPDEST PUSH2 0x1EC PUSH1 0x4 DUP1 CALLDATASIZE SUB DUP2 ADD SWAP1 PUSH2 0x1E7 SWAP2 SWAP1 PUSH2 0x665 JUMP JUMPDEST PUSH2 0x40E JUMP JUMPDEST STOP JUMPDEST PUSH2 0x208 PUSH1 0x4 DUP1 CALLDATASIZE SUB DUP2 ADD SWAP1 PUSH2 0x203 SWAP2 SWAP1 PUSH2 0x5EF JUMP JUMPDEST PUSH2 0x418 JUMP JUMPDEST STOP JUMPDEST PUSH2 0x212 PUSH2 0x435 JUMP JUMPDEST PUSH1 0x40 MLOAD PUSH2 0x21F SWAP2 SWAP1 PUSH2 0x734 JUMP JUMPDEST PUSH1 0x40 MLOAD DUP1 SWAP2 SUB SWAP1 RETURN JUMPDEST PUSH1 0x1 DUP1 SLOAD SWAP1 PUSH2 0x100 EXP SWAP1 DIV PUSH1 0xFF AND DUP2 JUMP JUMPDEST PUSH1 0x0 PUSH1 0x1 PUSH1 0x2 SWAP1 SLOAD SWAP1 PUSH2 0x100 EXP SWAP1 DIV PUSH20 0xFFFFFFFFFFFFFFFFFFFFFFFFFFFFFFFFFFFFFFFF AND PUSH20 0xFFFFFFFFFFFFFFFFFFFFFFFFFFFFFFFFFFFFFFFF AND BALANCE SWAP1 POP SWAP1 JUMP JUMPDEST DUP1 PUSH1 0x1 DUP1 PUSH2 0x100 EXP DUP2 SLOAD DUP2 PUSH1 0xFF MUL NOT AND SWAP1 DUP4 PUSH1 0xFF AND MUL OR SWAP1 SSTORE POP POP JUMP JUMPDEST PUSH1 0x1 DUP1 DUP2 DUP2 SWAP1 SLOAD SWAP1 PUSH2 0x100 EXP SWAP1 DIV PUSH1 0xFF AND DUP1 SWAP3 SWAP2 SWAP1 PUSH2 0x2B5 SWAP1 PUSH2 0x958 JUMP JUMPDEST SWAP2 SWAP1 PUSH2 0x100 EXP DUP2 SLOAD DUP2 PUSH1 0xFF MUL NOT AND SWAP1 DUP4 PUSH1 0xFF AND MUL OR SWAP1 SSTORE POP POP JUMP JUMPDEST DUP1 PUSH1 0x2 SWAP1 DUP1 MLOAD SWAP1 PUSH1 0x20 ADD SWAP1 PUSH2 0x2E6 SWAP3 SWAP2 SWAP1 PUSH2 0x45B JUMP JUMPDEST POP POP JUMP JUMPDEST DUP1 PUSH1 0x1 PUSH1 0x2 PUSH2 0x100 EXP DUP2 SLOAD DUP2 PUSH20 0xFFFFFFFFFFFFFFFFFFFFFFFFFFFFFFFFFFFFFFFF MUL NOT AND SWAP1 DUP4 PUSH20 0xFFFFFFFFFFFFFFFFFFFFFFFFFFFFFFFFFFFFFFFF AND MUL OR SWAP1 SSTORE POP POP JUMP JUMPDEST PUSH1 0x2 DUP1 SLOAD PUSH2 0x33B SWAP1 PUSH2 0x8F5 JUMP JUMPDEST DUP1 PUSH1 0x1F ADD PUSH1 0x20 DUP1 SWAP2 DIV MUL PUSH1 0x20 ADD PUSH1 0x40 MLOAD SWAP1 DUP2 ADD PUSH1 0x40 MSTORE DUP1 SWAP3 SWAP2 SWAP1 DUP2 DUP2 MSTORE PUSH1 0x20 ADD DUP3 DUP1 SLOAD PUSH2 0x367 SWAP1 PUSH2 0x8F5 JUMP JUMPDEST DUP1 ISZERO PUSH2 0x3B4 JUMPI DUP1 PUSH1 0x1F LT PUSH2 0x389 JUMPI PUSH2 0x100 DUP1 DUP4 SLOAD DIV MUL DUP4 MSTORE SWAP2 PUSH1 0x20 ADD SWAP2 PUSH2 0x3B4 JUMP JUMPDEST DUP3 ADD SWAP2 SWAP1 PUSH1 0x0 MSTORE PUSH1 0x20 PUSH1 0x0 KECCAK256 SWAP1 JUMPDEST DUP2 SLOAD DUP2 MSTORE SWAP1 PUSH1 0x1 ADD SWAP1 PUSH1 0x20 ADD DUP1 DUP4 GT PUSH2 0x397 JUMPI DUP3 SWAP1 SUB PUSH1 0x1F AND DUP3 ADD SWAP2 JUMPDEST POP POP POP POP POP DUP2 JUMP JUMPDEST PUSH1 0x1 PUSH1 0x0 SWAP1 SLOAD SWAP1 PUSH2 0x100 EXP SWAP1 DIV PUSH1 0xFF AND DUP2 JUMP JUMPDEST PUSH1 0x0 SLOAD DUP2 JUMP JUMPDEST PUSH1 0x1 DUP1 DUP2 DUP2 SWAP1 SLOAD SWAP1 PUSH2 0x100 EXP SWAP1 DIV PUSH1 0xFF AND DUP1 SWAP3 SWAP2 SWAP1 PUSH2 0x3F3 SWAP1 PUSH2 0x8CB JUMP JUMPDEST SWAP2 SWAP1 PUSH2 0x100 EXP DUP2 SLOAD DUP2 PUSH1 0xFF MUL NOT AND SWAP1 DUP4 PUSH1 0xFF AND MUL OR SWAP1 SSTORE POP POP JUMP JUMPDEST DUP1 PUSH1 0x0 DUP2 SWAP1 SSTORE POP POP JUMP JUMPDEST DUP1 PUSH1 0x1 PUSH1 0x0 PUSH2 0x100 EXP DUP2 SLOAD DUP2 PUSH1 0xFF MUL NOT AND SWAP1 DUP4 ISZERO ISZERO MUL OR SWAP1 SSTORE POP POP JUMP JUMPDEST PUSH1 0x1 PUSH1 0x2 SWAP1 SLOAD SWAP1 PUSH2 0x100 EXP SWAP1 DIV PUSH20 0xFFFFFFFFFFFFFFFFFFFFFFFFFFFFFFFFFFFFFFFF AND DUP2 JUMP JUMPDEST DUP3 DUP1 SLOAD PUSH2 0x467 SWAP1 PUSH2 0x8F5 JUMP JUMPDEST SWAP1 PUSH1 0x0 MSTORE PUSH1 0x20 PUSH1 0x0 KECCAK256 SWAP1 PUSH1 0x1F ADD PUSH1 0x20 SWAP1 DIV DUP2 ADD SWAP3 DUP3 PUSH2 0x489 JUMPI PUSH1 0x0 DUP6 SSTORE PUSH2 0x4D0 JUMP JUMPDEST DUP3 PUSH1 0x1F LT PUSH2 0x4A2 JUMPI DUP1 MLOAD PUSH1 0xFF NOT AND DUP4 DUP1 ADD OR DUP6 SSTORE PUSH2 0x4D0 JUMP JUMPDEST DUP3 DUP1 ADD PUSH1 0x1 ADD DUP6 SSTORE DUP3 ISZERO PUSH2 0x4D0 JUMPI SWAP2 DUP3 ADD JUMPDEST DUP3 DUP2 GT ISZERO PUSH2 0x4CF JUMPI DUP3 MLOAD DUP3 SSTORE SWAP2 PUSH1 0x20 ADD SWAP2 SWAP1 PUSH1 0x1 ADD SWAP1 PUSH2 0x4B4 JUMP JUMPDEST JUMPDEST POP SWAP1 POP PUSH2 0x4DD SWAP2 SWAP1 PUSH2 0x4E1 JUMP JUMPDEST POP SWAP1 JUMP JUMPDEST JUMPDEST DUP1 DUP3 GT ISZERO PUSH2 0x4FA JUMPI PUSH1 0x0 DUP2 PUSH1 0x0 SWAP1 SSTORE POP PUSH1 0x1 ADD PUSH2 0x4E2 JUMP JUMPDEST POP SWAP1 JUMP JUMPDEST PUSH1 0x0 PUSH2 0x511 PUSH2 0x50C DUP5 PUSH2 0x7E7 JUMP JUMPDEST PUSH2 0x7C2 JUMP JUMPDEST SWAP1 POP DUP3 DUP2 MSTORE PUSH1 0x20 DUP2 ADD DUP5 DUP5 DUP5 ADD GT ISZERO PUSH2 0x52D JUMPI PUSH2 0x52C PUSH2 0xA14 JUMP JUMPDEST JUMPDEST PUSH2 0x538 DUP5 DUP3 DUP6 PUSH2 0x889 JUMP JUMPDEST POP SWAP4 SWAP3 POP POP POP JUMP JUMPDEST PUSH1 0x0 DUP2 CALLDATALOAD SWAP1 POP PUSH2 0x54F DUP2 PUSH2 0xA34 JUMP JUMPDEST SWAP3 SWAP2 POP POP JUMP JUMPDEST PUSH1 0x0 DUP2 CALLDATALOAD SWAP1 POP PUSH2 0x564 DUP2 PUSH2 0xA4B JUMP JUMPDEST SWAP3 SWAP2 POP POP JUMP JUMPDEST PUSH1 0x0 DUP3 PUSH1 0x1F DUP4 ADD SLT PUSH2 0x57F JUMPI PUSH2 0x57E PUSH2 0xA0F JUMP JUMPDEST JUMPDEST DUP2 CALLDATALOAD PUSH2 0x58F DUP5 DUP3 PUSH1 0x20 DUP7 ADD PUSH2 0x4FE JUMP JUMPDEST SWAP2 POP POP SWAP3 SWAP2 POP POP JUMP JUMPDEST PUSH1 0x0 DUP2 CALLDATALOAD SWAP1 POP PUSH2 0x5A7 DUP2 PUSH2 0xA62 JUMP JUMPDEST SWAP3 SWAP2 POP POP JUMP JUMPDEST PUSH1 0x0 DUP2 CALLDATALOAD SWAP1 POP PUSH2 0x5BC DUP2 PUSH2 0xA79 JUMP JUMPDEST SWAP3 SWAP2 POP POP JUMP JUMPDEST PUSH1 0x0 PUSH1 0x20 DUP3 DUP5 SUB SLT ISZERO PUSH2 0x5D8 JUMPI PUSH2 0x5D7 PUSH2 0xA1E JUMP JUMPDEST JUMPDEST PUSH1 0x0 PUSH2 0x5E6 DUP5 DUP3 DUP6 ADD PUSH2 0x540 JUMP JUMPDEST SWAP2 POP POP SWAP3 SWAP2 POP POP JUMP JUMPDEST PUSH1 0x0 PUSH1 0x20 DUP3 DUP5 SUB SLT ISZERO PUSH2 0x605 JUMPI PUSH2 0x604 PUSH2 0xA1E JUMP JUMPDEST JUMPDEST PUSH1 0x0 PUSH2 0x613 DUP5 DUP3 DUP6 ADD PUSH2 0x555 JUMP JUMPDEST SWAP2 POP POP SWAP3 SWAP2 POP POP JUMP JUMPDEST PUSH1 0x0 PUSH1 0x20 DUP3 DUP5 SUB SLT ISZERO PUSH2 0x632 JUMPI PUSH2 0x631 PUSH2 0xA1E JUMP JUMPDEST JUMPDEST PUSH1 0x0 DUP3 ADD CALLDATALOAD PUSH8 0xFFFFFFFFFFFFFFFF DUP2 GT ISZERO PUSH2 0x650 JUMPI PUSH2 0x64F PUSH2 0xA19 JUMP JUMPDEST JUMPDEST PUSH2 0x65C DUP5 DUP3 DUP6 ADD PUSH2 0x56A JUMP JUMPDEST SWAP2 POP POP SWAP3 SWAP2 POP POP JUMP JUMPDEST PUSH1 0x0 PUSH1 0x20 DUP3 DUP5 SUB SLT ISZERO PUSH2 0x67B JUMPI PUSH2 0x67A PUSH2 0xA1E JUMP JUMPDEST JUMPDEST PUSH1 0x0 PUSH2 0x689 DUP5 DUP3 DUP6 ADD PUSH2 0x598 JUMP JUMPDEST SWAP2 POP POP SWAP3 SWAP2 POP POP JUMP JUMPDEST PUSH1 0x0 PUSH1 0x20 DUP3 DUP5 SUB SLT ISZERO PUSH2 0x6A8 JUMPI PUSH2 0x6A7 PUSH2 0xA1E JUMP JUMPDEST JUMPDEST PUSH1 0x0 PUSH2 0x6B6 DUP5 DUP3 DUP6 ADD PUSH2 0x5AD JUMP JUMPDEST SWAP2 POP POP SWAP3 SWAP2 POP POP JUMP JUMPDEST PUSH2 0x6C8 DUP2 PUSH2 0x834 JUMP JUMPDEST DUP3 MSTORE POP POP JUMP JUMPDEST PUSH2 0x6D7 DUP2 PUSH2 0x846 JUMP JUMPDEST DUP3 MSTORE POP POP JUMP JUMPDEST PUSH1 0x0 PUSH2 0x6E8 DUP3 PUSH2 0x818 JUMP JUMPDEST PUSH2 0x6F2 DUP2 DUP6 PUSH2 0x823 JUMP JUMPDEST SWAP4 POP PUSH2 0x702 DUP2 DUP6 PUSH1 0x20 DUP7 ADD PUSH2 0x898 JUMP JUMPDEST PUSH2 0x70B DUP2 PUSH2 0xA23 JUMP JUMPDEST DUP5 ADD SWAP2 POP POP SWAP3 SWAP2 POP POP JUMP JUMPDEST PUSH2 0x71F DUP2 PUSH2 0x872 JUMP JUMPDEST DUP3 MSTORE POP POP JUMP JUMPDEST PUSH2 0x72E DUP2 PUSH2 0x87C JUMP JUMPDEST DUP3 MSTORE POP POP JUMP JUMPDEST PUSH1 0x0 PUSH1 0x20 DUP3 ADD SWAP1 POP PUSH2 0x749 PUSH1 0x0 DUP4 ADD DUP5 PUSH2 0x6BF JUMP JUMPDEST SWAP3 SWAP2 POP POP JUMP JUMPDEST PUSH1 0x0 PUSH1 0x20 DUP3 ADD SWAP1 POP PUSH2 0x764 PUSH1 0x0 DUP4 ADD DUP5 PUSH2 0x6CE JUMP JUMPDEST SWAP3 SWAP2 POP POP JUMP JUMPDEST PUSH1 0x0 PUSH1 0x20 DUP3 ADD SWAP1 POP DUP2 DUP2 SUB PUSH1 0x0 DUP4 ADD MSTORE PUSH2 0x784 DUP2 DUP5 PUSH2 0x6DD JUMP JUMPDEST SWAP1 POP SWAP3 SWAP2 POP POP JUMP JUMPDEST PUSH1 0x0 PUSH1 0x20 DUP3 ADD SWAP1 POP PUSH2 0x7A1 PUSH1 0x0 DUP4 ADD DUP5 PUSH2 0x716 JUMP JUMPDEST SWAP3 SWAP2 POP POP JUMP JUMPDEST PUSH1 0x0 PUSH1 0x20 DUP3 ADD SWAP1 POP PUSH2 0x7BC PUSH1 0x0 DUP4 ADD DUP5 PUSH2 0x725 JUMP JUMPDEST SWAP3 SWAP2 POP POP JUMP JUMPDEST PUSH1 0x0 PUSH2 0x7CC PUSH2 0x7DD JUMP JUMPDEST SWAP1 POP PUSH2 0x7D8 DUP3 DUP3 PUSH2 0x927 JUMP JUMPDEST SWAP2 SWAP1 POP JUMP JUMPDEST PUSH1 0x0 PUSH1 0x40 MLOAD SWAP1 POP SWAP1 JUMP JUMPDEST PUSH1 0x0 PUSH8 0xFFFFFFFFFFFFFFFF DUP3 GT ISZERO PUSH2 0x802 JUMPI PUSH2 0x801 PUSH2 0x9E0 JUMP JUMPDEST JUMPDEST PUSH2 0x80B DUP3 PUSH2 0xA23 JUMP JUMPDEST SWAP1 POP PUSH1 0x20 DUP2 ADD SWAP1 POP SWAP2 SWAP1 POP JUMP JUMPDEST PUSH1 0x0 DUP2 MLOAD SWAP1 POP SWAP2 SWAP1 POP JUMP JUMPDEST PUSH1 0x0 DUP3 DUP3 MSTORE PUSH1 0x20 DUP3 ADD SWAP1 POP SWAP3 SWAP2 POP POP JUMP JUMPDEST PUSH1 0x0 PUSH2 0x83F DUP3 PUSH2 0x852 JUMP JUMPDEST SWAP1 POP SWAP2 SWAP1 POP JUMP JUMPDEST PUSH1 0x0 DUP2 ISZERO ISZERO SWAP1 POP SWAP2 SWAP1 POP JUMP JUMPDEST PUSH1 0x0 PUSH20 0xFFFFFFFFFFFFFFFFFFFFFFFFFFFFFFFFFFFFFFFF DUP3 AND SWAP1 POP SWAP2 SWAP1 POP JUMP JUMPDEST PUSH1 0x0 DUP2 SWAP1 POP SWAP2 SWAP1 POP JUMP JUMPDEST PUSH1 0x0 PUSH1 0xFF DUP3 AND SWAP1 POP SWAP2 SWAP1 POP JUMP JUMPDEST DUP3 DUP2 DUP4 CALLDATACOPY PUSH1 0x0 DUP4 DUP4 ADD MSTORE POP POP POP JUMP JUMPDEST PUSH1 0x0 JUMPDEST DUP4 DUP2 LT ISZERO PUSH2 0x8B6 JUMPI DUP1 DUP3 ADD MLOAD DUP2 DUP5 ADD MSTORE PUSH1 0x20 DUP2 ADD SWAP1 POP PUSH2 0x89B JUMP JUMPDEST DUP4 DUP2 GT ISZERO PUSH2 0x8C5 JUMPI PUSH1 0x0 DUP5 DUP5 ADD MSTORE JUMPDEST POP POP POP POP JUMP JUMPDEST PUSH1 0x0 PUSH2 0x8D6 DUP3 PUSH2 0x87C JUMP JUMPDEST SWAP2 POP PUSH1 0x0 DUP3 EQ ISZERO PUSH2 0x8EA JUMPI PUSH2 0x8E9 PUSH2 0x982 JUMP JUMPDEST JUMPDEST PUSH1 0x1 DUP3 SUB SWAP1 POP SWAP2 SWAP1 POP JUMP JUMPDEST PUSH1 0x0 PUSH1 0x2 DUP3 DIV SWAP1 POP PUSH1 0x1 DUP3 AND DUP1 PUSH2 0x90D JUMPI PUSH1 0x7F DUP3 AND SWAP2 POP JUMPDEST PUSH1 0x20 DUP3 LT DUP2 EQ ISZERO PUSH2 0x921 JUMPI PUSH2 0x920 PUSH2 0x9B1 JUMP JUMPDEST JUMPDEST POP SWAP2 SWAP1 POP JUMP JUMPDEST PUSH2 0x930 DUP3 PUSH2 0xA23 JUMP JUMPDEST DUP2 ADD DUP2 DUP2 LT PUSH8 0xFFFFFFFFFFFFFFFF DUP3 GT OR ISZERO PUSH2 0x94F JUMPI PUSH2 0x94E PUSH2 0x9E0 JUMP JUMPDEST JUMPDEST DUP1 PUSH1 0x40 MSTORE POP POP POP JUMP JUMPDEST PUSH1 0x0 PUSH2 0x963 DUP3 PUSH2 0x87C JUMP JUMPDEST SWAP2 POP PUSH1 0xFF DUP3 EQ ISZERO PUSH2 0x977 JUMPI PUSH2 0x976 PUSH2 0x982 JUMP JUMPDEST JUMPDEST PUSH1 0x1 DUP3 ADD SWAP1 POP SWAP2 SWAP1 POP JUMP JUMPDEST PUSH32 0x4E487B7100000000000000000000000000000000000000000000000000000000 PUSH1 0x0 MSTORE PUSH1 0x11 PUSH1 0x4 MSTORE PUSH1 0x24 PUSH1 0x0 REVERT JUMPDEST PUSH32 0x4E487B7100000000000000000000000000000000000000000000000000000000 PUSH1 0x0 MSTORE PUSH1 0x22 PUSH1 0x4 MSTORE PUSH1 0x24 PUSH1 0x0 REVERT JUMPDEST PUSH32 0x4E487B7100000000000000000000000000000000000000000000000000000000 PUSH1 0x0 MSTORE PUSH1 0x41 PUSH1 0x4 MSTORE PUSH1 0x24 PUSH1 0x0 REVERT JUMPDEST PUSH1 0x0 DUP1 REVERT JUMPDEST PUSH1 0x0 DUP1 REVERT JUMPDEST PUSH1 0x0 DUP1 REVERT JUMPDEST PUSH1 0x0 DUP1 REVERT JUMPDEST PUSH1 0x0 PUSH1 0x1F NOT PUSH1 0x1F DUP4 ADD AND SWAP1 POP SWAP2 SWAP1 POP JUMP JUMPDEST PUSH2 0xA3D DUP2 PUSH2 0x834 JUMP JUMPDEST DUP2 EQ PUSH2 0xA48 JUMPI PUSH1 0x0 DUP1 REVERT JUMPDEST POP JUMP JUMPDEST PUSH2 0xA54 DUP2 PUSH2 0x846 JUMP JUMPDEST DUP2 EQ PUSH2 0xA5F JUMPI PUSH1 0x0 DUP1 REVERT JUMPDEST POP JUMP JUMPDEST PUSH2 0xA6B DUP2 PUSH2 0x872 JUMP JUMPDEST DUP2 EQ PUSH2 0xA76 JUMPI PUSH1 0x0 DUP1 REVERT JUMPDEST POP JUMP JUMPDEST PUSH2 0xA82 DUP2 PUSH2 0x87C JUMP JUMPDEST DUP2 EQ PUSH2 0xA8D JUMPI PUSH1 0x0 DUP1 REVERT JUMPDEST POP JUMP INVALID LOG2 PUSH5 0x6970667358 0x22 SLT KECCAK256 CALLVALUE EXTCODESIZE CODECOPY PUSH28 0x334F7F70DEDDFDEBEF746A7285BE9D43412590856A1E4C08CBE60306 PUSH5 0x736F6C6343 STOP ADDMOD SMOD STOP CALLER "
				},
				"gasEstimates": {
					"creation": {
						"codeDepositCost": "551600",
						"executionCost": "587",
						"totalCost": "552187"
					},
					"external": {
						"decrementMytUint8()": "26824",
						"getBalanceOfAddress()": "5152",
						"incremenMytUint8()": "26869",
						"myaddress()": "2652",
						"mybool()": "2516",
						"mystring()": "infinite",
						"myuint()": "2496",
						"myuint8()": "2519",
						"setMyAddress(address)": "24883",
						"setMyBool(bool)": "24745",
						"setMyString(string)": "infinite",
						"setMyUint(uint256)": "22564",
						"setMyUint8(uint8)": "24774"
					}
				},
				"methodIdentifiers": {
					"decrementMytUint8()": "df1f3275",
					"getBalanceOfAddress()": "15502612",
					"incremenMytUint8()": "6a61a59c",
					"myaddress()": "fcf814c3",
					"mybool()": "cf4fee10",
					"mystring()": "c261fa36",
					"myuint()": "d412f490",
					"myuint8()": "12c0dfc3",
					"setMyAddress(address)": "a8a7b895",
					"setMyBool(bool)": "eb1b30d9",
					"setMyString(string)": "82180568",
					"setMyUint(uint256)": "e492fd84",
					"setMyUint8(uint8)": "4f25eada"
				}
			},
			"storageLayout": {
				"storage": [
					{
						"astId": 3,
						"contract": "variables/variables.sol:Variables",
						"label": "myuint",
						"offset": 0,
						"slot": "0",
						"type": "t_uint256"
					},
					{
						"astId": 5,
						"contract": "variables/variables.sol:Variables",
						"label": "mybool",
						"offset": 0,
						"slot": "1",
						"type": "t_bool"
					},
					{
						"astId": 7,
						"contract": "variables/variables.sol:Variables",
						"label": "myuint8",
						"offset": 1,
						"slot": "1",
						"type": "t_uint8"
					},
					{
						"astId": 9,
						"contract": "variables/variables.sol:Variables",
						"label": "myaddress",
						"offset": 2,
						"slot": "1",
						"type": "t_address"
					},
					{
						"astId": 11,
						"contract": "variables/variables.sol:Variables",
						"label": "mystring",
						"offset": 0,
						"slot": "2",
						"type": "t_string_storage"
					}
				],
				"types": {
					"t_address": {
						"encoding": "inplace",
						"label": "address",
						"numberOfBytes": "20"
					},
					"t_bool": {
						"encoding": "inplace",
						"label": "bool",
						"numberOfBytes": "1"
					},
					"t_string_storage": {
						"encoding": "bytes",
						"label": "string",
						"numberOfBytes": "32"
					},
					"t_uint256": {
						"encoding": "inplace",
						"label": "uint256",
						"numberOfBytes": "32"
					},
					"t_uint8": {
						"encoding": "inplace",
						"label": "uint8",
						"numberOfBytes": "1"
					}
				}
			},
			"userdoc": {
				"kind": "user",
				"methods": {},
				"version": 1
			}
		}
	}
}