{
	"variables/variables.sol": {
		"Variables": {
			"abi": [
				{
					"inputs": [],
					"name": "decrementMytUint8",
					"outputs": [],
					"stateMutability": "nonpayable",
					"type": "function"
				},
				{
					"inputs": [],
					"name": "incremenMytUint8",
					"outputs": [],
					"stateMutability": "nonpayable",
					"type": "function"
				},
				{
					"inputs": [],
					"name": "myaddress",
					"outputs": [
						{
							"internalType": "address",
							"name": "",
							"type": "address"
						}
					],
					"stateMutability": "view",
					"type": "function"
				},
				{
					"inputs": [],
					"name": "mybool",
					"outputs": [
						{
							"internalType": "bool",
							"name": "",
							"type": "bool"
						}
					],
					"stateMutability": "view",
					"type": "function"
				},
				{
					"inputs": [],
					"name": "myuint",
					"outputs": [
						{
							"internalType": "uint256",
							"name": "",
							"type": "uint256"
						}
					],
					"stateMutability": "view",
					"type": "function"
				},
				{
					"inputs": [],
					"name": "myuint8",
					"outputs": [
						{
							"internalType": "uint8",
							"name": "",
							"type": "uint8"
						}
					],
					"stateMutability": "view",
					"type": "function"
				},
				{
					"inputs": [
						{
							"internalType": "bool",
							"name": "_val",
							"type": "bool"
						}
					],
					"name": "setMyBool",
					"outputs": [],
					"stateMutability": "nonpayable",
					"type": "function"
				},
				{
					"inputs": [
						{
							"internalType": "uint256",
							"name": "_val",
							"type": "uint256"
						}
					],
					"name": "setMyUint",
					"outputs": [],
					"stateMutability": "nonpayable",
					"type": "function"
				},
				{
					"inputs": [
						{
							"internalType": "uint8",
							"name": "_val",
							"type": "uint8"
						}
					],
					"name": "setMyUint8",
					"outputs": [],
					"stateMutability": "nonpayable",
					"type": "function"
				}
			],
			"devdoc": {
				"kind": "dev",
				"methods": {},
				"version": 1
			},
			"evm": {
				"assembly": "    /* \"variables/variables.sol\":92:775  contract Variables {\r... */\n  mstore(0x40, 0x80)\n  callvalue\n  dup1\n  iszero\n  tag_1\n  jumpi\n  0x00\n  dup1\n  revert\ntag_1:\n  pop\n  dataSize(sub_0)\n  dup1\n  dataOffset(sub_0)\n  0x00\n  codecopy\n  0x00\n  return\nstop\n\nsub_0: assembly {\n        /* \"variables/variables.sol\":92:775  contract Variables {\r... */\n      mstore(0x40, 0x80)\n      callvalue\n      dup1\n      iszero\n      tag_1\n      jumpi\n      0x00\n      dup1\n      revert\n    tag_1:\n      pop\n      jumpi(tag_2, lt(calldatasize, 0x04))\n      shr(0xe0, calldataload(0x00))\n      dup1\n      0xd412f490\n      gt\n      tag_12\n      jumpi\n      dup1\n      0xd412f490\n      eq\n      tag_7\n      jumpi\n      dup1\n      0xdf1f3275\n      eq\n      tag_8\n      jumpi\n      dup1\n      0xe492fd84\n      eq\n      tag_9\n      jumpi\n      dup1\n      0xeb1b30d9\n      eq\n      tag_10\n      jumpi\n      dup1\n      0xfcf814c3\n      eq\n      tag_11\n      jumpi\n      jump(tag_2)\n    tag_12:\n      dup1\n      0x12c0dfc3\n      eq\n      tag_3\n      jumpi\n      dup1\n      0x4f25eada\n      eq\n      tag_4\n      jumpi\n      dup1\n      0x6a61a59c\n      eq\n      tag_5\n      jumpi\n      dup1\n      0xcf4fee10\n      eq\n      tag_6\n      jumpi\n    tag_2:\n      0x00\n      dup1\n      revert\n        /* \"variables/variables.sol\":318:338  uint8 public myuint8 */\n    tag_3:\n      tag_13\n      tag_14\n      jump\t// in\n    tag_13:\n      mload(0x40)\n      tag_15\n      swap2\n      swap1\n      tag_16\n      jump\t// in\n    tag_15:\n      mload(0x40)\n      dup1\n      swap2\n      sub\n      swap1\n      return\n        /* \"variables/variables.sol\":557:629  function setMyUint8(uint8 _val) public {\r... */\n    tag_4:\n      tag_17\n      0x04\n      dup1\n      calldatasize\n      sub\n      dup2\n      add\n      swap1\n      tag_18\n      swap2\n      swap1\n      tag_19\n      jump\t// in\n    tag_18:\n      tag_20\n      jump\t// in\n    tag_17:\n      stop\n        /* \"variables/variables.sol\":637:700  function incremenMytUint8() public {\r... */\n    tag_5:\n      tag_21\n      tag_22\n      jump\t// in\n    tag_21:\n      stop\n        /* \"variables/variables.sol\":226:244  bool public mybool */\n    tag_6:\n      tag_23\n      tag_24\n      jump\t// in\n    tag_23:\n      mload(0x40)\n      tag_25\n      swap2\n      swap1\n      tag_26\n      jump\t// in\n    tag_25:\n      mload(0x40)\n      dup1\n      swap2\n      sub\n      swap1\n      return\n        /* \"variables/variables.sol\":196:217  uint256 public myuint */\n    tag_7:\n      tag_27\n      tag_28\n      jump\t// in\n    tag_27:\n      mload(0x40)\n      tag_29\n      swap2\n      swap1\n      tag_30\n      jump\t// in\n    tag_29:\n      mload(0x40)\n      dup1\n      swap2\n      sub\n      swap1\n      return\n        /* \"variables/variables.sol\":708:772  function decrementMytUint8() public {\r... */\n    tag_8:\n      tag_31\n      tag_32\n      jump\t// in\n    tag_31:\n      stop\n        /* \"variables/variables.sol\":403:472  function setMyUint(uint _val) public {\r... */\n    tag_9:\n      tag_33\n      0x04\n      dup1\n      calldatasize\n      sub\n      dup2\n      add\n      swap1\n      tag_34\n      swap2\n      swap1\n      tag_35\n      jump\t// in\n    tag_34:\n      tag_36\n      jump\t// in\n    tag_33:\n      stop\n        /* \"variables/variables.sol\":480:549  function setMyBool(bool _val) public {\r... */\n    tag_10:\n      tag_37\n      0x04\n      dup1\n      calldatasize\n      sub\n      dup2\n      add\n      swap1\n      tag_38\n      swap2\n      swap1\n      tag_39\n      jump\t// in\n    tag_38:\n      tag_40\n      jump\t// in\n    tag_37:\n      stop\n        /* \"variables/variables.sol\":364:388  address public myaddress */\n    tag_11:\n      tag_41\n      tag_42\n      jump\t// in\n    tag_41:\n      mload(0x40)\n      tag_43\n      swap2\n      swap1\n      tag_44\n      jump\t// in\n    tag_43:\n      mload(0x40)\n      dup1\n      swap2\n      sub\n      swap1\n      return\n        /* \"variables/variables.sol\":318:338  uint8 public myuint8 */\n    tag_14:\n      0x01\n      dup1\n      sload\n      swap1\n      0x0100\n      exp\n      swap1\n      div\n      0xff\n      and\n      dup2\n      jump\t// out\n        /* \"variables/variables.sol\":557:629  function setMyUint8(uint8 _val) public {\r... */\n    tag_20:\n        /* \"variables/variables.sol\":617:621  _val */\n      dup1\n        /* \"variables/variables.sol\":607:614  myuint8 */\n      0x01\n      dup1\n        /* \"variables/variables.sol\":607:621  myuint8 = _val */\n      0x0100\n      exp\n      dup2\n      sload\n      dup2\n      0xff\n      mul\n      not\n      and\n      swap1\n      dup4\n      0xff\n      and\n      mul\n      or\n      swap1\n      sstore\n      pop\n        /* \"variables/variables.sol\":557:629  function setMyUint8(uint8 _val) public {\r... */\n      pop\n      jump\t// out\n        /* \"variables/variables.sol\":637:700  function incremenMytUint8() public {\r... */\n    tag_22:\n        /* \"variables/variables.sol\":683:690  myuint8 */\n      0x01\n      dup1\n        /* \"variables/variables.sol\":683:692  myuint8++ */\n      dup2\n      dup2\n      swap1\n      sload\n      swap1\n      0x0100\n      exp\n      swap1\n      div\n      0xff\n      and\n      dup1\n      swap3\n      swap2\n      swap1\n      tag_47\n      swap1\n      tag_48\n      jump\t// in\n    tag_47:\n      swap2\n      swap1\n      0x0100\n      exp\n      dup2\n      sload\n      dup2\n      0xff\n      mul\n      not\n      and\n      swap1\n      dup4\n      0xff\n      and\n      mul\n      or\n      swap1\n      sstore\n      pop\n      pop\n        /* \"variables/variables.sol\":637:700  function incremenMytUint8() public {\r... */\n      jump\t// out\n        /* \"variables/variables.sol\":226:244  bool public mybool */\n    tag_24:\n      0x01\n      0x00\n      swap1\n      sload\n      swap1\n      0x0100\n      exp\n      swap1\n      div\n      0xff\n      and\n      dup2\n      jump\t// out\n        /* \"variables/variables.sol\":196:217  uint256 public myuint */\n    tag_28:\n      sload(0x00)\n      dup2\n      jump\t// out\n        /* \"variables/variables.sol\":708:772  function decrementMytUint8() public {\r... */\n    tag_32:\n        /* \"variables/variables.sol\":755:762  myuint8 */\n      0x01\n      dup1\n        /* \"variables/variables.sol\":755:764  myuint8-- */\n      dup2\n      dup2\n      swap1\n      sload\n      swap1\n      0x0100\n      exp\n      swap1\n      div\n      0xff\n      and\n      dup1\n      swap3\n      swap2\n      swap1\n      tag_50\n      swap1\n      tag_51\n      jump\t// in\n    tag_50:\n      swap2\n      swap1\n      0x0100\n      exp\n      dup2\n      sload\n      dup2\n      0xff\n      mul\n      not\n      and\n      swap1\n      dup4\n      0xff\n      and\n      mul\n      or\n      swap1\n      sstore\n      pop\n      pop\n        /* \"variables/variables.sol\":708:772  function decrementMytUint8() public {\r... */\n      jump\t// out\n        /* \"variables/variables.sol\":403:472  function setMyUint(uint _val) public {\r... */\n    tag_36:\n        /* \"variables/variables.sol\":460:464  _val */\n      dup1\n        /* \"variables/variables.sol\":451:457  myuint */\n      0x00\n        /* \"variables/variables.sol\":451:464  myuint = _val */\n      dup2\n      swap1\n      sstore\n      pop\n        /* \"variables/variables.sol\":403:472  function setMyUint(uint _val) public {\r... */\n      pop\n      jump\t// out\n        /* \"variables/variables.sol\":480:549  function setMyBool(bool _val) public {\r... */\n    tag_40:\n        /* \"variables/variables.sol\":537:541  _val */\n      dup1\n        /* \"variables/variables.sol\":528:534  mybool */\n      0x01\n      0x00\n        /* \"variables/variables.sol\":528:541  mybool = _val */\n      0x0100\n      exp\n      dup2\n      sload\n      dup2\n      0xff\n      mul\n      not\n      and\n      swap1\n      dup4\n      iszero\n      iszero\n      mul\n      or\n      swap1\n      sstore\n      pop\n        /* \"variables/variables.sol\":480:549  function setMyBool(bool _val) public {\r... */\n      pop\n      jump\t// out\n        /* \"variables/variables.sol\":364:388  address public myaddress */\n    tag_42:\n      0x01\n      0x02\n      swap1\n      sload\n      swap1\n      0x0100\n      exp\n      swap1\n      div\n      0xffffffffffffffffffffffffffffffffffffffff\n      and\n      dup2\n      jump\t// out\n        /* \"#utility.yul\":7:140   */\n    tag_55:\n        /* \"#utility.yul\":50:55   */\n      0x00\n        /* \"#utility.yul\":88:94   */\n      dup2\n        /* \"#utility.yul\":75:95   */\n      calldataload\n        /* \"#utility.yul\":66:95   */\n      swap1\n      pop\n        /* \"#utility.yul\":104:134   */\n      tag_57\n        /* \"#utility.yul\":128:133   */\n      dup2\n        /* \"#utility.yul\":104:134   */\n      tag_58\n      jump\t// in\n    tag_57:\n        /* \"#utility.yul\":7:140   */\n      swap3\n      swap2\n      pop\n      pop\n      jump\t// out\n        /* \"#utility.yul\":146:285   */\n    tag_59:\n        /* \"#utility.yul\":192:197   */\n      0x00\n        /* \"#utility.yul\":230:236   */\n      dup2\n        /* \"#utility.yul\":217:237   */\n      calldataload\n        /* \"#utility.yul\":208:237   */\n      swap1\n      pop\n        /* \"#utility.yul\":246:279   */\n      tag_61\n        /* \"#utility.yul\":273:278   */\n      dup2\n        /* \"#utility.yul\":246:279   */\n      tag_62\n      jump\t// in\n    tag_61:\n        /* \"#utility.yul\":146:285   */\n      swap3\n      swap2\n      pop\n      pop\n      jump\t// out\n        /* \"#utility.yul\":291:426   */\n    tag_63:\n        /* \"#utility.yul\":335:340   */\n      0x00\n        /* \"#utility.yul\":373:379   */\n      dup2\n        /* \"#utility.yul\":360:380   */\n      calldataload\n        /* \"#utility.yul\":351:380   */\n      swap1\n      pop\n        /* \"#utility.yul\":389:420   */\n      tag_65\n        /* \"#utility.yul\":414:419   */\n      dup2\n        /* \"#utility.yul\":389:420   */\n      tag_66\n      jump\t// in\n    tag_65:\n        /* \"#utility.yul\":291:426   */\n      swap3\n      swap2\n      pop\n      pop\n      jump\t// out\n        /* \"#utility.yul\":432:755   */\n    tag_39:\n        /* \"#utility.yul\":488:494   */\n      0x00\n        /* \"#utility.yul\":537:539   */\n      0x20\n        /* \"#utility.yul\":525:534   */\n      dup3\n        /* \"#utility.yul\":516:523   */\n      dup5\n        /* \"#utility.yul\":512:535   */\n      sub\n        /* \"#utility.yul\":508:540   */\n      slt\n        /* \"#utility.yul\":505:624   */\n      iszero\n      tag_68\n      jumpi\n        /* \"#utility.yul\":543:622   */\n      tag_69\n      tag_70\n      jump\t// in\n    tag_69:\n        /* \"#utility.yul\":505:624   */\n    tag_68:\n        /* \"#utility.yul\":663:664   */\n      0x00\n        /* \"#utility.yul\":688:738   */\n      tag_71\n        /* \"#utility.yul\":730:737   */\n      dup5\n        /* \"#utility.yul\":721:727   */\n      dup3\n        /* \"#utility.yul\":710:719   */\n      dup6\n        /* \"#utility.yul\":706:728   */\n      add\n        /* \"#utility.yul\":688:738   */\n      tag_55\n      jump\t// in\n    tag_71:\n        /* \"#utility.yul\":678:738   */\n      swap2\n      pop\n        /* \"#utility.yul\":634:748   */\n      pop\n        /* \"#utility.yul\":432:755   */\n      swap3\n      swap2\n      pop\n      pop\n      jump\t// out\n        /* \"#utility.yul\":761:1090   */\n    tag_35:\n        /* \"#utility.yul\":820:826   */\n      0x00\n        /* \"#utility.yul\":869:871   */\n      0x20\n        /* \"#utility.yul\":857:866   */\n      dup3\n        /* \"#utility.yul\":848:855   */\n      dup5\n        /* \"#utility.yul\":844:867   */\n      sub\n        /* \"#utility.yul\":840:872   */\n      slt\n        /* \"#utility.yul\":837:956   */\n      iszero\n      tag_73\n      jumpi\n        /* \"#utility.yul\":875:954   */\n      tag_74\n      tag_70\n      jump\t// in\n    tag_74:\n        /* \"#utility.yul\":837:956   */\n    tag_73:\n        /* \"#utility.yul\":995:996   */\n      0x00\n        /* \"#utility.yul\":1020:1073   */\n      tag_75\n        /* \"#utility.yul\":1065:1072   */\n      dup5\n        /* \"#utility.yul\":1056:1062   */\n      dup3\n        /* \"#utility.yul\":1045:1054   */\n      dup6\n        /* \"#utility.yul\":1041:1063   */\n      add\n        /* \"#utility.yul\":1020:1073   */\n      tag_59\n      jump\t// in\n    tag_75:\n        /* \"#utility.yul\":1010:1073   */\n      swap2\n      pop\n        /* \"#utility.yul\":966:1083   */\n      pop\n        /* \"#utility.yul\":761:1090   */\n      swap3\n      swap2\n      pop\n      pop\n      jump\t// out\n        /* \"#utility.yul\":1096:1421   */\n    tag_19:\n        /* \"#utility.yul\":1153:1159   */\n      0x00\n        /* \"#utility.yul\":1202:1204   */\n      0x20\n        /* \"#utility.yul\":1190:1199   */\n      dup3\n        /* \"#utility.yul\":1181:1188   */\n      dup5\n        /* \"#utility.yul\":1177:1200   */\n      sub\n        /* \"#utility.yul\":1173:1205   */\n      slt\n        /* \"#utility.yul\":1170:1289   */\n      iszero\n      tag_77\n      jumpi\n        /* \"#utility.yul\":1208:1287   */\n      tag_78\n      tag_70\n      jump\t// in\n    tag_78:\n        /* \"#utility.yul\":1170:1289   */\n    tag_77:\n        /* \"#utility.yul\":1328:1329   */\n      0x00\n        /* \"#utility.yul\":1353:1404   */\n      tag_79\n        /* \"#utility.yul\":1396:1403   */\n      dup5\n        /* \"#utility.yul\":1387:1393   */\n      dup3\n        /* \"#utility.yul\":1376:1385   */\n      dup6\n        /* \"#utility.yul\":1372:1394   */\n      add\n        /* \"#utility.yul\":1353:1404   */\n      tag_63\n      jump\t// in\n    tag_79:\n        /* \"#utility.yul\":1343:1404   */\n      swap2\n      pop\n        /* \"#utility.yul\":1299:1414   */\n      pop\n        /* \"#utility.yul\":1096:1421   */\n      swap3\n      swap2\n      pop\n      pop\n      jump\t// out\n        /* \"#utility.yul\":1427:1545   */\n    tag_80:\n        /* \"#utility.yul\":1514:1538   */\n      tag_82\n        /* \"#utility.yul\":1532:1537   */\n      dup2\n        /* \"#utility.yul\":1514:1538   */\n      tag_83\n      jump\t// in\n    tag_82:\n        /* \"#utility.yul\":1509:1512   */\n      dup3\n        /* \"#utility.yul\":1502:1539   */\n      mstore\n        /* \"#utility.yul\":1427:1545   */\n      pop\n      pop\n      jump\t// out\n        /* \"#utility.yul\":1551:1660   */\n    tag_84:\n        /* \"#utility.yul\":1632:1653   */\n      tag_86\n        /* \"#utility.yul\":1647:1652   */\n      dup2\n        /* \"#utility.yul\":1632:1653   */\n      tag_87\n      jump\t// in\n    tag_86:\n        /* \"#utility.yul\":1627:1630   */\n      dup3\n        /* \"#utility.yul\":1620:1654   */\n      mstore\n        /* \"#utility.yul\":1551:1660   */\n      pop\n      pop\n      jump\t// out\n        /* \"#utility.yul\":1666:1784   */\n    tag_88:\n        /* \"#utility.yul\":1753:1777   */\n      tag_90\n        /* \"#utility.yul\":1771:1776   */\n      dup2\n        /* \"#utility.yul\":1753:1777   */\n      tag_91\n      jump\t// in\n    tag_90:\n        /* \"#utility.yul\":1748:1751   */\n      dup3\n        /* \"#utility.yul\":1741:1778   */\n      mstore\n        /* \"#utility.yul\":1666:1784   */\n      pop\n      pop\n      jump\t// out\n        /* \"#utility.yul\":1790:1902   */\n    tag_92:\n        /* \"#utility.yul\":1873:1895   */\n      tag_94\n        /* \"#utility.yul\":1889:1894   */\n      dup2\n        /* \"#utility.yul\":1873:1895   */\n      tag_95\n      jump\t// in\n    tag_94:\n        /* \"#utility.yul\":1868:1871   */\n      dup3\n        /* \"#utility.yul\":1861:1896   */\n      mstore\n        /* \"#utility.yul\":1790:1902   */\n      pop\n      pop\n      jump\t// out\n        /* \"#utility.yul\":1908:2130   */\n    tag_44:\n        /* \"#utility.yul\":2001:2005   */\n      0x00\n        /* \"#utility.yul\":2039:2041   */\n      0x20\n        /* \"#utility.yul\":2028:2037   */\n      dup3\n        /* \"#utility.yul\":2024:2042   */\n      add\n        /* \"#utility.yul\":2016:2042   */\n      swap1\n      pop\n        /* \"#utility.yul\":2052:2123   */\n      tag_97\n        /* \"#utility.yul\":2120:2121   */\n      0x00\n        /* \"#utility.yul\":2109:2118   */\n      dup4\n        /* \"#utility.yul\":2105:2122   */\n      add\n        /* \"#utility.yul\":2096:2102   */\n      dup5\n        /* \"#utility.yul\":2052:2123   */\n      tag_80\n      jump\t// in\n    tag_97:\n        /* \"#utility.yul\":1908:2130   */\n      swap3\n      swap2\n      pop\n      pop\n      jump\t// out\n        /* \"#utility.yul\":2136:2346   */\n    tag_26:\n        /* \"#utility.yul\":2223:2227   */\n      0x00\n        /* \"#utility.yul\":2261:2263   */\n      0x20\n        /* \"#utility.yul\":2250:2259   */\n      dup3\n        /* \"#utility.yul\":2246:2264   */\n      add\n        /* \"#utility.yul\":2238:2264   */\n      swap1\n      pop\n        /* \"#utility.yul\":2274:2339   */\n      tag_99\n        /* \"#utility.yul\":2336:2337   */\n      0x00\n        /* \"#utility.yul\":2325:2334   */\n      dup4\n        /* \"#utility.yul\":2321:2338   */\n      add\n        /* \"#utility.yul\":2312:2318   */\n      dup5\n        /* \"#utility.yul\":2274:2339   */\n      tag_84\n      jump\t// in\n    tag_99:\n        /* \"#utility.yul\":2136:2346   */\n      swap3\n      swap2\n      pop\n      pop\n      jump\t// out\n        /* \"#utility.yul\":2352:2574   */\n    tag_30:\n        /* \"#utility.yul\":2445:2449   */\n      0x00\n        /* \"#utility.yul\":2483:2485   */\n      0x20\n        /* \"#utility.yul\":2472:2481   */\n      dup3\n        /* \"#utility.yul\":2468:2486   */\n      add\n        /* \"#utility.yul\":2460:2486   */\n      swap1\n      pop\n        /* \"#utility.yul\":2496:2567   */\n      tag_101\n        /* \"#utility.yul\":2564:2565   */\n      0x00\n        /* \"#utility.yul\":2553:2562   */\n      dup4\n        /* \"#utility.yul\":2549:2566   */\n      add\n        /* \"#utility.yul\":2540:2546   */\n      dup5\n        /* \"#utility.yul\":2496:2567   */\n      tag_88\n      jump\t// in\n    tag_101:\n        /* \"#utility.yul\":2352:2574   */\n      swap3\n      swap2\n      pop\n      pop\n      jump\t// out\n        /* \"#utility.yul\":2580:2794   */\n    tag_16:\n        /* \"#utility.yul\":2669:2673   */\n      0x00\n        /* \"#utility.yul\":2707:2709   */\n      0x20\n        /* \"#utility.yul\":2696:2705   */\n      dup3\n        /* \"#utility.yul\":2692:2710   */\n      add\n        /* \"#utility.yul\":2684:2710   */\n      swap1\n      pop\n        /* \"#utility.yul\":2720:2787   */\n      tag_103\n        /* \"#utility.yul\":2784:2785   */\n      0x00\n        /* \"#utility.yul\":2773:2782   */\n      dup4\n        /* \"#utility.yul\":2769:2786   */\n      add\n        /* \"#utility.yul\":2760:2766   */\n      dup5\n        /* \"#utility.yul\":2720:2787   */\n      tag_92\n      jump\t// in\n    tag_103:\n        /* \"#utility.yul\":2580:2794   */\n      swap3\n      swap2\n      pop\n      pop\n      jump\t// out\n        /* \"#utility.yul\":2881:2977   */\n    tag_83:\n        /* \"#utility.yul\":2918:2925   */\n      0x00\n        /* \"#utility.yul\":2947:2971   */\n      tag_107\n        /* \"#utility.yul\":2965:2970   */\n      dup3\n        /* \"#utility.yul\":2947:2971   */\n      tag_108\n      jump\t// in\n    tag_107:\n        /* \"#utility.yul\":2936:2971   */\n      swap1\n      pop\n        /* \"#utility.yul\":2881:2977   */\n      swap2\n      swap1\n      pop\n      jump\t// out\n        /* \"#utility.yul\":2983:3073   */\n    tag_87:\n        /* \"#utility.yul\":3017:3024   */\n      0x00\n        /* \"#utility.yul\":3060:3065   */\n      dup2\n        /* \"#utility.yul\":3053:3066   */\n      iszero\n        /* \"#utility.yul\":3046:3067   */\n      iszero\n        /* \"#utility.yul\":3035:3067   */\n      swap1\n      pop\n        /* \"#utility.yul\":2983:3073   */\n      swap2\n      swap1\n      pop\n      jump\t// out\n        /* \"#utility.yul\":3079:3205   */\n    tag_108:\n        /* \"#utility.yul\":3116:3123   */\n      0x00\n        /* \"#utility.yul\":3156:3198   */\n      0xffffffffffffffffffffffffffffffffffffffff\n        /* \"#utility.yul\":3149:3154   */\n      dup3\n        /* \"#utility.yul\":3145:3199   */\n      and\n        /* \"#utility.yul\":3134:3199   */\n      swap1\n      pop\n        /* \"#utility.yul\":3079:3205   */\n      swap2\n      swap1\n      pop\n      jump\t// out\n        /* \"#utility.yul\":3211:3288   */\n    tag_91:\n        /* \"#utility.yul\":3248:3255   */\n      0x00\n        /* \"#utility.yul\":3277:3282   */\n      dup2\n        /* \"#utility.yul\":3266:3282   */\n      swap1\n      pop\n        /* \"#utility.yul\":3211:3288   */\n      swap2\n      swap1\n      pop\n      jump\t// out\n        /* \"#utility.yul\":3294:3380   */\n    tag_95:\n        /* \"#utility.yul\":3329:3336   */\n      0x00\n        /* \"#utility.yul\":3369:3373   */\n      0xff\n        /* \"#utility.yul\":3362:3367   */\n      dup3\n        /* \"#utility.yul\":3358:3374   */\n      and\n        /* \"#utility.yul\":3347:3374   */\n      swap1\n      pop\n        /* \"#utility.yul\":3294:3380   */\n      swap2\n      swap1\n      pop\n      jump\t// out\n        /* \"#utility.yul\":3386:3553   */\n    tag_51:\n        /* \"#utility.yul\":3423:3426   */\n      0x00\n        /* \"#utility.yul\":3446:3468   */\n      tag_114\n        /* \"#utility.yul\":3462:3467   */\n      dup3\n        /* \"#utility.yul\":3446:3468   */\n      tag_95\n      jump\t// in\n    tag_114:\n        /* \"#utility.yul\":3437:3468   */\n      swap2\n      pop\n        /* \"#utility.yul\":3490:3494   */\n      0x00\n        /* \"#utility.yul\":3483:3488   */\n      dup3\n        /* \"#utility.yul\":3480:3495   */\n      eq\n        /* \"#utility.yul\":3477:3518   */\n      iszero\n      tag_115\n      jumpi\n        /* \"#utility.yul\":3498:3516   */\n      tag_116\n      tag_117\n      jump\t// in\n    tag_116:\n        /* \"#utility.yul\":3477:3518   */\n    tag_115:\n        /* \"#utility.yul\":3545:3546   */\n      0x01\n        /* \"#utility.yul\":3538:3543   */\n      dup3\n        /* \"#utility.yul\":3534:3547   */\n      sub\n        /* \"#utility.yul\":3527:3547   */\n      swap1\n      pop\n        /* \"#utility.yul\":3386:3553   */\n      swap2\n      swap1\n      pop\n      jump\t// out\n        /* \"#utility.yul\":3559:3726   */\n    tag_48:\n        /* \"#utility.yul\":3596:3599   */\n      0x00\n        /* \"#utility.yul\":3619:3641   */\n      tag_119\n        /* \"#utility.yul\":3635:3640   */\n      dup3\n        /* \"#utility.yul\":3619:3641   */\n      tag_95\n      jump\t// in\n    tag_119:\n        /* \"#utility.yul\":3610:3641   */\n      swap2\n      pop\n        /* \"#utility.yul\":3663:3667   */\n      0xff\n        /* \"#utility.yul\":3656:3661   */\n      dup3\n        /* \"#utility.yul\":3653:3668   */\n      eq\n        /* \"#utility.yul\":3650:3691   */\n      iszero\n      tag_120\n      jumpi\n        /* \"#utility.yul\":3671:3689   */\n      tag_121\n      tag_117\n      jump\t// in\n    tag_121:\n        /* \"#utility.yul\":3650:3691   */\n    tag_120:\n        /* \"#utility.yul\":3718:3719   */\n      0x01\n        /* \"#utility.yul\":3711:3716   */\n      dup3\n        /* \"#utility.yul\":3707:3720   */\n      add\n        /* \"#utility.yul\":3700:3720   */\n      swap1\n      pop\n        /* \"#utility.yul\":3559:3726   */\n      swap2\n      swap1\n      pop\n      jump\t// out\n        /* \"#utility.yul\":3732:3912   */\n    tag_117:\n        /* \"#utility.yul\":3780:3857   */\n      0x4e487b7100000000000000000000000000000000000000000000000000000000\n        /* \"#utility.yul\":3777:3778   */\n      0x00\n        /* \"#utility.yul\":3770:3858   */\n      mstore\n        /* \"#utility.yul\":3877:3881   */\n      0x11\n        /* \"#utility.yul\":3874:3875   */\n      0x04\n        /* \"#utility.yul\":3867:3882   */\n      mstore\n        /* \"#utility.yul\":3901:3905   */\n      0x24\n        /* \"#utility.yul\":3898:3899   */\n      0x00\n        /* \"#utility.yul\":3891:3906   */\n      revert\n        /* \"#utility.yul\":4041:4158   */\n    tag_70:\n        /* \"#utility.yul\":4150:4151   */\n      0x00\n        /* \"#utility.yul\":4147:4148   */\n      dup1\n        /* \"#utility.yul\":4140:4152   */\n      revert\n        /* \"#utility.yul\":4164:4280   */\n    tag_58:\n        /* \"#utility.yul\":4234:4255   */\n      tag_127\n        /* \"#utility.yul\":4249:4254   */\n      dup2\n        /* \"#utility.yul\":4234:4255   */\n      tag_87\n      jump\t// in\n    tag_127:\n        /* \"#utility.yul\":4227:4232   */\n      dup2\n        /* \"#utility.yul\":4224:4256   */\n      eq\n        /* \"#utility.yul\":4214:4274   */\n      tag_128\n      jumpi\n        /* \"#utility.yul\":4270:4271   */\n      0x00\n        /* \"#utility.yul\":4267:4268   */\n      dup1\n        /* \"#utility.yul\":4260:4272   */\n      revert\n        /* \"#utility.yul\":4214:4274   */\n    tag_128:\n        /* \"#utility.yul\":4164:4280   */\n      pop\n      jump\t// out\n        /* \"#utility.yul\":4286:4408   */\n    tag_62:\n        /* \"#utility.yul\":4359:4383   */\n      tag_130\n        /* \"#utility.yul\":4377:4382   */\n      dup2\n        /* \"#utility.yul\":4359:4383   */\n      tag_91\n      jump\t// in\n    tag_130:\n        /* \"#utility.yul\":4352:4357   */\n      dup2\n        /* \"#utility.yul\":4349:4384   */\n      eq\n        /* \"#utility.yul\":4339:4402   */\n      tag_131\n      jumpi\n        /* \"#utility.yul\":4398:4399   */\n      0x00\n        /* \"#utility.yul\":4395:4396   */\n      dup1\n        /* \"#utility.yul\":4388:4400   */\n      revert\n        /* \"#utility.yul\":4339:4402   */\n    tag_131:\n        /* \"#utility.yul\":4286:4408   */\n      pop\n      jump\t// out\n        /* \"#utility.yul\":4414:4532   */\n    tag_66:\n        /* \"#utility.yul\":4485:4507   */\n      tag_133\n        /* \"#utility.yul\":4501:4506   */\n      dup2\n        /* \"#utility.yul\":4485:4507   */\n      tag_95\n      jump\t// in\n    tag_133:\n        /* \"#utility.yul\":4478:4483   */\n      dup2\n        /* \"#utility.yul\":4475:4508   */\n      eq\n        /* \"#utility.yul\":4465:4526   */\n      tag_134\n      jumpi\n        /* \"#utility.yul\":4522:4523   */\n      0x00\n        /* \"#utility.yul\":4519:4520   */\n      dup1\n        /* \"#utility.yul\":4512:4524   */\n      revert\n        /* \"#utility.yul\":4465:4526   */\n    tag_134:\n        /* \"#utility.yul\":4414:4532   */\n      pop\n      jump\t// out\n\n    auxdata: 0xa26469706673582212207d44ad03ae377f9f81cd0bfbc13ea315b6c6da2a482105a44ea68192329058ee64736f6c63430008070033\n}\n",
				"bytecode": {
					"linkReferences": {},
					"object": "608060405234801561001057600080fd5b50610544806100206000396000f3fe608060405234801561001057600080fd5b50600436106100935760003560e01c8063d412f49011610066578063d412f490146100fa578063df1f327514610118578063e492fd8414610122578063eb1b30d91461013e578063fcf814c31461015a57610093565b806312c0dfc3146100985780634f25eada146100b65780636a61a59c146100d2578063cf4fee10146100dc575b600080fd5b6100a0610178565b6040516100ad91906103d1565b60405180910390f35b6100d060048036038101906100cb9190610317565b610189565b005b6100da6101a6565b005b6100e46101df565b6040516100f1919061039b565b60405180910390f35b6101026101f2565b60405161010f91906103b6565b60405180910390f35b6101206101f8565b005b61013c600480360381019061013791906102ea565b610231565b005b610158600480360381019061015391906102bd565b61023b565b005b610162610258565b60405161016f9190610380565b60405180910390f35b60018054906101000a900460ff1681565b806001806101000a81548160ff021916908360ff16021790555050565b60018081819054906101000a900460ff16809291906101c49061046b565b91906101000a81548160ff021916908360ff16021790555050565b600160009054906101000a900460ff1681565b60005481565b60018081819054906101000a900460ff168092919061021690610441565b91906101000a81548160ff021916908360ff16021790555050565b8060008190555050565b80600160006101000a81548160ff02191690831515021790555050565b600160029054906101000a900473ffffffffffffffffffffffffffffffffffffffff1681565b60008135905061028d816104c9565b92915050565b6000813590506102a2816104e0565b92915050565b6000813590506102b7816104f7565b92915050565b6000602082840312156102d3576102d26104c4565b5b60006102e18482850161027e565b91505092915050565b600060208284031215610300576102ff6104c4565b5b600061030e84828501610293565b91505092915050565b60006020828403121561032d5761032c6104c4565b5b600061033b848285016102a8565b91505092915050565b61034d816103ec565b82525050565b61035c816103fe565b82525050565b61036b8161042a565b82525050565b61037a81610434565b82525050565b60006020820190506103956000830184610344565b92915050565b60006020820190506103b06000830184610353565b92915050565b60006020820190506103cb6000830184610362565b92915050565b60006020820190506103e66000830184610371565b92915050565b60006103f78261040a565b9050919050565b60008115159050919050565b600073ffffffffffffffffffffffffffffffffffffffff82169050919050565b6000819050919050565b600060ff82169050919050565b600061044c82610434565b915060008214156104605761045f610495565b5b600182039050919050565b600061047682610434565b915060ff82141561048a57610489610495565b5b600182019050919050565b7f4e487b7100000000000000000000000000000000000000000000000000000000600052601160045260246000fd5b600080fd5b6104d2816103fe565b81146104dd57600080fd5b50565b6104e98161042a565b81146104f457600080fd5b50565b61050081610434565b811461050b57600080fd5b5056fea26469706673582212207d44ad03ae377f9f81cd0bfbc13ea315b6c6da2a482105a44ea68192329058ee64736f6c63430008070033",
					"opcodes": "PUSH1 0x80 PUSH1 0x40 MSTORE CALLVALUE DUP1 ISZERO PUSH2 0x10 JUMPI PUSH1 0x0 DUP1 REVERT JUMPDEST POP PUSH2 0x544 DUP1 PUSH2 0x20 PUSH1 0x0 CODECOPY PUSH1 0x0 RETURN INVALID PUSH1 0x80 PUSH1 0x40 MSTORE CALLVALUE DUP1 ISZERO PUSH2 0x10 JUMPI PUSH1 0x0 DUP1 REVERT JUMPDEST POP PUSH1 0x4 CALLDATASIZE LT PUSH2 0x93 JUMPI PUSH1 0x0 CALLDATALOAD PUSH1 0xE0 SHR DUP1 PUSH4 0xD412F490 GT PUSH2 0x66 JUMPI DUP1 PUSH4 0xD412F490 EQ PUSH2 0xFA JUMPI DUP1 PUSH4 0xDF1F3275 EQ PUSH2 0x118 JUMPI DUP1 PUSH4 0xE492FD84 EQ PUSH2 0x122 JUMPI DUP1 PUSH4 0xEB1B30D9 EQ PUSH2 0x13E JUMPI DUP1 PUSH4 0xFCF814C3 EQ PUSH2 0x15A JUMPI PUSH2 0x93 JUMP JUMPDEST DUP1 PUSH4 0x12C0DFC3 EQ PUSH2 0x98 JUMPI DUP1 PUSH4 0x4F25EADA EQ PUSH2 0xB6 JUMPI DUP1 PUSH4 0x6A61A59C EQ PUSH2 0xD2 JUMPI DUP1 PUSH4 0xCF4FEE10 EQ PUSH2 0xDC JUMPI JUMPDEST PUSH1 0x0 DUP1 REVERT JUMPDEST PUSH2 0xA0 PUSH2 0x178 JUMP JUMPDEST PUSH1 0x40 MLOAD PUSH2 0xAD SWAP2 SWAP1 PUSH2 0x3D1 JUMP JUMPDEST PUSH1 0x40 MLOAD DUP1 SWAP2 SUB SWAP1 RETURN JUMPDEST PUSH2 0xD0 PUSH1 0x4 DUP1 CALLDATASIZE SUB DUP2 ADD SWAP1 PUSH2 0xCB SWAP2 SWAP1 PUSH2 0x317 JUMP JUMPDEST PUSH2 0x189 JUMP JUMPDEST STOP JUMPDEST PUSH2 0xDA PUSH2 0x1A6 JUMP JUMPDEST STOP JUMPDEST PUSH2 0xE4 PUSH2 0x1DF JUMP JUMPDEST PUSH1 0x40 MLOAD PUSH2 0xF1 SWAP2 SWAP1 PUSH2 0x39B JUMP JUMPDEST PUSH1 0x40 MLOAD DUP1 SWAP2 SUB SWAP1 RETURN JUMPDEST PUSH2 0x102 PUSH2 0x1F2 JUMP JUMPDEST PUSH1 0x40 MLOAD PUSH2 0x10F SWAP2 SWAP1 PUSH2 0x3B6 JUMP JUMPDEST PUSH1 0x40 MLOAD DUP1 SWAP2 SUB SWAP1 RETURN JUMPDEST PUSH2 0x120 PUSH2 0x1F8 JUMP JUMPDEST STOP JUMPDEST PUSH2 0x13C PUSH1 0x4 DUP1 CALLDATASIZE SUB DUP2 ADD SWAP1 PUSH2 0x137 SWAP2 SWAP1 PUSH2 0x2EA JUMP JUMPDEST PUSH2 0x231 JUMP JUMPDEST STOP JUMPDEST PUSH2 0x158 PUSH1 0x4 DUP1 CALLDATASIZE SUB DUP2 ADD SWAP1 PUSH2 0x153 SWAP2 SWAP1 PUSH2 0x2BD JUMP JUMPDEST PUSH2 0x23B JUMP JUMPDEST STOP JUMPDEST PUSH2 0x162 PUSH2 0x258 JUMP JUMPDEST PUSH1 0x40 MLOAD PUSH2 0x16F SWAP2 SWAP1 PUSH2 0x380 JUMP JUMPDEST PUSH1 0x40 MLOAD DUP1 SWAP2 SUB SWAP1 RETURN JUMPDEST PUSH1 0x1 DUP1 SLOAD SWAP1 PUSH2 0x100 EXP SWAP1 DIV PUSH1 0xFF AND DUP2 JUMP JUMPDEST DUP1 PUSH1 0x1 DUP1 PUSH2 0x100 EXP DUP2 SLOAD DUP2 PUSH1 0xFF MUL NOT AND SWAP1 DUP4 PUSH1 0xFF AND MUL OR SWAP1 SSTORE POP POP JUMP JUMPDEST PUSH1 0x1 DUP1 DUP2 DUP2 SWAP1 SLOAD SWAP1 PUSH2 0x100 EXP SWAP1 DIV PUSH1 0xFF AND DUP1 SWAP3 SWAP2 SWAP1 PUSH2 0x1C4 SWAP1 PUSH2 0x46B JUMP JUMPDEST SWAP2 SWAP1 PUSH2 0x100 EXP DUP2 SLOAD DUP2 PUSH1 0xFF MUL NOT AND SWAP1 DUP4 PUSH1 0xFF AND MUL OR SWAP1 SSTORE POP POP JUMP JUMPDEST PUSH1 0x1 PUSH1 0x0 SWAP1 SLOAD SWAP1 PUSH2 0x100 EXP SWAP1 DIV PUSH1 0xFF AND DUP2 JUMP JUMPDEST PUSH1 0x0 SLOAD DUP2 JUMP JUMPDEST PUSH1 0x1 DUP1 DUP2 DUP2 SWAP1 SLOAD SWAP1 PUSH2 0x100 EXP SWAP1 DIV PUSH1 0xFF AND DUP1 SWAP3 SWAP2 SWAP1 PUSH2 0x216 SWAP1 PUSH2 0x441 JUMP JUMPDEST SWAP2 SWAP1 PUSH2 0x100 EXP DUP2 SLOAD DUP2 PUSH1 0xFF MUL NOT AND SWAP1 DUP4 PUSH1 0xFF AND MUL OR SWAP1 SSTORE POP POP JUMP JUMPDEST DUP1 PUSH1 0x0 DUP2 SWAP1 SSTORE POP POP JUMP JUMPDEST DUP1 PUSH1 0x1 PUSH1 0x0 PUSH2 0x100 EXP DUP2 SLOAD DUP2 PUSH1 0xFF MUL NOT AND SWAP1 DUP4 ISZERO ISZERO MUL OR SWAP1 SSTORE POP POP JUMP JUMPDEST PUSH1 0x1 PUSH1 0x2 SWAP1 SLOAD SWAP1 PUSH2 0x100 EXP SWAP1 DIV PUSH20 0xFFFFFFFFFFFFFFFFFFFFFFFFFFFFFFFFFFFFFFFF AND DUP2 JUMP JUMPDEST PUSH1 0x0 DUP2 CALLDATALOAD SWAP1 POP PUSH2 0x28D DUP2 PUSH2 0x4C9 JUMP JUMPDEST SWAP3 SWAP2 POP POP JUMP JUMPDEST PUSH1 0x0 DUP2 CALLDATALOAD SWAP1 POP PUSH2 0x2A2 DUP2 PUSH2 0x4E0 JUMP JUMPDEST SWAP3 SWAP2 POP POP JUMP JUMPDEST PUSH1 0x0 DUP2 CALLDATALOAD SWAP1 POP PUSH2 0x2B7 DUP2 PUSH2 0x4F7 JUMP JUMPDEST SWAP3 SWAP2 POP POP JUMP JUMPDEST PUSH1 0x0 PUSH1 0x20 DUP3 DUP5 SUB SLT ISZERO PUSH2 0x2D3 JUMPI PUSH2 0x2D2 PUSH2 0x4C4 JUMP JUMPDEST JUMPDEST PUSH1 0x0 PUSH2 0x2E1 DUP5 DUP3 DUP6 ADD PUSH2 0x27E JUMP JUMPDEST SWAP2 POP POP SWAP3 SWAP2 POP POP JUMP JUMPDEST PUSH1 0x0 PUSH1 0x20 DUP3 DUP5 SUB SLT ISZERO PUSH2 0x300 JUMPI PUSH2 0x2FF PUSH2 0x4C4 JUMP JUMPDEST JUMPDEST PUSH1 0x0 PUSH2 0x30E DUP5 DUP3 DUP6 ADD PUSH2 0x293 JUMP JUMPDEST SWAP2 POP POP SWAP3 SWAP2 POP POP JUMP JUMPDEST PUSH1 0x0 PUSH1 0x20 DUP3 DUP5 SUB SLT ISZERO PUSH2 0x32D JUMPI PUSH2 0x32C PUSH2 0x4C4 JUMP JUMPDEST JUMPDEST PUSH1 0x0 PUSH2 0x33B DUP5 DUP3 DUP6 ADD PUSH2 0x2A8 JUMP JUMPDEST SWAP2 POP POP SWAP3 SWAP2 POP POP JUMP JUMPDEST PUSH2 0x34D DUP2 PUSH2 0x3EC JUMP JUMPDEST DUP3 MSTORE POP POP JUMP JUMPDEST PUSH2 0x35C DUP2 PUSH2 0x3FE JUMP JUMPDEST DUP3 MSTORE POP POP JUMP JUMPDEST PUSH2 0x36B DUP2 PUSH2 0x42A JUMP JUMPDEST DUP3 MSTORE POP POP JUMP JUMPDEST PUSH2 0x37A DUP2 PUSH2 0x434 JUMP JUMPDEST DUP3 MSTORE POP POP JUMP JUMPDEST PUSH1 0x0 PUSH1 0x20 DUP3 ADD SWAP1 POP PUSH2 0x395 PUSH1 0x0 DUP4 ADD DUP5 PUSH2 0x344 JUMP JUMPDEST SWAP3 SWAP2 POP POP JUMP JUMPDEST PUSH1 0x0 PUSH1 0x20 DUP3 ADD SWAP1 POP PUSH2 0x3B0 PUSH1 0x0 DUP4 ADD DUP5 PUSH2 0x353 JUMP JUMPDEST SWAP3 SWAP2 POP POP JUMP JUMPDEST PUSH1 0x0 PUSH1 0x20 DUP3 ADD SWAP1 POP PUSH2 0x3CB PUSH1 0x0 DUP4 ADD DUP5 PUSH2 0x362 JUMP JUMPDEST SWAP3 SWAP2 POP POP JUMP JUMPDEST PUSH1 0x0 PUSH1 0x20 DUP3 ADD SWAP1 POP PUSH2 0x3E6 PUSH1 0x0 DUP4 ADD DUP5 PUSH2 0x371 JUMP JUMPDEST SWAP3 SWAP2 POP POP JUMP JUMPDEST PUSH1 0x0 PUSH2 0x3F7 DUP3 PUSH2 0x40A JUMP JUMPDEST SWAP1 POP SWAP2 SWAP1 POP JUMP JUMPDEST PUSH1 0x0 DUP2 ISZERO ISZERO SWAP1 POP SWAP2 SWAP1 POP JUMP JUMPDEST PUSH1 0x0 PUSH20 0xFFFFFFFFFFFFFFFFFFFFFFFFFFFFFFFFFFFFFFFF DUP3 AND SWAP1 POP SWAP2 SWAP1 POP JUMP JUMPDEST PUSH1 0x0 DUP2 SWAP1 POP SWAP2 SWAP1 POP JUMP JUMPDEST PUSH1 0x0 PUSH1 0xFF DUP3 AND SWAP1 POP SWAP2 SWAP1 POP JUMP JUMPDEST PUSH1 0x0 PUSH2 0x44C DUP3 PUSH2 0x434 JUMP JUMPDEST SWAP2 POP PUSH1 0x0 DUP3 EQ ISZERO PUSH2 0x460 JUMPI PUSH2 0x45F PUSH2 0x495 JUMP JUMPDEST JUMPDEST PUSH1 0x1 DUP3 SUB SWAP1 POP SWAP2 SWAP1 POP JUMP JUMPDEST PUSH1 0x0 PUSH2 0x476 DUP3 PUSH2 0x434 JUMP JUMPDEST SWAP2 POP PUSH1 0xFF DUP3 EQ ISZERO PUSH2 0x48A JUMPI PUSH2 0x489 PUSH2 0x495 JUMP JUMPDEST JUMPDEST PUSH1 0x1 DUP3 ADD SWAP1 POP SWAP2 SWAP1 POP JUMP JUMPDEST PUSH32 0x4E487B7100000000000000000000000000000000000000000000000000000000 PUSH1 0x0 MSTORE PUSH1 0x11 PUSH1 0x4 MSTORE PUSH1 0x24 PUSH1 0x0 REVERT JUMPDEST PUSH1 0x0 DUP1 REVERT JUMPDEST PUSH2 0x4D2 DUP2 PUSH2 0x3FE JUMP JUMPDEST DUP2 EQ PUSH2 0x4DD JUMPI PUSH1 0x0 DUP1 REVERT JUMPDEST POP JUMP JUMPDEST PUSH2 0x4E9 DUP2 PUSH2 0x42A JUMP JUMPDEST DUP2 EQ PUSH2 0x4F4 JUMPI PUSH1 0x0 DUP1 REVERT JUMPDEST POP JUMP JUMPDEST PUSH2 0x500 DUP2 PUSH2 0x434 JUMP JUMPDEST DUP2 EQ PUSH2 0x50B JUMPI PUSH1 0x0 DUP1 REVERT JUMPDEST POP JUMP INVALID LOG2 PUSH5 0x6970667358 0x22 SLT KECCAK256 PUSH30 0x44AD03AE377F9F81CD0BFBC13EA315B6C6DA2A482105A44EA68192329058 0xEE PUSH5 0x736F6C6343 STOP ADDMOD SMOD STOP CALLER "
				},
				"gasEstimates": {
					"creation": {
						"codeDepositCost": "269600",
						"executionCost": "312",
						"totalCost": "269912"
					},
					"external": {
						"decrementMytUint8()": "26824",
						"incremenMytUint8()": "26847",
						"myaddress()": "2652",
						"mybool()": "2538",
						"myuint()": "2429",
						"myuint8()": "2519",
						"setMyBool(bool)": "24745",
						"setMyUint(uint256)": "22564",
						"setMyUint8(uint8)": "24752"
					}
				},
				"methodIdentifiers": {
					"decrementMytUint8()": "df1f3275",
					"incremenMytUint8()": "6a61a59c",
					"myaddress()": "fcf814c3",
					"mybool()": "cf4fee10",
					"myuint()": "d412f490",
					"myuint8()": "12c0dfc3",
					"setMyBool(bool)": "eb1b30d9",
					"setMyUint(uint256)": "e492fd84",
					"setMyUint8(uint8)": "4f25eada"
				}
			},
			"storageLayout": {
				"storage": [
					{
						"astId": 3,
						"contract": "variables/variables.sol:Variables",
						"label": "myuint",
						"offset": 0,
						"slot": "0",
						"type": "t_uint256"
					},
					{
						"astId": 5,
						"contract": "variables/variables.sol:Variables",
						"label": "mybool",
						"offset": 0,
						"slot": "1",
						"type": "t_bool"
					},
					{
						"astId": 7,
						"contract": "variables/variables.sol:Variables",
						"label": "myuint8",
						"offset": 1,
						"slot": "1",
						"type": "t_uint8"
					},
					{
						"astId": 9,
						"contract": "variables/variables.sol:Variables",
						"label": "myaddress",
						"offset": 2,
						"slot": "1",
						"type": "t_address"
					}
				],
				"types": {
					"t_address": {
						"encoding": "inplace",
						"label": "address",
						"numberOfBytes": "20"
					},
					"t_bool": {
						"encoding": "inplace",
						"label": "bool",
						"numberOfBytes": "1"
					},
					"t_uint256": {
						"encoding": "inplace",
						"label": "uint256",
						"numberOfBytes": "32"
					},
					"t_uint8": {
						"encoding": "inplace",
						"label": "uint8",
						"numberOfBytes": "1"
					}
				}
			},
			"userdoc": {
				"kind": "user",
				"methods": {},
				"version": 1
			}
		}
	}
}