{
	"startstopupdate/StartStopAndUpdate.sol": {
		"StartStopUpdateContract": {
			"abi": [
				{
					"inputs": [],
					"stateMutability": "nonpayable",
					"type": "constructor"
				},
				{
					"inputs": [],
					"name": "sendMoneyToContract",
					"outputs": [],
					"stateMutability": "payable",
					"type": "function"
				},
				{
					"inputs": [
						{
							"internalType": "bool",
							"name": "_isPaused",
							"type": "bool"
						}
					],
					"name": "setPaused",
					"outputs": [],
					"stateMutability": "nonpayable",
					"type": "function"
				},
				{
					"inputs": [
						{
							"internalType": "address payable",
							"name": "_to",
							"type": "address"
						}
					],
					"name": "withdrawAllMoneyFromContract",
					"outputs": [],
					"stateMutability": "nonpayable",
					"type": "function"
				}
			],
			"devdoc": {
				"kind": "dev",
				"methods": {},
				"version": 1
			},
			"evm": {
				"assembly": "    /* \"startstopupdate/StartStopAndUpdate.sol\":92:900  contract StartStopUpdateContract {\r... */\n  mstore(0x40, 0x80)\n    /* \"startstopupdate/StartStopAndUpdate.sol\":283:334  constructor() {\r... */\n  callvalue\n  dup1\n  iszero\n  tag_1\n  jumpi\n  0x00\n  dup1\n  revert\ntag_1:\n  pop\n    /* \"startstopupdate/StartStopAndUpdate.sol\":316:326  msg.sender */\n  caller\n    /* \"startstopupdate/StartStopAndUpdate.sol\":308:313  owner */\n  0x00\n  dup1\n    /* \"startstopupdate/StartStopAndUpdate.sol\":308:326  owner = msg.sender */\n  0x0100\n  exp\n  dup2\n  sload\n  dup2\n  0xffffffffffffffffffffffffffffffffffffffff\n  mul\n  not\n  and\n  swap1\n  dup4\n  0xffffffffffffffffffffffffffffffffffffffff\n  and\n  mul\n  or\n  swap1\n  sstore\n  pop\n    /* \"startstopupdate/StartStopAndUpdate.sol\":92:900  contract StartStopUpdateContract {\r... */\n  dataSize(sub_0)\n  dup1\n  dataOffset(sub_0)\n  0x00\n  codecopy\n  0x00\n  return\nstop\n\nsub_0: assembly {\n        /* \"startstopupdate/StartStopAndUpdate.sol\":92:900  contract StartStopUpdateContract {\r... */\n      mstore(0x40, 0x80)\n      jumpi(tag_1, lt(calldatasize, 0x04))\n      shr(0xe0, calldataload(0x00))\n      dup1\n      0x02cb59e7\n      eq\n      tag_2\n      jumpi\n      dup1\n      0x16c38b3c\n      eq\n      tag_3\n      jumpi\n      dup1\n      0x8aecbc51\n      eq\n      tag_4\n      jumpi\n    tag_1:\n      0x00\n      dup1\n      revert\n        /* \"startstopupdate/StartStopAndUpdate.sol\":487:827  function withdrawAllMoneyFromContract(address payable _to) public {\r... */\n    tag_2:\n      callvalue\n      dup1\n      iszero\n      tag_5\n      jumpi\n      0x00\n      dup1\n      revert\n    tag_5:\n      pop\n      tag_6\n      0x04\n      dup1\n      calldatasize\n      sub\n      dup2\n      add\n      swap1\n      tag_7\n      swap2\n      swap1\n      tag_8\n      jump\t// in\n    tag_7:\n      tag_9\n      jump\t// in\n    tag_6:\n      stop\n        /* \"startstopupdate/StartStopAndUpdate.sol\":835:897  function setPaused(bool _isPaused) public {\r... */\n    tag_3:\n      callvalue\n      dup1\n      iszero\n      tag_10\n      jumpi\n      0x00\n      dup1\n      revert\n    tag_10:\n      pop\n      tag_11\n      0x04\n      dup1\n      calldatasize\n      sub\n      dup2\n      add\n      swap1\n      tag_12\n      swap2\n      swap1\n      tag_13\n      jump\t// in\n    tag_12:\n      tag_14\n      jump\t// in\n    tag_11:\n      stop\n        /* \"startstopupdate/StartStopAndUpdate.sol\":415:479  function sendMoneyToContract() public payable {\r... */\n    tag_4:\n      tag_15\n      tag_16\n      jump\t// in\n    tag_15:\n      stop\n        /* \"startstopupdate/StartStopAndUpdate.sol\":487:827  function withdrawAllMoneyFromContract(address payable _to) public {\r... */\n    tag_9:\n        /* \"startstopupdate/StartStopAndUpdate.sol\":691:696  owner */\n      0x00\n      dup1\n      sload\n      swap1\n      0x0100\n      exp\n      swap1\n      div\n      0xffffffffffffffffffffffffffffffffffffffff\n      and\n        /* \"startstopupdate/StartStopAndUpdate.sol\":677:696  msg.sender == owner */\n      0xffffffffffffffffffffffffffffffffffffffff\n      and\n        /* \"startstopupdate/StartStopAndUpdate.sol\":677:687  msg.sender */\n      caller\n        /* \"startstopupdate/StartStopAndUpdate.sol\":677:696  msg.sender == owner */\n      0xffffffffffffffffffffffffffffffffffffffff\n      and\n      eq\n        /* \"startstopupdate/StartStopAndUpdate.sol\":669:722  require(msg.sender == owner, \"You are not the owner\") */\n      tag_18\n      jumpi\n      mload(0x40)\n      0x08c379a000000000000000000000000000000000000000000000000000000000\n      dup2\n      mstore\n      0x04\n      add\n      tag_19\n      swap1\n      tag_20\n      jump\t// in\n    tag_19:\n      mload(0x40)\n      dup1\n      swap2\n      sub\n      swap1\n      revert\n    tag_18:\n        /* \"startstopupdate/StartStopAndUpdate.sol\":735:755  uint contractBalance */\n      0x00\n        /* \"startstopupdate/StartStopAndUpdate.sol\":758:779  address(this).balance */\n      selfbalance\n        /* \"startstopupdate/StartStopAndUpdate.sol\":735:779  uint contractBalance = address(this).balance */\n      swap1\n      pop\n        /* \"startstopupdate/StartStopAndUpdate.sol\":790:793  _to */\n      dup2\n        /* \"startstopupdate/StartStopAndUpdate.sol\":790:802  _to.transfer */\n      0xffffffffffffffffffffffffffffffffffffffff\n      and\n        /* \"startstopupdate/StartStopAndUpdate.sol\":790:819  _to.transfer(contractBalance) */\n      0x08fc\n        /* \"startstopupdate/StartStopAndUpdate.sol\":803:818  contractBalance */\n      dup3\n        /* \"startstopupdate/StartStopAndUpdate.sol\":790:819  _to.transfer(contractBalance) */\n      swap1\n      dup2\n      iszero\n      mul\n      swap1\n      mload(0x40)\n      0x00\n      mload(0x40)\n      dup1\n      dup4\n      sub\n      dup2\n      dup6\n      dup9\n      dup9\n      call\n      swap4\n      pop\n      pop\n      pop\n      pop\n      iszero\n      dup1\n      iszero\n      tag_22\n      jumpi\n      returndatasize\n      0x00\n      dup1\n      returndatacopy\n      revert(0x00, returndatasize)\n    tag_22:\n      pop\n        /* \"startstopupdate/StartStopAndUpdate.sol\":553:827  {\r... */\n      pop\n        /* \"startstopupdate/StartStopAndUpdate.sol\":487:827  function withdrawAllMoneyFromContract(address payable _to) public {\r... */\n      pop\n      jump\t// out\n        /* \"startstopupdate/StartStopAndUpdate.sol\":835:897  function setPaused(bool _isPaused) public {\r... */\n    tag_14:\n      pop\n      jump\t// out\n        /* \"startstopupdate/StartStopAndUpdate.sol\":415:479  function sendMoneyToContract() public payable {\r... */\n    tag_16:\n      jump\t// out\n        /* \"#utility.yul\":7:162   */\n    tag_26:\n        /* \"#utility.yul\":61:66   */\n      0x00\n        /* \"#utility.yul\":99:105   */\n      dup2\n        /* \"#utility.yul\":86:106   */\n      calldataload\n        /* \"#utility.yul\":77:106   */\n      swap1\n      pop\n        /* \"#utility.yul\":115:156   */\n      tag_28\n        /* \"#utility.yul\":150:155   */\n      dup2\n        /* \"#utility.yul\":115:156   */\n      tag_29\n      jump\t// in\n    tag_28:\n        /* \"#utility.yul\":7:162   */\n      swap3\n      swap2\n      pop\n      pop\n      jump\t// out\n        /* \"#utility.yul\":168:301   */\n    tag_30:\n        /* \"#utility.yul\":211:216   */\n      0x00\n        /* \"#utility.yul\":249:255   */\n      dup2\n        /* \"#utility.yul\":236:256   */\n      calldataload\n        /* \"#utility.yul\":227:256   */\n      swap1\n      pop\n        /* \"#utility.yul\":265:295   */\n      tag_32\n        /* \"#utility.yul\":289:294   */\n      dup2\n        /* \"#utility.yul\":265:295   */\n      tag_33\n      jump\t// in\n    tag_32:\n        /* \"#utility.yul\":168:301   */\n      swap3\n      swap2\n      pop\n      pop\n      jump\t// out\n        /* \"#utility.yul\":307:652   */\n    tag_8:\n        /* \"#utility.yul\":374:380   */\n      0x00\n        /* \"#utility.yul\":423:425   */\n      0x20\n        /* \"#utility.yul\":411:420   */\n      dup3\n        /* \"#utility.yul\":402:409   */\n      dup5\n        /* \"#utility.yul\":398:421   */\n      sub\n        /* \"#utility.yul\":394:426   */\n      slt\n        /* \"#utility.yul\":391:510   */\n      iszero\n      tag_35\n      jumpi\n        /* \"#utility.yul\":429:508   */\n      tag_36\n      tag_37\n      jump\t// in\n    tag_36:\n        /* \"#utility.yul\":391:510   */\n    tag_35:\n        /* \"#utility.yul\":549:550   */\n      0x00\n        /* \"#utility.yul\":574:635   */\n      tag_38\n        /* \"#utility.yul\":627:634   */\n      dup5\n        /* \"#utility.yul\":618:624   */\n      dup3\n        /* \"#utility.yul\":607:616   */\n      dup6\n        /* \"#utility.yul\":603:625   */\n      add\n        /* \"#utility.yul\":574:635   */\n      tag_26\n      jump\t// in\n    tag_38:\n        /* \"#utility.yul\":564:635   */\n      swap2\n      pop\n        /* \"#utility.yul\":520:645   */\n      pop\n        /* \"#utility.yul\":307:652   */\n      swap3\n      swap2\n      pop\n      pop\n      jump\t// out\n        /* \"#utility.yul\":658:981   */\n    tag_13:\n        /* \"#utility.yul\":714:720   */\n      0x00\n        /* \"#utility.yul\":763:765   */\n      0x20\n        /* \"#utility.yul\":751:760   */\n      dup3\n        /* \"#utility.yul\":742:749   */\n      dup5\n        /* \"#utility.yul\":738:761   */\n      sub\n        /* \"#utility.yul\":734:766   */\n      slt\n        /* \"#utility.yul\":731:850   */\n      iszero\n      tag_40\n      jumpi\n        /* \"#utility.yul\":769:848   */\n      tag_41\n      tag_37\n      jump\t// in\n    tag_41:\n        /* \"#utility.yul\":731:850   */\n    tag_40:\n        /* \"#utility.yul\":889:890   */\n      0x00\n        /* \"#utility.yul\":914:964   */\n      tag_42\n        /* \"#utility.yul\":956:963   */\n      dup5\n        /* \"#utility.yul\":947:953   */\n      dup3\n        /* \"#utility.yul\":936:945   */\n      dup6\n        /* \"#utility.yul\":932:954   */\n      add\n        /* \"#utility.yul\":914:964   */\n      tag_30\n      jump\t// in\n    tag_42:\n        /* \"#utility.yul\":904:964   */\n      swap2\n      pop\n        /* \"#utility.yul\":860:974   */\n      pop\n        /* \"#utility.yul\":658:981   */\n      swap3\n      swap2\n      pop\n      pop\n      jump\t// out\n        /* \"#utility.yul\":987:1353   */\n    tag_43:\n        /* \"#utility.yul\":1129:1132   */\n      0x00\n        /* \"#utility.yul\":1150:1217   */\n      tag_45\n        /* \"#utility.yul\":1214:1216   */\n      0x15\n        /* \"#utility.yul\":1209:1212   */\n      dup4\n        /* \"#utility.yul\":1150:1217   */\n      tag_46\n      jump\t// in\n    tag_45:\n        /* \"#utility.yul\":1143:1217   */\n      swap2\n      pop\n        /* \"#utility.yul\":1226:1319   */\n      tag_47\n        /* \"#utility.yul\":1315:1318   */\n      dup3\n        /* \"#utility.yul\":1226:1319   */\n      tag_48\n      jump\t// in\n    tag_47:\n        /* \"#utility.yul\":1344:1346   */\n      0x20\n        /* \"#utility.yul\":1339:1342   */\n      dup3\n        /* \"#utility.yul\":1335:1347   */\n      add\n        /* \"#utility.yul\":1328:1347   */\n      swap1\n      pop\n        /* \"#utility.yul\":987:1353   */\n      swap2\n      swap1\n      pop\n      jump\t// out\n        /* \"#utility.yul\":1359:1778   */\n    tag_20:\n        /* \"#utility.yul\":1525:1529   */\n      0x00\n        /* \"#utility.yul\":1563:1565   */\n      0x20\n        /* \"#utility.yul\":1552:1561   */\n      dup3\n        /* \"#utility.yul\":1548:1566   */\n      add\n        /* \"#utility.yul\":1540:1566   */\n      swap1\n      pop\n        /* \"#utility.yul\":1612:1621   */\n      dup2\n        /* \"#utility.yul\":1606:1610   */\n      dup2\n        /* \"#utility.yul\":1602:1622   */\n      sub\n        /* \"#utility.yul\":1598:1599   */\n      0x00\n        /* \"#utility.yul\":1587:1596   */\n      dup4\n        /* \"#utility.yul\":1583:1600   */\n      add\n        /* \"#utility.yul\":1576:1623   */\n      mstore\n        /* \"#utility.yul\":1640:1771   */\n      tag_50\n        /* \"#utility.yul\":1766:1770   */\n      dup2\n        /* \"#utility.yul\":1640:1771   */\n      tag_43\n      jump\t// in\n    tag_50:\n        /* \"#utility.yul\":1632:1771   */\n      swap1\n      pop\n        /* \"#utility.yul\":1359:1778   */\n      swap2\n      swap1\n      pop\n      jump\t// out\n        /* \"#utility.yul\":1865:2034   */\n    tag_46:\n        /* \"#utility.yul\":1949:1960   */\n      0x00\n        /* \"#utility.yul\":1983:1989   */\n      dup3\n        /* \"#utility.yul\":1978:1981   */\n      dup3\n        /* \"#utility.yul\":1971:1990   */\n      mstore\n        /* \"#utility.yul\":2023:2027   */\n      0x20\n        /* \"#utility.yul\":2018:2021   */\n      dup3\n        /* \"#utility.yul\":2014:2028   */\n      add\n        /* \"#utility.yul\":1999:2028   */\n      swap1\n      pop\n        /* \"#utility.yul\":1865:2034   */\n      swap3\n      swap2\n      pop\n      pop\n      jump\t// out\n        /* \"#utility.yul\":2040:2144   */\n    tag_54:\n        /* \"#utility.yul\":2085:2092   */\n      0x00\n        /* \"#utility.yul\":2114:2138   */\n      tag_56\n        /* \"#utility.yul\":2132:2137   */\n      dup3\n        /* \"#utility.yul\":2114:2138   */\n      tag_57\n      jump\t// in\n    tag_56:\n        /* \"#utility.yul\":2103:2138   */\n      swap1\n      pop\n        /* \"#utility.yul\":2040:2144   */\n      swap2\n      swap1\n      pop\n      jump\t// out\n        /* \"#utility.yul\":2150:2240   */\n    tag_58:\n        /* \"#utility.yul\":2184:2191   */\n      0x00\n        /* \"#utility.yul\":2227:2232   */\n      dup2\n        /* \"#utility.yul\":2220:2233   */\n      iszero\n        /* \"#utility.yul\":2213:2234   */\n      iszero\n        /* \"#utility.yul\":2202:2234   */\n      swap1\n      pop\n        /* \"#utility.yul\":2150:2240   */\n      swap2\n      swap1\n      pop\n      jump\t// out\n        /* \"#utility.yul\":2246:2372   */\n    tag_57:\n        /* \"#utility.yul\":2283:2290   */\n      0x00\n        /* \"#utility.yul\":2323:2365   */\n      0xffffffffffffffffffffffffffffffffffffffff\n        /* \"#utility.yul\":2316:2321   */\n      dup3\n        /* \"#utility.yul\":2312:2366   */\n      and\n        /* \"#utility.yul\":2301:2366   */\n      swap1\n      pop\n        /* \"#utility.yul\":2246:2372   */\n      swap2\n      swap1\n      pop\n      jump\t// out\n        /* \"#utility.yul\":2501:2618   */\n    tag_37:\n        /* \"#utility.yul\":2610:2611   */\n      0x00\n        /* \"#utility.yul\":2607:2608   */\n      dup1\n        /* \"#utility.yul\":2600:2612   */\n      revert\n        /* \"#utility.yul\":2624:2795   */\n    tag_48:\n        /* \"#utility.yul\":2764:2787   */\n      0x596f7520617265206e6f7420746865206f776e65720000000000000000000000\n        /* \"#utility.yul\":2760:2761   */\n      0x00\n        /* \"#utility.yul\":2752:2758   */\n      dup3\n        /* \"#utility.yul\":2748:2762   */\n      add\n        /* \"#utility.yul\":2741:2788   */\n      mstore\n        /* \"#utility.yul\":2624:2795   */\n      pop\n      jump\t// out\n        /* \"#utility.yul\":2801:2939   */\n    tag_29:\n        /* \"#utility.yul\":2882:2914   */\n      tag_66\n        /* \"#utility.yul\":2908:2913   */\n      dup2\n        /* \"#utility.yul\":2882:2914   */\n      tag_54\n      jump\t// in\n    tag_66:\n        /* \"#utility.yul\":2875:2880   */\n      dup2\n        /* \"#utility.yul\":2872:2915   */\n      eq\n        /* \"#utility.yul\":2862:2933   */\n      tag_67\n      jumpi\n        /* \"#utility.yul\":2929:2930   */\n      0x00\n        /* \"#utility.yul\":2926:2927   */\n      dup1\n        /* \"#utility.yul\":2919:2931   */\n      revert\n        /* \"#utility.yul\":2862:2933   */\n    tag_67:\n        /* \"#utility.yul\":2801:2939   */\n      pop\n      jump\t// out\n        /* \"#utility.yul\":2945:3061   */\n    tag_33:\n        /* \"#utility.yul\":3015:3036   */\n      tag_69\n        /* \"#utility.yul\":3030:3035   */\n      dup2\n        /* \"#utility.yul\":3015:3036   */\n      tag_58\n      jump\t// in\n    tag_69:\n        /* \"#utility.yul\":3008:3013   */\n      dup2\n        /* \"#utility.yul\":3005:3037   */\n      eq\n        /* \"#utility.yul\":2995:3055   */\n      tag_70\n      jumpi\n        /* \"#utility.yul\":3051:3052   */\n      0x00\n        /* \"#utility.yul\":3048:3049   */\n      dup1\n        /* \"#utility.yul\":3041:3053   */\n      revert\n        /* \"#utility.yul\":2995:3055   */\n    tag_70:\n        /* \"#utility.yul\":2945:3061   */\n      pop\n      jump\t// out\n\n    auxdata: 0xa264697066735822122006fc55255d772721d816accfa17537ffcdf7e8e88462d4608e410f974b0cdad264736f6c63430008070033\n}\n",
				"bytecode": {
					"linkReferences": {},
					"object": "608060405234801561001057600080fd5b50336000806101000a81548173ffffffffffffffffffffffffffffffffffffffff021916908373ffffffffffffffffffffffffffffffffffffffff160217905550610320806100606000396000f3fe6080604052600436106100345760003560e01c806302cb59e71461003957806316c38b3c146100625780638aecbc511461008b575b600080fd5b34801561004557600080fd5b50610060600480360381019061005b91906101a2565b610095565b005b34801561006e57600080fd5b50610089600480360381019061008491906101cf565b610173565b005b610093610176565b005b60008054906101000a900473ffffffffffffffffffffffffffffffffffffffff1673ffffffffffffffffffffffffffffffffffffffff163373ffffffffffffffffffffffffffffffffffffffff1614610123576040517f08c379a000000000000000000000000000000000000000000000000000000000815260040161011a9061021f565b60405180910390fd5b60004790508173ffffffffffffffffffffffffffffffffffffffff166108fc829081150290604051600060405180830381858888f1935050505015801561016e573d6000803e3d6000fd5b505050565b50565b565b600081359050610187816102bc565b92915050565b60008135905061019c816102d3565b92915050565b6000602082840312156101b8576101b761028e565b5b60006101c684828501610178565b91505092915050565b6000602082840312156101e5576101e461028e565b5b60006101f38482850161018d565b91505092915050565b600061020960158361023f565b915061021482610293565b602082019050919050565b60006020820190508181036000830152610238816101fc565b9050919050565b600082825260208201905092915050565b600061025b8261026e565b9050919050565b60008115159050919050565b600073ffffffffffffffffffffffffffffffffffffffff82169050919050565b600080fd5b7f596f7520617265206e6f7420746865206f776e65720000000000000000000000600082015250565b6102c581610250565b81146102d057600080fd5b50565b6102dc81610262565b81146102e757600080fd5b5056fea264697066735822122006fc55255d772721d816accfa17537ffcdf7e8e88462d4608e410f974b0cdad264736f6c63430008070033",
					"opcodes": "PUSH1 0x80 PUSH1 0x40 MSTORE CALLVALUE DUP1 ISZERO PUSH2 0x10 JUMPI PUSH1 0x0 DUP1 REVERT JUMPDEST POP CALLER PUSH1 0x0 DUP1 PUSH2 0x100 EXP DUP2 SLOAD DUP2 PUSH20 0xFFFFFFFFFFFFFFFFFFFFFFFFFFFFFFFFFFFFFFFF MUL NOT AND SWAP1 DUP4 PUSH20 0xFFFFFFFFFFFFFFFFFFFFFFFFFFFFFFFFFFFFFFFF AND MUL OR SWAP1 SSTORE POP PUSH2 0x320 DUP1 PUSH2 0x60 PUSH1 0x0 CODECOPY PUSH1 0x0 RETURN INVALID PUSH1 0x80 PUSH1 0x40 MSTORE PUSH1 0x4 CALLDATASIZE LT PUSH2 0x34 JUMPI PUSH1 0x0 CALLDATALOAD PUSH1 0xE0 SHR DUP1 PUSH4 0x2CB59E7 EQ PUSH2 0x39 JUMPI DUP1 PUSH4 0x16C38B3C EQ PUSH2 0x62 JUMPI DUP1 PUSH4 0x8AECBC51 EQ PUSH2 0x8B JUMPI JUMPDEST PUSH1 0x0 DUP1 REVERT JUMPDEST CALLVALUE DUP1 ISZERO PUSH2 0x45 JUMPI PUSH1 0x0 DUP1 REVERT JUMPDEST POP PUSH2 0x60 PUSH1 0x4 DUP1 CALLDATASIZE SUB DUP2 ADD SWAP1 PUSH2 0x5B SWAP2 SWAP1 PUSH2 0x1A2 JUMP JUMPDEST PUSH2 0x95 JUMP JUMPDEST STOP JUMPDEST CALLVALUE DUP1 ISZERO PUSH2 0x6E JUMPI PUSH1 0x0 DUP1 REVERT JUMPDEST POP PUSH2 0x89 PUSH1 0x4 DUP1 CALLDATASIZE SUB DUP2 ADD SWAP1 PUSH2 0x84 SWAP2 SWAP1 PUSH2 0x1CF JUMP JUMPDEST PUSH2 0x173 JUMP JUMPDEST STOP JUMPDEST PUSH2 0x93 PUSH2 0x176 JUMP JUMPDEST STOP JUMPDEST PUSH1 0x0 DUP1 SLOAD SWAP1 PUSH2 0x100 EXP SWAP1 DIV PUSH20 0xFFFFFFFFFFFFFFFFFFFFFFFFFFFFFFFFFFFFFFFF AND PUSH20 0xFFFFFFFFFFFFFFFFFFFFFFFFFFFFFFFFFFFFFFFF AND CALLER PUSH20 0xFFFFFFFFFFFFFFFFFFFFFFFFFFFFFFFFFFFFFFFF AND EQ PUSH2 0x123 JUMPI PUSH1 0x40 MLOAD PUSH32 0x8C379A000000000000000000000000000000000000000000000000000000000 DUP2 MSTORE PUSH1 0x4 ADD PUSH2 0x11A SWAP1 PUSH2 0x21F JUMP JUMPDEST PUSH1 0x40 MLOAD DUP1 SWAP2 SUB SWAP1 REVERT JUMPDEST PUSH1 0x0 SELFBALANCE SWAP1 POP DUP2 PUSH20 0xFFFFFFFFFFFFFFFFFFFFFFFFFFFFFFFFFFFFFFFF AND PUSH2 0x8FC DUP3 SWAP1 DUP2 ISZERO MUL SWAP1 PUSH1 0x40 MLOAD PUSH1 0x0 PUSH1 0x40 MLOAD DUP1 DUP4 SUB DUP2 DUP6 DUP9 DUP9 CALL SWAP4 POP POP POP POP ISZERO DUP1 ISZERO PUSH2 0x16E JUMPI RETURNDATASIZE PUSH1 0x0 DUP1 RETURNDATACOPY RETURNDATASIZE PUSH1 0x0 REVERT JUMPDEST POP POP POP JUMP JUMPDEST POP JUMP JUMPDEST JUMP JUMPDEST PUSH1 0x0 DUP2 CALLDATALOAD SWAP1 POP PUSH2 0x187 DUP2 PUSH2 0x2BC JUMP JUMPDEST SWAP3 SWAP2 POP POP JUMP JUMPDEST PUSH1 0x0 DUP2 CALLDATALOAD SWAP1 POP PUSH2 0x19C DUP2 PUSH2 0x2D3 JUMP JUMPDEST SWAP3 SWAP2 POP POP JUMP JUMPDEST PUSH1 0x0 PUSH1 0x20 DUP3 DUP5 SUB SLT ISZERO PUSH2 0x1B8 JUMPI PUSH2 0x1B7 PUSH2 0x28E JUMP JUMPDEST JUMPDEST PUSH1 0x0 PUSH2 0x1C6 DUP5 DUP3 DUP6 ADD PUSH2 0x178 JUMP JUMPDEST SWAP2 POP POP SWAP3 SWAP2 POP POP JUMP JUMPDEST PUSH1 0x0 PUSH1 0x20 DUP3 DUP5 SUB SLT ISZERO PUSH2 0x1E5 JUMPI PUSH2 0x1E4 PUSH2 0x28E JUMP JUMPDEST JUMPDEST PUSH1 0x0 PUSH2 0x1F3 DUP5 DUP3 DUP6 ADD PUSH2 0x18D JUMP JUMPDEST SWAP2 POP POP SWAP3 SWAP2 POP POP JUMP JUMPDEST PUSH1 0x0 PUSH2 0x209 PUSH1 0x15 DUP4 PUSH2 0x23F JUMP JUMPDEST SWAP2 POP PUSH2 0x214 DUP3 PUSH2 0x293 JUMP JUMPDEST PUSH1 0x20 DUP3 ADD SWAP1 POP SWAP2 SWAP1 POP JUMP JUMPDEST PUSH1 0x0 PUSH1 0x20 DUP3 ADD SWAP1 POP DUP2 DUP2 SUB PUSH1 0x0 DUP4 ADD MSTORE PUSH2 0x238 DUP2 PUSH2 0x1FC JUMP JUMPDEST SWAP1 POP SWAP2 SWAP1 POP JUMP JUMPDEST PUSH1 0x0 DUP3 DUP3 MSTORE PUSH1 0x20 DUP3 ADD SWAP1 POP SWAP3 SWAP2 POP POP JUMP JUMPDEST PUSH1 0x0 PUSH2 0x25B DUP3 PUSH2 0x26E JUMP JUMPDEST SWAP1 POP SWAP2 SWAP1 POP JUMP JUMPDEST PUSH1 0x0 DUP2 ISZERO ISZERO SWAP1 POP SWAP2 SWAP1 POP JUMP JUMPDEST PUSH1 0x0 PUSH20 0xFFFFFFFFFFFFFFFFFFFFFFFFFFFFFFFFFFFFFFFF DUP3 AND SWAP1 POP SWAP2 SWAP1 POP JUMP JUMPDEST PUSH1 0x0 DUP1 REVERT JUMPDEST PUSH32 0x596F7520617265206E6F7420746865206F776E65720000000000000000000000 PUSH1 0x0 DUP3 ADD MSTORE POP JUMP JUMPDEST PUSH2 0x2C5 DUP2 PUSH2 0x250 JUMP JUMPDEST DUP2 EQ PUSH2 0x2D0 JUMPI PUSH1 0x0 DUP1 REVERT JUMPDEST POP JUMP JUMPDEST PUSH2 0x2DC DUP2 PUSH2 0x262 JUMP JUMPDEST DUP2 EQ PUSH2 0x2E7 JUMPI PUSH1 0x0 DUP1 REVERT JUMPDEST POP JUMP INVALID LOG2 PUSH5 0x6970667358 0x22 SLT KECCAK256 MOD 0xFC SSTORE 0x25 0x5D PUSH24 0x2721D816ACCFA17537FFCDF7E8E88462D4608E410F974B0C 0xDA 0xD2 PUSH5 0x736F6C6343 STOP ADDMOD SMOD STOP CALLER "
				},
				"gasEstimates": {
					"creation": {
						"codeDepositCost": "160000",
						"executionCost": "24468",
						"totalCost": "184468"
					},
					"external": {
						"sendMoneyToContract()": "142",
						"setPaused(bool)": "412",
						"withdrawAllMoneyFromContract(address)": "infinite"
					}
				},
				"methodIdentifiers": {
					"sendMoneyToContract()": "8aecbc51",
					"setPaused(bool)": "16c38b3c",
					"withdrawAllMoneyFromContract(address)": "02cb59e7"
				}
			},
			"storageLayout": {
				"storage": [
					{
						"astId": 3,
						"contract": "startstopupdate/StartStopAndUpdate.sol:StartStopUpdateContract",
						"label": "owner",
						"offset": 0,
						"slot": "0",
						"type": "t_address"
					},
					{
						"astId": 5,
						"contract": "startstopupdate/StartStopAndUpdate.sol:StartStopUpdateContract",
						"label": "paused",
						"offset": 20,
						"slot": "0",
						"type": "t_bool"
					}
				],
				"types": {
					"t_address": {
						"encoding": "inplace",
						"label": "address",
						"numberOfBytes": "20"
					},
					"t_bool": {
						"encoding": "inplace",
						"label": "bool",
						"numberOfBytes": "1"
					}
				}
			},
			"userdoc": {
				"kind": "user",
				"methods": {},
				"version": 1
			}
		}
	}
}